{
	"contracts/loteriaGuille.sol": {
		"LoteriaGuille": {
			"abi": [
				{
					"inputs": [],
					"stateMutability": "nonpayable",
					"type": "constructor"
				},
				{
					"anonymous": false,
					"inputs": [
						{
							"indexed": true,
							"internalType": "address",
							"name": "ganador",
							"type": "address"
						},
						{
							"indexed": false,
							"internalType": "uint256",
							"name": "numero",
							"type": "uint256"
						}
					],
					"name": "LoteriaFinalizada",
					"type": "event"
				},
				{
					"anonymous": false,
					"inputs": [
						{
							"indexed": true,
							"internalType": "address",
							"name": "ofertante",
							"type": "address"
						},
						{
							"indexed": false,
							"internalType": "uint256",
							"name": "numero",
							"type": "uint256"
						}
					],
					"name": "NuevoParticipante",
					"type": "event"
				},
				{
					"inputs": [
						{
							"internalType": "uint256",
							"name": "_numero",
							"type": "uint256"
						}
					],
					"name": "concursar",
					"outputs": [],
					"stateMutability": "payable",
					"type": "function"
				},
				{
					"inputs": [
						{
							"internalType": "address",
							"name": "",
							"type": "address"
						}
					],
					"name": "deposits",
					"outputs": [
						{
							"internalType": "uint256",
							"name": "",
							"type": "uint256"
						}
					],
					"stateMutability": "view",
					"type": "function"
				},
				{
					"inputs": [],
					"name": "ganador",
					"outputs": [
						{
							"internalType": "address",
							"name": "",
							"type": "address"
						}
					],
					"stateMutability": "view",
					"type": "function"
				},
				{
					"inputs": [],
					"name": "isActive",
					"outputs": [
						{
							"internalType": "bool",
							"name": "",
							"type": "bool"
						}
					],
					"stateMutability": "view",
					"type": "function"
				},
				{
					"inputs": [],
					"name": "mostrarConcursantes",
					"outputs": [
						{
							"components": [
								{
									"internalType": "address",
									"name": "participante",
									"type": "address"
								},
								{
									"internalType": "uint256",
									"name": "numero",
									"type": "uint256"
								}
							],
							"internalType": "struct LoteriaGuille.Participante[]",
							"name": "",
							"type": "tuple[]"
						}
					],
					"stateMutability": "view",
					"type": "function"
				},
				{
					"inputs": [],
					"name": "owner",
					"outputs": [
						{
							"internalType": "address",
							"name": "",
							"type": "address"
						}
					],
					"stateMutability": "view",
					"type": "function"
				},
				{
					"inputs": [
						{
							"internalType": "uint256",
							"name": "",
							"type": "uint256"
						}
					],
					"name": "participantes",
					"outputs": [
						{
							"internalType": "address",
							"name": "participante",
							"type": "address"
						},
						{
							"internalType": "uint256",
							"name": "numero",
							"type": "uint256"
						}
					],
					"stateMutability": "view",
					"type": "function"
				},
				{
					"inputs": [],
					"name": "sortear",
					"outputs": [],
					"stateMutability": "nonpayable",
					"type": "function"
				}
			],
			"devdoc": {
				"kind": "dev",
				"methods": {},
				"version": 1
			},
			"evm": {
				"assembly": "    /* \"contracts/loteriaGuille.sol\":142:2446  contract LoteriaGuille {... */\n  mstore(0x40, 0x80)\n    /* \"contracts/loteriaGuille.sol\":807:911  constructor() {... */\n  callvalue\n  dup1\n  iszero\n  tag_1\n  jumpi\n  0x00\n  dup1\n  revert\ntag_1:\n  pop\n    /* \"contracts/loteriaGuille.sol\":839:849  msg.sender */\n  caller\n    /* \"contracts/loteriaGuille.sol\":831:836  owner */\n  0x00\n  dup1\n    /* \"contracts/loteriaGuille.sol\":831:849  owner = msg.sender */\n  0x0100\n  exp\n  dup2\n  sload\n  dup2\n  0xffffffffffffffffffffffffffffffffffffffff\n  mul\n  not\n  and\n  swap1\n  dup4\n  0xffffffffffffffffffffffffffffffffffffffff\n  and\n  mul\n  or\n  swap1\n  sstore\n  pop\n    /* \"contracts/loteriaGuille.sol\":870:874  true */\n  0x01\n    /* \"contracts/loteriaGuille.sol\":859:867  isActive */\n  0x00\n  0x14\n    /* \"contracts/loteriaGuille.sol\":859:874  isActive = true */\n  0x0100\n  exp\n  dup2\n  sload\n  dup2\n  0xff\n  mul\n  not\n  and\n  swap1\n  dup4\n  iszero\n  iszero\n  mul\n  or\n  swap1\n  sstore\n  pop\n    /* \"contracts/loteriaGuille.sol\":902:903  0 */\n  0x00\n    /* \"contracts/loteriaGuille.sol\":884:891  ganador */\n  0x01\n  0x00\n    /* \"contracts/loteriaGuille.sol\":884:904  ganador = address(0) */\n  0x0100\n  exp\n  dup2\n  sload\n  dup2\n  0xffffffffffffffffffffffffffffffffffffffff\n  mul\n  not\n  and\n  swap1\n  dup4\n  0xffffffffffffffffffffffffffffffffffffffff\n  and\n  mul\n  or\n  swap1\n  sstore\n  pop\n    /* \"contracts/loteriaGuille.sol\":142:2446  contract LoteriaGuille {... */\n  dataSize(sub_0)\n  dup1\n  dataOffset(sub_0)\n  0x00\n  codecopy\n  0x00\n  return\nstop\n\nsub_0: assembly {\n        /* \"contracts/loteriaGuille.sol\":142:2446  contract LoteriaGuille {... */\n      mstore(0x40, 0x80)\n      jumpi(tag_1, lt(calldatasize, 0x04))\n      shr(0xe0, calldataload(0x00))\n      dup1\n      0x9114bde8\n      gt\n      tag_10\n      jumpi\n      dup1\n      0x9114bde8\n      eq\n      tag_6\n      jumpi\n      dup1\n      0xb25924c1\n      eq\n      tag_7\n      jumpi\n      dup1\n      0xfc7e286d\n      eq\n      tag_8\n      jumpi\n      dup1\n      0xfe006996\n      eq\n      tag_9\n      jumpi\n      jump(tag_1)\n    tag_10:\n      dup1\n      0x22f3e2d4\n      eq\n      tag_2\n      jumpi\n      dup1\n      0x8ade2ac4\n      eq\n      tag_3\n      jumpi\n      dup1\n      0x8da5cb5b\n      eq\n      tag_4\n      jumpi\n      dup1\n      0x90bfbc42\n      eq\n      tag_5\n      jumpi\n    tag_1:\n      0x00\n      dup1\n      revert\n        /* \"contracts/loteriaGuille.sol\":197:217  bool public isActive */\n    tag_2:\n      callvalue\n      dup1\n      iszero\n      tag_11\n      jumpi\n      0x00\n      dup1\n      revert\n    tag_11:\n      pop\n      tag_12\n      tag_13\n      jump\t// in\n    tag_12:\n      mload(0x40)\n      tag_14\n      swap2\n      swap1\n      tag_15\n      jump\t// in\n    tag_14:\n      mload(0x40)\n      dup1\n      swap2\n      sub\n      swap1\n      return\n        /* \"contracts/loteriaGuille.sol\":1377:2442  function sortear() public soloOwner {... */\n    tag_3:\n      callvalue\n      dup1\n      iszero\n      tag_16\n      jumpi\n      0x00\n      dup1\n      revert\n    tag_16:\n      pop\n      tag_17\n      tag_18\n      jump\t// in\n    tag_17:\n      stop\n        /* \"contracts/loteriaGuille.sol\":171:191  address public owner */\n    tag_4:\n      callvalue\n      dup1\n      iszero\n      tag_19\n      jumpi\n      0x00\n      dup1\n      revert\n    tag_19:\n      pop\n      tag_20\n      tag_21\n      jump\t// in\n    tag_20:\n      mload(0x40)\n      tag_22\n      swap2\n      swap1\n      tag_23\n      jump\t// in\n    tag_22:\n      mload(0x40)\n      dup1\n      swap2\n      sub\n      swap1\n      return\n        /* \"contracts/loteriaGuille.sol\":917:1253  function concursar(uint256 _numero) public payable loteriaActiva {... */\n    tag_5:\n      tag_24\n      0x04\n      dup1\n      calldatasize\n      sub\n      dup2\n      add\n      swap1\n      tag_25\n      swap2\n      swap1\n      tag_26\n      jump\t// in\n    tag_25:\n      tag_27\n      jump\t// in\n    tag_24:\n      stop\n        /* \"contracts/loteriaGuille.sol\":223:245  address public ganador */\n    tag_6:\n      callvalue\n      dup1\n      iszero\n      tag_28\n      jumpi\n      0x00\n      dup1\n      revert\n    tag_28:\n      pop\n      tag_29\n      tag_30\n      jump\t// in\n    tag_29:\n      mload(0x40)\n      tag_31\n      swap2\n      swap1\n      tag_23\n      jump\t// in\n    tag_31:\n      mload(0x40)\n      dup1\n      swap2\n      sub\n      swap1\n      return\n        /* \"contracts/loteriaGuille.sol\":388:423  Participante[] public participantes */\n    tag_7:\n      callvalue\n      dup1\n      iszero\n      tag_32\n      jumpi\n      0x00\n      dup1\n      revert\n    tag_32:\n      pop\n      tag_33\n      0x04\n      dup1\n      calldatasize\n      sub\n      dup2\n      add\n      swap1\n      tag_34\n      swap2\n      swap1\n      tag_26\n      jump\t// in\n    tag_34:\n      tag_35\n      jump\t// in\n    tag_33:\n      mload(0x40)\n      tag_36\n      swap3\n      swap2\n      swap1\n      tag_37\n      jump\t// in\n    tag_36:\n      mload(0x40)\n      dup1\n      swap2\n      sub\n      swap1\n      return\n        /* \"contracts/loteriaGuille.sol\":339:382  mapping(address => uint256) public deposits */\n    tag_8:\n      callvalue\n      dup1\n      iszero\n      tag_38\n      jumpi\n      0x00\n      dup1\n      revert\n    tag_38:\n      pop\n      tag_39\n      0x04\n      dup1\n      calldatasize\n      sub\n      dup2\n      add\n      swap1\n      tag_40\n      swap2\n      swap1\n      tag_41\n      jump\t// in\n    tag_40:\n      tag_42\n      jump\t// in\n    tag_39:\n      mload(0x40)\n      tag_43\n      swap2\n      swap1\n      tag_44\n      jump\t// in\n    tag_43:\n      mload(0x40)\n      dup1\n      swap2\n      sub\n      swap1\n      return\n        /* \"contracts/loteriaGuille.sol\":1259:1371  function mostrarConcursantes() public view returns (Participante[] memory) {... */\n    tag_9:\n      callvalue\n      dup1\n      iszero\n      tag_45\n      jumpi\n      0x00\n      dup1\n      revert\n    tag_45:\n      pop\n      tag_46\n      tag_47\n      jump\t// in\n    tag_46:\n      mload(0x40)\n      tag_48\n      swap2\n      swap1\n      tag_49\n      jump\t// in\n    tag_48:\n      mload(0x40)\n      dup1\n      swap2\n      sub\n      swap1\n      return\n        /* \"contracts/loteriaGuille.sol\":197:217  bool public isActive */\n    tag_13:\n      0x00\n      0x14\n      swap1\n      sload\n      swap1\n      0x0100\n      exp\n      swap1\n      div\n      0xff\n      and\n      dup2\n      jump\t// out\n        /* \"contracts/loteriaGuille.sol\":1377:2442  function sortear() public soloOwner {... */\n    tag_18:\n        /* \"contracts/loteriaGuille.sol\":626:631  owner */\n      0x00\n      dup1\n      sload\n      swap1\n      0x0100\n      exp\n      swap1\n      div\n      0xffffffffffffffffffffffffffffffffffffffff\n      and\n        /* \"contracts/loteriaGuille.sol\":612:631  msg.sender == owner */\n      0xffffffffffffffffffffffffffffffffffffffff\n      and\n        /* \"contracts/loteriaGuille.sol\":612:622  msg.sender */\n      caller\n        /* \"contracts/loteriaGuille.sol\":612:631  msg.sender == owner */\n      0xffffffffffffffffffffffffffffffffffffffff\n      and\n      eq\n        /* \"contracts/loteriaGuille.sol\":604:680  require(msg.sender == owner, \"No tienes permiso para ejecutar esta funcion\") */\n      tag_51\n      jumpi\n      mload(0x40)\n      0x08c379a000000000000000000000000000000000000000000000000000000000\n      dup2\n      mstore\n      0x04\n      add\n      tag_52\n      swap1\n      tag_53\n      jump\t// in\n    tag_52:\n      mload(0x40)\n      dup1\n      swap2\n      sub\n      swap1\n      revert\n    tag_51:\n        /* \"contracts/loteriaGuille.sol\":1431:1439  isActive */\n      0x00\n      0x14\n      swap1\n      sload\n      swap1\n      0x0100\n      exp\n      swap1\n      div\n      0xff\n      and\n        /* \"contracts/loteriaGuille.sol\":1423:1476  require(isActive, \"La loteria ya ha sido finalizada\") */\n      tag_55\n      jumpi\n      mload(0x40)\n      0x08c379a000000000000000000000000000000000000000000000000000000000\n      dup2\n      mstore\n      0x04\n      add\n      tag_56\n      swap1\n      tag_57\n      jump\t// in\n    tag_56:\n      mload(0x40)\n      dup1\n      swap2\n      sub\n      swap1\n      revert\n    tag_55:\n        /* \"contracts/loteriaGuille.sol\":1517:1518  0 */\n      0x00\n        /* \"contracts/loteriaGuille.sol\":1494:1507  participantes */\n      0x03\n        /* \"contracts/loteriaGuille.sol\":1494:1514  participantes.length */\n      dup1\n      sload\n      swap1\n      pop\n        /* \"contracts/loteriaGuille.sol\":1494:1518  participantes.length > 0 */\n      gt\n        /* \"contracts/loteriaGuille.sol\":1486:1557  require(participantes.length > 0, \"No hay participantes en la loteria\") */\n      tag_58\n      jumpi\n      mload(0x40)\n      0x08c379a000000000000000000000000000000000000000000000000000000000\n      dup2\n      mstore\n      0x04\n      add\n      tag_59\n      swap1\n      tag_60\n      jump\t// in\n    tag_59:\n      mload(0x40)\n      dup1\n      swap2\n      sub\n      swap1\n      revert\n    tag_58:\n        /* \"contracts/loteriaGuille.sol\":1614:1633  uint256 randomIndex */\n      0x00\n        /* \"contracts/loteriaGuille.sol\":1774:1787  participantes */\n      0x03\n        /* \"contracts/loteriaGuille.sol\":1774:1794  participantes.length */\n      dup1\n      sload\n      swap1\n      pop\n        /* \"contracts/loteriaGuille.sol\":1701:1716  block.timestamp */\n      timestamp\n        /* \"contracts/loteriaGuille.sol\":1718:1734  block.prevrandao */\n      prevrandao\n        /* \"contracts/loteriaGuille.sol\":1736:1746  msg.sender */\n      caller\n        /* \"contracts/loteriaGuille.sol\":1684:1747  abi.encodePacked(block.timestamp, block.prevrandao, msg.sender) */\n      add(0x20, mload(0x40))\n      tag_61\n      swap4\n      swap3\n      swap2\n      swap1\n      tag_62\n      jump\t// in\n    tag_61:\n      mload(0x40)\n      0x20\n      dup2\n      dup4\n      sub\n      sub\n      dup2\n      mstore\n      swap1\n      0x40\n      mstore\n        /* \"contracts/loteriaGuille.sol\":1657:1761  keccak256(... */\n      dup1\n      mload\n      swap1\n      0x20\n      add\n      keccak256\n        /* \"contracts/loteriaGuille.sol\":1636:1771  uint256(... */\n      0x00\n      shr\n        /* \"contracts/loteriaGuille.sol\":1636:1794  uint256(... */\n      tag_63\n      swap2\n      swap1\n      tag_64\n      jump\t// in\n    tag_63:\n        /* \"contracts/loteriaGuille.sol\":1614:1794  uint256 randomIndex = uint256(... */\n      swap1\n      pop\n        /* \"contracts/loteriaGuille.sol\":1849:1862  participantes */\n      0x03\n        /* \"contracts/loteriaGuille.sol\":1863:1874  randomIndex */\n      dup2\n        /* \"contracts/loteriaGuille.sol\":1849:1875  participantes[randomIndex] */\n      dup2\n      sload\n      dup2\n      lt\n      tag_65\n      jumpi\n      tag_66\n      tag_67\n      jump\t// in\n    tag_66:\n    tag_65:\n      swap1\n      0x00\n      mstore\n      keccak256(0x00, 0x20)\n      swap1\n      0x02\n      mul\n      add\n        /* \"contracts/loteriaGuille.sol\":1849:1888  participantes[randomIndex].participante */\n      0x00\n      add\n      0x00\n      swap1\n      sload\n      swap1\n      0x0100\n      exp\n      swap1\n      div\n      0xffffffffffffffffffffffffffffffffffffffff\n      and\n        /* \"contracts/loteriaGuille.sol\":1839:1846  ganador */\n      0x01\n      0x00\n        /* \"contracts/loteriaGuille.sol\":1839:1888  ganador = participantes[randomIndex].participante */\n      0x0100\n      exp\n      dup2\n      sload\n      dup2\n      0xffffffffffffffffffffffffffffffffffffffff\n      mul\n      not\n      and\n      swap1\n      dup4\n      0xffffffffffffffffffffffffffffffffffffffff\n      and\n      mul\n      or\n      swap1\n      sstore\n      pop\n        /* \"contracts/loteriaGuille.sol\":1968:1982  uint256 premio */\n      0x00\n        /* \"contracts/loteriaGuille.sol\":1985:2006  address(this).balance */\n      selfbalance\n        /* \"contracts/loteriaGuille.sol\":1968:2006  uint256 premio = address(this).balance */\n      swap1\n      pop\n        /* \"contracts/loteriaGuille.sol\":2082:2087  false */\n      0x00\n        /* \"contracts/loteriaGuille.sol\":2071:2079  isActive */\n      dup1\n      0x14\n        /* \"contracts/loteriaGuille.sol\":2071:2087  isActive = false */\n      0x0100\n      exp\n      dup2\n      sload\n      dup2\n      0xff\n      mul\n      not\n      and\n      swap1\n      dup4\n      iszero\n      iszero\n      mul\n      or\n      swap1\n      sstore\n      pop\n        /* \"contracts/loteriaGuille.sol\":2157:2169  bool success */\n      0x00\n        /* \"contracts/loteriaGuille.sol\":2175:2182  ganador */\n      0x01\n      0x00\n      swap1\n      sload\n      swap1\n      0x0100\n      exp\n      swap1\n      div\n      0xffffffffffffffffffffffffffffffffffffffff\n      and\n        /* \"contracts/loteriaGuille.sol\":2175:2187  ganador.call */\n      0xffffffffffffffffffffffffffffffffffffffff\n      and\n        /* \"contracts/loteriaGuille.sol\":2195:2201  premio */\n      dup3\n        /* \"contracts/loteriaGuille.sol\":2175:2206  ganador.call{value: premio}(\"\") */\n      mload(0x40)\n      tag_69\n      swap1\n      tag_70\n      jump\t// in\n    tag_69:\n      0x00\n      mload(0x40)\n      dup1\n      dup4\n      sub\n      dup2\n      dup6\n      dup8\n      gas\n      call\n      swap3\n      pop\n      pop\n      pop\n      returndatasize\n      dup1\n      0x00\n      dup2\n      eq\n      tag_73\n      jumpi\n      mload(0x40)\n      swap2\n      pop\n      and(add(returndatasize, 0x3f), not(0x1f))\n      dup3\n      add\n      0x40\n      mstore\n      returndatasize\n      dup3\n      mstore\n      returndatasize\n      0x00\n      0x20\n      dup5\n      add\n      returndatacopy\n      jump(tag_72)\n    tag_73:\n      0x60\n      swap2\n      pop\n    tag_72:\n      pop\n        /* \"contracts/loteriaGuille.sol\":2156:2206  (bool success, ) = ganador.call{value: premio}(\"\") */\n      pop\n      swap1\n      pop\n        /* \"contracts/loteriaGuille.sol\":2224:2231  success */\n      dup1\n        /* \"contracts/loteriaGuille.sol\":2216:2284  require(success, \"La transferencia de fondos al ganador ha fallado\") */\n      tag_74\n      jumpi\n      mload(0x40)\n      0x08c379a000000000000000000000000000000000000000000000000000000000\n      dup2\n      mstore\n      0x04\n      add\n      tag_75\n      swap1\n      tag_76\n      jump\t// in\n    tag_75:\n      mload(0x40)\n      dup1\n      swap2\n      sub\n      swap1\n      revert\n    tag_74:\n        /* \"contracts/loteriaGuille.sol\":2396:2403  ganador */\n      0x01\n      0x00\n      swap1\n      sload\n      swap1\n      0x0100\n      exp\n      swap1\n      div\n      0xffffffffffffffffffffffffffffffffffffffff\n      and\n        /* \"contracts/loteriaGuille.sol\":2378:2439  LoteriaFinalizada(ganador, participantes[randomIndex].numero) */\n      0xffffffffffffffffffffffffffffffffffffffff\n      and\n      0x12ea6c23e511e55c52a9fb1da8e50984ca5694ef1729b2be6288db49c81351de\n        /* \"contracts/loteriaGuille.sol\":2405:2418  participantes */\n      0x03\n        /* \"contracts/loteriaGuille.sol\":2419:2430  randomIndex */\n      dup6\n        /* \"contracts/loteriaGuille.sol\":2405:2431  participantes[randomIndex] */\n      dup2\n      sload\n      dup2\n      lt\n      tag_77\n      jumpi\n      tag_78\n      tag_67\n      jump\t// in\n    tag_78:\n    tag_77:\n      swap1\n      0x00\n      mstore\n      keccak256(0x00, 0x20)\n      swap1\n      0x02\n      mul\n      add\n        /* \"contracts/loteriaGuille.sol\":2405:2438  participantes[randomIndex].numero */\n      0x01\n      add\n      sload\n        /* \"contracts/loteriaGuille.sol\":2378:2439  LoteriaFinalizada(ganador, participantes[randomIndex].numero) */\n      mload(0x40)\n      tag_80\n      swap2\n      swap1\n      tag_44\n      jump\t// in\n    tag_80:\n      mload(0x40)\n      dup1\n      swap2\n      sub\n      swap1\n      log2\n        /* \"contracts/loteriaGuille.sol\":1413:2442  {... */\n      pop\n      pop\n      pop\n        /* \"contracts/loteriaGuille.sol\":1377:2442  function sortear() public soloOwner {... */\n      jump\t// out\n        /* \"contracts/loteriaGuille.sol\":171:191  address public owner */\n    tag_21:\n      0x00\n      dup1\n      sload\n      swap1\n      0x0100\n      exp\n      swap1\n      div\n      0xffffffffffffffffffffffffffffffffffffffff\n      and\n      dup2\n      jump\t// out\n        /* \"contracts/loteriaGuille.sol\":917:1253  function concursar(uint256 _numero) public payable loteriaActiva {... */\n    tag_27:\n        /* \"contracts/loteriaGuille.sol\":747:755  isActive */\n      0x00\n      0x14\n      swap1\n      sload\n      swap1\n      0x0100\n      exp\n      swap1\n      div\n      0xff\n      and\n        /* \"contracts/loteriaGuille.sol\":739:783  require(isActive, \"La loteria esta cerrada\") */\n      tag_82\n      jumpi\n      mload(0x40)\n      0x08c379a000000000000000000000000000000000000000000000000000000000\n      dup2\n      mstore\n      0x04\n      add\n      tag_83\n      swap1\n      tag_84\n      jump\t// in\n    tag_83:\n      mload(0x40)\n      dup1\n      swap2\n      sub\n      swap1\n      revert\n    tag_82:\n        /* \"contracts/loteriaGuille.sol\":1013:1014  1 */\n      0x01\n        /* \"contracts/loteriaGuille.sol\":1000:1009  msg.value */\n      callvalue\n        /* \"contracts/loteriaGuille.sol\":1000:1014  msg.value >= 1 */\n      lt\n      iszero\n        /* \"contracts/loteriaGuille.sol\":992:1071  require(msg.value >= 1, \"El monto debe ser al menos de 1 wei para participar.\") */\n      tag_86\n      jumpi\n      mload(0x40)\n      0x08c379a000000000000000000000000000000000000000000000000000000000\n      dup2\n      mstore\n      0x04\n      add\n      tag_87\n      swap1\n      tag_88\n      jump\t// in\n    tag_87:\n      mload(0x40)\n      dup1\n      swap2\n      sub\n      swap1\n      revert\n    tag_86:\n        /* \"contracts/loteriaGuille.sol\":1100:1103  150 */\n      0x96\n        /* \"contracts/loteriaGuille.sol\":1089:1096  _numero */\n      dup2\n        /* \"contracts/loteriaGuille.sol\":1089:1103  _numero <= 150 */\n      gt\n      iszero\n        /* \"contracts/loteriaGuille.sol\":1081:1128  require(_numero <= 150, \"Son solo 150 numeros\") */\n      tag_89\n      jumpi\n      mload(0x40)\n      0x08c379a000000000000000000000000000000000000000000000000000000000\n      dup2\n      mstore\n      0x04\n      add\n      tag_90\n      swap1\n      tag_91\n      jump\t// in\n    tag_90:\n      mload(0x40)\n      dup1\n      swap2\n      sub\n      swap1\n      revert\n    tag_89:\n        /* \"contracts/loteriaGuille.sol\":1139:1152  participantes */\n      0x03\n        /* \"contracts/loteriaGuille.sol\":1158:1191  Participante(msg.sender, _numero) */\n      mload(0x40)\n      dup1\n      0x40\n      add\n      0x40\n      mstore\n      dup1\n        /* \"contracts/loteriaGuille.sol\":1171:1181  msg.sender */\n      caller\n        /* \"contracts/loteriaGuille.sol\":1158:1191  Participante(msg.sender, _numero) */\n      0xffffffffffffffffffffffffffffffffffffffff\n      and\n      dup2\n      mstore\n      0x20\n      add\n        /* \"contracts/loteriaGuille.sol\":1183:1190  _numero */\n      dup4\n        /* \"contracts/loteriaGuille.sol\":1158:1191  Participante(msg.sender, _numero) */\n      dup2\n      mstore\n      pop\n        /* \"contracts/loteriaGuille.sol\":1139:1192  participantes.push(Participante(msg.sender, _numero)) */\n      swap1\n      dup1\n      0x01\n      dup2\n      sload\n      add\n      dup1\n      dup3\n      sstore\n      dup1\n      swap2\n      pop\n      pop\n      0x01\n      swap1\n      sub\n      swap1\n      0x00\n      mstore\n      keccak256(0x00, 0x20)\n      swap1\n      0x02\n      mul\n      add\n      0x00\n      swap1\n      swap2\n      swap1\n      swap2\n      swap1\n      swap2\n      pop\n      0x00\n      dup3\n      add\n      mload\n      dup2\n      0x00\n      add\n      exp(0x0100, 0x00)\n      dup2\n      sload\n      dup2\n      0xffffffffffffffffffffffffffffffffffffffff\n      mul\n      not\n      and\n      swap1\n      dup4\n      0xffffffffffffffffffffffffffffffffffffffff\n      and\n      mul\n      or\n      swap1\n      sstore\n      pop\n      0x20\n      dup3\n      add\n      mload\n      dup2\n      0x01\n      add\n      sstore\n      pop\n      pop\n        /* \"contracts/loteriaGuille.sol\":1226:1236  msg.sender */\n      caller\n        /* \"contracts/loteriaGuille.sol\":1208:1246  NuevoParticipante(msg.sender, _numero) */\n      0xffffffffffffffffffffffffffffffffffffffff\n      and\n      0x5b228daad84dd3fb69832cea9e93c4b19dcb156e88fa5626bca1b46643b1c8fc\n        /* \"contracts/loteriaGuille.sol\":1238:1245  _numero */\n      dup3\n        /* \"contracts/loteriaGuille.sol\":1208:1246  NuevoParticipante(msg.sender, _numero) */\n      mload(0x40)\n      tag_93\n      swap2\n      swap1\n      tag_44\n      jump\t// in\n    tag_93:\n      mload(0x40)\n      dup1\n      swap2\n      sub\n      swap1\n      log2\n        /* \"contracts/loteriaGuille.sol\":917:1253  function concursar(uint256 _numero) public payable loteriaActiva {... */\n      pop\n      jump\t// out\n        /* \"contracts/loteriaGuille.sol\":223:245  address public ganador */\n    tag_30:\n      0x01\n      0x00\n      swap1\n      sload\n      swap1\n      0x0100\n      exp\n      swap1\n      div\n      0xffffffffffffffffffffffffffffffffffffffff\n      and\n      dup2\n      jump\t// out\n        /* \"contracts/loteriaGuille.sol\":388:423  Participante[] public participantes */\n    tag_35:\n      0x03\n      dup2\n      dup2\n      sload\n      dup2\n      lt\n      tag_94\n      jumpi\n      0x00\n      dup1\n      revert\n    tag_94:\n      swap1\n      0x00\n      mstore\n      keccak256(0x00, 0x20)\n      swap1\n      0x02\n      mul\n      add\n      0x00\n      swap2\n      pop\n      swap1\n      pop\n      dup1\n      0x00\n      add\n      0x00\n      swap1\n      sload\n      swap1\n      0x0100\n      exp\n      swap1\n      div\n      0xffffffffffffffffffffffffffffffffffffffff\n      and\n      swap1\n      dup1\n      0x01\n      add\n      sload\n      swap1\n      pop\n      dup3\n      jump\t// out\n        /* \"contracts/loteriaGuille.sol\":339:382  mapping(address => uint256) public deposits */\n    tag_42:\n      mstore(0x20, 0x02)\n      dup1\n      0x00\n      mstore\n      keccak256(0x00, 0x40)\n      0x00\n      swap2\n      pop\n      swap1\n      pop\n      sload\n      dup2\n      jump\t// out\n        /* \"contracts/loteriaGuille.sol\":1259:1371  function mostrarConcursantes() public view returns (Participante[] memory) {... */\n    tag_47:\n        /* \"contracts/loteriaGuille.sol\":1311:1332  Participante[] memory */\n      0x60\n        /* \"contracts/loteriaGuille.sol\":1351:1364  participantes */\n      0x03\n        /* \"contracts/loteriaGuille.sol\":1344:1364  return participantes */\n      dup1\n      sload\n      dup1\n      0x20\n      mul\n      0x20\n      add\n      mload(0x40)\n      swap1\n      dup2\n      add\n      0x40\n      mstore\n      dup1\n      swap3\n      swap2\n      swap1\n      dup2\n      dup2\n      mstore\n      0x20\n      add\n      0x00\n      swap1\n    tag_97:\n      dup3\n      dup3\n      lt\n      iszero\n      tag_98\n      jumpi\n      dup4\n      dup3\n      swap1\n      0x00\n      mstore\n      keccak256(0x00, 0x20)\n      swap1\n      0x02\n      mul\n      add\n      mload(0x40)\n      dup1\n      0x40\n      add\n      0x40\n      mstore\n      swap1\n      dup2\n      0x00\n      dup3\n      add\n      0x00\n      swap1\n      sload\n      swap1\n      0x0100\n      exp\n      swap1\n      div\n      0xffffffffffffffffffffffffffffffffffffffff\n      and\n      0xffffffffffffffffffffffffffffffffffffffff\n      and\n      0xffffffffffffffffffffffffffffffffffffffff\n      and\n      dup2\n      mstore\n      0x20\n      add\n      0x01\n      dup3\n      add\n      sload\n      dup2\n      mstore\n      pop\n      pop\n      dup2\n      mstore\n      0x20\n      add\n      swap1\n      0x01\n      add\n      swap1\n      jump(tag_97)\n    tag_98:\n      pop\n      pop\n      pop\n      pop\n      swap1\n      pop\n        /* \"contracts/loteriaGuille.sol\":1259:1371  function mostrarConcursantes() public view returns (Participante[] memory) {... */\n      swap1\n      jump\t// out\n        /* \"#utility.yul\":7:97   */\n    tag_100:\n        /* \"#utility.yul\":41:48   */\n      0x00\n        /* \"#utility.yul\":84:89   */\n      dup2\n        /* \"#utility.yul\":77:90   */\n      iszero\n        /* \"#utility.yul\":70:91   */\n      iszero\n        /* \"#utility.yul\":59:91   */\n      swap1\n      pop\n        /* \"#utility.yul\":7:97   */\n      swap2\n      swap1\n      pop\n      jump\t// out\n        /* \"#utility.yul\":103:212   */\n    tag_101:\n        /* \"#utility.yul\":184:205   */\n      tag_151\n        /* \"#utility.yul\":199:204   */\n      dup2\n        /* \"#utility.yul\":184:205   */\n      tag_100\n      jump\t// in\n    tag_151:\n        /* \"#utility.yul\":179:182   */\n      dup3\n        /* \"#utility.yul\":172:206   */\n      mstore\n        /* \"#utility.yul\":103:212   */\n      pop\n      pop\n      jump\t// out\n        /* \"#utility.yul\":218:428   */\n    tag_15:\n        /* \"#utility.yul\":305:309   */\n      0x00\n        /* \"#utility.yul\":343:345   */\n      0x20\n        /* \"#utility.yul\":332:341   */\n      dup3\n        /* \"#utility.yul\":328:346   */\n      add\n        /* \"#utility.yul\":320:346   */\n      swap1\n      pop\n        /* \"#utility.yul\":356:421   */\n      tag_153\n        /* \"#utility.yul\":418:419   */\n      0x00\n        /* \"#utility.yul\":407:416   */\n      dup4\n        /* \"#utility.yul\":403:420   */\n      add\n        /* \"#utility.yul\":394:400   */\n      dup5\n        /* \"#utility.yul\":356:421   */\n      tag_101\n      jump\t// in\n    tag_153:\n        /* \"#utility.yul\":218:428   */\n      swap3\n      swap2\n      pop\n      pop\n      jump\t// out\n        /* \"#utility.yul\":434:560   */\n    tag_102:\n        /* \"#utility.yul\":471:478   */\n      0x00\n        /* \"#utility.yul\":511:553   */\n      0xffffffffffffffffffffffffffffffffffffffff\n        /* \"#utility.yul\":504:509   */\n      dup3\n        /* \"#utility.yul\":500:554   */\n      and\n        /* \"#utility.yul\":489:554   */\n      swap1\n      pop\n        /* \"#utility.yul\":434:560   */\n      swap2\n      swap1\n      pop\n      jump\t// out\n        /* \"#utility.yul\":566:662   */\n    tag_103:\n        /* \"#utility.yul\":603:610   */\n      0x00\n        /* \"#utility.yul\":632:656   */\n      tag_156\n        /* \"#utility.yul\":650:655   */\n      dup3\n        /* \"#utility.yul\":632:656   */\n      tag_102\n      jump\t// in\n    tag_156:\n        /* \"#utility.yul\":621:656   */\n      swap1\n      pop\n        /* \"#utility.yul\":566:662   */\n      swap2\n      swap1\n      pop\n      jump\t// out\n        /* \"#utility.yul\":668:786   */\n    tag_104:\n        /* \"#utility.yul\":755:779   */\n      tag_158\n        /* \"#utility.yul\":773:778   */\n      dup2\n        /* \"#utility.yul\":755:779   */\n      tag_103\n      jump\t// in\n    tag_158:\n        /* \"#utility.yul\":750:753   */\n      dup3\n        /* \"#utility.yul\":743:780   */\n      mstore\n        /* \"#utility.yul\":668:786   */\n      pop\n      pop\n      jump\t// out\n        /* \"#utility.yul\":792:1014   */\n    tag_23:\n        /* \"#utility.yul\":885:889   */\n      0x00\n        /* \"#utility.yul\":923:925   */\n      0x20\n        /* \"#utility.yul\":912:921   */\n      dup3\n        /* \"#utility.yul\":908:926   */\n      add\n        /* \"#utility.yul\":900:926   */\n      swap1\n      pop\n        /* \"#utility.yul\":936:1007   */\n      tag_160\n        /* \"#utility.yul\":1004:1005   */\n      0x00\n        /* \"#utility.yul\":993:1002   */\n      dup4\n        /* \"#utility.yul\":989:1006   */\n      add\n        /* \"#utility.yul\":980:986   */\n      dup5\n        /* \"#utility.yul\":936:1007   */\n      tag_104\n      jump\t// in\n    tag_160:\n        /* \"#utility.yul\":792:1014   */\n      swap3\n      swap2\n      pop\n      pop\n      jump\t// out\n        /* \"#utility.yul\":1101:1218   */\n    tag_106:\n        /* \"#utility.yul\":1210:1211   */\n      0x00\n        /* \"#utility.yul\":1207:1208   */\n      dup1\n        /* \"#utility.yul\":1200:1212   */\n      revert\n        /* \"#utility.yul\":1347:1424   */\n    tag_108:\n        /* \"#utility.yul\":1384:1391   */\n      0x00\n        /* \"#utility.yul\":1413:1418   */\n      dup2\n        /* \"#utility.yul\":1402:1418   */\n      swap1\n      pop\n        /* \"#utility.yul\":1347:1424   */\n      swap2\n      swap1\n      pop\n      jump\t// out\n        /* \"#utility.yul\":1430:1552   */\n    tag_109:\n        /* \"#utility.yul\":1503:1527   */\n      tag_166\n        /* \"#utility.yul\":1521:1526   */\n      dup2\n        /* \"#utility.yul\":1503:1527   */\n      tag_108\n      jump\t// in\n    tag_166:\n        /* \"#utility.yul\":1496:1501   */\n      dup2\n        /* \"#utility.yul\":1493:1528   */\n      eq\n        /* \"#utility.yul\":1483:1546   */\n      tag_167\n      jumpi\n        /* \"#utility.yul\":1542:1543   */\n      0x00\n        /* \"#utility.yul\":1539:1540   */\n      dup1\n        /* \"#utility.yul\":1532:1544   */\n      revert\n        /* \"#utility.yul\":1483:1546   */\n    tag_167:\n        /* \"#utility.yul\":1430:1552   */\n      pop\n      jump\t// out\n        /* \"#utility.yul\":1558:1697   */\n    tag_110:\n        /* \"#utility.yul\":1604:1609   */\n      0x00\n        /* \"#utility.yul\":1642:1648   */\n      dup2\n        /* \"#utility.yul\":1629:1649   */\n      calldataload\n        /* \"#utility.yul\":1620:1649   */\n      swap1\n      pop\n        /* \"#utility.yul\":1658:1691   */\n      tag_169\n        /* \"#utility.yul\":1685:1690   */\n      dup2\n        /* \"#utility.yul\":1658:1691   */\n      tag_109\n      jump\t// in\n    tag_169:\n        /* \"#utility.yul\":1558:1697   */\n      swap3\n      swap2\n      pop\n      pop\n      jump\t// out\n        /* \"#utility.yul\":1703:2032   */\n    tag_26:\n        /* \"#utility.yul\":1762:1768   */\n      0x00\n        /* \"#utility.yul\":1811:1813   */\n      0x20\n        /* \"#utility.yul\":1799:1808   */\n      dup3\n        /* \"#utility.yul\":1790:1797   */\n      dup5\n        /* \"#utility.yul\":1786:1809   */\n      sub\n        /* \"#utility.yul\":1782:1814   */\n      slt\n        /* \"#utility.yul\":1779:1898   */\n      iszero\n      tag_171\n      jumpi\n        /* \"#utility.yul\":1817:1896   */\n      tag_172\n      tag_106\n      jump\t// in\n    tag_172:\n        /* \"#utility.yul\":1779:1898   */\n    tag_171:\n        /* \"#utility.yul\":1937:1938   */\n      0x00\n        /* \"#utility.yul\":1962:2015   */\n      tag_173\n        /* \"#utility.yul\":2007:2014   */\n      dup5\n        /* \"#utility.yul\":1998:2004   */\n      dup3\n        /* \"#utility.yul\":1987:1996   */\n      dup6\n        /* \"#utility.yul\":1983:2005   */\n      add\n        /* \"#utility.yul\":1962:2015   */\n      tag_110\n      jump\t// in\n    tag_173:\n        /* \"#utility.yul\":1952:2015   */\n      swap2\n      pop\n        /* \"#utility.yul\":1908:2025   */\n      pop\n        /* \"#utility.yul\":1703:2032   */\n      swap3\n      swap2\n      pop\n      pop\n      jump\t// out\n        /* \"#utility.yul\":2038:2156   */\n    tag_111:\n        /* \"#utility.yul\":2125:2149   */\n      tag_175\n        /* \"#utility.yul\":2143:2148   */\n      dup2\n        /* \"#utility.yul\":2125:2149   */\n      tag_108\n      jump\t// in\n    tag_175:\n        /* \"#utility.yul\":2120:2123   */\n      dup3\n        /* \"#utility.yul\":2113:2150   */\n      mstore\n        /* \"#utility.yul\":2038:2156   */\n      pop\n      pop\n      jump\t// out\n        /* \"#utility.yul\":2162:2494   */\n    tag_37:\n        /* \"#utility.yul\":2283:2287   */\n      0x00\n        /* \"#utility.yul\":2321:2323   */\n      0x40\n        /* \"#utility.yul\":2310:2319   */\n      dup3\n        /* \"#utility.yul\":2306:2324   */\n      add\n        /* \"#utility.yul\":2298:2324   */\n      swap1\n      pop\n        /* \"#utility.yul\":2334:2405   */\n      tag_177\n        /* \"#utility.yul\":2402:2403   */\n      0x00\n        /* \"#utility.yul\":2391:2400   */\n      dup4\n        /* \"#utility.yul\":2387:2404   */\n      add\n        /* \"#utility.yul\":2378:2384   */\n      dup6\n        /* \"#utility.yul\":2334:2405   */\n      tag_104\n      jump\t// in\n    tag_177:\n        /* \"#utility.yul\":2415:2487   */\n      tag_178\n        /* \"#utility.yul\":2483:2485   */\n      0x20\n        /* \"#utility.yul\":2472:2481   */\n      dup4\n        /* \"#utility.yul\":2468:2486   */\n      add\n        /* \"#utility.yul\":2459:2465   */\n      dup5\n        /* \"#utility.yul\":2415:2487   */\n      tag_111\n      jump\t// in\n    tag_178:\n        /* \"#utility.yul\":2162:2494   */\n      swap4\n      swap3\n      pop\n      pop\n      pop\n      jump\t// out\n        /* \"#utility.yul\":2500:2622   */\n    tag_112:\n        /* \"#utility.yul\":2573:2597   */\n      tag_180\n        /* \"#utility.yul\":2591:2596   */\n      dup2\n        /* \"#utility.yul\":2573:2597   */\n      tag_103\n      jump\t// in\n    tag_180:\n        /* \"#utility.yul\":2566:2571   */\n      dup2\n        /* \"#utility.yul\":2563:2598   */\n      eq\n        /* \"#utility.yul\":2553:2616   */\n      tag_181\n      jumpi\n        /* \"#utility.yul\":2612:2613   */\n      0x00\n        /* \"#utility.yul\":2609:2610   */\n      dup1\n        /* \"#utility.yul\":2602:2614   */\n      revert\n        /* \"#utility.yul\":2553:2616   */\n    tag_181:\n        /* \"#utility.yul\":2500:2622   */\n      pop\n      jump\t// out\n        /* \"#utility.yul\":2628:2767   */\n    tag_113:\n        /* \"#utility.yul\":2674:2679   */\n      0x00\n        /* \"#utility.yul\":2712:2718   */\n      dup2\n        /* \"#utility.yul\":2699:2719   */\n      calldataload\n        /* \"#utility.yul\":2690:2719   */\n      swap1\n      pop\n        /* \"#utility.yul\":2728:2761   */\n      tag_183\n        /* \"#utility.yul\":2755:2760   */\n      dup2\n        /* \"#utility.yul\":2728:2761   */\n      tag_112\n      jump\t// in\n    tag_183:\n        /* \"#utility.yul\":2628:2767   */\n      swap3\n      swap2\n      pop\n      pop\n      jump\t// out\n        /* \"#utility.yul\":2773:3102   */\n    tag_41:\n        /* \"#utility.yul\":2832:2838   */\n      0x00\n        /* \"#utility.yul\":2881:2883   */\n      0x20\n        /* \"#utility.yul\":2869:2878   */\n      dup3\n        /* \"#utility.yul\":2860:2867   */\n      dup5\n        /* \"#utility.yul\":2856:2879   */\n      sub\n        /* \"#utility.yul\":2852:2884   */\n      slt\n        /* \"#utility.yul\":2849:2968   */\n      iszero\n      tag_185\n      jumpi\n        /* \"#utility.yul\":2887:2966   */\n      tag_186\n      tag_106\n      jump\t// in\n    tag_186:\n        /* \"#utility.yul\":2849:2968   */\n    tag_185:\n        /* \"#utility.yul\":3007:3008   */\n      0x00\n        /* \"#utility.yul\":3032:3085   */\n      tag_187\n        /* \"#utility.yul\":3077:3084   */\n      dup5\n        /* \"#utility.yul\":3068:3074   */\n      dup3\n        /* \"#utility.yul\":3057:3066   */\n      dup6\n        /* \"#utility.yul\":3053:3075   */\n      add\n        /* \"#utility.yul\":3032:3085   */\n      tag_113\n      jump\t// in\n    tag_187:\n        /* \"#utility.yul\":3022:3085   */\n      swap2\n      pop\n        /* \"#utility.yul\":2978:3095   */\n      pop\n        /* \"#utility.yul\":2773:3102   */\n      swap3\n      swap2\n      pop\n      pop\n      jump\t// out\n        /* \"#utility.yul\":3108:3330   */\n    tag_44:\n        /* \"#utility.yul\":3201:3205   */\n      0x00\n        /* \"#utility.yul\":3239:3241   */\n      0x20\n        /* \"#utility.yul\":3228:3237   */\n      dup3\n        /* \"#utility.yul\":3224:3242   */\n      add\n        /* \"#utility.yul\":3216:3242   */\n      swap1\n      pop\n        /* \"#utility.yul\":3252:3323   */\n      tag_189\n        /* \"#utility.yul\":3320:3321   */\n      0x00\n        /* \"#utility.yul\":3309:3318   */\n      dup4\n        /* \"#utility.yul\":3305:3322   */\n      add\n        /* \"#utility.yul\":3296:3302   */\n      dup5\n        /* \"#utility.yul\":3252:3323   */\n      tag_111\n      jump\t// in\n    tag_189:\n        /* \"#utility.yul\":3108:3330   */\n      swap3\n      swap2\n      pop\n      pop\n      jump\t// out\n        /* \"#utility.yul\":3336:3478   */\n    tag_114:\n        /* \"#utility.yul\":3431:3437   */\n      0x00\n        /* \"#utility.yul\":3465:3470   */\n      dup2\n        /* \"#utility.yul\":3459:3471   */\n      mload\n        /* \"#utility.yul\":3449:3471   */\n      swap1\n      pop\n        /* \"#utility.yul\":3336:3478   */\n      swap2\n      swap1\n      pop\n      jump\t// out\n        /* \"#utility.yul\":3484:3696   */\n    tag_115:\n        /* \"#utility.yul\":3611:3622   */\n      0x00\n        /* \"#utility.yul\":3645:3651   */\n      dup3\n        /* \"#utility.yul\":3640:3643   */\n      dup3\n        /* \"#utility.yul\":3633:3652   */\n      mstore\n        /* \"#utility.yul\":3685:3689   */\n      0x20\n        /* \"#utility.yul\":3680:3683   */\n      dup3\n        /* \"#utility.yul\":3676:3690   */\n      add\n        /* \"#utility.yul\":3661:3690   */\n      swap1\n      pop\n        /* \"#utility.yul\":3484:3696   */\n      swap3\n      swap2\n      pop\n      pop\n      jump\t// out\n        /* \"#utility.yul\":3702:3862   */\n    tag_116:\n        /* \"#utility.yul\":3797:3801   */\n      0x00\n        /* \"#utility.yul\":3820:3823   */\n      dup2\n        /* \"#utility.yul\":3812:3823   */\n      swap1\n      pop\n        /* \"#utility.yul\":3850:3854   */\n      0x20\n        /* \"#utility.yul\":3845:3848   */\n      dup3\n        /* \"#utility.yul\":3841:3855   */\n      add\n        /* \"#utility.yul\":3833:3855   */\n      swap1\n      pop\n        /* \"#utility.yul\":3702:3862   */\n      swap2\n      swap1\n      pop\n      jump\t// out\n        /* \"#utility.yul\":3868:3976   */\n    tag_117:\n        /* \"#utility.yul\":3945:3969   */\n      tag_194\n        /* \"#utility.yul\":3963:3968   */\n      dup2\n        /* \"#utility.yul\":3945:3969   */\n      tag_103\n      jump\t// in\n    tag_194:\n        /* \"#utility.yul\":3940:3943   */\n      dup3\n        /* \"#utility.yul\":3933:3970   */\n      mstore\n        /* \"#utility.yul\":3868:3976   */\n      pop\n      pop\n      jump\t// out\n        /* \"#utility.yul\":3982:4090   */\n    tag_118:\n        /* \"#utility.yul\":4059:4083   */\n      tag_196\n        /* \"#utility.yul\":4077:4082   */\n      dup2\n        /* \"#utility.yul\":4059:4083   */\n      tag_108\n      jump\t// in\n    tag_196:\n        /* \"#utility.yul\":4054:4057   */\n      dup3\n        /* \"#utility.yul\":4047:4084   */\n      mstore\n        /* \"#utility.yul\":3982:4090   */\n      pop\n      pop\n      jump\t// out\n        /* \"#utility.yul\":4174:4687   */\n    tag_119:\n        /* \"#utility.yul\":4317:4321   */\n      0x40\n        /* \"#utility.yul\":4312:4315   */\n      dup3\n        /* \"#utility.yul\":4308:4322   */\n      add\n        /* \"#utility.yul\":4412:4416   */\n      0x00\n        /* \"#utility.yul\":4405:4410   */\n      dup3\n        /* \"#utility.yul\":4401:4417   */\n      add\n        /* \"#utility.yul\":4395:4418   */\n      mload\n        /* \"#utility.yul\":4431:4494   */\n      tag_198\n        /* \"#utility.yul\":4488:4492   */\n      0x00\n        /* \"#utility.yul\":4483:4486   */\n      dup6\n        /* \"#utility.yul\":4479:4493   */\n      add\n        /* \"#utility.yul\":4465:4477   */\n      dup3\n        /* \"#utility.yul\":4431:4494   */\n      tag_117\n      jump\t// in\n    tag_198:\n        /* \"#utility.yul\":4332:4504   */\n      pop\n        /* \"#utility.yul\":4588:4592   */\n      0x20\n        /* \"#utility.yul\":4581:4586   */\n      dup3\n        /* \"#utility.yul\":4577:4593   */\n      add\n        /* \"#utility.yul\":4571:4594   */\n      mload\n        /* \"#utility.yul\":4607:4670   */\n      tag_199\n        /* \"#utility.yul\":4664:4668   */\n      0x20\n        /* \"#utility.yul\":4659:4662   */\n      dup6\n        /* \"#utility.yul\":4655:4669   */\n      add\n        /* \"#utility.yul\":4641:4653   */\n      dup3\n        /* \"#utility.yul\":4607:4670   */\n      tag_118\n      jump\t// in\n    tag_199:\n        /* \"#utility.yul\":4514:4680   */\n      pop\n        /* \"#utility.yul\":4286:4687   */\n      pop\n        /* \"#utility.yul\":4174:4687   */\n      pop\n      pop\n      jump\t// out\n        /* \"#utility.yul\":4693:4984   */\n    tag_120:\n        /* \"#utility.yul\":4818:4828   */\n      0x00\n        /* \"#utility.yul\":4839:4941   */\n      tag_201\n        /* \"#utility.yul\":4937:4940   */\n      dup4\n        /* \"#utility.yul\":4929:4935   */\n      dup4\n        /* \"#utility.yul\":4839:4941   */\n      tag_119\n      jump\t// in\n    tag_201:\n        /* \"#utility.yul\":4973:4977   */\n      0x40\n        /* \"#utility.yul\":4968:4971   */\n      dup4\n        /* \"#utility.yul\":4964:4978   */\n      add\n        /* \"#utility.yul\":4950:4978   */\n      swap1\n      pop\n        /* \"#utility.yul\":4693:4984   */\n      swap3\n      swap2\n      pop\n      pop\n      jump\t// out\n        /* \"#utility.yul\":4990:5131   */\n    tag_121:\n        /* \"#utility.yul\":5088:5092   */\n      0x00\n        /* \"#utility.yul\":5120:5124   */\n      0x20\n        /* \"#utility.yul\":5115:5118   */\n      dup3\n        /* \"#utility.yul\":5111:5125   */\n      add\n        /* \"#utility.yul\":5103:5125   */\n      swap1\n      pop\n        /* \"#utility.yul\":4990:5131   */\n      swap2\n      swap1\n      pop\n      jump\t// out\n        /* \"#utility.yul\":5219:6175   */\n    tag_122:\n        /* \"#utility.yul\":5394:5397   */\n      0x00\n        /* \"#utility.yul\":5423:5505   */\n      tag_204\n        /* \"#utility.yul\":5499:5504   */\n      dup3\n        /* \"#utility.yul\":5423:5505   */\n      tag_114\n      jump\t// in\n    tag_204:\n        /* \"#utility.yul\":5521:5635   */\n      tag_205\n        /* \"#utility.yul\":5628:5634   */\n      dup2\n        /* \"#utility.yul\":5623:5626   */\n      dup6\n        /* \"#utility.yul\":5521:5635   */\n      tag_115\n      jump\t// in\n    tag_205:\n        /* \"#utility.yul\":5514:5635   */\n      swap4\n      pop\n        /* \"#utility.yul\":5659:5743   */\n      tag_206\n        /* \"#utility.yul\":5737:5742   */\n      dup4\n        /* \"#utility.yul\":5659:5743   */\n      tag_116\n      jump\t// in\n    tag_206:\n        /* \"#utility.yul\":5766:5773   */\n      dup1\n        /* \"#utility.yul\":5797:5798   */\n      0x00\n        /* \"#utility.yul\":5782:6150   */\n    tag_207:\n        /* \"#utility.yul\":5807:5813   */\n      dup4\n        /* \"#utility.yul\":5804:5805   */\n      dup2\n        /* \"#utility.yul\":5801:5814   */\n      lt\n        /* \"#utility.yul\":5782:6150   */\n      iszero\n      tag_209\n      jumpi\n        /* \"#utility.yul\":5883:5889   */\n      dup2\n        /* \"#utility.yul\":5877:5890   */\n      mload\n        /* \"#utility.yul\":5910:6029   */\n      tag_210\n        /* \"#utility.yul\":6025:6028   */\n      dup9\n        /* \"#utility.yul\":6010:6023   */\n      dup3\n        /* \"#utility.yul\":5910:6029   */\n      tag_120\n      jump\t// in\n    tag_210:\n        /* \"#utility.yul\":5903:6029   */\n      swap8\n      pop\n        /* \"#utility.yul\":6052:6140   */\n      tag_211\n        /* \"#utility.yul\":6133:6139   */\n      dup4\n        /* \"#utility.yul\":6052:6140   */\n      tag_121\n      jump\t// in\n    tag_211:\n        /* \"#utility.yul\":6042:6140   */\n      swap3\n      pop\n        /* \"#utility.yul\":5842:6150   */\n      pop\n        /* \"#utility.yul\":5829:5830   */\n      0x01\n        /* \"#utility.yul\":5826:5827   */\n      dup2\n        /* \"#utility.yul\":5822:5831   */\n      add\n        /* \"#utility.yul\":5817:5831   */\n      swap1\n      pop\n        /* \"#utility.yul\":5782:6150   */\n      jump(tag_207)\n    tag_209:\n        /* \"#utility.yul\":5786:5800   */\n      pop\n        /* \"#utility.yul\":6166:6169   */\n      dup6\n        /* \"#utility.yul\":6159:6169   */\n      swap4\n      pop\n        /* \"#utility.yul\":5399:6175   */\n      pop\n      pop\n      pop\n        /* \"#utility.yul\":5219:6175   */\n      swap3\n      swap2\n      pop\n      pop\n      jump\t// out\n        /* \"#utility.yul\":6181:6666   */\n    tag_49:\n        /* \"#utility.yul\":6380:6384   */\n      0x00\n        /* \"#utility.yul\":6418:6420   */\n      0x20\n        /* \"#utility.yul\":6407:6416   */\n      dup3\n        /* \"#utility.yul\":6403:6421   */\n      add\n        /* \"#utility.yul\":6395:6421   */\n      swap1\n      pop\n        /* \"#utility.yul\":6467:6476   */\n      dup2\n        /* \"#utility.yul\":6461:6465   */\n      dup2\n        /* \"#utility.yul\":6457:6477   */\n      sub\n        /* \"#utility.yul\":6453:6454   */\n      0x00\n        /* \"#utility.yul\":6442:6451   */\n      dup4\n        /* \"#utility.yul\":6438:6455   */\n      add\n        /* \"#utility.yul\":6431:6478   */\n      mstore\n        /* \"#utility.yul\":6495:6659   */\n      tag_213\n        /* \"#utility.yul\":6654:6658   */\n      dup2\n        /* \"#utility.yul\":6645:6651   */\n      dup5\n        /* \"#utility.yul\":6495:6659   */\n      tag_122\n      jump\t// in\n    tag_213:\n        /* \"#utility.yul\":6487:6659   */\n      swap1\n      pop\n        /* \"#utility.yul\":6181:6666   */\n      swap3\n      swap2\n      pop\n      pop\n      jump\t// out\n        /* \"#utility.yul\":6672:6841   */\n    tag_123:\n        /* \"#utility.yul\":6756:6767   */\n      0x00\n        /* \"#utility.yul\":6790:6796   */\n      dup3\n        /* \"#utility.yul\":6785:6788   */\n      dup3\n        /* \"#utility.yul\":6778:6797   */\n      mstore\n        /* \"#utility.yul\":6830:6834   */\n      0x20\n        /* \"#utility.yul\":6825:6828   */\n      dup3\n        /* \"#utility.yul\":6821:6835   */\n      add\n        /* \"#utility.yul\":6806:6835   */\n      swap1\n      pop\n        /* \"#utility.yul\":6672:6841   */\n      swap3\n      swap2\n      pop\n      pop\n      jump\t// out\n        /* \"#utility.yul\":6847:7078   */\n    tag_124:\n        /* \"#utility.yul\":6987:7021   */\n      0x4e6f207469656e6573207065726d69736f207061726120656a65637574617220\n        /* \"#utility.yul\":6983:6984   */\n      0x00\n        /* \"#utility.yul\":6975:6981   */\n      dup3\n        /* \"#utility.yul\":6971:6985   */\n      add\n        /* \"#utility.yul\":6964:7022   */\n      mstore\n        /* \"#utility.yul\":7056:7070   */\n      0x657374612066756e63696f6e0000000000000000000000000000000000000000\n        /* \"#utility.yul\":7051:7053   */\n      0x20\n        /* \"#utility.yul\":7043:7049   */\n      dup3\n        /* \"#utility.yul\":7039:7054   */\n      add\n        /* \"#utility.yul\":7032:7071   */\n      mstore\n        /* \"#utility.yul\":6847:7078   */\n      pop\n      jump\t// out\n        /* \"#utility.yul\":7084:7450   */\n    tag_125:\n        /* \"#utility.yul\":7226:7229   */\n      0x00\n        /* \"#utility.yul\":7247:7314   */\n      tag_217\n        /* \"#utility.yul\":7311:7313   */\n      0x2c\n        /* \"#utility.yul\":7306:7309   */\n      dup4\n        /* \"#utility.yul\":7247:7314   */\n      tag_123\n      jump\t// in\n    tag_217:\n        /* \"#utility.yul\":7240:7314   */\n      swap2\n      pop\n        /* \"#utility.yul\":7323:7416   */\n      tag_218\n        /* \"#utility.yul\":7412:7415   */\n      dup3\n        /* \"#utility.yul\":7323:7416   */\n      tag_124\n      jump\t// in\n    tag_218:\n        /* \"#utility.yul\":7441:7443   */\n      0x40\n        /* \"#utility.yul\":7436:7439   */\n      dup3\n        /* \"#utility.yul\":7432:7444   */\n      add\n        /* \"#utility.yul\":7425:7444   */\n      swap1\n      pop\n        /* \"#utility.yul\":7084:7450   */\n      swap2\n      swap1\n      pop\n      jump\t// out\n        /* \"#utility.yul\":7456:7875   */\n    tag_53:\n        /* \"#utility.yul\":7622:7626   */\n      0x00\n        /* \"#utility.yul\":7660:7662   */\n      0x20\n        /* \"#utility.yul\":7649:7658   */\n      dup3\n        /* \"#utility.yul\":7645:7663   */\n      add\n        /* \"#utility.yul\":7637:7663   */\n      swap1\n      pop\n        /* \"#utility.yul\":7709:7718   */\n      dup2\n        /* \"#utility.yul\":7703:7707   */\n      dup2\n        /* \"#utility.yul\":7699:7719   */\n      sub\n        /* \"#utility.yul\":7695:7696   */\n      0x00\n        /* \"#utility.yul\":7684:7693   */\n      dup4\n        /* \"#utility.yul\":7680:7697   */\n      add\n        /* \"#utility.yul\":7673:7720   */\n      mstore\n        /* \"#utility.yul\":7737:7868   */\n      tag_220\n        /* \"#utility.yul\":7863:7867   */\n      dup2\n        /* \"#utility.yul\":7737:7868   */\n      tag_125\n      jump\t// in\n    tag_220:\n        /* \"#utility.yul\":7729:7868   */\n      swap1\n      pop\n        /* \"#utility.yul\":7456:7875   */\n      swap2\n      swap1\n      pop\n      jump\t// out\n        /* \"#utility.yul\":7881:8063   */\n    tag_126:\n        /* \"#utility.yul\":8021:8055   */\n      0x4c61206c6f7465726961207961206861207369646f2066696e616c697a616461\n        /* \"#utility.yul\":8017:8018   */\n      0x00\n        /* \"#utility.yul\":8009:8015   */\n      dup3\n        /* \"#utility.yul\":8005:8019   */\n      add\n        /* \"#utility.yul\":7998:8056   */\n      mstore\n        /* \"#utility.yul\":7881:8063   */\n      pop\n      jump\t// out\n        /* \"#utility.yul\":8069:8435   */\n    tag_127:\n        /* \"#utility.yul\":8211:8214   */\n      0x00\n        /* \"#utility.yul\":8232:8299   */\n      tag_223\n        /* \"#utility.yul\":8296:8298   */\n      0x20\n        /* \"#utility.yul\":8291:8294   */\n      dup4\n        /* \"#utility.yul\":8232:8299   */\n      tag_123\n      jump\t// in\n    tag_223:\n        /* \"#utility.yul\":8225:8299   */\n      swap2\n      pop\n        /* \"#utility.yul\":8308:8401   */\n      tag_224\n        /* \"#utility.yul\":8397:8400   */\n      dup3\n        /* \"#utility.yul\":8308:8401   */\n      tag_126\n      jump\t// in\n    tag_224:\n        /* \"#utility.yul\":8426:8428   */\n      0x20\n        /* \"#utility.yul\":8421:8424   */\n      dup3\n        /* \"#utility.yul\":8417:8429   */\n      add\n        /* \"#utility.yul\":8410:8429   */\n      swap1\n      pop\n        /* \"#utility.yul\":8069:8435   */\n      swap2\n      swap1\n      pop\n      jump\t// out\n        /* \"#utility.yul\":8441:8860   */\n    tag_57:\n        /* \"#utility.yul\":8607:8611   */\n      0x00\n        /* \"#utility.yul\":8645:8647   */\n      0x20\n        /* \"#utility.yul\":8634:8643   */\n      dup3\n        /* \"#utility.yul\":8630:8648   */\n      add\n        /* \"#utility.yul\":8622:8648   */\n      swap1\n      pop\n        /* \"#utility.yul\":8694:8703   */\n      dup2\n        /* \"#utility.yul\":8688:8692   */\n      dup2\n        /* \"#utility.yul\":8684:8704   */\n      sub\n        /* \"#utility.yul\":8680:8681   */\n      0x00\n        /* \"#utility.yul\":8669:8678   */\n      dup4\n        /* \"#utility.yul\":8665:8682   */\n      add\n        /* \"#utility.yul\":8658:8705   */\n      mstore\n        /* \"#utility.yul\":8722:8853   */\n      tag_226\n        /* \"#utility.yul\":8848:8852   */\n      dup2\n        /* \"#utility.yul\":8722:8853   */\n      tag_127\n      jump\t// in\n    tag_226:\n        /* \"#utility.yul\":8714:8853   */\n      swap1\n      pop\n        /* \"#utility.yul\":8441:8860   */\n      swap2\n      swap1\n      pop\n      jump\t// out\n        /* \"#utility.yul\":8866:9087   */\n    tag_128:\n        /* \"#utility.yul\":9006:9040   */\n      0x4e6f20686179207061727469636970616e74657320656e206c61206c6f746572\n        /* \"#utility.yul\":9002:9003   */\n      0x00\n        /* \"#utility.yul\":8994:9000   */\n      dup3\n        /* \"#utility.yul\":8990:9004   */\n      add\n        /* \"#utility.yul\":8983:9041   */\n      mstore\n        /* \"#utility.yul\":9075:9079   */\n      0x6961000000000000000000000000000000000000000000000000000000000000\n        /* \"#utility.yul\":9070:9072   */\n      0x20\n        /* \"#utility.yul\":9062:9068   */\n      dup3\n        /* \"#utility.yul\":9058:9073   */\n      add\n        /* \"#utility.yul\":9051:9080   */\n      mstore\n        /* \"#utility.yul\":8866:9087   */\n      pop\n      jump\t// out\n        /* \"#utility.yul\":9093:9459   */\n    tag_129:\n        /* \"#utility.yul\":9235:9238   */\n      0x00\n        /* \"#utility.yul\":9256:9323   */\n      tag_229\n        /* \"#utility.yul\":9320:9322   */\n      0x22\n        /* \"#utility.yul\":9315:9318   */\n      dup4\n        /* \"#utility.yul\":9256:9323   */\n      tag_123\n      jump\t// in\n    tag_229:\n        /* \"#utility.yul\":9249:9323   */\n      swap2\n      pop\n        /* \"#utility.yul\":9332:9425   */\n      tag_230\n        /* \"#utility.yul\":9421:9424   */\n      dup3\n        /* \"#utility.yul\":9332:9425   */\n      tag_128\n      jump\t// in\n    tag_230:\n        /* \"#utility.yul\":9450:9452   */\n      0x40\n        /* \"#utility.yul\":9445:9448   */\n      dup3\n        /* \"#utility.yul\":9441:9453   */\n      add\n        /* \"#utility.yul\":9434:9453   */\n      swap1\n      pop\n        /* \"#utility.yul\":9093:9459   */\n      swap2\n      swap1\n      pop\n      jump\t// out\n        /* \"#utility.yul\":9465:9884   */\n    tag_60:\n        /* \"#utility.yul\":9631:9635   */\n      0x00\n        /* \"#utility.yul\":9669:9671   */\n      0x20\n        /* \"#utility.yul\":9658:9667   */\n      dup3\n        /* \"#utility.yul\":9654:9672   */\n      add\n        /* \"#utility.yul\":9646:9672   */\n      swap1\n      pop\n        /* \"#utility.yul\":9718:9727   */\n      dup2\n        /* \"#utility.yul\":9712:9716   */\n      dup2\n        /* \"#utility.yul\":9708:9728   */\n      sub\n        /* \"#utility.yul\":9704:9705   */\n      0x00\n        /* \"#utility.yul\":9693:9702   */\n      dup4\n        /* \"#utility.yul\":9689:9706   */\n      add\n        /* \"#utility.yul\":9682:9729   */\n      mstore\n        /* \"#utility.yul\":9746:9877   */\n      tag_232\n        /* \"#utility.yul\":9872:9876   */\n      dup2\n        /* \"#utility.yul\":9746:9877   */\n      tag_129\n      jump\t// in\n    tag_232:\n        /* \"#utility.yul\":9738:9877   */\n      swap1\n      pop\n        /* \"#utility.yul\":9465:9884   */\n      swap2\n      swap1\n      pop\n      jump\t// out\n        /* \"#utility.yul\":9890:9969   */\n    tag_130:\n        /* \"#utility.yul\":9929:9936   */\n      0x00\n        /* \"#utility.yul\":9958:9963   */\n      dup2\n        /* \"#utility.yul\":9947:9963   */\n      swap1\n      pop\n        /* \"#utility.yul\":9890:9969   */\n      swap2\n      swap1\n      pop\n      jump\t// out\n        /* \"#utility.yul\":9975:10132   */\n    tag_131:\n        /* \"#utility.yul\":10080:10125   */\n      tag_235\n        /* \"#utility.yul\":10100:10124   */\n      tag_236\n        /* \"#utility.yul\":10118:10123   */\n      dup3\n        /* \"#utility.yul\":10100:10124   */\n      tag_108\n      jump\t// in\n    tag_236:\n        /* \"#utility.yul\":10080:10125   */\n      tag_130\n      jump\t// in\n    tag_235:\n        /* \"#utility.yul\":10075:10078   */\n      dup3\n        /* \"#utility.yul\":10068:10126   */\n      mstore\n        /* \"#utility.yul\":9975:10132   */\n      pop\n      pop\n      jump\t// out\n        /* \"#utility.yul\":10138:10232   */\n    tag_132:\n        /* \"#utility.yul\":10171:10179   */\n      0x00\n        /* \"#utility.yul\":10219:10224   */\n      dup2\n        /* \"#utility.yul\":10215:10217   */\n      0x60\n        /* \"#utility.yul\":10211:10225   */\n      shl\n        /* \"#utility.yul\":10190:10225   */\n      swap1\n      pop\n        /* \"#utility.yul\":10138:10232   */\n      swap2\n      swap1\n      pop\n      jump\t// out\n        /* \"#utility.yul\":10238:10332   */\n    tag_133:\n        /* \"#utility.yul\":10277:10284   */\n      0x00\n        /* \"#utility.yul\":10306:10326   */\n      tag_239\n        /* \"#utility.yul\":10320:10325   */\n      dup3\n        /* \"#utility.yul\":10306:10326   */\n      tag_132\n      jump\t// in\n    tag_239:\n        /* \"#utility.yul\":10295:10326   */\n      swap1\n      pop\n        /* \"#utility.yul\":10238:10332   */\n      swap2\n      swap1\n      pop\n      jump\t// out\n        /* \"#utility.yul\":10338:10438   */\n    tag_134:\n        /* \"#utility.yul\":10377:10384   */\n      0x00\n        /* \"#utility.yul\":10406:10432   */\n      tag_241\n        /* \"#utility.yul\":10426:10431   */\n      dup3\n        /* \"#utility.yul\":10406:10432   */\n      tag_133\n      jump\t// in\n    tag_241:\n        /* \"#utility.yul\":10395:10432   */\n      swap1\n      pop\n        /* \"#utility.yul\":10338:10438   */\n      swap2\n      swap1\n      pop\n      jump\t// out\n        /* \"#utility.yul\":10444:10601   */\n    tag_135:\n        /* \"#utility.yul\":10549:10594   */\n      tag_243\n        /* \"#utility.yul\":10569:10593   */\n      tag_244\n        /* \"#utility.yul\":10587:10592   */\n      dup3\n        /* \"#utility.yul\":10569:10593   */\n      tag_103\n      jump\t// in\n    tag_244:\n        /* \"#utility.yul\":10549:10594   */\n      tag_134\n      jump\t// in\n    tag_243:\n        /* \"#utility.yul\":10544:10547   */\n      dup3\n        /* \"#utility.yul\":10537:10595   */\n      mstore\n        /* \"#utility.yul\":10444:10601   */\n      pop\n      pop\n      jump\t// out\n        /* \"#utility.yul\":10607:11145   */\n    tag_62:\n        /* \"#utility.yul\":10775:10778   */\n      0x00\n        /* \"#utility.yul\":10790:10865   */\n      tag_246\n        /* \"#utility.yul\":10861:10864   */\n      dup3\n        /* \"#utility.yul\":10852:10858   */\n      dup7\n        /* \"#utility.yul\":10790:10865   */\n      tag_131\n      jump\t// in\n    tag_246:\n        /* \"#utility.yul\":10890:10892   */\n      0x20\n        /* \"#utility.yul\":10885:10888   */\n      dup3\n        /* \"#utility.yul\":10881:10893   */\n      add\n        /* \"#utility.yul\":10874:10893   */\n      swap2\n      pop\n        /* \"#utility.yul\":10903:10978   */\n      tag_247\n        /* \"#utility.yul\":10974:10977   */\n      dup3\n        /* \"#utility.yul\":10965:10971   */\n      dup6\n        /* \"#utility.yul\":10903:10978   */\n      tag_131\n      jump\t// in\n    tag_247:\n        /* \"#utility.yul\":11003:11005   */\n      0x20\n        /* \"#utility.yul\":10998:11001   */\n      dup3\n        /* \"#utility.yul\":10994:11006   */\n      add\n        /* \"#utility.yul\":10987:11006   */\n      swap2\n      pop\n        /* \"#utility.yul\":11016:11091   */\n      tag_248\n        /* \"#utility.yul\":11087:11090   */\n      dup3\n        /* \"#utility.yul\":11078:11084   */\n      dup5\n        /* \"#utility.yul\":11016:11091   */\n      tag_135\n      jump\t// in\n    tag_248:\n        /* \"#utility.yul\":11116:11118   */\n      0x14\n        /* \"#utility.yul\":11111:11114   */\n      dup3\n        /* \"#utility.yul\":11107:11119   */\n      add\n        /* \"#utility.yul\":11100:11119   */\n      swap2\n      pop\n        /* \"#utility.yul\":11136:11139   */\n      dup2\n        /* \"#utility.yul\":11129:11139   */\n      swap1\n      pop\n        /* \"#utility.yul\":10607:11145   */\n      swap5\n      swap4\n      pop\n      pop\n      pop\n      pop\n      jump\t// out\n        /* \"#utility.yul\":11151:11331   */\n    tag_136:\n        /* \"#utility.yul\":11199:11276   */\n      0x4e487b7100000000000000000000000000000000000000000000000000000000\n        /* \"#utility.yul\":11196:11197   */\n      0x00\n        /* \"#utility.yul\":11189:11277   */\n      mstore\n        /* \"#utility.yul\":11296:11300   */\n      0x12\n        /* \"#utility.yul\":11293:11294   */\n      0x04\n        /* \"#utility.yul\":11286:11301   */\n      mstore\n        /* \"#utility.yul\":11320:11324   */\n      0x24\n        /* \"#utility.yul\":11317:11318   */\n      0x00\n        /* \"#utility.yul\":11310:11325   */\n      revert\n        /* \"#utility.yul\":11337:11513   */\n    tag_64:\n        /* \"#utility.yul\":11369:11370   */\n      0x00\n        /* \"#utility.yul\":11386:11406   */\n      tag_251\n        /* \"#utility.yul\":11404:11405   */\n      dup3\n        /* \"#utility.yul\":11386:11406   */\n      tag_108\n      jump\t// in\n    tag_251:\n        /* \"#utility.yul\":11381:11406   */\n      swap2\n      pop\n        /* \"#utility.yul\":11420:11440   */\n      tag_252\n        /* \"#utility.yul\":11438:11439   */\n      dup4\n        /* \"#utility.yul\":11420:11440   */\n      tag_108\n      jump\t// in\n    tag_252:\n        /* \"#utility.yul\":11415:11440   */\n      swap3\n      pop\n        /* \"#utility.yul\":11459:11460   */\n      dup3\n        /* \"#utility.yul\":11449:11484   */\n      tag_253\n      jumpi\n        /* \"#utility.yul\":11464:11482   */\n      tag_254\n      tag_136\n      jump\t// in\n    tag_254:\n        /* \"#utility.yul\":11449:11484   */\n    tag_253:\n        /* \"#utility.yul\":11505:11506   */\n      dup3\n        /* \"#utility.yul\":11502:11503   */\n      dup3\n        /* \"#utility.yul\":11498:11507   */\n      mod\n        /* \"#utility.yul\":11493:11507   */\n      swap1\n      pop\n        /* \"#utility.yul\":11337:11513   */\n      swap3\n      swap2\n      pop\n      pop\n      jump\t// out\n        /* \"#utility.yul\":11519:11699   */\n    tag_67:\n        /* \"#utility.yul\":11567:11644   */\n      0x4e487b7100000000000000000000000000000000000000000000000000000000\n        /* \"#utility.yul\":11564:11565   */\n      0x00\n        /* \"#utility.yul\":11557:11645   */\n      mstore\n        /* \"#utility.yul\":11664:11668   */\n      0x32\n        /* \"#utility.yul\":11661:11662   */\n      0x04\n        /* \"#utility.yul\":11654:11669   */\n      mstore\n        /* \"#utility.yul\":11688:11692   */\n      0x24\n        /* \"#utility.yul\":11685:11686   */\n      0x00\n        /* \"#utility.yul\":11678:11693   */\n      revert\n        /* \"#utility.yul\":11705:11852   */\n    tag_137:\n        /* \"#utility.yul\":11806:11817   */\n      0x00\n        /* \"#utility.yul\":11843:11846   */\n      dup2\n        /* \"#utility.yul\":11828:11846   */\n      swap1\n      pop\n        /* \"#utility.yul\":11705:11852   */\n      swap3\n      swap2\n      pop\n      pop\n      jump\t// out\n        /* \"#utility.yul\":11858:11972   */\n    tag_138:\n      pop\n      jump\t// out\n        /* \"#utility.yul\":11978:12376   */\n    tag_139:\n        /* \"#utility.yul\":12137:12140   */\n      0x00\n        /* \"#utility.yul\":12158:12241   */\n      tag_259\n        /* \"#utility.yul\":12239:12240   */\n      0x00\n        /* \"#utility.yul\":12234:12237   */\n      dup4\n        /* \"#utility.yul\":12158:12241   */\n      tag_137\n      jump\t// in\n    tag_259:\n        /* \"#utility.yul\":12151:12241   */\n      swap2\n      pop\n        /* \"#utility.yul\":12250:12343   */\n      tag_260\n        /* \"#utility.yul\":12339:12342   */\n      dup3\n        /* \"#utility.yul\":12250:12343   */\n      tag_138\n      jump\t// in\n    tag_260:\n        /* \"#utility.yul\":12368:12369   */\n      0x00\n        /* \"#utility.yul\":12363:12366   */\n      dup3\n        /* \"#utility.yul\":12359:12370   */\n      add\n        /* \"#utility.yul\":12352:12370   */\n      swap1\n      pop\n        /* \"#utility.yul\":11978:12376   */\n      swap2\n      swap1\n      pop\n      jump\t// out\n        /* \"#utility.yul\":12382:12761   */\n    tag_70:\n        /* \"#utility.yul\":12566:12569   */\n      0x00\n        /* \"#utility.yul\":12588:12735   */\n      tag_262\n        /* \"#utility.yul\":12731:12734   */\n      dup3\n        /* \"#utility.yul\":12588:12735   */\n      tag_139\n      jump\t// in\n    tag_262:\n        /* \"#utility.yul\":12581:12735   */\n      swap2\n      pop\n        /* \"#utility.yul\":12752:12755   */\n      dup2\n        /* \"#utility.yul\":12745:12755   */\n      swap1\n      pop\n        /* \"#utility.yul\":12382:12761   */\n      swap2\n      swap1\n      pop\n      jump\t// out\n        /* \"#utility.yul\":12767:13002   */\n    tag_140:\n        /* \"#utility.yul\":12907:12941   */\n      0x4c61207472616e73666572656e63696120646520666f6e646f7320616c206761\n        /* \"#utility.yul\":12903:12904   */\n      0x00\n        /* \"#utility.yul\":12895:12901   */\n      dup3\n        /* \"#utility.yul\":12891:12905   */\n      add\n        /* \"#utility.yul\":12884:12942   */\n      mstore\n        /* \"#utility.yul\":12976:12994   */\n      0x6e61646f722068612066616c6c61646f00000000000000000000000000000000\n        /* \"#utility.yul\":12971:12973   */\n      0x20\n        /* \"#utility.yul\":12963:12969   */\n      dup3\n        /* \"#utility.yul\":12959:12974   */\n      add\n        /* \"#utility.yul\":12952:12995   */\n      mstore\n        /* \"#utility.yul\":12767:13002   */\n      pop\n      jump\t// out\n        /* \"#utility.yul\":13008:13374   */\n    tag_141:\n        /* \"#utility.yul\":13150:13153   */\n      0x00\n        /* \"#utility.yul\":13171:13238   */\n      tag_265\n        /* \"#utility.yul\":13235:13237   */\n      0x30\n        /* \"#utility.yul\":13230:13233   */\n      dup4\n        /* \"#utility.yul\":13171:13238   */\n      tag_123\n      jump\t// in\n    tag_265:\n        /* \"#utility.yul\":13164:13238   */\n      swap2\n      pop\n        /* \"#utility.yul\":13247:13340   */\n      tag_266\n        /* \"#utility.yul\":13336:13339   */\n      dup3\n        /* \"#utility.yul\":13247:13340   */\n      tag_140\n      jump\t// in\n    tag_266:\n        /* \"#utility.yul\":13365:13367   */\n      0x40\n        /* \"#utility.yul\":13360:13363   */\n      dup3\n        /* \"#utility.yul\":13356:13368   */\n      add\n        /* \"#utility.yul\":13349:13368   */\n      swap1\n      pop\n        /* \"#utility.yul\":13008:13374   */\n      swap2\n      swap1\n      pop\n      jump\t// out\n        /* \"#utility.yul\":13380:13799   */\n    tag_76:\n        /* \"#utility.yul\":13546:13550   */\n      0x00\n        /* \"#utility.yul\":13584:13586   */\n      0x20\n        /* \"#utility.yul\":13573:13582   */\n      dup3\n        /* \"#utility.yul\":13569:13587   */\n      add\n        /* \"#utility.yul\":13561:13587   */\n      swap1\n      pop\n        /* \"#utility.yul\":13633:13642   */\n      dup2\n        /* \"#utility.yul\":13627:13631   */\n      dup2\n        /* \"#utility.yul\":13623:13643   */\n      sub\n        /* \"#utility.yul\":13619:13620   */\n      0x00\n        /* \"#utility.yul\":13608:13617   */\n      dup4\n        /* \"#utility.yul\":13604:13621   */\n      add\n        /* \"#utility.yul\":13597:13644   */\n      mstore\n        /* \"#utility.yul\":13661:13792   */\n      tag_268\n        /* \"#utility.yul\":13787:13791   */\n      dup2\n        /* \"#utility.yul\":13661:13792   */\n      tag_141\n      jump\t// in\n    tag_268:\n        /* \"#utility.yul\":13653:13792   */\n      swap1\n      pop\n        /* \"#utility.yul\":13380:13799   */\n      swap2\n      swap1\n      pop\n      jump\t// out\n        /* \"#utility.yul\":13805:13978   */\n    tag_142:\n        /* \"#utility.yul\":13945:13970   */\n      0x4c61206c6f746572696120657374612063657272616461000000000000000000\n        /* \"#utility.yul\":13941:13942   */\n      0x00\n        /* \"#utility.yul\":13933:13939   */\n      dup3\n        /* \"#utility.yul\":13929:13943   */\n      add\n        /* \"#utility.yul\":13922:13971   */\n      mstore\n        /* \"#utility.yul\":13805:13978   */\n      pop\n      jump\t// out\n        /* \"#utility.yul\":13984:14350   */\n    tag_143:\n        /* \"#utility.yul\":14126:14129   */\n      0x00\n        /* \"#utility.yul\":14147:14214   */\n      tag_271\n        /* \"#utility.yul\":14211:14213   */\n      0x17\n        /* \"#utility.yul\":14206:14209   */\n      dup4\n        /* \"#utility.yul\":14147:14214   */\n      tag_123\n      jump\t// in\n    tag_271:\n        /* \"#utility.yul\":14140:14214   */\n      swap2\n      pop\n        /* \"#utility.yul\":14223:14316   */\n      tag_272\n        /* \"#utility.yul\":14312:14315   */\n      dup3\n        /* \"#utility.yul\":14223:14316   */\n      tag_142\n      jump\t// in\n    tag_272:\n        /* \"#utility.yul\":14341:14343   */\n      0x20\n        /* \"#utility.yul\":14336:14339   */\n      dup3\n        /* \"#utility.yul\":14332:14344   */\n      add\n        /* \"#utility.yul\":14325:14344   */\n      swap1\n      pop\n        /* \"#utility.yul\":13984:14350   */\n      swap2\n      swap1\n      pop\n      jump\t// out\n        /* \"#utility.yul\":14356:14775   */\n    tag_84:\n        /* \"#utility.yul\":14522:14526   */\n      0x00\n        /* \"#utility.yul\":14560:14562   */\n      0x20\n        /* \"#utility.yul\":14549:14558   */\n      dup3\n        /* \"#utility.yul\":14545:14563   */\n      add\n        /* \"#utility.yul\":14537:14563   */\n      swap1\n      pop\n        /* \"#utility.yul\":14609:14618   */\n      dup2\n        /* \"#utility.yul\":14603:14607   */\n      dup2\n        /* \"#utility.yul\":14599:14619   */\n      sub\n        /* \"#utility.yul\":14595:14596   */\n      0x00\n        /* \"#utility.yul\":14584:14593   */\n      dup4\n        /* \"#utility.yul\":14580:14597   */\n      add\n        /* \"#utility.yul\":14573:14620   */\n      mstore\n        /* \"#utility.yul\":14637:14768   */\n      tag_274\n        /* \"#utility.yul\":14763:14767   */\n      dup2\n        /* \"#utility.yul\":14637:14768   */\n      tag_143\n      jump\t// in\n    tag_274:\n        /* \"#utility.yul\":14629:14768   */\n      swap1\n      pop\n        /* \"#utility.yul\":14356:14775   */\n      swap2\n      swap1\n      pop\n      jump\t// out\n        /* \"#utility.yul\":14781:15020   */\n    tag_144:\n        /* \"#utility.yul\":14921:14955   */\n      0x456c206d6f6e746f20646562652073657220616c206d656e6f73206465203120\n        /* \"#utility.yul\":14917:14918   */\n      0x00\n        /* \"#utility.yul\":14909:14915   */\n      dup3\n        /* \"#utility.yul\":14905:14919   */\n      add\n        /* \"#utility.yul\":14898:14956   */\n      mstore\n        /* \"#utility.yul\":14990:15012   */\n      0x776569207061726120706172746963697061722e000000000000000000000000\n        /* \"#utility.yul\":14985:14987   */\n      0x20\n        /* \"#utility.yul\":14977:14983   */\n      dup3\n        /* \"#utility.yul\":14973:14988   */\n      add\n        /* \"#utility.yul\":14966:15013   */\n      mstore\n        /* \"#utility.yul\":14781:15020   */\n      pop\n      jump\t// out\n        /* \"#utility.yul\":15026:15392   */\n    tag_145:\n        /* \"#utility.yul\":15168:15171   */\n      0x00\n        /* \"#utility.yul\":15189:15256   */\n      tag_277\n        /* \"#utility.yul\":15253:15255   */\n      0x34\n        /* \"#utility.yul\":15248:15251   */\n      dup4\n        /* \"#utility.yul\":15189:15256   */\n      tag_123\n      jump\t// in\n    tag_277:\n        /* \"#utility.yul\":15182:15256   */\n      swap2\n      pop\n        /* \"#utility.yul\":15265:15358   */\n      tag_278\n        /* \"#utility.yul\":15354:15357   */\n      dup3\n        /* \"#utility.yul\":15265:15358   */\n      tag_144\n      jump\t// in\n    tag_278:\n        /* \"#utility.yul\":15383:15385   */\n      0x40\n        /* \"#utility.yul\":15378:15381   */\n      dup3\n        /* \"#utility.yul\":15374:15386   */\n      add\n        /* \"#utility.yul\":15367:15386   */\n      swap1\n      pop\n        /* \"#utility.yul\":15026:15392   */\n      swap2\n      swap1\n      pop\n      jump\t// out\n        /* \"#utility.yul\":15398:15817   */\n    tag_88:\n        /* \"#utility.yul\":15564:15568   */\n      0x00\n        /* \"#utility.yul\":15602:15604   */\n      0x20\n        /* \"#utility.yul\":15591:15600   */\n      dup3\n        /* \"#utility.yul\":15587:15605   */\n      add\n        /* \"#utility.yul\":15579:15605   */\n      swap1\n      pop\n        /* \"#utility.yul\":15651:15660   */\n      dup2\n        /* \"#utility.yul\":15645:15649   */\n      dup2\n        /* \"#utility.yul\":15641:15661   */\n      sub\n        /* \"#utility.yul\":15637:15638   */\n      0x00\n        /* \"#utility.yul\":15626:15635   */\n      dup4\n        /* \"#utility.yul\":15622:15639   */\n      add\n        /* \"#utility.yul\":15615:15662   */\n      mstore\n        /* \"#utility.yul\":15679:15810   */\n      tag_280\n        /* \"#utility.yul\":15805:15809   */\n      dup2\n        /* \"#utility.yul\":15679:15810   */\n      tag_145\n      jump\t// in\n    tag_280:\n        /* \"#utility.yul\":15671:15810   */\n      swap1\n      pop\n        /* \"#utility.yul\":15398:15817   */\n      swap2\n      swap1\n      pop\n      jump\t// out\n        /* \"#utility.yul\":15823:15993   */\n    tag_146:\n        /* \"#utility.yul\":15963:15985   */\n      0x536f6e20736f6c6f20313530206e756d65726f73000000000000000000000000\n        /* \"#utility.yul\":15959:15960   */\n      0x00\n        /* \"#utility.yul\":15951:15957   */\n      dup3\n        /* \"#utility.yul\":15947:15961   */\n      add\n        /* \"#utility.yul\":15940:15986   */\n      mstore\n        /* \"#utility.yul\":15823:15993   */\n      pop\n      jump\t// out\n        /* \"#utility.yul\":15999:16365   */\n    tag_147:\n        /* \"#utility.yul\":16141:16144   */\n      0x00\n        /* \"#utility.yul\":16162:16229   */\n      tag_283\n        /* \"#utility.yul\":16226:16228   */\n      0x14\n        /* \"#utility.yul\":16221:16224   */\n      dup4\n        /* \"#utility.yul\":16162:16229   */\n      tag_123\n      jump\t// in\n    tag_283:\n        /* \"#utility.yul\":16155:16229   */\n      swap2\n      pop\n        /* \"#utility.yul\":16238:16331   */\n      tag_284\n        /* \"#utility.yul\":16327:16330   */\n      dup3\n        /* \"#utility.yul\":16238:16331   */\n      tag_146\n      jump\t// in\n    tag_284:\n        /* \"#utility.yul\":16356:16358   */\n      0x20\n        /* \"#utility.yul\":16351:16354   */\n      dup3\n        /* \"#utility.yul\":16347:16359   */\n      add\n        /* \"#utility.yul\":16340:16359   */\n      swap1\n      pop\n        /* \"#utility.yul\":15999:16365   */\n      swap2\n      swap1\n      pop\n      jump\t// out\n        /* \"#utility.yul\":16371:16790   */\n    tag_91:\n        /* \"#utility.yul\":16537:16541   */\n      0x00\n        /* \"#utility.yul\":16575:16577   */\n      0x20\n        /* \"#utility.yul\":16564:16573   */\n      dup3\n        /* \"#utility.yul\":16560:16578   */\n      add\n        /* \"#utility.yul\":16552:16578   */\n      swap1\n      pop\n        /* \"#utility.yul\":16624:16633   */\n      dup2\n        /* \"#utility.yul\":16618:16622   */\n      dup2\n        /* \"#utility.yul\":16614:16634   */\n      sub\n        /* \"#utility.yul\":16610:16611   */\n      0x00\n        /* \"#utility.yul\":16599:16608   */\n      dup4\n        /* \"#utility.yul\":16595:16612   */\n      add\n        /* \"#utility.yul\":16588:16635   */\n      mstore\n        /* \"#utility.yul\":16652:16783   */\n      tag_286\n        /* \"#utility.yul\":16778:16782   */\n      dup2\n        /* \"#utility.yul\":16652:16783   */\n      tag_147\n      jump\t// in\n    tag_286:\n        /* \"#utility.yul\":16644:16783   */\n      swap1\n      pop\n        /* \"#utility.yul\":16371:16790   */\n      swap2\n      swap1\n      pop\n      jump\t// out\n\n    auxdata: 0xa26469706673582212204ebfd0c8032ae1d7aa47af4cf1bdf612319456065c9273701a6f7b04d3d89f6364736f6c63430008190033\n}\n",
				"bytecode": {
					"linkReferences": {},
					"object": "6080604052348015600e575f80fd5b50335f806101000a81548173ffffffffffffffffffffffffffffffffffffffff021916908373ffffffffffffffffffffffffffffffffffffffff16021790555060015f60146101000a81548160ff0219169083151502179055505f60015f6101000a81548173ffffffffffffffffffffffffffffffffffffffff021916908373ffffffffffffffffffffffffffffffffffffffff160217905550611038806100b55f395ff3fe60806040526004361061007a575f3560e01c80639114bde81161004d5780639114bde814610104578063b25924c11461012e578063fc7e286d1461016b578063fe006996146101a75761007a565b806322f3e2d41461007e5780638ade2ac4146100a85780638da5cb5b146100be57806390bfbc42146100e8575b5f80fd5b348015610089575f80fd5b506100926101d1565b60405161009f919061088c565b60405180910390f35b3480156100b3575f80fd5b506100bc6101e3565b005b3480156100c9575f80fd5b506100d2610543565b6040516100df91906108e4565b60405180910390f35b61010260048036038101906100fd9190610934565b610566565b005b34801561010f575f80fd5b50610118610730565b60405161012591906108e4565b60405180910390f35b348015610139575f80fd5b50610154600480360381019061014f9190610934565b610755565b60405161016292919061096e565b60405180910390f35b348015610176575f80fd5b50610191600480360381019061018c91906109bf565b6107a3565b60405161019e91906109ea565b60405180910390f35b3480156101b2575f80fd5b506101bb6107b8565b6040516101c89190610af6565b60405180910390f35b5f60149054906101000a900460ff1681565b5f8054906101000a900473ffffffffffffffffffffffffffffffffffffffff1673ffffffffffffffffffffffffffffffffffffffff163373ffffffffffffffffffffffffffffffffffffffff1614610270576040517f08c379a000000000000000000000000000000000000000000000000000000000815260040161026790610b96565b60405180910390fd5b5f60149054906101000a900460ff166102be576040517f08c379a00000000000000000000000000000000000000000000000000000000081526004016102b590610bfe565b60405180910390fd5b5f60038054905011610305576040517f08c379a00000000000000000000000000000000000000000000000000000000081526004016102fc90610c8c565b60405180910390fd5b5f60038054905042443360405160200161032193929190610d0f565b604051602081830303815290604052805190602001205f1c6103439190610d78565b90506003818154811061035957610358610da8565b5b905f5260205f2090600202015f015f9054906101000a900473ffffffffffffffffffffffffffffffffffffffff1660015f6101000a81548173ffffffffffffffffffffffffffffffffffffffff021916908373ffffffffffffffffffffffffffffffffffffffff1602179055505f4790505f8060146101000a81548160ff0219169083151502179055505f60015f9054906101000a900473ffffffffffffffffffffffffffffffffffffffff1673ffffffffffffffffffffffffffffffffffffffff168260405161042990610e02565b5f6040518083038185875af1925050503d805f8114610463576040519150601f19603f3d011682016040523d82523d5f602084013e610468565b606091505b50509050806104ac576040517f08c379a00000000000000000000000000000000000000000000000000000000081526004016104a390610e86565b60405180910390fd5b60015f9054906101000a900473ffffffffffffffffffffffffffffffffffffffff1673ffffffffffffffffffffffffffffffffffffffff167f12ea6c23e511e55c52a9fb1da8e50984ca5694ef1729b2be6288db49c81351de6003858154811061051957610518610da8565b5b905f5260205f2090600202016001015460405161053691906109ea565b60405180910390a2505050565b5f8054906101000a900473ffffffffffffffffffffffffffffffffffffffff1681565b5f60149054906101000a900460ff166105b4576040517f08c379a00000000000000000000000000000000000000000000000000000000081526004016105ab90610eee565b60405180910390fd5b60013410156105f8576040517f08c379a00000000000000000000000000000000000000000000000000000000081526004016105ef90610f7c565b60405180910390fd5b609681111561063c576040517f08c379a000000000000000000000000000000000000000000000000000000000815260040161063390610fe4565b60405180910390fd5b600360405180604001604052803373ffffffffffffffffffffffffffffffffffffffff16815260200183815250908060018154018082558091505060019003905f5260205f2090600202015f909190919091505f820151815f015f6101000a81548173ffffffffffffffffffffffffffffffffffffffff021916908373ffffffffffffffffffffffffffffffffffffffff1602179055506020820151816001015550503373ffffffffffffffffffffffffffffffffffffffff167f5b228daad84dd3fb69832cea9e93c4b19dcb156e88fa5626bca1b46643b1c8fc8260405161072591906109ea565b60405180910390a250565b60015f9054906101000a900473ffffffffffffffffffffffffffffffffffffffff1681565b60038181548110610764575f80fd5b905f5260205f2090600202015f91509050805f015f9054906101000a900473ffffffffffffffffffffffffffffffffffffffff16908060010154905082565b6002602052805f5260405f205f915090505481565b60606003805480602002602001604051908101604052809291908181526020015f905b82821015610869578382905f5260205f2090600202016040518060400160405290815f82015f9054906101000a900473ffffffffffffffffffffffffffffffffffffffff1673ffffffffffffffffffffffffffffffffffffffff1673ffffffffffffffffffffffffffffffffffffffff168152602001600182015481525050815260200190600101906107db565b50505050905090565b5f8115159050919050565b61088681610872565b82525050565b5f60208201905061089f5f83018461087d565b92915050565b5f73ffffffffffffffffffffffffffffffffffffffff82169050919050565b5f6108ce826108a5565b9050919050565b6108de816108c4565b82525050565b5f6020820190506108f75f8301846108d5565b92915050565b5f80fd5b5f819050919050565b61091381610901565b811461091d575f80fd5b50565b5f8135905061092e8161090a565b92915050565b5f60208284031215610949576109486108fd565b5b5f61095684828501610920565b91505092915050565b61096881610901565b82525050565b5f6040820190506109815f8301856108d5565b61098e602083018461095f565b9392505050565b61099e816108c4565b81146109a8575f80fd5b50565b5f813590506109b981610995565b92915050565b5f602082840312156109d4576109d36108fd565b5b5f6109e1848285016109ab565b91505092915050565b5f6020820190506109fd5f83018461095f565b92915050565b5f81519050919050565b5f82825260208201905092915050565b5f819050602082019050919050565b610a35816108c4565b82525050565b610a4481610901565b82525050565b604082015f820151610a5e5f850182610a2c565b506020820151610a716020850182610a3b565b50505050565b5f610a828383610a4a565b60408301905092915050565b5f602082019050919050565b5f610aa482610a03565b610aae8185610a0d565b9350610ab983610a1d565b805f5b83811015610ae9578151610ad08882610a77565b9750610adb83610a8e565b925050600181019050610abc565b5085935050505092915050565b5f6020820190508181035f830152610b0e8184610a9a565b905092915050565b5f82825260208201905092915050565b7f4e6f207469656e6573207065726d69736f207061726120656a656375746172205f8201527f657374612066756e63696f6e0000000000000000000000000000000000000000602082015250565b5f610b80602c83610b16565b9150610b8b82610b26565b604082019050919050565b5f6020820190508181035f830152610bad81610b74565b9050919050565b7f4c61206c6f7465726961207961206861207369646f2066696e616c697a6164615f82015250565b5f610be8602083610b16565b9150610bf382610bb4565b602082019050919050565b5f6020820190508181035f830152610c1581610bdc565b9050919050565b7f4e6f20686179207061727469636970616e74657320656e206c61206c6f7465725f8201527f6961000000000000000000000000000000000000000000000000000000000000602082015250565b5f610c76602283610b16565b9150610c8182610c1c565b604082019050919050565b5f6020820190508181035f830152610ca381610c6a565b9050919050565b5f819050919050565b610cc4610cbf82610901565b610caa565b82525050565b5f8160601b9050919050565b5f610ce082610cca565b9050919050565b5f610cf182610cd6565b9050919050565b610d09610d04826108c4565b610ce7565b82525050565b5f610d1a8286610cb3565b602082019150610d2a8285610cb3565b602082019150610d3a8284610cf8565b601482019150819050949350505050565b7f4e487b71000000000000000000000000000000000000000000000000000000005f52601260045260245ffd5b5f610d8282610901565b9150610d8d83610901565b925082610d9d57610d9c610d4b565b5b828206905092915050565b7f4e487b71000000000000000000000000000000000000000000000000000000005f52603260045260245ffd5b5f81905092915050565b50565b5f610ded5f83610dd5565b9150610df882610ddf565b5f82019050919050565b5f610e0c82610de2565b9150819050919050565b7f4c61207472616e73666572656e63696120646520666f6e646f7320616c2067615f8201527f6e61646f722068612066616c6c61646f00000000000000000000000000000000602082015250565b5f610e70603083610b16565b9150610e7b82610e16565b604082019050919050565b5f6020820190508181035f830152610e9d81610e64565b9050919050565b7f4c61206c6f7465726961206573746120636572726164610000000000000000005f82015250565b5f610ed8601783610b16565b9150610ee382610ea4565b602082019050919050565b5f6020820190508181035f830152610f0581610ecc565b9050919050565b7f456c206d6f6e746f20646562652073657220616c206d656e6f732064652031205f8201527f776569207061726120706172746963697061722e000000000000000000000000602082015250565b5f610f66603483610b16565b9150610f7182610f0c565b604082019050919050565b5f6020820190508181035f830152610f9381610f5a565b9050919050565b7f536f6e20736f6c6f20313530206e756d65726f730000000000000000000000005f82015250565b5f610fce601483610b16565b9150610fd982610f9a565b602082019050919050565b5f6020820190508181035f830152610ffb81610fc2565b905091905056fea26469706673582212204ebfd0c8032ae1d7aa47af4cf1bdf612319456065c9273701a6f7b04d3d89f6364736f6c63430008190033",
					"opcodes": "PUSH1 0x80 PUSH1 0x40 MSTORE CALLVALUE DUP1 ISZERO PUSH1 0xE JUMPI PUSH0 DUP1 REVERT JUMPDEST POP CALLER PUSH0 DUP1 PUSH2 0x100 EXP DUP2 SLOAD DUP2 PUSH20 0xFFFFFFFFFFFFFFFFFFFFFFFFFFFFFFFFFFFFFFFF MUL NOT AND SWAP1 DUP4 PUSH20 0xFFFFFFFFFFFFFFFFFFFFFFFFFFFFFFFFFFFFFFFF AND MUL OR SWAP1 SSTORE POP PUSH1 0x1 PUSH0 PUSH1 0x14 PUSH2 0x100 EXP DUP2 SLOAD DUP2 PUSH1 0xFF MUL NOT AND SWAP1 DUP4 ISZERO ISZERO MUL OR SWAP1 SSTORE POP PUSH0 PUSH1 0x1 PUSH0 PUSH2 0x100 EXP DUP2 SLOAD DUP2 PUSH20 0xFFFFFFFFFFFFFFFFFFFFFFFFFFFFFFFFFFFFFFFF MUL NOT AND SWAP1 DUP4 PUSH20 0xFFFFFFFFFFFFFFFFFFFFFFFFFFFFFFFFFFFFFFFF AND MUL OR SWAP1 SSTORE POP PUSH2 0x1038 DUP1 PUSH2 0xB5 PUSH0 CODECOPY PUSH0 RETURN INVALID PUSH1 0x80 PUSH1 0x40 MSTORE PUSH1 0x4 CALLDATASIZE LT PUSH2 0x7A JUMPI PUSH0 CALLDATALOAD PUSH1 0xE0 SHR DUP1 PUSH4 0x9114BDE8 GT PUSH2 0x4D JUMPI DUP1 PUSH4 0x9114BDE8 EQ PUSH2 0x104 JUMPI DUP1 PUSH4 0xB25924C1 EQ PUSH2 0x12E JUMPI DUP1 PUSH4 0xFC7E286D EQ PUSH2 0x16B JUMPI DUP1 PUSH4 0xFE006996 EQ PUSH2 0x1A7 JUMPI PUSH2 0x7A JUMP JUMPDEST DUP1 PUSH4 0x22F3E2D4 EQ PUSH2 0x7E JUMPI DUP1 PUSH4 0x8ADE2AC4 EQ PUSH2 0xA8 JUMPI DUP1 PUSH4 0x8DA5CB5B EQ PUSH2 0xBE JUMPI DUP1 PUSH4 0x90BFBC42 EQ PUSH2 0xE8 JUMPI JUMPDEST PUSH0 DUP1 REVERT JUMPDEST CALLVALUE DUP1 ISZERO PUSH2 0x89 JUMPI PUSH0 DUP1 REVERT JUMPDEST POP PUSH2 0x92 PUSH2 0x1D1 JUMP JUMPDEST PUSH1 0x40 MLOAD PUSH2 0x9F SWAP2 SWAP1 PUSH2 0x88C JUMP JUMPDEST PUSH1 0x40 MLOAD DUP1 SWAP2 SUB SWAP1 RETURN JUMPDEST CALLVALUE DUP1 ISZERO PUSH2 0xB3 JUMPI PUSH0 DUP1 REVERT JUMPDEST POP PUSH2 0xBC PUSH2 0x1E3 JUMP JUMPDEST STOP JUMPDEST CALLVALUE DUP1 ISZERO PUSH2 0xC9 JUMPI PUSH0 DUP1 REVERT JUMPDEST POP PUSH2 0xD2 PUSH2 0x543 JUMP JUMPDEST PUSH1 0x40 MLOAD PUSH2 0xDF SWAP2 SWAP1 PUSH2 0x8E4 JUMP JUMPDEST PUSH1 0x40 MLOAD DUP1 SWAP2 SUB SWAP1 RETURN JUMPDEST PUSH2 0x102 PUSH1 0x4 DUP1 CALLDATASIZE SUB DUP2 ADD SWAP1 PUSH2 0xFD SWAP2 SWAP1 PUSH2 0x934 JUMP JUMPDEST PUSH2 0x566 JUMP JUMPDEST STOP JUMPDEST CALLVALUE DUP1 ISZERO PUSH2 0x10F JUMPI PUSH0 DUP1 REVERT JUMPDEST POP PUSH2 0x118 PUSH2 0x730 JUMP JUMPDEST PUSH1 0x40 MLOAD PUSH2 0x125 SWAP2 SWAP1 PUSH2 0x8E4 JUMP JUMPDEST PUSH1 0x40 MLOAD DUP1 SWAP2 SUB SWAP1 RETURN JUMPDEST CALLVALUE DUP1 ISZERO PUSH2 0x139 JUMPI PUSH0 DUP1 REVERT JUMPDEST POP PUSH2 0x154 PUSH1 0x4 DUP1 CALLDATASIZE SUB DUP2 ADD SWAP1 PUSH2 0x14F SWAP2 SWAP1 PUSH2 0x934 JUMP JUMPDEST PUSH2 0x755 JUMP JUMPDEST PUSH1 0x40 MLOAD PUSH2 0x162 SWAP3 SWAP2 SWAP1 PUSH2 0x96E JUMP JUMPDEST PUSH1 0x40 MLOAD DUP1 SWAP2 SUB SWAP1 RETURN JUMPDEST CALLVALUE DUP1 ISZERO PUSH2 0x176 JUMPI PUSH0 DUP1 REVERT JUMPDEST POP PUSH2 0x191 PUSH1 0x4 DUP1 CALLDATASIZE SUB DUP2 ADD SWAP1 PUSH2 0x18C SWAP2 SWAP1 PUSH2 0x9BF JUMP JUMPDEST PUSH2 0x7A3 JUMP JUMPDEST PUSH1 0x40 MLOAD PUSH2 0x19E SWAP2 SWAP1 PUSH2 0x9EA JUMP JUMPDEST PUSH1 0x40 MLOAD DUP1 SWAP2 SUB SWAP1 RETURN JUMPDEST CALLVALUE DUP1 ISZERO PUSH2 0x1B2 JUMPI PUSH0 DUP1 REVERT JUMPDEST POP PUSH2 0x1BB PUSH2 0x7B8 JUMP JUMPDEST PUSH1 0x40 MLOAD PUSH2 0x1C8 SWAP2 SWAP1 PUSH2 0xAF6 JUMP JUMPDEST PUSH1 0x40 MLOAD DUP1 SWAP2 SUB SWAP1 RETURN JUMPDEST PUSH0 PUSH1 0x14 SWAP1 SLOAD SWAP1 PUSH2 0x100 EXP SWAP1 DIV PUSH1 0xFF AND DUP2 JUMP JUMPDEST PUSH0 DUP1 SLOAD SWAP1 PUSH2 0x100 EXP SWAP1 DIV PUSH20 0xFFFFFFFFFFFFFFFFFFFFFFFFFFFFFFFFFFFFFFFF AND PUSH20 0xFFFFFFFFFFFFFFFFFFFFFFFFFFFFFFFFFFFFFFFF AND CALLER PUSH20 0xFFFFFFFFFFFFFFFFFFFFFFFFFFFFFFFFFFFFFFFF AND EQ PUSH2 0x270 JUMPI PUSH1 0x40 MLOAD PUSH32 0x8C379A000000000000000000000000000000000000000000000000000000000 DUP2 MSTORE PUSH1 0x4 ADD PUSH2 0x267 SWAP1 PUSH2 0xB96 JUMP JUMPDEST PUSH1 0x40 MLOAD DUP1 SWAP2 SUB SWAP1 REVERT JUMPDEST PUSH0 PUSH1 0x14 SWAP1 SLOAD SWAP1 PUSH2 0x100 EXP SWAP1 DIV PUSH1 0xFF AND PUSH2 0x2BE JUMPI PUSH1 0x40 MLOAD PUSH32 0x8C379A000000000000000000000000000000000000000000000000000000000 DUP2 MSTORE PUSH1 0x4 ADD PUSH2 0x2B5 SWAP1 PUSH2 0xBFE JUMP JUMPDEST PUSH1 0x40 MLOAD DUP1 SWAP2 SUB SWAP1 REVERT JUMPDEST PUSH0 PUSH1 0x3 DUP1 SLOAD SWAP1 POP GT PUSH2 0x305 JUMPI PUSH1 0x40 MLOAD PUSH32 0x8C379A000000000000000000000000000000000000000000000000000000000 DUP2 MSTORE PUSH1 0x4 ADD PUSH2 0x2FC SWAP1 PUSH2 0xC8C JUMP JUMPDEST PUSH1 0x40 MLOAD DUP1 SWAP2 SUB SWAP1 REVERT JUMPDEST PUSH0 PUSH1 0x3 DUP1 SLOAD SWAP1 POP TIMESTAMP PREVRANDAO CALLER PUSH1 0x40 MLOAD PUSH1 0x20 ADD PUSH2 0x321 SWAP4 SWAP3 SWAP2 SWAP1 PUSH2 0xD0F JUMP JUMPDEST PUSH1 0x40 MLOAD PUSH1 0x20 DUP2 DUP4 SUB SUB DUP2 MSTORE SWAP1 PUSH1 0x40 MSTORE DUP1 MLOAD SWAP1 PUSH1 0x20 ADD KECCAK256 PUSH0 SHR PUSH2 0x343 SWAP2 SWAP1 PUSH2 0xD78 JUMP JUMPDEST SWAP1 POP PUSH1 0x3 DUP2 DUP2 SLOAD DUP2 LT PUSH2 0x359 JUMPI PUSH2 0x358 PUSH2 0xDA8 JUMP JUMPDEST JUMPDEST SWAP1 PUSH0 MSTORE PUSH1 0x20 PUSH0 KECCAK256 SWAP1 PUSH1 0x2 MUL ADD PUSH0 ADD PUSH0 SWAP1 SLOAD SWAP1 PUSH2 0x100 EXP SWAP1 DIV PUSH20 0xFFFFFFFFFFFFFFFFFFFFFFFFFFFFFFFFFFFFFFFF AND PUSH1 0x1 PUSH0 PUSH2 0x100 EXP DUP2 SLOAD DUP2 PUSH20 0xFFFFFFFFFFFFFFFFFFFFFFFFFFFFFFFFFFFFFFFF MUL NOT AND SWAP1 DUP4 PUSH20 0xFFFFFFFFFFFFFFFFFFFFFFFFFFFFFFFFFFFFFFFF AND MUL OR SWAP1 SSTORE POP PUSH0 SELFBALANCE SWAP1 POP PUSH0 DUP1 PUSH1 0x14 PUSH2 0x100 EXP DUP2 SLOAD DUP2 PUSH1 0xFF MUL NOT AND SWAP1 DUP4 ISZERO ISZERO MUL OR SWAP1 SSTORE POP PUSH0 PUSH1 0x1 PUSH0 SWAP1 SLOAD SWAP1 PUSH2 0x100 EXP SWAP1 DIV PUSH20 0xFFFFFFFFFFFFFFFFFFFFFFFFFFFFFFFFFFFFFFFF AND PUSH20 0xFFFFFFFFFFFFFFFFFFFFFFFFFFFFFFFFFFFFFFFF AND DUP3 PUSH1 0x40 MLOAD PUSH2 0x429 SWAP1 PUSH2 0xE02 JUMP JUMPDEST PUSH0 PUSH1 0x40 MLOAD DUP1 DUP4 SUB DUP2 DUP6 DUP8 GAS CALL SWAP3 POP POP POP RETURNDATASIZE DUP1 PUSH0 DUP2 EQ PUSH2 0x463 JUMPI PUSH1 0x40 MLOAD SWAP2 POP PUSH1 0x1F NOT PUSH1 0x3F RETURNDATASIZE ADD AND DUP3 ADD PUSH1 0x40 MSTORE RETURNDATASIZE DUP3 MSTORE RETURNDATASIZE PUSH0 PUSH1 0x20 DUP5 ADD RETURNDATACOPY PUSH2 0x468 JUMP JUMPDEST PUSH1 0x60 SWAP2 POP JUMPDEST POP POP SWAP1 POP DUP1 PUSH2 0x4AC JUMPI PUSH1 0x40 MLOAD PUSH32 0x8C379A000000000000000000000000000000000000000000000000000000000 DUP2 MSTORE PUSH1 0x4 ADD PUSH2 0x4A3 SWAP1 PUSH2 0xE86 JUMP JUMPDEST PUSH1 0x40 MLOAD DUP1 SWAP2 SUB SWAP1 REVERT JUMPDEST PUSH1 0x1 PUSH0 SWAP1 SLOAD SWAP1 PUSH2 0x100 EXP SWAP1 DIV PUSH20 0xFFFFFFFFFFFFFFFFFFFFFFFFFFFFFFFFFFFFFFFF AND PUSH20 0xFFFFFFFFFFFFFFFFFFFFFFFFFFFFFFFFFFFFFFFF AND PUSH32 0x12EA6C23E511E55C52A9FB1DA8E50984CA5694EF1729B2BE6288DB49C81351DE PUSH1 0x3 DUP6 DUP2 SLOAD DUP2 LT PUSH2 0x519 JUMPI PUSH2 0x518 PUSH2 0xDA8 JUMP JUMPDEST JUMPDEST SWAP1 PUSH0 MSTORE PUSH1 0x20 PUSH0 KECCAK256 SWAP1 PUSH1 0x2 MUL ADD PUSH1 0x1 ADD SLOAD PUSH1 0x40 MLOAD PUSH2 0x536 SWAP2 SWAP1 PUSH2 0x9EA JUMP JUMPDEST PUSH1 0x40 MLOAD DUP1 SWAP2 SUB SWAP1 LOG2 POP POP POP JUMP JUMPDEST PUSH0 DUP1 SLOAD SWAP1 PUSH2 0x100 EXP SWAP1 DIV PUSH20 0xFFFFFFFFFFFFFFFFFFFFFFFFFFFFFFFFFFFFFFFF AND DUP2 JUMP JUMPDEST PUSH0 PUSH1 0x14 SWAP1 SLOAD SWAP1 PUSH2 0x100 EXP SWAP1 DIV PUSH1 0xFF AND PUSH2 0x5B4 JUMPI PUSH1 0x40 MLOAD PUSH32 0x8C379A000000000000000000000000000000000000000000000000000000000 DUP2 MSTORE PUSH1 0x4 ADD PUSH2 0x5AB SWAP1 PUSH2 0xEEE JUMP JUMPDEST PUSH1 0x40 MLOAD DUP1 SWAP2 SUB SWAP1 REVERT JUMPDEST PUSH1 0x1 CALLVALUE LT ISZERO PUSH2 0x5F8 JUMPI PUSH1 0x40 MLOAD PUSH32 0x8C379A000000000000000000000000000000000000000000000000000000000 DUP2 MSTORE PUSH1 0x4 ADD PUSH2 0x5EF SWAP1 PUSH2 0xF7C JUMP JUMPDEST PUSH1 0x40 MLOAD DUP1 SWAP2 SUB SWAP1 REVERT JUMPDEST PUSH1 0x96 DUP2 GT ISZERO PUSH2 0x63C JUMPI PUSH1 0x40 MLOAD PUSH32 0x8C379A000000000000000000000000000000000000000000000000000000000 DUP2 MSTORE PUSH1 0x4 ADD PUSH2 0x633 SWAP1 PUSH2 0xFE4 JUMP JUMPDEST PUSH1 0x40 MLOAD DUP1 SWAP2 SUB SWAP1 REVERT JUMPDEST PUSH1 0x3 PUSH1 0x40 MLOAD DUP1 PUSH1 0x40 ADD PUSH1 0x40 MSTORE DUP1 CALLER PUSH20 0xFFFFFFFFFFFFFFFFFFFFFFFFFFFFFFFFFFFFFFFF AND DUP2 MSTORE PUSH1 0x20 ADD DUP4 DUP2 MSTORE POP SWAP1 DUP1 PUSH1 0x1 DUP2 SLOAD ADD DUP1 DUP3 SSTORE DUP1 SWAP2 POP POP PUSH1 0x1 SWAP1 SUB SWAP1 PUSH0 MSTORE PUSH1 0x20 PUSH0 KECCAK256 SWAP1 PUSH1 0x2 MUL ADD PUSH0 SWAP1 SWAP2 SWAP1 SWAP2 SWAP1 SWAP2 POP PUSH0 DUP3 ADD MLOAD DUP2 PUSH0 ADD PUSH0 PUSH2 0x100 EXP DUP2 SLOAD DUP2 PUSH20 0xFFFFFFFFFFFFFFFFFFFFFFFFFFFFFFFFFFFFFFFF MUL NOT AND SWAP1 DUP4 PUSH20 0xFFFFFFFFFFFFFFFFFFFFFFFFFFFFFFFFFFFFFFFF AND MUL OR SWAP1 SSTORE POP PUSH1 0x20 DUP3 ADD MLOAD DUP2 PUSH1 0x1 ADD SSTORE POP POP CALLER PUSH20 0xFFFFFFFFFFFFFFFFFFFFFFFFFFFFFFFFFFFFFFFF AND PUSH32 0x5B228DAAD84DD3FB69832CEA9E93C4B19DCB156E88FA5626BCA1B46643B1C8FC DUP3 PUSH1 0x40 MLOAD PUSH2 0x725 SWAP2 SWAP1 PUSH2 0x9EA JUMP JUMPDEST PUSH1 0x40 MLOAD DUP1 SWAP2 SUB SWAP1 LOG2 POP JUMP JUMPDEST PUSH1 0x1 PUSH0 SWAP1 SLOAD SWAP1 PUSH2 0x100 EXP SWAP1 DIV PUSH20 0xFFFFFFFFFFFFFFFFFFFFFFFFFFFFFFFFFFFFFFFF AND DUP2 JUMP JUMPDEST PUSH1 0x3 DUP2 DUP2 SLOAD DUP2 LT PUSH2 0x764 JUMPI PUSH0 DUP1 REVERT JUMPDEST SWAP1 PUSH0 MSTORE PUSH1 0x20 PUSH0 KECCAK256 SWAP1 PUSH1 0x2 MUL ADD PUSH0 SWAP2 POP SWAP1 POP DUP1 PUSH0 ADD PUSH0 SWAP1 SLOAD SWAP1 PUSH2 0x100 EXP SWAP1 DIV PUSH20 0xFFFFFFFFFFFFFFFFFFFFFFFFFFFFFFFFFFFFFFFF AND SWAP1 DUP1 PUSH1 0x1 ADD SLOAD SWAP1 POP DUP3 JUMP JUMPDEST PUSH1 0x2 PUSH1 0x20 MSTORE DUP1 PUSH0 MSTORE PUSH1 0x40 PUSH0 KECCAK256 PUSH0 SWAP2 POP SWAP1 POP SLOAD DUP2 JUMP JUMPDEST PUSH1 0x60 PUSH1 0x3 DUP1 SLOAD DUP1 PUSH1 0x20 MUL PUSH1 0x20 ADD PUSH1 0x40 MLOAD SWAP1 DUP2 ADD PUSH1 0x40 MSTORE DUP1 SWAP3 SWAP2 SWAP1 DUP2 DUP2 MSTORE PUSH1 0x20 ADD PUSH0 SWAP1 JUMPDEST DUP3 DUP3 LT ISZERO PUSH2 0x869 JUMPI DUP4 DUP3 SWAP1 PUSH0 MSTORE PUSH1 0x20 PUSH0 KECCAK256 SWAP1 PUSH1 0x2 MUL ADD PUSH1 0x40 MLOAD DUP1 PUSH1 0x40 ADD PUSH1 0x40 MSTORE SWAP1 DUP2 PUSH0 DUP3 ADD PUSH0 SWAP1 SLOAD SWAP1 PUSH2 0x100 EXP SWAP1 DIV PUSH20 0xFFFFFFFFFFFFFFFFFFFFFFFFFFFFFFFFFFFFFFFF AND PUSH20 0xFFFFFFFFFFFFFFFFFFFFFFFFFFFFFFFFFFFFFFFF AND PUSH20 0xFFFFFFFFFFFFFFFFFFFFFFFFFFFFFFFFFFFFFFFF AND DUP2 MSTORE PUSH1 0x20 ADD PUSH1 0x1 DUP3 ADD SLOAD DUP2 MSTORE POP POP DUP2 MSTORE PUSH1 0x20 ADD SWAP1 PUSH1 0x1 ADD SWAP1 PUSH2 0x7DB JUMP JUMPDEST POP POP POP POP SWAP1 POP SWAP1 JUMP JUMPDEST PUSH0 DUP2 ISZERO ISZERO SWAP1 POP SWAP2 SWAP1 POP JUMP JUMPDEST PUSH2 0x886 DUP2 PUSH2 0x872 JUMP JUMPDEST DUP3 MSTORE POP POP JUMP JUMPDEST PUSH0 PUSH1 0x20 DUP3 ADD SWAP1 POP PUSH2 0x89F PUSH0 DUP4 ADD DUP5 PUSH2 0x87D JUMP JUMPDEST SWAP3 SWAP2 POP POP JUMP JUMPDEST PUSH0 PUSH20 0xFFFFFFFFFFFFFFFFFFFFFFFFFFFFFFFFFFFFFFFF DUP3 AND SWAP1 POP SWAP2 SWAP1 POP JUMP JUMPDEST PUSH0 PUSH2 0x8CE DUP3 PUSH2 0x8A5 JUMP JUMPDEST SWAP1 POP SWAP2 SWAP1 POP JUMP JUMPDEST PUSH2 0x8DE DUP2 PUSH2 0x8C4 JUMP JUMPDEST DUP3 MSTORE POP POP JUMP JUMPDEST PUSH0 PUSH1 0x20 DUP3 ADD SWAP1 POP PUSH2 0x8F7 PUSH0 DUP4 ADD DUP5 PUSH2 0x8D5 JUMP JUMPDEST SWAP3 SWAP2 POP POP JUMP JUMPDEST PUSH0 DUP1 REVERT JUMPDEST PUSH0 DUP2 SWAP1 POP SWAP2 SWAP1 POP JUMP JUMPDEST PUSH2 0x913 DUP2 PUSH2 0x901 JUMP JUMPDEST DUP2 EQ PUSH2 0x91D JUMPI PUSH0 DUP1 REVERT JUMPDEST POP JUMP JUMPDEST PUSH0 DUP2 CALLDATALOAD SWAP1 POP PUSH2 0x92E DUP2 PUSH2 0x90A JUMP JUMPDEST SWAP3 SWAP2 POP POP JUMP JUMPDEST PUSH0 PUSH1 0x20 DUP3 DUP5 SUB SLT ISZERO PUSH2 0x949 JUMPI PUSH2 0x948 PUSH2 0x8FD JUMP JUMPDEST JUMPDEST PUSH0 PUSH2 0x956 DUP5 DUP3 DUP6 ADD PUSH2 0x920 JUMP JUMPDEST SWAP2 POP POP SWAP3 SWAP2 POP POP JUMP JUMPDEST PUSH2 0x968 DUP2 PUSH2 0x901 JUMP JUMPDEST DUP3 MSTORE POP POP JUMP JUMPDEST PUSH0 PUSH1 0x40 DUP3 ADD SWAP1 POP PUSH2 0x981 PUSH0 DUP4 ADD DUP6 PUSH2 0x8D5 JUMP JUMPDEST PUSH2 0x98E PUSH1 0x20 DUP4 ADD DUP5 PUSH2 0x95F JUMP JUMPDEST SWAP4 SWAP3 POP POP POP JUMP JUMPDEST PUSH2 0x99E DUP2 PUSH2 0x8C4 JUMP JUMPDEST DUP2 EQ PUSH2 0x9A8 JUMPI PUSH0 DUP1 REVERT JUMPDEST POP JUMP JUMPDEST PUSH0 DUP2 CALLDATALOAD SWAP1 POP PUSH2 0x9B9 DUP2 PUSH2 0x995 JUMP JUMPDEST SWAP3 SWAP2 POP POP JUMP JUMPDEST PUSH0 PUSH1 0x20 DUP3 DUP5 SUB SLT ISZERO PUSH2 0x9D4 JUMPI PUSH2 0x9D3 PUSH2 0x8FD JUMP JUMPDEST JUMPDEST PUSH0 PUSH2 0x9E1 DUP5 DUP3 DUP6 ADD PUSH2 0x9AB JUMP JUMPDEST SWAP2 POP POP SWAP3 SWAP2 POP POP JUMP JUMPDEST PUSH0 PUSH1 0x20 DUP3 ADD SWAP1 POP PUSH2 0x9FD PUSH0 DUP4 ADD DUP5 PUSH2 0x95F JUMP JUMPDEST SWAP3 SWAP2 POP POP JUMP JUMPDEST PUSH0 DUP2 MLOAD SWAP1 POP SWAP2 SWAP1 POP JUMP JUMPDEST PUSH0 DUP3 DUP3 MSTORE PUSH1 0x20 DUP3 ADD SWAP1 POP SWAP3 SWAP2 POP POP JUMP JUMPDEST PUSH0 DUP2 SWAP1 POP PUSH1 0x20 DUP3 ADD SWAP1 POP SWAP2 SWAP1 POP JUMP JUMPDEST PUSH2 0xA35 DUP2 PUSH2 0x8C4 JUMP JUMPDEST DUP3 MSTORE POP POP JUMP JUMPDEST PUSH2 0xA44 DUP2 PUSH2 0x901 JUMP JUMPDEST DUP3 MSTORE POP POP JUMP JUMPDEST PUSH1 0x40 DUP3 ADD PUSH0 DUP3 ADD MLOAD PUSH2 0xA5E PUSH0 DUP6 ADD DUP3 PUSH2 0xA2C JUMP JUMPDEST POP PUSH1 0x20 DUP3 ADD MLOAD PUSH2 0xA71 PUSH1 0x20 DUP6 ADD DUP3 PUSH2 0xA3B JUMP JUMPDEST POP POP POP POP JUMP JUMPDEST PUSH0 PUSH2 0xA82 DUP4 DUP4 PUSH2 0xA4A JUMP JUMPDEST PUSH1 0x40 DUP4 ADD SWAP1 POP SWAP3 SWAP2 POP POP JUMP JUMPDEST PUSH0 PUSH1 0x20 DUP3 ADD SWAP1 POP SWAP2 SWAP1 POP JUMP JUMPDEST PUSH0 PUSH2 0xAA4 DUP3 PUSH2 0xA03 JUMP JUMPDEST PUSH2 0xAAE DUP2 DUP6 PUSH2 0xA0D JUMP JUMPDEST SWAP4 POP PUSH2 0xAB9 DUP4 PUSH2 0xA1D JUMP JUMPDEST DUP1 PUSH0 JUMPDEST DUP4 DUP2 LT ISZERO PUSH2 0xAE9 JUMPI DUP2 MLOAD PUSH2 0xAD0 DUP9 DUP3 PUSH2 0xA77 JUMP JUMPDEST SWAP8 POP PUSH2 0xADB DUP4 PUSH2 0xA8E JUMP JUMPDEST SWAP3 POP POP PUSH1 0x1 DUP2 ADD SWAP1 POP PUSH2 0xABC JUMP JUMPDEST POP DUP6 SWAP4 POP POP POP POP SWAP3 SWAP2 POP POP JUMP JUMPDEST PUSH0 PUSH1 0x20 DUP3 ADD SWAP1 POP DUP2 DUP2 SUB PUSH0 DUP4 ADD MSTORE PUSH2 0xB0E DUP2 DUP5 PUSH2 0xA9A JUMP JUMPDEST SWAP1 POP SWAP3 SWAP2 POP POP JUMP JUMPDEST PUSH0 DUP3 DUP3 MSTORE PUSH1 0x20 DUP3 ADD SWAP1 POP SWAP3 SWAP2 POP POP JUMP JUMPDEST PUSH32 0x4E6F207469656E6573207065726D69736F207061726120656A65637574617220 PUSH0 DUP3 ADD MSTORE PUSH32 0x657374612066756E63696F6E0000000000000000000000000000000000000000 PUSH1 0x20 DUP3 ADD MSTORE POP JUMP JUMPDEST PUSH0 PUSH2 0xB80 PUSH1 0x2C DUP4 PUSH2 0xB16 JUMP JUMPDEST SWAP2 POP PUSH2 0xB8B DUP3 PUSH2 0xB26 JUMP JUMPDEST PUSH1 0x40 DUP3 ADD SWAP1 POP SWAP2 SWAP1 POP JUMP JUMPDEST PUSH0 PUSH1 0x20 DUP3 ADD SWAP1 POP DUP2 DUP2 SUB PUSH0 DUP4 ADD MSTORE PUSH2 0xBAD DUP2 PUSH2 0xB74 JUMP JUMPDEST SWAP1 POP SWAP2 SWAP1 POP JUMP JUMPDEST PUSH32 0x4C61206C6F7465726961207961206861207369646F2066696E616C697A616461 PUSH0 DUP3 ADD MSTORE POP JUMP JUMPDEST PUSH0 PUSH2 0xBE8 PUSH1 0x20 DUP4 PUSH2 0xB16 JUMP JUMPDEST SWAP2 POP PUSH2 0xBF3 DUP3 PUSH2 0xBB4 JUMP JUMPDEST PUSH1 0x20 DUP3 ADD SWAP1 POP SWAP2 SWAP1 POP JUMP JUMPDEST PUSH0 PUSH1 0x20 DUP3 ADD SWAP1 POP DUP2 DUP2 SUB PUSH0 DUP4 ADD MSTORE PUSH2 0xC15 DUP2 PUSH2 0xBDC JUMP JUMPDEST SWAP1 POP SWAP2 SWAP1 POP JUMP JUMPDEST PUSH32 0x4E6F20686179207061727469636970616E74657320656E206C61206C6F746572 PUSH0 DUP3 ADD MSTORE PUSH32 0x6961000000000000000000000000000000000000000000000000000000000000 PUSH1 0x20 DUP3 ADD MSTORE POP JUMP JUMPDEST PUSH0 PUSH2 0xC76 PUSH1 0x22 DUP4 PUSH2 0xB16 JUMP JUMPDEST SWAP2 POP PUSH2 0xC81 DUP3 PUSH2 0xC1C JUMP JUMPDEST PUSH1 0x40 DUP3 ADD SWAP1 POP SWAP2 SWAP1 POP JUMP JUMPDEST PUSH0 PUSH1 0x20 DUP3 ADD SWAP1 POP DUP2 DUP2 SUB PUSH0 DUP4 ADD MSTORE PUSH2 0xCA3 DUP2 PUSH2 0xC6A JUMP JUMPDEST SWAP1 POP SWAP2 SWAP1 POP JUMP JUMPDEST PUSH0 DUP2 SWAP1 POP SWAP2 SWAP1 POP JUMP JUMPDEST PUSH2 0xCC4 PUSH2 0xCBF DUP3 PUSH2 0x901 JUMP JUMPDEST PUSH2 0xCAA JUMP JUMPDEST DUP3 MSTORE POP POP JUMP JUMPDEST PUSH0 DUP2 PUSH1 0x60 SHL SWAP1 POP SWAP2 SWAP1 POP JUMP JUMPDEST PUSH0 PUSH2 0xCE0 DUP3 PUSH2 0xCCA JUMP JUMPDEST SWAP1 POP SWAP2 SWAP1 POP JUMP JUMPDEST PUSH0 PUSH2 0xCF1 DUP3 PUSH2 0xCD6 JUMP JUMPDEST SWAP1 POP SWAP2 SWAP1 POP JUMP JUMPDEST PUSH2 0xD09 PUSH2 0xD04 DUP3 PUSH2 0x8C4 JUMP JUMPDEST PUSH2 0xCE7 JUMP JUMPDEST DUP3 MSTORE POP POP JUMP JUMPDEST PUSH0 PUSH2 0xD1A DUP3 DUP7 PUSH2 0xCB3 JUMP JUMPDEST PUSH1 0x20 DUP3 ADD SWAP2 POP PUSH2 0xD2A DUP3 DUP6 PUSH2 0xCB3 JUMP JUMPDEST PUSH1 0x20 DUP3 ADD SWAP2 POP PUSH2 0xD3A DUP3 DUP5 PUSH2 0xCF8 JUMP JUMPDEST PUSH1 0x14 DUP3 ADD SWAP2 POP DUP2 SWAP1 POP SWAP5 SWAP4 POP POP POP POP JUMP JUMPDEST PUSH32 0x4E487B7100000000000000000000000000000000000000000000000000000000 PUSH0 MSTORE PUSH1 0x12 PUSH1 0x4 MSTORE PUSH1 0x24 PUSH0 REVERT JUMPDEST PUSH0 PUSH2 0xD82 DUP3 PUSH2 0x901 JUMP JUMPDEST SWAP2 POP PUSH2 0xD8D DUP4 PUSH2 0x901 JUMP JUMPDEST SWAP3 POP DUP3 PUSH2 0xD9D JUMPI PUSH2 0xD9C PUSH2 0xD4B JUMP JUMPDEST JUMPDEST DUP3 DUP3 MOD SWAP1 POP SWAP3 SWAP2 POP POP JUMP JUMPDEST PUSH32 0x4E487B7100000000000000000000000000000000000000000000000000000000 PUSH0 MSTORE PUSH1 0x32 PUSH1 0x4 MSTORE PUSH1 0x24 PUSH0 REVERT JUMPDEST PUSH0 DUP2 SWAP1 POP SWAP3 SWAP2 POP POP JUMP JUMPDEST POP JUMP JUMPDEST PUSH0 PUSH2 0xDED PUSH0 DUP4 PUSH2 0xDD5 JUMP JUMPDEST SWAP2 POP PUSH2 0xDF8 DUP3 PUSH2 0xDDF JUMP JUMPDEST PUSH0 DUP3 ADD SWAP1 POP SWAP2 SWAP1 POP JUMP JUMPDEST PUSH0 PUSH2 0xE0C DUP3 PUSH2 0xDE2 JUMP JUMPDEST SWAP2 POP DUP2 SWAP1 POP SWAP2 SWAP1 POP JUMP JUMPDEST PUSH32 0x4C61207472616E73666572656E63696120646520666F6E646F7320616C206761 PUSH0 DUP3 ADD MSTORE PUSH32 0x6E61646F722068612066616C6C61646F00000000000000000000000000000000 PUSH1 0x20 DUP3 ADD MSTORE POP JUMP JUMPDEST PUSH0 PUSH2 0xE70 PUSH1 0x30 DUP4 PUSH2 0xB16 JUMP JUMPDEST SWAP2 POP PUSH2 0xE7B DUP3 PUSH2 0xE16 JUMP JUMPDEST PUSH1 0x40 DUP3 ADD SWAP1 POP SWAP2 SWAP1 POP JUMP JUMPDEST PUSH0 PUSH1 0x20 DUP3 ADD SWAP1 POP DUP2 DUP2 SUB PUSH0 DUP4 ADD MSTORE PUSH2 0xE9D DUP2 PUSH2 0xE64 JUMP JUMPDEST SWAP1 POP SWAP2 SWAP1 POP JUMP JUMPDEST PUSH32 0x4C61206C6F746572696120657374612063657272616461000000000000000000 PUSH0 DUP3 ADD MSTORE POP JUMP JUMPDEST PUSH0 PUSH2 0xED8 PUSH1 0x17 DUP4 PUSH2 0xB16 JUMP JUMPDEST SWAP2 POP PUSH2 0xEE3 DUP3 PUSH2 0xEA4 JUMP JUMPDEST PUSH1 0x20 DUP3 ADD SWAP1 POP SWAP2 SWAP1 POP JUMP JUMPDEST PUSH0 PUSH1 0x20 DUP3 ADD SWAP1 POP DUP2 DUP2 SUB PUSH0 DUP4 ADD MSTORE PUSH2 0xF05 DUP2 PUSH2 0xECC JUMP JUMPDEST SWAP1 POP SWAP2 SWAP1 POP JUMP JUMPDEST PUSH32 0x456C206D6F6E746F20646562652073657220616C206D656E6F73206465203120 PUSH0 DUP3 ADD MSTORE PUSH32 0x776569207061726120706172746963697061722E000000000000000000000000 PUSH1 0x20 DUP3 ADD MSTORE POP JUMP JUMPDEST PUSH0 PUSH2 0xF66 PUSH1 0x34 DUP4 PUSH2 0xB16 JUMP JUMPDEST SWAP2 POP PUSH2 0xF71 DUP3 PUSH2 0xF0C JUMP JUMPDEST PUSH1 0x40 DUP3 ADD SWAP1 POP SWAP2 SWAP1 POP JUMP JUMPDEST PUSH0 PUSH1 0x20 DUP3 ADD SWAP1 POP DUP2 DUP2 SUB PUSH0 DUP4 ADD MSTORE PUSH2 0xF93 DUP2 PUSH2 0xF5A JUMP JUMPDEST SWAP1 POP SWAP2 SWAP1 POP JUMP JUMPDEST PUSH32 0x536F6E20736F6C6F20313530206E756D65726F73000000000000000000000000 PUSH0 DUP3 ADD MSTORE POP JUMP JUMPDEST PUSH0 PUSH2 0xFCE PUSH1 0x14 DUP4 PUSH2 0xB16 JUMP JUMPDEST SWAP2 POP PUSH2 0xFD9 DUP3 PUSH2 0xF9A JUMP JUMPDEST PUSH1 0x20 DUP3 ADD SWAP1 POP SWAP2 SWAP1 POP JUMP JUMPDEST PUSH0 PUSH1 0x20 DUP3 ADD SWAP1 POP DUP2 DUP2 SUB PUSH0 DUP4 ADD MSTORE PUSH2 0xFFB DUP2 PUSH2 0xFC2 JUMP JUMPDEST SWAP1 POP SWAP2 SWAP1 POP JUMP INVALID LOG2 PUSH5 0x6970667358 0x22 SLT KECCAK256 0x4E 0xBF 0xD0 0xC8 SUB 0x2A 0xE1 0xD7 0xAA SELFBALANCE 0xAF 0x4C CALL 0xBD 0xF6 SLT BALANCE SWAP5 JUMP MOD TLOAD SWAP3 PUSH20 0x701A6F7B04D3D89F6364736F6C63430008190033 "
				},
				"gasEstimates": {
					"creation": {
						"codeDepositCost": "830400",
						"executionCost": "73708",
						"totalCost": "904108"
					},
					"external": {
						"concursar(uint256)": "infinite",
						"deposits(address)": "2846",
						"ganador()": "2508",
						"isActive()": "2517",
						"mostrarConcursantes()": "infinite",
						"owner()": "2550",
						"participantes(uint256)": "infinite",
						"sortear()": "infinite"
					}
				},
				"methodIdentifiers": {
					"concursar(uint256)": "90bfbc42",
					"deposits(address)": "fc7e286d",
					"ganador()": "9114bde8",
					"isActive()": "22f3e2d4",
					"mostrarConcursantes()": "fe006996",
					"owner()": "8da5cb5b",
					"participantes(uint256)": "b25924c1",
					"sortear()": "8ade2ac4"
				}
			},
			"storageLayout": {
				"storage": [
					{
						"astId": 3,
						"contract": "contracts/loteriaGuille.sol:LoteriaGuille",
						"label": "owner",
						"offset": 0,
						"slot": "0",
						"type": "t_address"
					},
					{
						"astId": 5,
						"contract": "contracts/loteriaGuille.sol:LoteriaGuille",
						"label": "isActive",
						"offset": 20,
						"slot": "0",
						"type": "t_bool"
					},
					{
						"astId": 7,
						"contract": "contracts/loteriaGuille.sol:LoteriaGuille",
						"label": "ganador",
						"offset": 0,
						"slot": "1",
						"type": "t_address"
					},
					{
						"astId": 16,
						"contract": "contracts/loteriaGuille.sol:LoteriaGuille",
						"label": "deposits",
						"offset": 0,
						"slot": "2",
						"type": "t_mapping(t_address,t_uint256)"
					},
					{
						"astId": 20,
						"contract": "contracts/loteriaGuille.sol:LoteriaGuille",
						"label": "participantes",
						"offset": 0,
						"slot": "3",
						"type": "t_array(t_struct(Participante)12_storage)dyn_storage"
					}
				],
				"types": {
					"t_address": {
						"encoding": "inplace",
						"label": "address",
						"numberOfBytes": "20"
					},
					"t_array(t_struct(Participante)12_storage)dyn_storage": {
						"base": "t_struct(Participante)12_storage",
						"encoding": "dynamic_array",
						"label": "struct LoteriaGuille.Participante[]",
						"numberOfBytes": "32"
					},
					"t_bool": {
						"encoding": "inplace",
						"label": "bool",
						"numberOfBytes": "1"
					},
					"t_mapping(t_address,t_uint256)": {
						"encoding": "mapping",
						"key": "t_address",
						"label": "mapping(address => uint256)",
						"numberOfBytes": "32",
						"value": "t_uint256"
					},
					"t_struct(Participante)12_storage": {
						"encoding": "inplace",
						"label": "struct LoteriaGuille.Participante",
						"members": [
							{
								"astId": 9,
								"contract": "contracts/loteriaGuille.sol:LoteriaGuille",
								"label": "participante",
								"offset": 0,
								"slot": "0",
								"type": "t_address"
							},
							{
								"astId": 11,
								"contract": "contracts/loteriaGuille.sol:LoteriaGuille",
								"label": "numero",
								"offset": 0,
								"slot": "1",
								"type": "t_uint256"
							}
						],
						"numberOfBytes": "64"
					},
					"t_uint256": {
						"encoding": "inplace",
						"label": "uint256",
						"numberOfBytes": "32"
					}
				}
			},
			"userdoc": {
				"kind": "user",
				"methods": {},
				"version": 1
			}
		}
	}
}