{
	"contracts/001-bid-contract.sol": {
		"Auction": {
			"abi": [
				{
					"inputs": [
						{
							"internalType": "uint256",
							"name": "_durationMinutes",
							"type": "uint256"
						}
					],
					"stateMutability": "nonpayable",
					"type": "constructor"
				},
				{
					"anonymous": false,
					"inputs": [
						{
							"indexed": false,
							"internalType": "address",
							"name": "winner",
							"type": "address"
						},
						{
							"indexed": false,
							"internalType": "uint256",
							"name": "amount",
							"type": "uint256"
						}
					],
					"name": "AuctionEnded",
					"type": "event"
				},
				{
					"anonymous": false,
					"inputs": [
						{
							"indexed": true,
							"internalType": "address",
							"name": "bidder",
							"type": "address"
						},
						{
							"indexed": false,
							"internalType": "uint256",
							"name": "amount",
							"type": "uint256"
						}
					],
					"name": "NewBid",
					"type": "event"
				},
				{
					"inputs": [],
					"name": "auctionEndTime",
					"outputs": [
						{
							"internalType": "uint256",
							"name": "",
							"type": "uint256"
						}
					],
					"stateMutability": "view",
					"type": "function"
				},
				{
					"inputs": [],
					"name": "auctionExtendedTime",
					"outputs": [
						{
							"internalType": "uint256",
							"name": "",
							"type": "uint256"
						}
					],
					"stateMutability": "view",
					"type": "function"
				},
				{
					"inputs": [],
					"name": "bid",
					"outputs": [],
					"stateMutability": "payable",
					"type": "function"
				},
				{
					"inputs": [
						{
							"internalType": "address",
							"name": "",
							"type": "address"
						}
					],
					"name": "bids",
					"outputs": [
						{
							"internalType": "uint256",
							"name": "",
							"type": "uint256"
						}
					],
					"stateMutability": "view",
					"type": "function"
				},
				{
					"inputs": [],
					"name": "endAuction",
					"outputs": [],
					"stateMutability": "nonpayable",
					"type": "function"
				},
				{
					"inputs": [],
					"name": "ended",
					"outputs": [
						{
							"internalType": "bool",
							"name": "",
							"type": "bool"
						}
					],
					"stateMutability": "view",
					"type": "function"
				},
				{
					"inputs": [],
					"name": "getOffers",
					"outputs": [
						{
							"components": [
								{
									"internalType": "address",
									"name": "bidder",
									"type": "address"
								},
								{
									"internalType": "uint256",
									"name": "amount",
									"type": "uint256"
								}
							],
							"internalType": "struct Auction.Offer[]",
							"name": "",
							"type": "tuple[]"
						}
					],
					"stateMutability": "view",
					"type": "function"
				},
				{
					"inputs": [],
					"name": "getWinner",
					"outputs": [
						{
							"internalType": "address",
							"name": "",
							"type": "address"
						},
						{
							"internalType": "uint256",
							"name": "",
							"type": "uint256"
						}
					],
					"stateMutability": "view",
					"type": "function"
				},
				{
					"inputs": [],
					"name": "highestBid",
					"outputs": [
						{
							"internalType": "uint256",
							"name": "",
							"type": "uint256"
						}
					],
					"stateMutability": "view",
					"type": "function"
				},
				{
					"inputs": [],
					"name": "highestBidder",
					"outputs": [
						{
							"internalType": "address",
							"name": "",
							"type": "address"
						}
					],
					"stateMutability": "view",
					"type": "function"
				},
				{
					"inputs": [],
					"name": "minimumIncrement",
					"outputs": [
						{
							"internalType": "uint256",
							"name": "",
							"type": "uint256"
						}
					],
					"stateMutability": "view",
					"type": "function"
				},
				{
					"inputs": [
						{
							"internalType": "uint256",
							"name": "",
							"type": "uint256"
						}
					],
					"name": "offers",
					"outputs": [
						{
							"internalType": "address",
							"name": "bidder",
							"type": "address"
						},
						{
							"internalType": "uint256",
							"name": "amount",
							"type": "uint256"
						}
					],
					"stateMutability": "view",
					"type": "function"
				},
				{
					"inputs": [],
					"name": "owner",
					"outputs": [
						{
							"internalType": "address",
							"name": "",
							"type": "address"
						}
					],
					"stateMutability": "view",
					"type": "function"
				},
				{
					"inputs": [
						{
							"internalType": "uint256",
							"name": "_amount",
							"type": "uint256"
						}
					],
					"name": "partialWithdraw",
					"outputs": [],
					"stateMutability": "nonpayable",
					"type": "function"
				},
				{
					"inputs": [],
					"name": "withdraw",
					"outputs": [],
					"stateMutability": "nonpayable",
					"type": "function"
				}
			],
			"devdoc": {
				"kind": "dev",
				"methods": {},
				"version": 1
			},
			"evm": {
				"assembly": "    /* \"contracts/001-bid-contract.sol\":58:3136  contract Auction {... */\n  mstore(0x40, 0x80)\n    /* \"contracts/001-bid-contract.sol\":179:189  10 minutes */\n  0x0258\n    /* \"contracts/001-bid-contract.sol\":142:189  uint256 public auctionExtendedTime = 10 minutes */\n  0x02\n  sstore\n    /* \"contracts/001-bid-contract.sol\":294:295  5 */\n  0x05\n    /* \"contracts/001-bid-contract.sol\":260:295  uint256 public minimumIncrement = 5 */\n  dup1\n  sstore\n    /* \"contracts/001-bid-contract.sol\":990:1138  constructor(uint256 _durationMinutes) {... */\n  callvalue\n  dup1\n  iszero\n  tag_1\n  jumpi\n  0x00\n  dup1\n  revert\ntag_1:\n  pop\n  mload(0x40)\n  sub(codesize, bytecodeSize)\n  dup1\n  bytecodeSize\n  dup4\n  codecopy\n  dup2\n  dup2\n  add\n  0x40\n  mstore\n  dup2\n  add\n  swap1\n  tag_2\n  swap2\n  swap1\n  tag_3\n  jump\t// in\ntag_2:\n    /* \"contracts/001-bid-contract.sol\":1046:1056  msg.sender */\n  caller\n    /* \"contracts/001-bid-contract.sol\":1038:1043  owner */\n  0x00\n  dup1\n    /* \"contracts/001-bid-contract.sol\":1038:1056  owner = msg.sender */\n  0x0100\n  exp\n  dup2\n  sload\n  dup2\n  0xffffffffffffffffffffffffffffffffffffffff\n  mul\n  not\n  and\n  swap1\n  dup4\n  0xffffffffffffffffffffffffffffffffffffffff\n  and\n  mul\n  or\n  swap1\n  sstore\n  pop\n    /* \"contracts/001-bid-contract.sol\":1121:1130  1 minutes */\n  0x3c\n    /* \"contracts/001-bid-contract.sol\":1102:1118  _durationMinutes */\n  dup2\n    /* \"contracts/001-bid-contract.sol\":1102:1130  _durationMinutes * 1 minutes */\n  tag_6\n  swap2\n  swap1\n  tag_7\n  jump\t// in\ntag_6:\n    /* \"contracts/001-bid-contract.sol\":1083:1098  block.timestamp */\n  timestamp\n    /* \"contracts/001-bid-contract.sol\":1083:1131  block.timestamp + (_durationMinutes * 1 minutes) */\n  tag_8\n  swap2\n  swap1\n  tag_9\n  jump\t// in\ntag_8:\n    /* \"contracts/001-bid-contract.sol\":1066:1080  auctionEndTime */\n  0x01\n    /* \"contracts/001-bid-contract.sol\":1066:1131  auctionEndTime = block.timestamp + (_durationMinutes * 1 minutes) */\n  dup2\n  swap1\n  sstore\n  pop\n    /* \"contracts/001-bid-contract.sol\":990:1138  constructor(uint256 _durationMinutes) {... */\n  pop\n    /* \"contracts/001-bid-contract.sol\":58:3136  contract Auction {... */\n  jump(tag_10)\n    /* \"#utility.yul\":88:205   */\ntag_12:\n    /* \"#utility.yul\":197:198   */\n  0x00\n    /* \"#utility.yul\":194:195   */\n  dup1\n    /* \"#utility.yul\":187:199   */\n  revert\n    /* \"#utility.yul\":334:411   */\ntag_14:\n    /* \"#utility.yul\":371:378   */\n  0x00\n    /* \"#utility.yul\":400:405   */\n  dup2\n    /* \"#utility.yul\":389:405   */\n  swap1\n  pop\n    /* \"#utility.yul\":334:411   */\n  swap2\n  swap1\n  pop\n  jump\t// out\n    /* \"#utility.yul\":417:539   */\ntag_15:\n    /* \"#utility.yul\":490:514   */\n  tag_24\n    /* \"#utility.yul\":508:513   */\n  dup2\n    /* \"#utility.yul\":490:514   */\n  tag_14\n  jump\t// in\ntag_24:\n    /* \"#utility.yul\":483:488   */\n  dup2\n    /* \"#utility.yul\":480:515   */\n  eq\n    /* \"#utility.yul\":470:533   */\n  tag_25\n  jumpi\n    /* \"#utility.yul\":529:530   */\n  0x00\n    /* \"#utility.yul\":526:527   */\n  dup1\n    /* \"#utility.yul\":519:531   */\n  revert\n    /* \"#utility.yul\":470:533   */\ntag_25:\n    /* \"#utility.yul\":417:539   */\n  pop\n  jump\t// out\n    /* \"#utility.yul\":545:688   */\ntag_16:\n    /* \"#utility.yul\":602:607   */\n  0x00\n    /* \"#utility.yul\":633:639   */\n  dup2\n    /* \"#utility.yul\":627:640   */\n  mload\n    /* \"#utility.yul\":618:640   */\n  swap1\n  pop\n    /* \"#utility.yul\":649:682   */\n  tag_27\n    /* \"#utility.yul\":676:681   */\n  dup2\n    /* \"#utility.yul\":649:682   */\n  tag_15\n  jump\t// in\ntag_27:\n    /* \"#utility.yul\":545:688   */\n  swap3\n  swap2\n  pop\n  pop\n  jump\t// out\n    /* \"#utility.yul\":694:1045   */\ntag_3:\n    /* \"#utility.yul\":764:770   */\n  0x00\n    /* \"#utility.yul\":813:815   */\n  0x20\n    /* \"#utility.yul\":801:810   */\n  dup3\n    /* \"#utility.yul\":792:799   */\n  dup5\n    /* \"#utility.yul\":788:811   */\n  sub\n    /* \"#utility.yul\":784:816   */\n  slt\n    /* \"#utility.yul\":781:900   */\n  iszero\n  tag_29\n  jumpi\n    /* \"#utility.yul\":819:898   */\n  tag_30\n  tag_12\n  jump\t// in\ntag_30:\n    /* \"#utility.yul\":781:900   */\ntag_29:\n    /* \"#utility.yul\":939:940   */\n  0x00\n    /* \"#utility.yul\":964:1028   */\n  tag_31\n    /* \"#utility.yul\":1020:1027   */\n  dup5\n    /* \"#utility.yul\":1011:1017   */\n  dup3\n    /* \"#utility.yul\":1000:1009   */\n  dup6\n    /* \"#utility.yul\":996:1018   */\n  add\n    /* \"#utility.yul\":964:1028   */\n  tag_16\n  jump\t// in\ntag_31:\n    /* \"#utility.yul\":954:1028   */\n  swap2\n  pop\n    /* \"#utility.yul\":910:1038   */\n  pop\n    /* \"#utility.yul\":694:1045   */\n  swap3\n  swap2\n  pop\n  pop\n  jump\t// out\n    /* \"#utility.yul\":1051:1231   */\ntag_17:\n    /* \"#utility.yul\":1099:1176   */\n  0x4e487b7100000000000000000000000000000000000000000000000000000000\n    /* \"#utility.yul\":1096:1097   */\n  0x00\n    /* \"#utility.yul\":1089:1177   */\n  mstore\n    /* \"#utility.yul\":1196:1200   */\n  0x11\n    /* \"#utility.yul\":1193:1194   */\n  0x04\n    /* \"#utility.yul\":1186:1201   */\n  mstore\n    /* \"#utility.yul\":1220:1224   */\n  0x24\n    /* \"#utility.yul\":1217:1218   */\n  0x00\n    /* \"#utility.yul\":1210:1225   */\n  revert\n    /* \"#utility.yul\":1237:1647   */\ntag_7:\n    /* \"#utility.yul\":1277:1284   */\n  0x00\n    /* \"#utility.yul\":1300:1320   */\n  tag_34\n    /* \"#utility.yul\":1318:1319   */\n  dup3\n    /* \"#utility.yul\":1300:1320   */\n  tag_14\n  jump\t// in\ntag_34:\n    /* \"#utility.yul\":1295:1320   */\n  swap2\n  pop\n    /* \"#utility.yul\":1334:1354   */\n  tag_35\n    /* \"#utility.yul\":1352:1353   */\n  dup4\n    /* \"#utility.yul\":1334:1354   */\n  tag_14\n  jump\t// in\ntag_35:\n    /* \"#utility.yul\":1329:1354   */\n  swap3\n  pop\n    /* \"#utility.yul\":1389:1390   */\n  dup3\n    /* \"#utility.yul\":1386:1387   */\n  dup3\n    /* \"#utility.yul\":1382:1391   */\n  mul\n    /* \"#utility.yul\":1411:1441   */\n  tag_36\n    /* \"#utility.yul\":1429:1440   */\n  dup2\n    /* \"#utility.yul\":1411:1441   */\n  tag_14\n  jump\t// in\ntag_36:\n    /* \"#utility.yul\":1400:1441   */\n  swap2\n  pop\n    /* \"#utility.yul\":1590:1591   */\n  dup3\n    /* \"#utility.yul\":1581:1588   */\n  dup3\n    /* \"#utility.yul\":1577:1592   */\n  div\n    /* \"#utility.yul\":1574:1575   */\n  dup5\n    /* \"#utility.yul\":1571:1593   */\n  eq\n    /* \"#utility.yul\":1551:1552   */\n  dup4\n    /* \"#utility.yul\":1544:1553   */\n  iszero\n    /* \"#utility.yul\":1524:1607   */\n  or\n    /* \"#utility.yul\":1501:1640   */\n  tag_37\n  jumpi\n    /* \"#utility.yul\":1620:1638   */\n  tag_38\n  tag_17\n  jump\t// in\ntag_38:\n    /* \"#utility.yul\":1501:1640   */\ntag_37:\n    /* \"#utility.yul\":1285:1647   */\n  pop\n    /* \"#utility.yul\":1237:1647   */\n  swap3\n  swap2\n  pop\n  pop\n  jump\t// out\n    /* \"#utility.yul\":1653:1844   */\ntag_9:\n    /* \"#utility.yul\":1693:1696   */\n  0x00\n    /* \"#utility.yul\":1712:1732   */\n  tag_40\n    /* \"#utility.yul\":1730:1731   */\n  dup3\n    /* \"#utility.yul\":1712:1732   */\n  tag_14\n  jump\t// in\ntag_40:\n    /* \"#utility.yul\":1707:1732   */\n  swap2\n  pop\n    /* \"#utility.yul\":1746:1766   */\n  tag_41\n    /* \"#utility.yul\":1764:1765   */\n  dup4\n    /* \"#utility.yul\":1746:1766   */\n  tag_14\n  jump\t// in\ntag_41:\n    /* \"#utility.yul\":1741:1766   */\n  swap3\n  pop\n    /* \"#utility.yul\":1789:1790   */\n  dup3\n    /* \"#utility.yul\":1786:1787   */\n  dup3\n    /* \"#utility.yul\":1782:1791   */\n  add\n    /* \"#utility.yul\":1775:1791   */\n  swap1\n  pop\n    /* \"#utility.yul\":1810:1813   */\n  dup1\n    /* \"#utility.yul\":1807:1808   */\n  dup3\n    /* \"#utility.yul\":1804:1814   */\n  gt\n    /* \"#utility.yul\":1801:1837   */\n  iszero\n  tag_42\n  jumpi\n    /* \"#utility.yul\":1817:1835   */\n  tag_43\n  tag_17\n  jump\t// in\ntag_43:\n    /* \"#utility.yul\":1801:1837   */\ntag_42:\n    /* \"#utility.yul\":1653:1844   */\n  swap3\n  swap2\n  pop\n  pop\n  jump\t// out\n    /* \"contracts/001-bid-contract.sol\":58:3136  contract Auction {... */\ntag_10:\n  dataSize(sub_0)\n  dup1\n  dataOffset(sub_0)\n  0x00\n  codecopy\n  0x00\n  return\nstop\n\nsub_0: assembly {\n        /* \"contracts/001-bid-contract.sol\":58:3136  contract Auction {... */\n      mstore(0x40, 0x80)\n      jumpi(tag_1, lt(calldatasize, 0x04))\n      shr(0xe0, calldataload(0x00))\n      dup1\n      0x71d2ee6c\n      gt\n      tag_17\n      jumpi\n      dup1\n      0x91f90157\n      gt\n      tag_18\n      jumpi\n      dup1\n      0x91f90157\n      eq\n      tag_13\n      jumpi\n      dup1\n      0xc715060a\n      eq\n      tag_14\n      jumpi\n      dup1\n      0xd57bde79\n      eq\n      tag_15\n      jumpi\n      dup1\n      0xfe67a54b\n      eq\n      tag_16\n      jumpi\n      jump(tag_1)\n    tag_18:\n      dup1\n      0x71d2ee6c\n      eq\n      tag_9\n      jumpi\n      dup1\n      0x8a72ea6a\n      eq\n      tag_10\n      jumpi\n      dup1\n      0x8da5cb5b\n      eq\n      tag_11\n      jumpi\n      dup1\n      0x8e7ea5b2\n      eq\n      tag_12\n      jumpi\n      jump(tag_1)\n    tag_17:\n      dup1\n      0x3d91ce3c\n      gt\n      tag_19\n      jumpi\n      dup1\n      0x3d91ce3c\n      eq\n      tag_5\n      jumpi\n      dup1\n      0x3ee992ee\n      eq\n      tag_6\n      jumpi\n      dup1\n      0x4b449cba\n      eq\n      tag_7\n      jumpi\n      dup1\n      0x62ea82db\n      eq\n      tag_8\n      jumpi\n      jump(tag_1)\n    tag_19:\n      dup1\n      0x12fa6feb\n      eq\n      tag_2\n      jumpi\n      dup1\n      0x1998aeef\n      eq\n      tag_3\n      jumpi\n      dup1\n      0x3ccfd60b\n      eq\n      tag_4\n      jumpi\n    tag_1:\n      0x00\n      dup1\n      revert\n        /* \"contracts/001-bid-contract.sol\":301:318  bool public ended */\n    tag_2:\n      callvalue\n      dup1\n      iszero\n      tag_20\n      jumpi\n      0x00\n      dup1\n      revert\n    tag_20:\n      pop\n      tag_21\n      tag_22\n      jump\t// in\n    tag_21:\n      mload(0x40)\n      tag_23\n      swap2\n      swap1\n      tag_24\n      jump\t// in\n    tag_23:\n      mload(0x40)\n      dup1\n      swap2\n      sub\n      swap1\n      return\n        /* \"contracts/001-bid-contract.sol\":1144:1929  function bid() external payable auctionActive {... */\n    tag_3:\n      tag_25\n      tag_26\n      jump\t// in\n    tag_25:\n      stop\n        /* \"contracts/001-bid-contract.sol\":2079:2524  function withdraw() external auctionEnded {... */\n    tag_4:\n      callvalue\n      dup1\n      iszero\n      tag_27\n      jumpi\n      0x00\n      dup1\n      revert\n    tag_27:\n      pop\n      tag_28\n      tag_29\n      jump\t// in\n    tag_28:\n      stop\n        /* \"contracts/001-bid-contract.sol\":260:295  uint256 public minimumIncrement = 5 */\n    tag_5:\n      callvalue\n      dup1\n      iszero\n      tag_30\n      jumpi\n      0x00\n      dup1\n      revert\n    tag_30:\n      pop\n      tag_31\n      tag_32\n      jump\t// in\n    tag_31:\n      mload(0x40)\n      tag_33\n      swap2\n      swap1\n      tag_34\n      jump\t// in\n    tag_33:\n      mload(0x40)\n      dup1\n      swap2\n      sub\n      swap1\n      return\n        /* \"contracts/001-bid-contract.sol\":2912:3002  function getOffers() external view returns (Offer[] memory) {... */\n    tag_6:\n      callvalue\n      dup1\n      iszero\n      tag_35\n      jumpi\n      0x00\n      dup1\n      revert\n    tag_35:\n      pop\n      tag_36\n      tag_37\n      jump\t// in\n    tag_36:\n      mload(0x40)\n      tag_38\n      swap2\n      swap1\n      tag_39\n      jump\t// in\n    tag_38:\n      mload(0x40)\n      dup1\n      swap2\n      sub\n      swap1\n      return\n        /* \"contracts/001-bid-contract.sol\":107:136  uint256 public auctionEndTime */\n    tag_7:\n      callvalue\n      dup1\n      iszero\n      tag_40\n      jumpi\n      0x00\n      dup1\n      revert\n    tag_40:\n      pop\n      tag_41\n      tag_42\n      jump\t// in\n    tag_41:\n      mload(0x40)\n      tag_43\n      swap2\n      swap1\n      tag_34\n      jump\t// in\n    tag_43:\n      mload(0x40)\n      dup1\n      swap2\n      sub\n      swap1\n      return\n        /* \"contracts/001-bid-contract.sol\":426:465  mapping(address => uint256) public bids */\n    tag_8:\n      callvalue\n      dup1\n      iszero\n      tag_44\n      jumpi\n      0x00\n      dup1\n      revert\n    tag_44:\n      pop\n      tag_45\n      0x04\n      dup1\n      calldatasize\n      sub\n      dup2\n      add\n      swap1\n      tag_46\n      swap2\n      swap1\n      tag_47\n      jump\t// in\n    tag_46:\n      tag_48\n      jump\t// in\n    tag_45:\n      mload(0x40)\n      tag_49\n      swap2\n      swap1\n      tag_34\n      jump\t// in\n    tag_49:\n      mload(0x40)\n      dup1\n      swap2\n      sub\n      swap1\n      return\n        /* \"contracts/001-bid-contract.sol\":2530:2906  function partialWithdraw(uint256 _amount) external auctionActive {... */\n    tag_9:\n      callvalue\n      dup1\n      iszero\n      tag_50\n      jumpi\n      0x00\n      dup1\n      revert\n    tag_50:\n      pop\n      tag_51\n      0x04\n      dup1\n      calldatasize\n      sub\n      dup2\n      add\n      swap1\n      tag_52\n      swap2\n      swap1\n      tag_53\n      jump\t// in\n    tag_52:\n      tag_54\n      jump\t// in\n    tag_51:\n      stop\n        /* \"contracts/001-bid-contract.sol\":399:420  Offer[] public offers */\n    tag_10:\n      callvalue\n      dup1\n      iszero\n      tag_55\n      jumpi\n      0x00\n      dup1\n      revert\n    tag_55:\n      pop\n      tag_56\n      0x04\n      dup1\n      calldatasize\n      sub\n      dup2\n      add\n      swap1\n      tag_57\n      swap2\n      swap1\n      tag_53\n      jump\t// in\n    tag_57:\n      tag_58\n      jump\t// in\n    tag_56:\n      mload(0x40)\n      tag_59\n      swap3\n      swap2\n      swap1\n      tag_60\n      jump\t// in\n    tag_59:\n      mload(0x40)\n      dup1\n      swap2\n      sub\n      swap1\n      return\n        /* \"contracts/001-bid-contract.sol\":81:101  address public owner */\n    tag_11:\n      callvalue\n      dup1\n      iszero\n      tag_61\n      jumpi\n      0x00\n      dup1\n      revert\n    tag_61:\n      pop\n      tag_62\n      tag_63\n      jump\t// in\n    tag_62:\n      mload(0x40)\n      tag_64\n      swap2\n      swap1\n      tag_65\n      jump\t// in\n    tag_64:\n      mload(0x40)\n      dup1\n      swap2\n      sub\n      swap1\n      return\n        /* \"contracts/001-bid-contract.sol\":3008:3134  function getWinner() external view auctionEnded returns (address, uint256) {... */\n    tag_12:\n      callvalue\n      dup1\n      iszero\n      tag_66\n      jumpi\n      0x00\n      dup1\n      revert\n    tag_66:\n      pop\n      tag_67\n      tag_68\n      jump\t// in\n    tag_67:\n      mload(0x40)\n      tag_69\n      swap3\n      swap2\n      swap1\n      tag_60\n      jump\t// in\n    tag_69:\n      mload(0x40)\n      dup1\n      swap2\n      sub\n      swap1\n      return\n        /* \"contracts/001-bid-contract.sol\":226:254  address public highestBidder */\n    tag_13:\n      callvalue\n      dup1\n      iszero\n      tag_70\n      jumpi\n      0x00\n      dup1\n      revert\n    tag_70:\n      pop\n      tag_71\n      tag_72\n      jump\t// in\n    tag_71:\n      mload(0x40)\n      tag_73\n      swap2\n      swap1\n      tag_65\n      jump\t// in\n    tag_73:\n      mload(0x40)\n      dup1\n      swap2\n      sub\n      swap1\n      return\n        /* \"contracts/001-bid-contract.sol\":142:189  uint256 public auctionExtendedTime = 10 minutes */\n    tag_14:\n      callvalue\n      dup1\n      iszero\n      tag_74\n      jumpi\n      0x00\n      dup1\n      revert\n    tag_74:\n      pop\n      tag_75\n      tag_76\n      jump\t// in\n    tag_75:\n      mload(0x40)\n      tag_77\n      swap2\n      swap1\n      tag_34\n      jump\t// in\n    tag_77:\n      mload(0x40)\n      dup1\n      swap2\n      sub\n      swap1\n      return\n        /* \"contracts/001-bid-contract.sol\":195:220  uint256 public highestBid */\n    tag_15:\n      callvalue\n      dup1\n      iszero\n      tag_78\n      jumpi\n      0x00\n      dup1\n      revert\n    tag_78:\n      pop\n      tag_79\n      tag_80\n      jump\t// in\n    tag_79:\n      mload(0x40)\n      tag_81\n      swap2\n      swap1\n      tag_34\n      jump\t// in\n    tag_81:\n      mload(0x40)\n      dup1\n      swap2\n      sub\n      swap1\n      return\n        /* \"contracts/001-bid-contract.sol\":1935:2073  function endAuction() external onlyOwner auctionActive {... */\n    tag_16:\n      callvalue\n      dup1\n      iszero\n      tag_82\n      jumpi\n      0x00\n      dup1\n      revert\n    tag_82:\n      pop\n      tag_83\n      tag_84\n      jump\t// in\n    tag_83:\n      stop\n        /* \"contracts/001-bid-contract.sol\":301:318  bool public ended */\n    tag_22:\n      0x06\n      0x00\n      swap1\n      sload\n      swap1\n      0x0100\n      exp\n      swap1\n      div\n      0xff\n      and\n      dup2\n      jump\t// out\n        /* \"contracts/001-bid-contract.sol\":1144:1929  function bid() external payable auctionActive {... */\n    tag_26:\n        /* \"contracts/001-bid-contract.sol\":776:790  auctionEndTime */\n      sload(0x01)\n        /* \"contracts/001-bid-contract.sol\":758:773  block.timestamp */\n      timestamp\n        /* \"contracts/001-bid-contract.sol\":758:790  block.timestamp < auctionEndTime */\n      lt\n        /* \"contracts/001-bid-contract.sol\":758:800  block.timestamp < auctionEndTime && !ended */\n      dup1\n      iszero\n      tag_86\n      jumpi\n      pop\n        /* \"contracts/001-bid-contract.sol\":795:800  ended */\n      0x06\n      0x00\n      swap1\n      sload\n      swap1\n      0x0100\n      exp\n      swap1\n      div\n      0xff\n      and\n        /* \"contracts/001-bid-contract.sol\":794:800  !ended */\n      iszero\n        /* \"contracts/001-bid-contract.sol\":758:800  block.timestamp < auctionEndTime && !ended */\n    tag_86:\n        /* \"contracts/001-bid-contract.sol\":750:830  require(block.timestamp < auctionEndTime && !ended, \"La subasta no esta activa\") */\n      tag_87\n      jumpi\n      mload(0x40)\n      0x08c379a000000000000000000000000000000000000000000000000000000000\n      dup2\n      mstore\n      0x04\n      add\n      tag_88\n      swap1\n      tag_89\n      jump\t// in\n    tag_88:\n      mload(0x40)\n      dup1\n      swap2\n      sub\n      swap1\n      revert\n    tag_87:\n        /* \"contracts/001-bid-contract.sol\":1220:1221  0 */\n      0x00\n        /* \"contracts/001-bid-contract.sol\":1208:1217  msg.value */\n      callvalue\n        /* \"contracts/001-bid-contract.sol\":1208:1221  msg.value > 0 */\n      gt\n        /* \"contracts/001-bid-contract.sol\":1200:1254  require(msg.value > 0, \"La oferta debe ser mayor a 0\") */\n      tag_91\n      jumpi\n      mload(0x40)\n      0x08c379a000000000000000000000000000000000000000000000000000000000\n      dup2\n      mstore\n      0x04\n      add\n      tag_92\n      swap1\n      tag_93\n      jump\t// in\n    tag_92:\n      mload(0x40)\n      dup1\n      swap2\n      sub\n      swap1\n      revert\n    tag_91:\n        /* \"contracts/001-bid-contract.sol\":1264:1282  uint256 minimumBid */\n      0x00\n        /* \"contracts/001-bid-contract.sol\":1331:1334  100 */\n      0x64\n        /* \"contracts/001-bid-contract.sol\":1312:1328  minimumIncrement */\n      sload(0x05)\n        /* \"contracts/001-bid-contract.sol\":1299:1309  highestBid */\n      sload(0x03)\n        /* \"contracts/001-bid-contract.sol\":1299:1328  highestBid * minimumIncrement */\n      tag_94\n      swap2\n      swap1\n      tag_95\n      jump\t// in\n    tag_94:\n        /* \"contracts/001-bid-contract.sol\":1299:1334  highestBid * minimumIncrement / 100 */\n      tag_96\n      swap2\n      swap1\n      tag_97\n      jump\t// in\n    tag_96:\n        /* \"contracts/001-bid-contract.sol\":1285:1295  highestBid */\n      sload(0x03)\n        /* \"contracts/001-bid-contract.sol\":1285:1335  highestBid + (highestBid * minimumIncrement / 100) */\n      tag_98\n      swap2\n      swap1\n      tag_99\n      jump\t// in\n    tag_98:\n        /* \"contracts/001-bid-contract.sol\":1264:1335  uint256 minimumBid = highestBid + (highestBid * minimumIncrement / 100) */\n      swap1\n      pop\n        /* \"contracts/001-bid-contract.sol\":1366:1376  minimumBid */\n      dup1\n        /* \"contracts/001-bid-contract.sol\":1353:1362  msg.value */\n      callvalue\n        /* \"contracts/001-bid-contract.sol\":1353:1376  msg.value >= minimumBid */\n      lt\n      iszero\n        /* \"contracts/001-bid-contract.sol\":1345:1437  require(msg.value >= minimumBid, \"Oferta debe ser al menos 5% mayor que la oferta mas alta\") */\n      tag_100\n      jumpi\n      mload(0x40)\n      0x08c379a000000000000000000000000000000000000000000000000000000000\n      dup2\n      mstore\n      0x04\n      add\n      tag_101\n      swap1\n      tag_102\n      jump\t// in\n    tag_101:\n      mload(0x40)\n      dup1\n      swap2\n      sub\n      swap1\n      revert\n    tag_100:\n        /* \"contracts/001-bid-contract.sol\":1496:1505  msg.value */\n      callvalue\n        /* \"contracts/001-bid-contract.sol\":1476:1480  bids */\n      0x08\n        /* \"contracts/001-bid-contract.sol\":1476:1492  bids[msg.sender] */\n      0x00\n        /* \"contracts/001-bid-contract.sol\":1481:1491  msg.sender */\n      caller\n        /* \"contracts/001-bid-contract.sol\":1476:1492  bids[msg.sender] */\n      0xffffffffffffffffffffffffffffffffffffffff\n      and\n      0xffffffffffffffffffffffffffffffffffffffff\n      and\n      dup2\n      mstore\n      0x20\n      add\n      swap1\n      dup2\n      mstore\n      0x20\n      add\n      0x00\n      keccak256\n      0x00\n        /* \"contracts/001-bid-contract.sol\":1476:1505  bids[msg.sender] += msg.value */\n      dup3\n      dup3\n      sload\n      tag_103\n      swap2\n      swap1\n      tag_99\n      jump\t// in\n    tag_103:\n      swap3\n      pop\n      pop\n      dup2\n      swap1\n      sstore\n      pop\n        /* \"contracts/001-bid-contract.sol\":1515:1521  offers */\n      0x07\n        /* \"contracts/001-bid-contract.sol\":1527:1573  Offer({bidder: msg.sender, amount: msg.value}) */\n      mload(0x40)\n      dup1\n      0x40\n      add\n      0x40\n      mstore\n      dup1\n        /* \"contracts/001-bid-contract.sol\":1542:1552  msg.sender */\n      caller\n        /* \"contracts/001-bid-contract.sol\":1527:1573  Offer({bidder: msg.sender, amount: msg.value}) */\n      0xffffffffffffffffffffffffffffffffffffffff\n      and\n      dup2\n      mstore\n      0x20\n      add\n        /* \"contracts/001-bid-contract.sol\":1562:1571  msg.value */\n      callvalue\n        /* \"contracts/001-bid-contract.sol\":1527:1573  Offer({bidder: msg.sender, amount: msg.value}) */\n      dup2\n      mstore\n      pop\n        /* \"contracts/001-bid-contract.sol\":1515:1574  offers.push(Offer({bidder: msg.sender, amount: msg.value})) */\n      swap1\n      dup1\n      0x01\n      dup2\n      sload\n      add\n      dup1\n      dup3\n      sstore\n      dup1\n      swap2\n      pop\n      pop\n      0x01\n      swap1\n      sub\n      swap1\n      0x00\n      mstore\n      keccak256(0x00, 0x20)\n      swap1\n      0x02\n      mul\n      add\n      0x00\n      swap1\n      swap2\n      swap1\n      swap2\n      swap1\n      swap2\n      pop\n      0x00\n      dup3\n      add\n      mload\n      dup2\n      0x00\n      add\n      exp(0x0100, 0x00)\n      dup2\n      sload\n      dup2\n      0xffffffffffffffffffffffffffffffffffffffff\n      mul\n      not\n      and\n      swap1\n      dup4\n      0xffffffffffffffffffffffffffffffffffffffff\n      and\n      mul\n      or\n      swap1\n      sstore\n      pop\n      0x20\n      dup3\n      add\n      mload\n      dup2\n      0x01\n      add\n      sstore\n      pop\n      pop\n        /* \"contracts/001-bid-contract.sol\":1633:1642  msg.value */\n      callvalue\n        /* \"contracts/001-bid-contract.sol\":1620:1630  highestBid */\n      0x03\n        /* \"contracts/001-bid-contract.sol\":1620:1642  highestBid = msg.value */\n      dup2\n      swap1\n      sstore\n      pop\n        /* \"contracts/001-bid-contract.sol\":1668:1678  msg.sender */\n      caller\n        /* \"contracts/001-bid-contract.sol\":1652:1665  highestBidder */\n      0x04\n      0x00\n        /* \"contracts/001-bid-contract.sol\":1652:1678  highestBidder = msg.sender */\n      0x0100\n      exp\n      dup2\n      sload\n      dup2\n      0xffffffffffffffffffffffffffffffffffffffff\n      mul\n      not\n      and\n      swap1\n      dup4\n      0xffffffffffffffffffffffffffffffffffffffff\n      and\n      mul\n      or\n      swap1\n      sstore\n      pop\n        /* \"contracts/001-bid-contract.sol\":1700:1710  msg.sender */\n      caller\n        /* \"contracts/001-bid-contract.sol\":1693:1722  NewBid(msg.sender, msg.value) */\n      0xffffffffffffffffffffffffffffffffffffffff\n      and\n      0xdd0b6c6a77960e2066c96171b4d7ac9e8b4c184011f38544afa36a5bb63ec59f\n        /* \"contracts/001-bid-contract.sol\":1712:1721  msg.value */\n      callvalue\n        /* \"contracts/001-bid-contract.sol\":1693:1722  NewBid(msg.sender, msg.value) */\n      mload(0x40)\n      tag_105\n      swap2\n      swap1\n      tag_34\n      jump\t// in\n    tag_105:\n      mload(0x40)\n      dup1\n      swap2\n      sub\n      swap1\n      log2\n        /* \"contracts/001-bid-contract.sol\":1845:1859  auctionEndTime */\n      sload(0x01)\n        /* \"contracts/001-bid-contract.sol\":1823:1842  auctionExtendedTime */\n      sload(0x02)\n        /* \"contracts/001-bid-contract.sol\":1805:1820  block.timestamp */\n      timestamp\n        /* \"contracts/001-bid-contract.sol\":1805:1842  block.timestamp + auctionExtendedTime */\n      tag_106\n      swap2\n      swap1\n      tag_99\n      jump\t// in\n    tag_106:\n        /* \"contracts/001-bid-contract.sol\":1805:1859  block.timestamp + auctionExtendedTime > auctionEndTime */\n      gt\n        /* \"contracts/001-bid-contract.sol\":1801:1923  if (block.timestamp + auctionExtendedTime > auctionEndTime) {... */\n      iszero\n      tag_107\n      jumpi\n        /* \"contracts/001-bid-contract.sol\":1893:1912  auctionExtendedTime */\n      sload(0x02)\n        /* \"contracts/001-bid-contract.sol\":1875:1889  auctionEndTime */\n      0x01\n      0x00\n        /* \"contracts/001-bid-contract.sol\":1875:1912  auctionEndTime += auctionExtendedTime */\n      dup3\n      dup3\n      sload\n      tag_108\n      swap2\n      swap1\n      tag_99\n      jump\t// in\n    tag_108:\n      swap3\n      pop\n      pop\n      dup2\n      swap1\n      sstore\n      pop\n        /* \"contracts/001-bid-contract.sol\":1801:1923  if (block.timestamp + auctionExtendedTime > auctionEndTime) {... */\n    tag_107:\n        /* \"contracts/001-bid-contract.sol\":1190:1929  {... */\n      pop\n        /* \"contracts/001-bid-contract.sol\":1144:1929  function bid() external payable auctionActive {... */\n      jump\t// out\n        /* \"contracts/001-bid-contract.sol\":2079:2524  function withdraw() external auctionEnded {... */\n    tag_29:\n        /* \"contracts/001-bid-contract.sol\":915:929  auctionEndTime */\n      sload(0x01)\n        /* \"contracts/001-bid-contract.sol\":896:911  block.timestamp */\n      timestamp\n        /* \"contracts/001-bid-contract.sol\":896:929  block.timestamp >= auctionEndTime */\n      lt\n      iszero\n        /* \"contracts/001-bid-contract.sol\":896:938  block.timestamp >= auctionEndTime || ended */\n      dup1\n      tag_110\n      jumpi\n      pop\n        /* \"contracts/001-bid-contract.sol\":933:938  ended */\n      0x06\n      0x00\n      swap1\n      sload\n      swap1\n      0x0100\n      exp\n      swap1\n      div\n      0xff\n      and\n        /* \"contracts/001-bid-contract.sol\":896:938  block.timestamp >= auctionEndTime || ended */\n    tag_110:\n        /* \"contracts/001-bid-contract.sol\":888:966  require(block.timestamp >= auctionEndTime || ended, \"La subasta sigue activa\") */\n      tag_111\n      jumpi\n      mload(0x40)\n      0x08c379a000000000000000000000000000000000000000000000000000000000\n      dup2\n      mstore\n      0x04\n      add\n      tag_112\n      swap1\n      tag_113\n      jump\t// in\n    tag_112:\n      mload(0x40)\n      dup1\n      swap2\n      sub\n      swap1\n      revert\n    tag_111:\n        /* \"contracts/001-bid-contract.sol\":2131:2145  uint256 amount */\n      0x00\n        /* \"contracts/001-bid-contract.sol\":2148:2152  bids */\n      0x08\n        /* \"contracts/001-bid-contract.sol\":2148:2164  bids[msg.sender] */\n      0x00\n        /* \"contracts/001-bid-contract.sol\":2153:2163  msg.sender */\n      caller\n        /* \"contracts/001-bid-contract.sol\":2148:2164  bids[msg.sender] */\n      0xffffffffffffffffffffffffffffffffffffffff\n      and\n      0xffffffffffffffffffffffffffffffffffffffff\n      and\n      dup2\n      mstore\n      0x20\n      add\n      swap1\n      dup2\n      mstore\n      0x20\n      add\n      0x00\n      keccak256\n      sload\n        /* \"contracts/001-bid-contract.sol\":2131:2164  uint256 amount = bids[msg.sender] */\n      swap1\n      pop\n        /* \"contracts/001-bid-contract.sol\":2191:2192  0 */\n      0x00\n        /* \"contracts/001-bid-contract.sol\":2182:2188  amount */\n      dup2\n        /* \"contracts/001-bid-contract.sol\":2182:2192  amount > 0 */\n      gt\n        /* \"contracts/001-bid-contract.sol\":2174:2223  require(amount > 0, \"No hay fondos para retirar\") */\n      tag_115\n      jumpi\n      mload(0x40)\n      0x08c379a000000000000000000000000000000000000000000000000000000000\n      dup2\n      mstore\n      0x04\n      add\n      tag_116\n      swap1\n      tag_117\n      jump\t// in\n    tag_116:\n      mload(0x40)\n      dup1\n      swap2\n      sub\n      swap1\n      revert\n    tag_115:\n        /* \"contracts/001-bid-contract.sol\":2252:2253  0 */\n      0x00\n        /* \"contracts/001-bid-contract.sol\":2233:2237  bids */\n      0x08\n        /* \"contracts/001-bid-contract.sol\":2233:2249  bids[msg.sender] */\n      0x00\n        /* \"contracts/001-bid-contract.sol\":2238:2248  msg.sender */\n      caller\n        /* \"contracts/001-bid-contract.sol\":2233:2249  bids[msg.sender] */\n      0xffffffffffffffffffffffffffffffffffffffff\n      and\n      0xffffffffffffffffffffffffffffffffffffffff\n      and\n      dup2\n      mstore\n      0x20\n      add\n      swap1\n      dup2\n      mstore\n      0x20\n      add\n      0x00\n      keccak256\n        /* \"contracts/001-bid-contract.sol\":2233:2253  bids[msg.sender] = 0 */\n      dup2\n      swap1\n      sstore\n      pop\n        /* \"contracts/001-bid-contract.sol\":2374:2387  highestBidder */\n      0x04\n      0x00\n      swap1\n      sload\n      swap1\n      0x0100\n      exp\n      swap1\n      div\n      0xffffffffffffffffffffffffffffffffffffffff\n      and\n        /* \"contracts/001-bid-contract.sol\":2360:2387  msg.sender != highestBidder */\n      0xffffffffffffffffffffffffffffffffffffffff\n      and\n        /* \"contracts/001-bid-contract.sol\":2360:2370  msg.sender */\n      caller\n        /* \"contracts/001-bid-contract.sol\":2360:2387  msg.sender != highestBidder */\n      0xffffffffffffffffffffffffffffffffffffffff\n      and\n      eq\n        /* \"contracts/001-bid-contract.sol\":2356:2471  if (msg.sender != highestBidder) {... */\n      tag_118\n      jumpi\n        /* \"contracts/001-bid-contract.sol\":2403:2414  uint256 fee */\n      0x00\n        /* \"contracts/001-bid-contract.sol\":2430:2433  100 */\n      0x64\n        /* \"contracts/001-bid-contract.sol\":2426:2427  2 */\n      0x02\n        /* \"contracts/001-bid-contract.sol\":2417:2423  amount */\n      dup4\n        /* \"contracts/001-bid-contract.sol\":2417:2427  amount * 2 */\n      tag_119\n      swap2\n      swap1\n      tag_95\n      jump\t// in\n    tag_119:\n        /* \"contracts/001-bid-contract.sol\":2417:2433  amount * 2 / 100 */\n      tag_120\n      swap2\n      swap1\n      tag_97\n      jump\t// in\n    tag_120:\n        /* \"contracts/001-bid-contract.sol\":2403:2433  uint256 fee = amount * 2 / 100 */\n      swap1\n      pop\n        /* \"contracts/001-bid-contract.sol\":2457:2460  fee */\n      dup1\n        /* \"contracts/001-bid-contract.sol\":2447:2460  amount -= fee */\n      dup3\n      tag_121\n      swap2\n      swap1\n      tag_122\n      jump\t// in\n    tag_121:\n      swap2\n      pop\n        /* \"contracts/001-bid-contract.sol\":2389:2471  {... */\n      pop\n        /* \"contracts/001-bid-contract.sol\":2356:2471  if (msg.sender != highestBidder) {... */\n    tag_118:\n        /* \"contracts/001-bid-contract.sol\":2489:2499  msg.sender */\n      caller\n        /* \"contracts/001-bid-contract.sol\":2481:2509  payable(msg.sender).transfer */\n      0xffffffffffffffffffffffffffffffffffffffff\n      and\n        /* \"contracts/001-bid-contract.sol\":2481:2517  payable(msg.sender).transfer(amount) */\n      0x08fc\n        /* \"contracts/001-bid-contract.sol\":2510:2516  amount */\n      dup3\n        /* \"contracts/001-bid-contract.sol\":2481:2517  payable(msg.sender).transfer(amount) */\n      swap1\n      dup2\n      iszero\n      mul\n      swap1\n      mload(0x40)\n      0x00\n      mload(0x40)\n      dup1\n      dup4\n      sub\n      dup2\n      dup6\n      dup9\n      dup9\n      call\n      swap4\n      pop\n      pop\n      pop\n      pop\n      iszero\n      dup1\n      iszero\n      tag_124\n      jumpi\n      returndatasize\n      0x00\n      dup1\n      returndatacopy\n      revert(0x00, returndatasize)\n    tag_124:\n      pop\n        /* \"contracts/001-bid-contract.sol\":2121:2524  {... */\n      pop\n        /* \"contracts/001-bid-contract.sol\":2079:2524  function withdraw() external auctionEnded {... */\n      jump\t// out\n        /* \"contracts/001-bid-contract.sol\":260:295  uint256 public minimumIncrement = 5 */\n    tag_32:\n      sload(0x05)\n      dup2\n      jump\t// out\n        /* \"contracts/001-bid-contract.sol\":2912:3002  function getOffers() external view returns (Offer[] memory) {... */\n    tag_37:\n        /* \"contracts/001-bid-contract.sol\":2956:2970  Offer[] memory */\n      0x60\n        /* \"contracts/001-bid-contract.sol\":2989:2995  offers */\n      0x07\n        /* \"contracts/001-bid-contract.sol\":2982:2995  return offers */\n      dup1\n      sload\n      dup1\n      0x20\n      mul\n      0x20\n      add\n      mload(0x40)\n      swap1\n      dup2\n      add\n      0x40\n      mstore\n      dup1\n      swap3\n      swap2\n      swap1\n      dup2\n      dup2\n      mstore\n      0x20\n      add\n      0x00\n      swap1\n    tag_126:\n      dup3\n      dup3\n      lt\n      iszero\n      tag_127\n      jumpi\n      dup4\n      dup3\n      swap1\n      0x00\n      mstore\n      keccak256(0x00, 0x20)\n      swap1\n      0x02\n      mul\n      add\n      mload(0x40)\n      dup1\n      0x40\n      add\n      0x40\n      mstore\n      swap1\n      dup2\n      0x00\n      dup3\n      add\n      0x00\n      swap1\n      sload\n      swap1\n      0x0100\n      exp\n      swap1\n      div\n      0xffffffffffffffffffffffffffffffffffffffff\n      and\n      0xffffffffffffffffffffffffffffffffffffffff\n      and\n      0xffffffffffffffffffffffffffffffffffffffff\n      and\n      dup2\n      mstore\n      0x20\n      add\n      0x01\n      dup3\n      add\n      sload\n      dup2\n      mstore\n      pop\n      pop\n      dup2\n      mstore\n      0x20\n      add\n      swap1\n      0x01\n      add\n      swap1\n      jump(tag_126)\n    tag_127:\n      pop\n      pop\n      pop\n      pop\n      swap1\n      pop\n        /* \"contracts/001-bid-contract.sol\":2912:3002  function getOffers() external view returns (Offer[] memory) {... */\n      swap1\n      jump\t// out\n        /* \"contracts/001-bid-contract.sol\":107:136  uint256 public auctionEndTime */\n    tag_42:\n      sload(0x01)\n      dup2\n      jump\t// out\n        /* \"contracts/001-bid-contract.sol\":426:465  mapping(address => uint256) public bids */\n    tag_48:\n      mstore(0x20, 0x08)\n      dup1\n      0x00\n      mstore\n      keccak256(0x00, 0x40)\n      0x00\n      swap2\n      pop\n      swap1\n      pop\n      sload\n      dup2\n      jump\t// out\n        /* \"contracts/001-bid-contract.sol\":2530:2906  function partialWithdraw(uint256 _amount) external auctionActive {... */\n    tag_54:\n        /* \"contracts/001-bid-contract.sol\":776:790  auctionEndTime */\n      sload(0x01)\n        /* \"contracts/001-bid-contract.sol\":758:773  block.timestamp */\n      timestamp\n        /* \"contracts/001-bid-contract.sol\":758:790  block.timestamp < auctionEndTime */\n      lt\n        /* \"contracts/001-bid-contract.sol\":758:800  block.timestamp < auctionEndTime && !ended */\n      dup1\n      iszero\n      tag_130\n      jumpi\n      pop\n        /* \"contracts/001-bid-contract.sol\":795:800  ended */\n      0x06\n      0x00\n      swap1\n      sload\n      swap1\n      0x0100\n      exp\n      swap1\n      div\n      0xff\n      and\n        /* \"contracts/001-bid-contract.sol\":794:800  !ended */\n      iszero\n        /* \"contracts/001-bid-contract.sol\":758:800  block.timestamp < auctionEndTime && !ended */\n    tag_130:\n        /* \"contracts/001-bid-contract.sol\":750:830  require(block.timestamp < auctionEndTime && !ended, \"La subasta no esta activa\") */\n      tag_131\n      jumpi\n      mload(0x40)\n      0x08c379a000000000000000000000000000000000000000000000000000000000\n      dup2\n      mstore\n      0x04\n      add\n      tag_132\n      swap1\n      tag_89\n      jump\t// in\n    tag_132:\n      mload(0x40)\n      dup1\n      swap2\n      sub\n      swap1\n      revert\n    tag_131:\n        /* \"contracts/001-bid-contract.sol\":2605:2628  uint256 availableAmount */\n      0x00\n        /* \"contracts/001-bid-contract.sol\":2650:2660  highestBid */\n      sload(0x03)\n        /* \"contracts/001-bid-contract.sol\":2631:2635  bids */\n      0x08\n        /* \"contracts/001-bid-contract.sol\":2631:2647  bids[msg.sender] */\n      0x00\n        /* \"contracts/001-bid-contract.sol\":2636:2646  msg.sender */\n      caller\n        /* \"contracts/001-bid-contract.sol\":2631:2647  bids[msg.sender] */\n      0xffffffffffffffffffffffffffffffffffffffff\n      and\n      0xffffffffffffffffffffffffffffffffffffffff\n      and\n      dup2\n      mstore\n      0x20\n      add\n      swap1\n      dup2\n      mstore\n      0x20\n      add\n      0x00\n      keccak256\n      sload\n        /* \"contracts/001-bid-contract.sol\":2631:2660  bids[msg.sender] - highestBid */\n      tag_134\n      swap2\n      swap1\n      tag_122\n      jump\t// in\n    tag_134:\n        /* \"contracts/001-bid-contract.sol\":2605:2660  uint256 availableAmount = bids[msg.sender] - highestBid */\n      swap1\n      pop\n        /* \"contracts/001-bid-contract.sol\":2696:2697  0 */\n      0x00\n        /* \"contracts/001-bid-contract.sol\":2678:2693  availableAmount */\n      dup2\n        /* \"contracts/001-bid-contract.sol\":2678:2697  availableAmount > 0 */\n      gt\n        /* \"contracts/001-bid-contract.sol\":2670:2739  require(availableAmount > 0, \"No hay fondos excedentes para retirar\") */\n      tag_135\n      jumpi\n      mload(0x40)\n      0x08c379a000000000000000000000000000000000000000000000000000000000\n      dup2\n      mstore\n      0x04\n      add\n      tag_136\n      swap1\n      tag_137\n      jump\t// in\n    tag_136:\n      mload(0x40)\n      dup1\n      swap2\n      sub\n      swap1\n      revert\n    tag_135:\n        /* \"contracts/001-bid-contract.sol\":2768:2783  availableAmount */\n      dup1\n        /* \"contracts/001-bid-contract.sol\":2757:2764  _amount */\n      dup3\n        /* \"contracts/001-bid-contract.sol\":2757:2783  _amount <= availableAmount */\n      gt\n      iszero\n        /* \"contracts/001-bid-contract.sol\":2749:2814  require(_amount <= availableAmount, \"Excede el monto disponible\") */\n      tag_138\n      jumpi\n      mload(0x40)\n      0x08c379a000000000000000000000000000000000000000000000000000000000\n      dup2\n      mstore\n      0x04\n      add\n      tag_139\n      swap1\n      tag_140\n      jump\t// in\n    tag_139:\n      mload(0x40)\n      dup1\n      swap2\n      sub\n      swap1\n      revert\n    tag_138:\n        /* \"contracts/001-bid-contract.sol\":2845:2852  _amount */\n      dup2\n        /* \"contracts/001-bid-contract.sol\":2825:2829  bids */\n      0x08\n        /* \"contracts/001-bid-contract.sol\":2825:2841  bids[msg.sender] */\n      0x00\n        /* \"contracts/001-bid-contract.sol\":2830:2840  msg.sender */\n      caller\n        /* \"contracts/001-bid-contract.sol\":2825:2841  bids[msg.sender] */\n      0xffffffffffffffffffffffffffffffffffffffff\n      and\n      0xffffffffffffffffffffffffffffffffffffffff\n      and\n      dup2\n      mstore\n      0x20\n      add\n      swap1\n      dup2\n      mstore\n      0x20\n      add\n      0x00\n      keccak256\n      0x00\n        /* \"contracts/001-bid-contract.sol\":2825:2852  bids[msg.sender] -= _amount */\n      dup3\n      dup3\n      sload\n      tag_141\n      swap2\n      swap1\n      tag_122\n      jump\t// in\n    tag_141:\n      swap3\n      pop\n      pop\n      dup2\n      swap1\n      sstore\n      pop\n        /* \"contracts/001-bid-contract.sol\":2870:2880  msg.sender */\n      caller\n        /* \"contracts/001-bid-contract.sol\":2862:2890  payable(msg.sender).transfer */\n      0xffffffffffffffffffffffffffffffffffffffff\n      and\n        /* \"contracts/001-bid-contract.sol\":2862:2899  payable(msg.sender).transfer(_amount) */\n      0x08fc\n        /* \"contracts/001-bid-contract.sol\":2891:2898  _amount */\n      dup4\n        /* \"contracts/001-bid-contract.sol\":2862:2899  payable(msg.sender).transfer(_amount) */\n      swap1\n      dup2\n      iszero\n      mul\n      swap1\n      mload(0x40)\n      0x00\n      mload(0x40)\n      dup1\n      dup4\n      sub\n      dup2\n      dup6\n      dup9\n      dup9\n      call\n      swap4\n      pop\n      pop\n      pop\n      pop\n      iszero\n      dup1\n      iszero\n      tag_143\n      jumpi\n      returndatasize\n      0x00\n      dup1\n      returndatacopy\n      revert(0x00, returndatasize)\n    tag_143:\n      pop\n        /* \"contracts/001-bid-contract.sol\":2595:2906  {... */\n      pop\n        /* \"contracts/001-bid-contract.sol\":2530:2906  function partialWithdraw(uint256 _amount) external auctionActive {... */\n      pop\n      jump\t// out\n        /* \"contracts/001-bid-contract.sol\":399:420  Offer[] public offers */\n    tag_58:\n      0x07\n      dup2\n      dup2\n      sload\n      dup2\n      lt\n      tag_144\n      jumpi\n      0x00\n      dup1\n      revert\n    tag_144:\n      swap1\n      0x00\n      mstore\n      keccak256(0x00, 0x20)\n      swap1\n      0x02\n      mul\n      add\n      0x00\n      swap2\n      pop\n      swap1\n      pop\n      dup1\n      0x00\n      add\n      0x00\n      swap1\n      sload\n      swap1\n      0x0100\n      exp\n      swap1\n      div\n      0xffffffffffffffffffffffffffffffffffffffff\n      and\n      swap1\n      dup1\n      0x01\n      add\n      sload\n      swap1\n      pop\n      dup3\n      jump\t// out\n        /* \"contracts/001-bid-contract.sol\":81:101  address public owner */\n    tag_63:\n      0x00\n      dup1\n      sload\n      swap1\n      0x0100\n      exp\n      swap1\n      div\n      0xffffffffffffffffffffffffffffffffffffffff\n      and\n      dup2\n      jump\t// out\n        /* \"contracts/001-bid-contract.sol\":3008:3134  function getWinner() external view auctionEnded returns (address, uint256) {... */\n    tag_68:\n        /* \"contracts/001-bid-contract.sol\":3065:3072  address */\n      0x00\n        /* \"contracts/001-bid-contract.sol\":3074:3081  uint256 */\n      dup1\n        /* \"contracts/001-bid-contract.sol\":915:929  auctionEndTime */\n      sload(0x01)\n        /* \"contracts/001-bid-contract.sol\":896:911  block.timestamp */\n      timestamp\n        /* \"contracts/001-bid-contract.sol\":896:929  block.timestamp >= auctionEndTime */\n      lt\n      iszero\n        /* \"contracts/001-bid-contract.sol\":896:938  block.timestamp >= auctionEndTime || ended */\n      dup1\n      tag_147\n      jumpi\n      pop\n        /* \"contracts/001-bid-contract.sol\":933:938  ended */\n      0x06\n      0x00\n      swap1\n      sload\n      swap1\n      0x0100\n      exp\n      swap1\n      div\n      0xff\n      and\n        /* \"contracts/001-bid-contract.sol\":896:938  block.timestamp >= auctionEndTime || ended */\n    tag_147:\n        /* \"contracts/001-bid-contract.sol\":888:966  require(block.timestamp >= auctionEndTime || ended, \"La subasta sigue activa\") */\n      tag_148\n      jumpi\n      mload(0x40)\n      0x08c379a000000000000000000000000000000000000000000000000000000000\n      dup2\n      mstore\n      0x04\n      add\n      tag_149\n      swap1\n      tag_113\n      jump\t// in\n    tag_149:\n      mload(0x40)\n      dup1\n      swap2\n      sub\n      swap1\n      revert\n    tag_148:\n        /* \"contracts/001-bid-contract.sol\":3101:3114  highestBidder */\n      0x04\n      0x00\n      swap1\n      sload\n      swap1\n      0x0100\n      exp\n      swap1\n      div\n      0xffffffffffffffffffffffffffffffffffffffff\n      and\n        /* \"contracts/001-bid-contract.sol\":3116:3126  highestBid */\n      sload(0x03)\n        /* \"contracts/001-bid-contract.sol\":3093:3127  return (highestBidder, highestBid) */\n      swap2\n      pop\n      swap2\n      pop\n        /* \"contracts/001-bid-contract.sol\":3008:3134  function getWinner() external view auctionEnded returns (address, uint256) {... */\n      swap1\n      swap2\n      jump\t// out\n        /* \"contracts/001-bid-contract.sol\":226:254  address public highestBidder */\n    tag_72:\n      0x04\n      0x00\n      swap1\n      sload\n      swap1\n      0x0100\n      exp\n      swap1\n      div\n      0xffffffffffffffffffffffffffffffffffffffff\n      and\n      dup2\n      jump\t// out\n        /* \"contracts/001-bid-contract.sol\":142:189  uint256 public auctionExtendedTime = 10 minutes */\n    tag_76:\n      sload(0x02)\n      dup2\n      jump\t// out\n        /* \"contracts/001-bid-contract.sol\":195:220  uint256 public highestBid */\n    tag_80:\n      sload(0x03)\n      dup2\n      jump\t// out\n        /* \"contracts/001-bid-contract.sol\":1935:2073  function endAuction() external onlyOwner auctionActive {... */\n    tag_84:\n        /* \"contracts/001-bid-contract.sol\":640:645  owner */\n      0x00\n      dup1\n      sload\n      swap1\n      0x0100\n      exp\n      swap1\n      div\n      0xffffffffffffffffffffffffffffffffffffffff\n      and\n        /* \"contracts/001-bid-contract.sol\":626:645  msg.sender == owner */\n      0xffffffffffffffffffffffffffffffffffffffff\n      and\n        /* \"contracts/001-bid-contract.sol\":626:636  msg.sender */\n      caller\n        /* \"contracts/001-bid-contract.sol\":626:645  msg.sender == owner */\n      0xffffffffffffffffffffffffffffffffffffffff\n      and\n      eq\n        /* \"contracts/001-bid-contract.sol\":618:691  require(msg.sender == owner, \"Solo el owner puede ejecutar esta funcion\") */\n      tag_152\n      jumpi\n      mload(0x40)\n      0x08c379a000000000000000000000000000000000000000000000000000000000\n      dup2\n      mstore\n      0x04\n      add\n      tag_153\n      swap1\n      tag_154\n      jump\t// in\n    tag_153:\n      mload(0x40)\n      dup1\n      swap2\n      sub\n      swap1\n      revert\n    tag_152:\n        /* \"contracts/001-bid-contract.sol\":776:790  auctionEndTime */\n      sload(0x01)\n        /* \"contracts/001-bid-contract.sol\":758:773  block.timestamp */\n      timestamp\n        /* \"contracts/001-bid-contract.sol\":758:790  block.timestamp < auctionEndTime */\n      lt\n        /* \"contracts/001-bid-contract.sol\":758:800  block.timestamp < auctionEndTime && !ended */\n      dup1\n      iszero\n      tag_156\n      jumpi\n      pop\n        /* \"contracts/001-bid-contract.sol\":795:800  ended */\n      0x06\n      0x00\n      swap1\n      sload\n      swap1\n      0x0100\n      exp\n      swap1\n      div\n      0xff\n      and\n        /* \"contracts/001-bid-contract.sol\":794:800  !ended */\n      iszero\n        /* \"contracts/001-bid-contract.sol\":758:800  block.timestamp < auctionEndTime && !ended */\n    tag_156:\n        /* \"contracts/001-bid-contract.sol\":750:830  require(block.timestamp < auctionEndTime && !ended, \"La subasta no esta activa\") */\n      tag_157\n      jumpi\n      mload(0x40)\n      0x08c379a000000000000000000000000000000000000000000000000000000000\n      dup2\n      mstore\n      0x04\n      add\n      tag_158\n      swap1\n      tag_89\n      jump\t// in\n    tag_158:\n      mload(0x40)\n      dup1\n      swap2\n      sub\n      swap1\n      revert\n    tag_157:\n        /* \"contracts/001-bid-contract.sol\":2008:2012  true */\n      0x01\n        /* \"contracts/001-bid-contract.sol\":2000:2005  ended */\n      0x06\n      0x00\n        /* \"contracts/001-bid-contract.sol\":2000:2012  ended = true */\n      0x0100\n      exp\n      dup2\n      sload\n      dup2\n      0xff\n      mul\n      not\n      and\n      swap1\n      dup4\n      iszero\n      iszero\n      mul\n      or\n      swap1\n      sstore\n      pop\n        /* \"contracts/001-bid-contract.sol\":2027:2066  AuctionEnded(highestBidder, highestBid) */\n      0xdaec4582d5d9595688c8c98545fdd1c696d41c6aeaeb636737e84ed2f5c00eda\n        /* \"contracts/001-bid-contract.sol\":2040:2053  highestBidder */\n      0x04\n      0x00\n      swap1\n      sload\n      swap1\n      0x0100\n      exp\n      swap1\n      div\n      0xffffffffffffffffffffffffffffffffffffffff\n      and\n        /* \"contracts/001-bid-contract.sol\":2055:2065  highestBid */\n      sload(0x03)\n        /* \"contracts/001-bid-contract.sol\":2027:2066  AuctionEnded(highestBidder, highestBid) */\n      mload(0x40)\n      tag_160\n      swap3\n      swap2\n      swap1\n      tag_60\n      jump\t// in\n    tag_160:\n      mload(0x40)\n      dup1\n      swap2\n      sub\n      swap1\n      log1\n        /* \"contracts/001-bid-contract.sol\":1935:2073  function endAuction() external onlyOwner auctionActive {... */\n      jump\t// out\n        /* \"#utility.yul\":7:97   */\n    tag_161:\n        /* \"#utility.yul\":41:48   */\n      0x00\n        /* \"#utility.yul\":84:89   */\n      dup2\n        /* \"#utility.yul\":77:90   */\n      iszero\n        /* \"#utility.yul\":70:91   */\n      iszero\n        /* \"#utility.yul\":59:91   */\n      swap1\n      pop\n        /* \"#utility.yul\":7:97   */\n      swap2\n      swap1\n      pop\n      jump\t// out\n        /* \"#utility.yul\":103:212   */\n    tag_162:\n        /* \"#utility.yul\":184:205   */\n      tag_206\n        /* \"#utility.yul\":199:204   */\n      dup2\n        /* \"#utility.yul\":184:205   */\n      tag_161\n      jump\t// in\n    tag_206:\n        /* \"#utility.yul\":179:182   */\n      dup3\n        /* \"#utility.yul\":172:206   */\n      mstore\n        /* \"#utility.yul\":103:212   */\n      pop\n      pop\n      jump\t// out\n        /* \"#utility.yul\":218:428   */\n    tag_24:\n        /* \"#utility.yul\":305:309   */\n      0x00\n        /* \"#utility.yul\":343:345   */\n      0x20\n        /* \"#utility.yul\":332:341   */\n      dup3\n        /* \"#utility.yul\":328:346   */\n      add\n        /* \"#utility.yul\":320:346   */\n      swap1\n      pop\n        /* \"#utility.yul\":356:421   */\n      tag_208\n        /* \"#utility.yul\":418:419   */\n      0x00\n        /* \"#utility.yul\":407:416   */\n      dup4\n        /* \"#utility.yul\":403:420   */\n      add\n        /* \"#utility.yul\":394:400   */\n      dup5\n        /* \"#utility.yul\":356:421   */\n      tag_162\n      jump\t// in\n    tag_208:\n        /* \"#utility.yul\":218:428   */\n      swap3\n      swap2\n      pop\n      pop\n      jump\t// out\n        /* \"#utility.yul\":434:511   */\n    tag_163:\n        /* \"#utility.yul\":471:478   */\n      0x00\n        /* \"#utility.yul\":500:505   */\n      dup2\n        /* \"#utility.yul\":489:505   */\n      swap1\n      pop\n        /* \"#utility.yul\":434:511   */\n      swap2\n      swap1\n      pop\n      jump\t// out\n        /* \"#utility.yul\":517:635   */\n    tag_164:\n        /* \"#utility.yul\":604:628   */\n      tag_211\n        /* \"#utility.yul\":622:627   */\n      dup2\n        /* \"#utility.yul\":604:628   */\n      tag_163\n      jump\t// in\n    tag_211:\n        /* \"#utility.yul\":599:602   */\n      dup3\n        /* \"#utility.yul\":592:629   */\n      mstore\n        /* \"#utility.yul\":517:635   */\n      pop\n      pop\n      jump\t// out\n        /* \"#utility.yul\":641:863   */\n    tag_34:\n        /* \"#utility.yul\":734:738   */\n      0x00\n        /* \"#utility.yul\":772:774   */\n      0x20\n        /* \"#utility.yul\":761:770   */\n      dup3\n        /* \"#utility.yul\":757:775   */\n      add\n        /* \"#utility.yul\":749:775   */\n      swap1\n      pop\n        /* \"#utility.yul\":785:856   */\n      tag_213\n        /* \"#utility.yul\":853:854   */\n      0x00\n        /* \"#utility.yul\":842:851   */\n      dup4\n        /* \"#utility.yul\":838:855   */\n      add\n        /* \"#utility.yul\":829:835   */\n      dup5\n        /* \"#utility.yul\":785:856   */\n      tag_164\n      jump\t// in\n    tag_213:\n        /* \"#utility.yul\":641:863   */\n      swap3\n      swap2\n      pop\n      pop\n      jump\t// out\n        /* \"#utility.yul\":869:1004   */\n    tag_165:\n        /* \"#utility.yul\":957:963   */\n      0x00\n        /* \"#utility.yul\":991:996   */\n      dup2\n        /* \"#utility.yul\":985:997   */\n      mload\n        /* \"#utility.yul\":975:997   */\n      swap1\n      pop\n        /* \"#utility.yul\":869:1004   */\n      swap2\n      swap1\n      pop\n      jump\t// out\n        /* \"#utility.yul\":1010:1215   */\n    tag_166:\n        /* \"#utility.yul\":1130:1141   */\n      0x00\n        /* \"#utility.yul\":1164:1170   */\n      dup3\n        /* \"#utility.yul\":1159:1162   */\n      dup3\n        /* \"#utility.yul\":1152:1171   */\n      mstore\n        /* \"#utility.yul\":1204:1208   */\n      0x20\n        /* \"#utility.yul\":1199:1202   */\n      dup3\n        /* \"#utility.yul\":1195:1209   */\n      add\n        /* \"#utility.yul\":1180:1209   */\n      swap1\n      pop\n        /* \"#utility.yul\":1010:1215   */\n      swap3\n      swap2\n      pop\n      pop\n      jump\t// out\n        /* \"#utility.yul\":1221:1374   */\n    tag_167:\n        /* \"#utility.yul\":1309:1313   */\n      0x00\n        /* \"#utility.yul\":1332:1335   */\n      dup2\n        /* \"#utility.yul\":1324:1335   */\n      swap1\n      pop\n        /* \"#utility.yul\":1362:1366   */\n      0x20\n        /* \"#utility.yul\":1357:1360   */\n      dup3\n        /* \"#utility.yul\":1353:1367   */\n      add\n        /* \"#utility.yul\":1345:1367   */\n      swap1\n      pop\n        /* \"#utility.yul\":1221:1374   */\n      swap2\n      swap1\n      pop\n      jump\t// out\n        /* \"#utility.yul\":1380:1506   */\n    tag_168:\n        /* \"#utility.yul\":1417:1424   */\n      0x00\n        /* \"#utility.yul\":1457:1499   */\n      0xffffffffffffffffffffffffffffffffffffffff\n        /* \"#utility.yul\":1450:1455   */\n      dup3\n        /* \"#utility.yul\":1446:1500   */\n      and\n        /* \"#utility.yul\":1435:1500   */\n      swap1\n      pop\n        /* \"#utility.yul\":1380:1506   */\n      swap2\n      swap1\n      pop\n      jump\t// out\n        /* \"#utility.yul\":1512:1608   */\n    tag_169:\n        /* \"#utility.yul\":1549:1556   */\n      0x00\n        /* \"#utility.yul\":1578:1602   */\n      tag_219\n        /* \"#utility.yul\":1596:1601   */\n      dup3\n        /* \"#utility.yul\":1578:1602   */\n      tag_168\n      jump\t// in\n    tag_219:\n        /* \"#utility.yul\":1567:1602   */\n      swap1\n      pop\n        /* \"#utility.yul\":1512:1608   */\n      swap2\n      swap1\n      pop\n      jump\t// out\n        /* \"#utility.yul\":1614:1722   */\n    tag_170:\n        /* \"#utility.yul\":1691:1715   */\n      tag_221\n        /* \"#utility.yul\":1709:1714   */\n      dup2\n        /* \"#utility.yul\":1691:1715   */\n      tag_169\n      jump\t// in\n    tag_221:\n        /* \"#utility.yul\":1686:1689   */\n      dup3\n        /* \"#utility.yul\":1679:1716   */\n      mstore\n        /* \"#utility.yul\":1614:1722   */\n      pop\n      pop\n      jump\t// out\n        /* \"#utility.yul\":1728:1836   */\n    tag_171:\n        /* \"#utility.yul\":1805:1829   */\n      tag_223\n        /* \"#utility.yul\":1823:1828   */\n      dup2\n        /* \"#utility.yul\":1805:1829   */\n      tag_163\n      jump\t// in\n    tag_223:\n        /* \"#utility.yul\":1800:1803   */\n      dup3\n        /* \"#utility.yul\":1793:1830   */\n      mstore\n        /* \"#utility.yul\":1728:1836   */\n      pop\n      pop\n      jump\t// out\n        /* \"#utility.yul\":1894:2387   */\n    tag_172:\n        /* \"#utility.yul\":2023:2027   */\n      0x40\n        /* \"#utility.yul\":2018:2021   */\n      dup3\n        /* \"#utility.yul\":2014:2028   */\n      add\n        /* \"#utility.yul\":2112:2116   */\n      0x00\n        /* \"#utility.yul\":2105:2110   */\n      dup3\n        /* \"#utility.yul\":2101:2117   */\n      add\n        /* \"#utility.yul\":2095:2118   */\n      mload\n        /* \"#utility.yul\":2131:2194   */\n      tag_225\n        /* \"#utility.yul\":2188:2192   */\n      0x00\n        /* \"#utility.yul\":2183:2186   */\n      dup6\n        /* \"#utility.yul\":2179:2193   */\n      add\n        /* \"#utility.yul\":2165:2177   */\n      dup3\n        /* \"#utility.yul\":2131:2194   */\n      tag_170\n      jump\t// in\n    tag_225:\n        /* \"#utility.yul\":2038:2204   */\n      pop\n        /* \"#utility.yul\":2288:2292   */\n      0x20\n        /* \"#utility.yul\":2281:2286   */\n      dup3\n        /* \"#utility.yul\":2277:2293   */\n      add\n        /* \"#utility.yul\":2271:2294   */\n      mload\n        /* \"#utility.yul\":2307:2370   */\n      tag_226\n        /* \"#utility.yul\":2364:2368   */\n      0x20\n        /* \"#utility.yul\":2359:2362   */\n      dup6\n        /* \"#utility.yul\":2355:2369   */\n      add\n        /* \"#utility.yul\":2341:2353   */\n      dup3\n        /* \"#utility.yul\":2307:2370   */\n      tag_171\n      jump\t// in\n    tag_226:\n        /* \"#utility.yul\":2214:2380   */\n      pop\n        /* \"#utility.yul\":1992:2387   */\n      pop\n        /* \"#utility.yul\":1894:2387   */\n      pop\n      pop\n      jump\t// out\n        /* \"#utility.yul\":2393:2656   */\n    tag_173:\n        /* \"#utility.yul\":2504:2514   */\n      0x00\n        /* \"#utility.yul\":2525:2613   */\n      tag_228\n        /* \"#utility.yul\":2609:2612   */\n      dup4\n        /* \"#utility.yul\":2601:2607   */\n      dup4\n        /* \"#utility.yul\":2525:2613   */\n      tag_172\n      jump\t// in\n    tag_228:\n        /* \"#utility.yul\":2645:2649   */\n      0x40\n        /* \"#utility.yul\":2640:2643   */\n      dup4\n        /* \"#utility.yul\":2636:2650   */\n      add\n        /* \"#utility.yul\":2622:2650   */\n      swap1\n      pop\n        /* \"#utility.yul\":2393:2656   */\n      swap3\n      swap2\n      pop\n      pop\n      jump\t// out\n        /* \"#utility.yul\":2662:2796   */\n    tag_174:\n        /* \"#utility.yul\":2753:2757   */\n      0x00\n        /* \"#utility.yul\":2785:2789   */\n      0x20\n        /* \"#utility.yul\":2780:2783   */\n      dup3\n        /* \"#utility.yul\":2776:2790   */\n      add\n        /* \"#utility.yul\":2768:2790   */\n      swap1\n      pop\n        /* \"#utility.yul\":2662:2796   */\n      swap2\n      swap1\n      pop\n      jump\t// out\n        /* \"#utility.yul\":2858:3758   */\n    tag_175:\n        /* \"#utility.yul\":3019:3022   */\n      0x00\n        /* \"#utility.yul\":3048:3123   */\n      tag_231\n        /* \"#utility.yul\":3117:3122   */\n      dup3\n        /* \"#utility.yul\":3048:3123   */\n      tag_165\n      jump\t// in\n    tag_231:\n        /* \"#utility.yul\":3139:3246   */\n      tag_232\n        /* \"#utility.yul\":3239:3245   */\n      dup2\n        /* \"#utility.yul\":3234:3237   */\n      dup6\n        /* \"#utility.yul\":3139:3246   */\n      tag_166\n      jump\t// in\n    tag_232:\n        /* \"#utility.yul\":3132:3246   */\n      swap4\n      pop\n        /* \"#utility.yul\":3270:3347   */\n      tag_233\n        /* \"#utility.yul\":3341:3346   */\n      dup4\n        /* \"#utility.yul\":3270:3347   */\n      tag_167\n      jump\t// in\n    tag_233:\n        /* \"#utility.yul\":3370:3377   */\n      dup1\n        /* \"#utility.yul\":3401:3402   */\n      0x00\n        /* \"#utility.yul\":3386:3733   */\n    tag_234:\n        /* \"#utility.yul\":3411:3417   */\n      dup4\n        /* \"#utility.yul\":3408:3409   */\n      dup2\n        /* \"#utility.yul\":3405:3418   */\n      lt\n        /* \"#utility.yul\":3386:3733   */\n      iszero\n      tag_236\n      jumpi\n        /* \"#utility.yul\":3487:3493   */\n      dup2\n        /* \"#utility.yul\":3481:3494   */\n      mload\n        /* \"#utility.yul\":3514:3619   */\n      tag_237\n        /* \"#utility.yul\":3615:3618   */\n      dup9\n        /* \"#utility.yul\":3600:3613   */\n      dup3\n        /* \"#utility.yul\":3514:3619   */\n      tag_173\n      jump\t// in\n    tag_237:\n        /* \"#utility.yul\":3507:3619   */\n      swap8\n      pop\n        /* \"#utility.yul\":3642:3723   */\n      tag_238\n        /* \"#utility.yul\":3716:3722   */\n      dup4\n        /* \"#utility.yul\":3642:3723   */\n      tag_174\n      jump\t// in\n    tag_238:\n        /* \"#utility.yul\":3632:3723   */\n      swap3\n      pop\n        /* \"#utility.yul\":3446:3733   */\n      pop\n        /* \"#utility.yul\":3433:3434   */\n      0x01\n        /* \"#utility.yul\":3430:3431   */\n      dup2\n        /* \"#utility.yul\":3426:3435   */\n      add\n        /* \"#utility.yul\":3421:3435   */\n      swap1\n      pop\n        /* \"#utility.yul\":3386:3733   */\n      jump(tag_234)\n    tag_236:\n        /* \"#utility.yul\":3390:3404   */\n      pop\n        /* \"#utility.yul\":3749:3752   */\n      dup6\n        /* \"#utility.yul\":3742:3752   */\n      swap4\n      pop\n        /* \"#utility.yul\":3024:3758   */\n      pop\n      pop\n      pop\n        /* \"#utility.yul\":2858:3758   */\n      swap3\n      swap2\n      pop\n      pop\n      jump\t// out\n        /* \"#utility.yul\":3764:4221   */\n    tag_39:\n        /* \"#utility.yul\":3949:3953   */\n      0x00\n        /* \"#utility.yul\":3987:3989   */\n      0x20\n        /* \"#utility.yul\":3976:3985   */\n      dup3\n        /* \"#utility.yul\":3972:3990   */\n      add\n        /* \"#utility.yul\":3964:3990   */\n      swap1\n      pop\n        /* \"#utility.yul\":4036:4045   */\n      dup2\n        /* \"#utility.yul\":4030:4034   */\n      dup2\n        /* \"#utility.yul\":4026:4046   */\n      sub\n        /* \"#utility.yul\":4022:4023   */\n      0x00\n        /* \"#utility.yul\":4011:4020   */\n      dup4\n        /* \"#utility.yul\":4007:4024   */\n      add\n        /* \"#utility.yul\":4000:4047   */\n      mstore\n        /* \"#utility.yul\":4064:4214   */\n      tag_240\n        /* \"#utility.yul\":4209:4213   */\n      dup2\n        /* \"#utility.yul\":4200:4206   */\n      dup5\n        /* \"#utility.yul\":4064:4214   */\n      tag_175\n      jump\t// in\n    tag_240:\n        /* \"#utility.yul\":4056:4214   */\n      swap1\n      pop\n        /* \"#utility.yul\":3764:4221   */\n      swap3\n      swap2\n      pop\n      pop\n      jump\t// out\n        /* \"#utility.yul\":4308:4425   */\n    tag_177:\n        /* \"#utility.yul\":4417:4418   */\n      0x00\n        /* \"#utility.yul\":4414:4415   */\n      dup1\n        /* \"#utility.yul\":4407:4419   */\n      revert\n        /* \"#utility.yul\":4554:4676   */\n    tag_179:\n        /* \"#utility.yul\":4627:4651   */\n      tag_245\n        /* \"#utility.yul\":4645:4650   */\n      dup2\n        /* \"#utility.yul\":4627:4651   */\n      tag_169\n      jump\t// in\n    tag_245:\n        /* \"#utility.yul\":4620:4625   */\n      dup2\n        /* \"#utility.yul\":4617:4652   */\n      eq\n        /* \"#utility.yul\":4607:4670   */\n      tag_246\n      jumpi\n        /* \"#utility.yul\":4666:4667   */\n      0x00\n        /* \"#utility.yul\":4663:4664   */\n      dup1\n        /* \"#utility.yul\":4656:4668   */\n      revert\n        /* \"#utility.yul\":4607:4670   */\n    tag_246:\n        /* \"#utility.yul\":4554:4676   */\n      pop\n      jump\t// out\n        /* \"#utility.yul\":4682:4821   */\n    tag_180:\n        /* \"#utility.yul\":4728:4733   */\n      0x00\n        /* \"#utility.yul\":4766:4772   */\n      dup2\n        /* \"#utility.yul\":4753:4773   */\n      calldataload\n        /* \"#utility.yul\":4744:4773   */\n      swap1\n      pop\n        /* \"#utility.yul\":4782:4815   */\n      tag_248\n        /* \"#utility.yul\":4809:4814   */\n      dup2\n        /* \"#utility.yul\":4782:4815   */\n      tag_179\n      jump\t// in\n    tag_248:\n        /* \"#utility.yul\":4682:4821   */\n      swap3\n      swap2\n      pop\n      pop\n      jump\t// out\n        /* \"#utility.yul\":4827:5156   */\n    tag_47:\n        /* \"#utility.yul\":4886:4892   */\n      0x00\n        /* \"#utility.yul\":4935:4937   */\n      0x20\n        /* \"#utility.yul\":4923:4932   */\n      dup3\n        /* \"#utility.yul\":4914:4921   */\n      dup5\n        /* \"#utility.yul\":4910:4933   */\n      sub\n        /* \"#utility.yul\":4906:4938   */\n      slt\n        /* \"#utility.yul\":4903:5022   */\n      iszero\n      tag_250\n      jumpi\n        /* \"#utility.yul\":4941:5020   */\n      tag_251\n      tag_177\n      jump\t// in\n    tag_251:\n        /* \"#utility.yul\":4903:5022   */\n    tag_250:\n        /* \"#utility.yul\":5061:5062   */\n      0x00\n        /* \"#utility.yul\":5086:5139   */\n      tag_252\n        /* \"#utility.yul\":5131:5138   */\n      dup5\n        /* \"#utility.yul\":5122:5128   */\n      dup3\n        /* \"#utility.yul\":5111:5120   */\n      dup6\n        /* \"#utility.yul\":5107:5129   */\n      add\n        /* \"#utility.yul\":5086:5139   */\n      tag_180\n      jump\t// in\n    tag_252:\n        /* \"#utility.yul\":5076:5139   */\n      swap2\n      pop\n        /* \"#utility.yul\":5032:5149   */\n      pop\n        /* \"#utility.yul\":4827:5156   */\n      swap3\n      swap2\n      pop\n      pop\n      jump\t// out\n        /* \"#utility.yul\":5162:5284   */\n    tag_181:\n        /* \"#utility.yul\":5235:5259   */\n      tag_254\n        /* \"#utility.yul\":5253:5258   */\n      dup2\n        /* \"#utility.yul\":5235:5259   */\n      tag_163\n      jump\t// in\n    tag_254:\n        /* \"#utility.yul\":5228:5233   */\n      dup2\n        /* \"#utility.yul\":5225:5260   */\n      eq\n        /* \"#utility.yul\":5215:5278   */\n      tag_255\n      jumpi\n        /* \"#utility.yul\":5274:5275   */\n      0x00\n        /* \"#utility.yul\":5271:5272   */\n      dup1\n        /* \"#utility.yul\":5264:5276   */\n      revert\n        /* \"#utility.yul\":5215:5278   */\n    tag_255:\n        /* \"#utility.yul\":5162:5284   */\n      pop\n      jump\t// out\n        /* \"#utility.yul\":5290:5429   */\n    tag_182:\n        /* \"#utility.yul\":5336:5341   */\n      0x00\n        /* \"#utility.yul\":5374:5380   */\n      dup2\n        /* \"#utility.yul\":5361:5381   */\n      calldataload\n        /* \"#utility.yul\":5352:5381   */\n      swap1\n      pop\n        /* \"#utility.yul\":5390:5423   */\n      tag_257\n        /* \"#utility.yul\":5417:5422   */\n      dup2\n        /* \"#utility.yul\":5390:5423   */\n      tag_181\n      jump\t// in\n    tag_257:\n        /* \"#utility.yul\":5290:5429   */\n      swap3\n      swap2\n      pop\n      pop\n      jump\t// out\n        /* \"#utility.yul\":5435:5764   */\n    tag_53:\n        /* \"#utility.yul\":5494:5500   */\n      0x00\n        /* \"#utility.yul\":5543:5545   */\n      0x20\n        /* \"#utility.yul\":5531:5540   */\n      dup3\n        /* \"#utility.yul\":5522:5529   */\n      dup5\n        /* \"#utility.yul\":5518:5541   */\n      sub\n        /* \"#utility.yul\":5514:5546   */\n      slt\n        /* \"#utility.yul\":5511:5630   */\n      iszero\n      tag_259\n      jumpi\n        /* \"#utility.yul\":5549:5628   */\n      tag_260\n      tag_177\n      jump\t// in\n    tag_260:\n        /* \"#utility.yul\":5511:5630   */\n    tag_259:\n        /* \"#utility.yul\":5669:5670   */\n      0x00\n        /* \"#utility.yul\":5694:5747   */\n      tag_261\n        /* \"#utility.yul\":5739:5746   */\n      dup5\n        /* \"#utility.yul\":5730:5736   */\n      dup3\n        /* \"#utility.yul\":5719:5728   */\n      dup6\n        /* \"#utility.yul\":5715:5737   */\n      add\n        /* \"#utility.yul\":5694:5747   */\n      tag_182\n      jump\t// in\n    tag_261:\n        /* \"#utility.yul\":5684:5747   */\n      swap2\n      pop\n        /* \"#utility.yul\":5640:5757   */\n      pop\n        /* \"#utility.yul\":5435:5764   */\n      swap3\n      swap2\n      pop\n      pop\n      jump\t// out\n        /* \"#utility.yul\":5770:5888   */\n    tag_183:\n        /* \"#utility.yul\":5857:5881   */\n      tag_263\n        /* \"#utility.yul\":5875:5880   */\n      dup2\n        /* \"#utility.yul\":5857:5881   */\n      tag_169\n      jump\t// in\n    tag_263:\n        /* \"#utility.yul\":5852:5855   */\n      dup3\n        /* \"#utility.yul\":5845:5882   */\n      mstore\n        /* \"#utility.yul\":5770:5888   */\n      pop\n      pop\n      jump\t// out\n        /* \"#utility.yul\":5894:6226   */\n    tag_60:\n        /* \"#utility.yul\":6015:6019   */\n      0x00\n        /* \"#utility.yul\":6053:6055   */\n      0x40\n        /* \"#utility.yul\":6042:6051   */\n      dup3\n        /* \"#utility.yul\":6038:6056   */\n      add\n        /* \"#utility.yul\":6030:6056   */\n      swap1\n      pop\n        /* \"#utility.yul\":6066:6137   */\n      tag_265\n        /* \"#utility.yul\":6134:6135   */\n      0x00\n        /* \"#utility.yul\":6123:6132   */\n      dup4\n        /* \"#utility.yul\":6119:6136   */\n      add\n        /* \"#utility.yul\":6110:6116   */\n      dup6\n        /* \"#utility.yul\":6066:6137   */\n      tag_183\n      jump\t// in\n    tag_265:\n        /* \"#utility.yul\":6147:6219   */\n      tag_266\n        /* \"#utility.yul\":6215:6217   */\n      0x20\n        /* \"#utility.yul\":6204:6213   */\n      dup4\n        /* \"#utility.yul\":6200:6218   */\n      add\n        /* \"#utility.yul\":6191:6197   */\n      dup5\n        /* \"#utility.yul\":6147:6219   */\n      tag_164\n      jump\t// in\n    tag_266:\n        /* \"#utility.yul\":5894:6226   */\n      swap4\n      swap3\n      pop\n      pop\n      pop\n      jump\t// out\n        /* \"#utility.yul\":6232:6454   */\n    tag_65:\n        /* \"#utility.yul\":6325:6329   */\n      0x00\n        /* \"#utility.yul\":6363:6365   */\n      0x20\n        /* \"#utility.yul\":6352:6361   */\n      dup3\n        /* \"#utility.yul\":6348:6366   */\n      add\n        /* \"#utility.yul\":6340:6366   */\n      swap1\n      pop\n        /* \"#utility.yul\":6376:6447   */\n      tag_268\n        /* \"#utility.yul\":6444:6445   */\n      0x00\n        /* \"#utility.yul\":6433:6442   */\n      dup4\n        /* \"#utility.yul\":6429:6446   */\n      add\n        /* \"#utility.yul\":6420:6426   */\n      dup5\n        /* \"#utility.yul\":6376:6447   */\n      tag_183\n      jump\t// in\n    tag_268:\n        /* \"#utility.yul\":6232:6454   */\n      swap3\n      swap2\n      pop\n      pop\n      jump\t// out\n        /* \"#utility.yul\":6460:6629   */\n    tag_184:\n        /* \"#utility.yul\":6544:6555   */\n      0x00\n        /* \"#utility.yul\":6578:6584   */\n      dup3\n        /* \"#utility.yul\":6573:6576   */\n      dup3\n        /* \"#utility.yul\":6566:6585   */\n      mstore\n        /* \"#utility.yul\":6618:6622   */\n      0x20\n        /* \"#utility.yul\":6613:6616   */\n      dup3\n        /* \"#utility.yul\":6609:6623   */\n      add\n        /* \"#utility.yul\":6594:6623   */\n      swap1\n      pop\n        /* \"#utility.yul\":6460:6629   */\n      swap3\n      swap2\n      pop\n      pop\n      jump\t// out\n        /* \"#utility.yul\":6635:6810   */\n    tag_185:\n        /* \"#utility.yul\":6775:6802   */\n      0x4c612073756261737461206e6f20657374612061637469766100000000000000\n        /* \"#utility.yul\":6771:6772   */\n      0x00\n        /* \"#utility.yul\":6763:6769   */\n      dup3\n        /* \"#utility.yul\":6759:6773   */\n      add\n        /* \"#utility.yul\":6752:6803   */\n      mstore\n        /* \"#utility.yul\":6635:6810   */\n      pop\n      jump\t// out\n        /* \"#utility.yul\":6816:7182   */\n    tag_186:\n        /* \"#utility.yul\":6958:6961   */\n      0x00\n        /* \"#utility.yul\":6979:7046   */\n      tag_272\n        /* \"#utility.yul\":7043:7045   */\n      0x19\n        /* \"#utility.yul\":7038:7041   */\n      dup4\n        /* \"#utility.yul\":6979:7046   */\n      tag_184\n      jump\t// in\n    tag_272:\n        /* \"#utility.yul\":6972:7046   */\n      swap2\n      pop\n        /* \"#utility.yul\":7055:7148   */\n      tag_273\n        /* \"#utility.yul\":7144:7147   */\n      dup3\n        /* \"#utility.yul\":7055:7148   */\n      tag_185\n      jump\t// in\n    tag_273:\n        /* \"#utility.yul\":7173:7175   */\n      0x20\n        /* \"#utility.yul\":7168:7171   */\n      dup3\n        /* \"#utility.yul\":7164:7176   */\n      add\n        /* \"#utility.yul\":7157:7176   */\n      swap1\n      pop\n        /* \"#utility.yul\":6816:7182   */\n      swap2\n      swap1\n      pop\n      jump\t// out\n        /* \"#utility.yul\":7188:7607   */\n    tag_89:\n        /* \"#utility.yul\":7354:7358   */\n      0x00\n        /* \"#utility.yul\":7392:7394   */\n      0x20\n        /* \"#utility.yul\":7381:7390   */\n      dup3\n        /* \"#utility.yul\":7377:7395   */\n      add\n        /* \"#utility.yul\":7369:7395   */\n      swap1\n      pop\n        /* \"#utility.yul\":7441:7450   */\n      dup2\n        /* \"#utility.yul\":7435:7439   */\n      dup2\n        /* \"#utility.yul\":7431:7451   */\n      sub\n        /* \"#utility.yul\":7427:7428   */\n      0x00\n        /* \"#utility.yul\":7416:7425   */\n      dup4\n        /* \"#utility.yul\":7412:7429   */\n      add\n        /* \"#utility.yul\":7405:7452   */\n      mstore\n        /* \"#utility.yul\":7469:7600   */\n      tag_275\n        /* \"#utility.yul\":7595:7599   */\n      dup2\n        /* \"#utility.yul\":7469:7600   */\n      tag_186\n      jump\t// in\n    tag_275:\n        /* \"#utility.yul\":7461:7600   */\n      swap1\n      pop\n        /* \"#utility.yul\":7188:7607   */\n      swap2\n      swap1\n      pop\n      jump\t// out\n        /* \"#utility.yul\":7613:7791   */\n    tag_187:\n        /* \"#utility.yul\":7753:7783   */\n      0x4c61206f6665727461206465626520736572206d61796f722061203000000000\n        /* \"#utility.yul\":7749:7750   */\n      0x00\n        /* \"#utility.yul\":7741:7747   */\n      dup3\n        /* \"#utility.yul\":7737:7751   */\n      add\n        /* \"#utility.yul\":7730:7784   */\n      mstore\n        /* \"#utility.yul\":7613:7791   */\n      pop\n      jump\t// out\n        /* \"#utility.yul\":7797:8163   */\n    tag_188:\n        /* \"#utility.yul\":7939:7942   */\n      0x00\n        /* \"#utility.yul\":7960:8027   */\n      tag_278\n        /* \"#utility.yul\":8024:8026   */\n      0x1c\n        /* \"#utility.yul\":8019:8022   */\n      dup4\n        /* \"#utility.yul\":7960:8027   */\n      tag_184\n      jump\t// in\n    tag_278:\n        /* \"#utility.yul\":7953:8027   */\n      swap2\n      pop\n        /* \"#utility.yul\":8036:8129   */\n      tag_279\n        /* \"#utility.yul\":8125:8128   */\n      dup3\n        /* \"#utility.yul\":8036:8129   */\n      tag_187\n      jump\t// in\n    tag_279:\n        /* \"#utility.yul\":8154:8156   */\n      0x20\n        /* \"#utility.yul\":8149:8152   */\n      dup3\n        /* \"#utility.yul\":8145:8157   */\n      add\n        /* \"#utility.yul\":8138:8157   */\n      swap1\n      pop\n        /* \"#utility.yul\":7797:8163   */\n      swap2\n      swap1\n      pop\n      jump\t// out\n        /* \"#utility.yul\":8169:8588   */\n    tag_93:\n        /* \"#utility.yul\":8335:8339   */\n      0x00\n        /* \"#utility.yul\":8373:8375   */\n      0x20\n        /* \"#utility.yul\":8362:8371   */\n      dup3\n        /* \"#utility.yul\":8358:8376   */\n      add\n        /* \"#utility.yul\":8350:8376   */\n      swap1\n      pop\n        /* \"#utility.yul\":8422:8431   */\n      dup2\n        /* \"#utility.yul\":8416:8420   */\n      dup2\n        /* \"#utility.yul\":8412:8432   */\n      sub\n        /* \"#utility.yul\":8408:8409   */\n      0x00\n        /* \"#utility.yul\":8397:8406   */\n      dup4\n        /* \"#utility.yul\":8393:8410   */\n      add\n        /* \"#utility.yul\":8386:8433   */\n      mstore\n        /* \"#utility.yul\":8450:8581   */\n      tag_281\n        /* \"#utility.yul\":8576:8580   */\n      dup2\n        /* \"#utility.yul\":8450:8581   */\n      tag_188\n      jump\t// in\n    tag_281:\n        /* \"#utility.yul\":8442:8581   */\n      swap1\n      pop\n        /* \"#utility.yul\":8169:8588   */\n      swap2\n      swap1\n      pop\n      jump\t// out\n        /* \"#utility.yul\":8594:8774   */\n    tag_189:\n        /* \"#utility.yul\":8642:8719   */\n      0x4e487b7100000000000000000000000000000000000000000000000000000000\n        /* \"#utility.yul\":8639:8640   */\n      0x00\n        /* \"#utility.yul\":8632:8720   */\n      mstore\n        /* \"#utility.yul\":8739:8743   */\n      0x11\n        /* \"#utility.yul\":8736:8737   */\n      0x04\n        /* \"#utility.yul\":8729:8744   */\n      mstore\n        /* \"#utility.yul\":8763:8767   */\n      0x24\n        /* \"#utility.yul\":8760:8761   */\n      0x00\n        /* \"#utility.yul\":8753:8768   */\n      revert\n        /* \"#utility.yul\":8780:9190   */\n    tag_95:\n        /* \"#utility.yul\":8820:8827   */\n      0x00\n        /* \"#utility.yul\":8843:8863   */\n      tag_284\n        /* \"#utility.yul\":8861:8862   */\n      dup3\n        /* \"#utility.yul\":8843:8863   */\n      tag_163\n      jump\t// in\n    tag_284:\n        /* \"#utility.yul\":8838:8863   */\n      swap2\n      pop\n        /* \"#utility.yul\":8877:8897   */\n      tag_285\n        /* \"#utility.yul\":8895:8896   */\n      dup4\n        /* \"#utility.yul\":8877:8897   */\n      tag_163\n      jump\t// in\n    tag_285:\n        /* \"#utility.yul\":8872:8897   */\n      swap3\n      pop\n        /* \"#utility.yul\":8932:8933   */\n      dup3\n        /* \"#utility.yul\":8929:8930   */\n      dup3\n        /* \"#utility.yul\":8925:8934   */\n      mul\n        /* \"#utility.yul\":8954:8984   */\n      tag_286\n        /* \"#utility.yul\":8972:8983   */\n      dup2\n        /* \"#utility.yul\":8954:8984   */\n      tag_163\n      jump\t// in\n    tag_286:\n        /* \"#utility.yul\":8943:8984   */\n      swap2\n      pop\n        /* \"#utility.yul\":9133:9134   */\n      dup3\n        /* \"#utility.yul\":9124:9131   */\n      dup3\n        /* \"#utility.yul\":9120:9135   */\n      div\n        /* \"#utility.yul\":9117:9118   */\n      dup5\n        /* \"#utility.yul\":9114:9136   */\n      eq\n        /* \"#utility.yul\":9094:9095   */\n      dup4\n        /* \"#utility.yul\":9087:9096   */\n      iszero\n        /* \"#utility.yul\":9067:9150   */\n      or\n        /* \"#utility.yul\":9044:9183   */\n      tag_287\n      jumpi\n        /* \"#utility.yul\":9163:9181   */\n      tag_288\n      tag_189\n      jump\t// in\n    tag_288:\n        /* \"#utility.yul\":9044:9183   */\n    tag_287:\n        /* \"#utility.yul\":8828:9190   */\n      pop\n        /* \"#utility.yul\":8780:9190   */\n      swap3\n      swap2\n      pop\n      pop\n      jump\t// out\n        /* \"#utility.yul\":9196:9376   */\n    tag_190:\n        /* \"#utility.yul\":9244:9321   */\n      0x4e487b7100000000000000000000000000000000000000000000000000000000\n        /* \"#utility.yul\":9241:9242   */\n      0x00\n        /* \"#utility.yul\":9234:9322   */\n      mstore\n        /* \"#utility.yul\":9341:9345   */\n      0x12\n        /* \"#utility.yul\":9338:9339   */\n      0x04\n        /* \"#utility.yul\":9331:9346   */\n      mstore\n        /* \"#utility.yul\":9365:9369   */\n      0x24\n        /* \"#utility.yul\":9362:9363   */\n      0x00\n        /* \"#utility.yul\":9355:9370   */\n      revert\n        /* \"#utility.yul\":9382:9567   */\n    tag_97:\n        /* \"#utility.yul\":9422:9423   */\n      0x00\n        /* \"#utility.yul\":9439:9459   */\n      tag_291\n        /* \"#utility.yul\":9457:9458   */\n      dup3\n        /* \"#utility.yul\":9439:9459   */\n      tag_163\n      jump\t// in\n    tag_291:\n        /* \"#utility.yul\":9434:9459   */\n      swap2\n      pop\n        /* \"#utility.yul\":9473:9493   */\n      tag_292\n        /* \"#utility.yul\":9491:9492   */\n      dup4\n        /* \"#utility.yul\":9473:9493   */\n      tag_163\n      jump\t// in\n    tag_292:\n        /* \"#utility.yul\":9468:9493   */\n      swap3\n      pop\n        /* \"#utility.yul\":9512:9513   */\n      dup3\n        /* \"#utility.yul\":9502:9537   */\n      tag_293\n      jumpi\n        /* \"#utility.yul\":9517:9535   */\n      tag_294\n      tag_190\n      jump\t// in\n    tag_294:\n        /* \"#utility.yul\":9502:9537   */\n    tag_293:\n        /* \"#utility.yul\":9559:9560   */\n      dup3\n        /* \"#utility.yul\":9556:9557   */\n      dup3\n        /* \"#utility.yul\":9552:9561   */\n      div\n        /* \"#utility.yul\":9547:9561   */\n      swap1\n      pop\n        /* \"#utility.yul\":9382:9567   */\n      swap3\n      swap2\n      pop\n      pop\n      jump\t// out\n        /* \"#utility.yul\":9573:9764   */\n    tag_99:\n        /* \"#utility.yul\":9613:9616   */\n      0x00\n        /* \"#utility.yul\":9632:9652   */\n      tag_296\n        /* \"#utility.yul\":9650:9651   */\n      dup3\n        /* \"#utility.yul\":9632:9652   */\n      tag_163\n      jump\t// in\n    tag_296:\n        /* \"#utility.yul\":9627:9652   */\n      swap2\n      pop\n        /* \"#utility.yul\":9666:9686   */\n      tag_297\n        /* \"#utility.yul\":9684:9685   */\n      dup4\n        /* \"#utility.yul\":9666:9686   */\n      tag_163\n      jump\t// in\n    tag_297:\n        /* \"#utility.yul\":9661:9686   */\n      swap3\n      pop\n        /* \"#utility.yul\":9709:9710   */\n      dup3\n        /* \"#utility.yul\":9706:9707   */\n      dup3\n        /* \"#utility.yul\":9702:9711   */\n      add\n        /* \"#utility.yul\":9695:9711   */\n      swap1\n      pop\n        /* \"#utility.yul\":9730:9733   */\n      dup1\n        /* \"#utility.yul\":9727:9728   */\n      dup3\n        /* \"#utility.yul\":9724:9734   */\n      gt\n        /* \"#utility.yul\":9721:9757   */\n      iszero\n      tag_298\n      jumpi\n        /* \"#utility.yul\":9737:9755   */\n      tag_299\n      tag_189\n      jump\t// in\n    tag_299:\n        /* \"#utility.yul\":9721:9757   */\n    tag_298:\n        /* \"#utility.yul\":9573:9764   */\n      swap3\n      swap2\n      pop\n      pop\n      jump\t// out\n        /* \"#utility.yul\":9770:10013   */\n    tag_191:\n        /* \"#utility.yul\":9910:9944   */\n      0x4f666572746120646562652073657220616c206d656e6f73203525206d61796f\n        /* \"#utility.yul\":9906:9907   */\n      0x00\n        /* \"#utility.yul\":9898:9904   */\n      dup3\n        /* \"#utility.yul\":9894:9908   */\n      add\n        /* \"#utility.yul\":9887:9945   */\n      mstore\n        /* \"#utility.yul\":9979:10005   */\n      0x7220717565206c61206f6665727461206d617320616c74610000000000000000\n        /* \"#utility.yul\":9974:9976   */\n      0x20\n        /* \"#utility.yul\":9966:9972   */\n      dup3\n        /* \"#utility.yul\":9962:9977   */\n      add\n        /* \"#utility.yul\":9955:10006   */\n      mstore\n        /* \"#utility.yul\":9770:10013   */\n      pop\n      jump\t// out\n        /* \"#utility.yul\":10019:10385   */\n    tag_192:\n        /* \"#utility.yul\":10161:10164   */\n      0x00\n        /* \"#utility.yul\":10182:10249   */\n      tag_302\n        /* \"#utility.yul\":10246:10248   */\n      0x38\n        /* \"#utility.yul\":10241:10244   */\n      dup4\n        /* \"#utility.yul\":10182:10249   */\n      tag_184\n      jump\t// in\n    tag_302:\n        /* \"#utility.yul\":10175:10249   */\n      swap2\n      pop\n        /* \"#utility.yul\":10258:10351   */\n      tag_303\n        /* \"#utility.yul\":10347:10350   */\n      dup3\n        /* \"#utility.yul\":10258:10351   */\n      tag_191\n      jump\t// in\n    tag_303:\n        /* \"#utility.yul\":10376:10378   */\n      0x40\n        /* \"#utility.yul\":10371:10374   */\n      dup3\n        /* \"#utility.yul\":10367:10379   */\n      add\n        /* \"#utility.yul\":10360:10379   */\n      swap1\n      pop\n        /* \"#utility.yul\":10019:10385   */\n      swap2\n      swap1\n      pop\n      jump\t// out\n        /* \"#utility.yul\":10391:10810   */\n    tag_102:\n        /* \"#utility.yul\":10557:10561   */\n      0x00\n        /* \"#utility.yul\":10595:10597   */\n      0x20\n        /* \"#utility.yul\":10584:10593   */\n      dup3\n        /* \"#utility.yul\":10580:10598   */\n      add\n        /* \"#utility.yul\":10572:10598   */\n      swap1\n      pop\n        /* \"#utility.yul\":10644:10653   */\n      dup2\n        /* \"#utility.yul\":10638:10642   */\n      dup2\n        /* \"#utility.yul\":10634:10654   */\n      sub\n        /* \"#utility.yul\":10630:10631   */\n      0x00\n        /* \"#utility.yul\":10619:10628   */\n      dup4\n        /* \"#utility.yul\":10615:10632   */\n      add\n        /* \"#utility.yul\":10608:10655   */\n      mstore\n        /* \"#utility.yul\":10672:10803   */\n      tag_305\n        /* \"#utility.yul\":10798:10802   */\n      dup2\n        /* \"#utility.yul\":10672:10803   */\n      tag_192\n      jump\t// in\n    tag_305:\n        /* \"#utility.yul\":10664:10803   */\n      swap1\n      pop\n        /* \"#utility.yul\":10391:10810   */\n      swap2\n      swap1\n      pop\n      jump\t// out\n        /* \"#utility.yul\":10816:10989   */\n    tag_193:\n        /* \"#utility.yul\":10956:10981   */\n      0x4c61207375626173746120736967756520616374697661000000000000000000\n        /* \"#utility.yul\":10952:10953   */\n      0x00\n        /* \"#utility.yul\":10944:10950   */\n      dup3\n        /* \"#utility.yul\":10940:10954   */\n      add\n        /* \"#utility.yul\":10933:10982   */\n      mstore\n        /* \"#utility.yul\":10816:10989   */\n      pop\n      jump\t// out\n        /* \"#utility.yul\":10995:11361   */\n    tag_194:\n        /* \"#utility.yul\":11137:11140   */\n      0x00\n        /* \"#utility.yul\":11158:11225   */\n      tag_308\n        /* \"#utility.yul\":11222:11224   */\n      0x17\n        /* \"#utility.yul\":11217:11220   */\n      dup4\n        /* \"#utility.yul\":11158:11225   */\n      tag_184\n      jump\t// in\n    tag_308:\n        /* \"#utility.yul\":11151:11225   */\n      swap2\n      pop\n        /* \"#utility.yul\":11234:11327   */\n      tag_309\n        /* \"#utility.yul\":11323:11326   */\n      dup3\n        /* \"#utility.yul\":11234:11327   */\n      tag_193\n      jump\t// in\n    tag_309:\n        /* \"#utility.yul\":11352:11354   */\n      0x20\n        /* \"#utility.yul\":11347:11350   */\n      dup3\n        /* \"#utility.yul\":11343:11355   */\n      add\n        /* \"#utility.yul\":11336:11355   */\n      swap1\n      pop\n        /* \"#utility.yul\":10995:11361   */\n      swap2\n      swap1\n      pop\n      jump\t// out\n        /* \"#utility.yul\":11367:11786   */\n    tag_113:\n        /* \"#utility.yul\":11533:11537   */\n      0x00\n        /* \"#utility.yul\":11571:11573   */\n      0x20\n        /* \"#utility.yul\":11560:11569   */\n      dup3\n        /* \"#utility.yul\":11556:11574   */\n      add\n        /* \"#utility.yul\":11548:11574   */\n      swap1\n      pop\n        /* \"#utility.yul\":11620:11629   */\n      dup2\n        /* \"#utility.yul\":11614:11618   */\n      dup2\n        /* \"#utility.yul\":11610:11630   */\n      sub\n        /* \"#utility.yul\":11606:11607   */\n      0x00\n        /* \"#utility.yul\":11595:11604   */\n      dup4\n        /* \"#utility.yul\":11591:11608   */\n      add\n        /* \"#utility.yul\":11584:11631   */\n      mstore\n        /* \"#utility.yul\":11648:11779   */\n      tag_311\n        /* \"#utility.yul\":11774:11778   */\n      dup2\n        /* \"#utility.yul\":11648:11779   */\n      tag_194\n      jump\t// in\n    tag_311:\n        /* \"#utility.yul\":11640:11779   */\n      swap1\n      pop\n        /* \"#utility.yul\":11367:11786   */\n      swap2\n      swap1\n      pop\n      jump\t// out\n        /* \"#utility.yul\":11792:11968   */\n    tag_195:\n        /* \"#utility.yul\":11932:11960   */\n      0x4e6f2068617920666f6e646f7320706172612072657469726172000000000000\n        /* \"#utility.yul\":11928:11929   */\n      0x00\n        /* \"#utility.yul\":11920:11926   */\n      dup3\n        /* \"#utility.yul\":11916:11930   */\n      add\n        /* \"#utility.yul\":11909:11961   */\n      mstore\n        /* \"#utility.yul\":11792:11968   */\n      pop\n      jump\t// out\n        /* \"#utility.yul\":11974:12340   */\n    tag_196:\n        /* \"#utility.yul\":12116:12119   */\n      0x00\n        /* \"#utility.yul\":12137:12204   */\n      tag_314\n        /* \"#utility.yul\":12201:12203   */\n      0x1a\n        /* \"#utility.yul\":12196:12199   */\n      dup4\n        /* \"#utility.yul\":12137:12204   */\n      tag_184\n      jump\t// in\n    tag_314:\n        /* \"#utility.yul\":12130:12204   */\n      swap2\n      pop\n        /* \"#utility.yul\":12213:12306   */\n      tag_315\n        /* \"#utility.yul\":12302:12305   */\n      dup3\n        /* \"#utility.yul\":12213:12306   */\n      tag_195\n      jump\t// in\n    tag_315:\n        /* \"#utility.yul\":12331:12333   */\n      0x20\n        /* \"#utility.yul\":12326:12329   */\n      dup3\n        /* \"#utility.yul\":12322:12334   */\n      add\n        /* \"#utility.yul\":12315:12334   */\n      swap1\n      pop\n        /* \"#utility.yul\":11974:12340   */\n      swap2\n      swap1\n      pop\n      jump\t// out\n        /* \"#utility.yul\":12346:12765   */\n    tag_117:\n        /* \"#utility.yul\":12512:12516   */\n      0x00\n        /* \"#utility.yul\":12550:12552   */\n      0x20\n        /* \"#utility.yul\":12539:12548   */\n      dup3\n        /* \"#utility.yul\":12535:12553   */\n      add\n        /* \"#utility.yul\":12527:12553   */\n      swap1\n      pop\n        /* \"#utility.yul\":12599:12608   */\n      dup2\n        /* \"#utility.yul\":12593:12597   */\n      dup2\n        /* \"#utility.yul\":12589:12609   */\n      sub\n        /* \"#utility.yul\":12585:12586   */\n      0x00\n        /* \"#utility.yul\":12574:12583   */\n      dup4\n        /* \"#utility.yul\":12570:12587   */\n      add\n        /* \"#utility.yul\":12563:12610   */\n      mstore\n        /* \"#utility.yul\":12627:12758   */\n      tag_317\n        /* \"#utility.yul\":12753:12757   */\n      dup2\n        /* \"#utility.yul\":12627:12758   */\n      tag_196\n      jump\t// in\n    tag_317:\n        /* \"#utility.yul\":12619:12758   */\n      swap1\n      pop\n        /* \"#utility.yul\":12346:12765   */\n      swap2\n      swap1\n      pop\n      jump\t// out\n        /* \"#utility.yul\":12771:12965   */\n    tag_122:\n        /* \"#utility.yul\":12811:12815   */\n      0x00\n        /* \"#utility.yul\":12831:12851   */\n      tag_319\n        /* \"#utility.yul\":12849:12850   */\n      dup3\n        /* \"#utility.yul\":12831:12851   */\n      tag_163\n      jump\t// in\n    tag_319:\n        /* \"#utility.yul\":12826:12851   */\n      swap2\n      pop\n        /* \"#utility.yul\":12865:12885   */\n      tag_320\n        /* \"#utility.yul\":12883:12884   */\n      dup4\n        /* \"#utility.yul\":12865:12885   */\n      tag_163\n      jump\t// in\n    tag_320:\n        /* \"#utility.yul\":12860:12885   */\n      swap3\n      pop\n        /* \"#utility.yul\":12909:12910   */\n      dup3\n        /* \"#utility.yul\":12906:12907   */\n      dup3\n        /* \"#utility.yul\":12902:12911   */\n      sub\n        /* \"#utility.yul\":12894:12911   */\n      swap1\n      pop\n        /* \"#utility.yul\":12933:12934   */\n      dup2\n        /* \"#utility.yul\":12927:12931   */\n      dup2\n        /* \"#utility.yul\":12924:12935   */\n      gt\n        /* \"#utility.yul\":12921:12958   */\n      iszero\n      tag_321\n      jumpi\n        /* \"#utility.yul\":12938:12956   */\n      tag_322\n      tag_189\n      jump\t// in\n    tag_322:\n        /* \"#utility.yul\":12921:12958   */\n    tag_321:\n        /* \"#utility.yul\":12771:12965   */\n      swap3\n      swap2\n      pop\n      pop\n      jump\t// out\n        /* \"#utility.yul\":12971:13195   */\n    tag_197:\n        /* \"#utility.yul\":13111:13145   */\n      0x4e6f2068617920666f6e646f73206578636564656e7465732070617261207265\n        /* \"#utility.yul\":13107:13108   */\n      0x00\n        /* \"#utility.yul\":13099:13105   */\n      dup3\n        /* \"#utility.yul\":13095:13109   */\n      add\n        /* \"#utility.yul\":13088:13146   */\n      mstore\n        /* \"#utility.yul\":13180:13187   */\n      0x7469726172000000000000000000000000000000000000000000000000000000\n        /* \"#utility.yul\":13175:13177   */\n      0x20\n        /* \"#utility.yul\":13167:13173   */\n      dup3\n        /* \"#utility.yul\":13163:13178   */\n      add\n        /* \"#utility.yul\":13156:13188   */\n      mstore\n        /* \"#utility.yul\":12971:13195   */\n      pop\n      jump\t// out\n        /* \"#utility.yul\":13201:13567   */\n    tag_198:\n        /* \"#utility.yul\":13343:13346   */\n      0x00\n        /* \"#utility.yul\":13364:13431   */\n      tag_325\n        /* \"#utility.yul\":13428:13430   */\n      0x25\n        /* \"#utility.yul\":13423:13426   */\n      dup4\n        /* \"#utility.yul\":13364:13431   */\n      tag_184\n      jump\t// in\n    tag_325:\n        /* \"#utility.yul\":13357:13431   */\n      swap2\n      pop\n        /* \"#utility.yul\":13440:13533   */\n      tag_326\n        /* \"#utility.yul\":13529:13532   */\n      dup3\n        /* \"#utility.yul\":13440:13533   */\n      tag_197\n      jump\t// in\n    tag_326:\n        /* \"#utility.yul\":13558:13560   */\n      0x40\n        /* \"#utility.yul\":13553:13556   */\n      dup3\n        /* \"#utility.yul\":13549:13561   */\n      add\n        /* \"#utility.yul\":13542:13561   */\n      swap1\n      pop\n        /* \"#utility.yul\":13201:13567   */\n      swap2\n      swap1\n      pop\n      jump\t// out\n        /* \"#utility.yul\":13573:13992   */\n    tag_137:\n        /* \"#utility.yul\":13739:13743   */\n      0x00\n        /* \"#utility.yul\":13777:13779   */\n      0x20\n        /* \"#utility.yul\":13766:13775   */\n      dup3\n        /* \"#utility.yul\":13762:13780   */\n      add\n        /* \"#utility.yul\":13754:13780   */\n      swap1\n      pop\n        /* \"#utility.yul\":13826:13835   */\n      dup2\n        /* \"#utility.yul\":13820:13824   */\n      dup2\n        /* \"#utility.yul\":13816:13836   */\n      sub\n        /* \"#utility.yul\":13812:13813   */\n      0x00\n        /* \"#utility.yul\":13801:13810   */\n      dup4\n        /* \"#utility.yul\":13797:13814   */\n      add\n        /* \"#utility.yul\":13790:13837   */\n      mstore\n        /* \"#utility.yul\":13854:13985   */\n      tag_328\n        /* \"#utility.yul\":13980:13984   */\n      dup2\n        /* \"#utility.yul\":13854:13985   */\n      tag_198\n      jump\t// in\n    tag_328:\n        /* \"#utility.yul\":13846:13985   */\n      swap1\n      pop\n        /* \"#utility.yul\":13573:13992   */\n      swap2\n      swap1\n      pop\n      jump\t// out\n        /* \"#utility.yul\":13998:14174   */\n    tag_199:\n        /* \"#utility.yul\":14138:14166   */\n      0x45786365646520656c206d6f6e746f20646973706f6e69626c65000000000000\n        /* \"#utility.yul\":14134:14135   */\n      0x00\n        /* \"#utility.yul\":14126:14132   */\n      dup3\n        /* \"#utility.yul\":14122:14136   */\n      add\n        /* \"#utility.yul\":14115:14167   */\n      mstore\n        /* \"#utility.yul\":13998:14174   */\n      pop\n      jump\t// out\n        /* \"#utility.yul\":14180:14546   */\n    tag_200:\n        /* \"#utility.yul\":14322:14325   */\n      0x00\n        /* \"#utility.yul\":14343:14410   */\n      tag_331\n        /* \"#utility.yul\":14407:14409   */\n      0x1a\n        /* \"#utility.yul\":14402:14405   */\n      dup4\n        /* \"#utility.yul\":14343:14410   */\n      tag_184\n      jump\t// in\n    tag_331:\n        /* \"#utility.yul\":14336:14410   */\n      swap2\n      pop\n        /* \"#utility.yul\":14419:14512   */\n      tag_332\n        /* \"#utility.yul\":14508:14511   */\n      dup3\n        /* \"#utility.yul\":14419:14512   */\n      tag_199\n      jump\t// in\n    tag_332:\n        /* \"#utility.yul\":14537:14539   */\n      0x20\n        /* \"#utility.yul\":14532:14535   */\n      dup3\n        /* \"#utility.yul\":14528:14540   */\n      add\n        /* \"#utility.yul\":14521:14540   */\n      swap1\n      pop\n        /* \"#utility.yul\":14180:14546   */\n      swap2\n      swap1\n      pop\n      jump\t// out\n        /* \"#utility.yul\":14552:14971   */\n    tag_140:\n        /* \"#utility.yul\":14718:14722   */\n      0x00\n        /* \"#utility.yul\":14756:14758   */\n      0x20\n        /* \"#utility.yul\":14745:14754   */\n      dup3\n        /* \"#utility.yul\":14741:14759   */\n      add\n        /* \"#utility.yul\":14733:14759   */\n      swap1\n      pop\n        /* \"#utility.yul\":14805:14814   */\n      dup2\n        /* \"#utility.yul\":14799:14803   */\n      dup2\n        /* \"#utility.yul\":14795:14815   */\n      sub\n        /* \"#utility.yul\":14791:14792   */\n      0x00\n        /* \"#utility.yul\":14780:14789   */\n      dup4\n        /* \"#utility.yul\":14776:14793   */\n      add\n        /* \"#utility.yul\":14769:14816   */\n      mstore\n        /* \"#utility.yul\":14833:14964   */\n      tag_334\n        /* \"#utility.yul\":14959:14963   */\n      dup2\n        /* \"#utility.yul\":14833:14964   */\n      tag_200\n      jump\t// in\n    tag_334:\n        /* \"#utility.yul\":14825:14964   */\n      swap1\n      pop\n        /* \"#utility.yul\":14552:14971   */\n      swap2\n      swap1\n      pop\n      jump\t// out\n        /* \"#utility.yul\":14977:15205   */\n    tag_201:\n        /* \"#utility.yul\":15117:15151   */\n      0x536f6c6f20656c206f776e657220707565646520656a65637574617220657374\n        /* \"#utility.yul\":15113:15114   */\n      0x00\n        /* \"#utility.yul\":15105:15111   */\n      dup3\n        /* \"#utility.yul\":15101:15115   */\n      add\n        /* \"#utility.yul\":15094:15152   */\n      mstore\n        /* \"#utility.yul\":15186:15197   */\n      0x612066756e63696f6e0000000000000000000000000000000000000000000000\n        /* \"#utility.yul\":15181:15183   */\n      0x20\n        /* \"#utility.yul\":15173:15179   */\n      dup3\n        /* \"#utility.yul\":15169:15184   */\n      add\n        /* \"#utility.yul\":15162:15198   */\n      mstore\n        /* \"#utility.yul\":14977:15205   */\n      pop\n      jump\t// out\n        /* \"#utility.yul\":15211:15577   */\n    tag_202:\n        /* \"#utility.yul\":15353:15356   */\n      0x00\n        /* \"#utility.yul\":15374:15441   */\n      tag_337\n        /* \"#utility.yul\":15438:15440   */\n      0x29\n        /* \"#utility.yul\":15433:15436   */\n      dup4\n        /* \"#utility.yul\":15374:15441   */\n      tag_184\n      jump\t// in\n    tag_337:\n        /* \"#utility.yul\":15367:15441   */\n      swap2\n      pop\n        /* \"#utility.yul\":15450:15543   */\n      tag_338\n        /* \"#utility.yul\":15539:15542   */\n      dup3\n        /* \"#utility.yul\":15450:15543   */\n      tag_201\n      jump\t// in\n    tag_338:\n        /* \"#utility.yul\":15568:15570   */\n      0x40\n        /* \"#utility.yul\":15563:15566   */\n      dup3\n        /* \"#utility.yul\":15559:15571   */\n      add\n        /* \"#utility.yul\":15552:15571   */\n      swap1\n      pop\n        /* \"#utility.yul\":15211:15577   */\n      swap2\n      swap1\n      pop\n      jump\t// out\n        /* \"#utility.yul\":15583:16002   */\n    tag_154:\n        /* \"#utility.yul\":15749:15753   */\n      0x00\n        /* \"#utility.yul\":15787:15789   */\n      0x20\n        /* \"#utility.yul\":15776:15785   */\n      dup3\n        /* \"#utility.yul\":15772:15790   */\n      add\n        /* \"#utility.yul\":15764:15790   */\n      swap1\n      pop\n        /* \"#utility.yul\":15836:15845   */\n      dup2\n        /* \"#utility.yul\":15830:15834   */\n      dup2\n        /* \"#utility.yul\":15826:15846   */\n      sub\n        /* \"#utility.yul\":15822:15823   */\n      0x00\n        /* \"#utility.yul\":15811:15820   */\n      dup4\n        /* \"#utility.yul\":15807:15824   */\n      add\n        /* \"#utility.yul\":15800:15847   */\n      mstore\n        /* \"#utility.yul\":15864:15995   */\n      tag_340\n        /* \"#utility.yul\":15990:15994   */\n      dup2\n        /* \"#utility.yul\":15864:15995   */\n      tag_202\n      jump\t// in\n    tag_340:\n        /* \"#utility.yul\":15856:15995   */\n      swap1\n      pop\n        /* \"#utility.yul\":15583:16002   */\n      swap2\n      swap1\n      pop\n      jump\t// out\n\n    auxdata: 0xa2646970667358221220ca46291620b0bcdd0ca610fc4c589f80636d452b0436f5d5846acb8dd8180a9964736f6c63430008190033\n}\n",
				"bytecode": {
					"linkReferences": {},
					"object": "608060405261025860025560058055348015610019575f80fd5b506040516116b03803806116b0833981810160405281019061003b91906100d5565b335f806101000a81548173ffffffffffffffffffffffffffffffffffffffff021916908373ffffffffffffffffffffffffffffffffffffffff160217905550603c81610087919061012d565b42610092919061016e565b600181905550506101a1565b5f80fd5b5f819050919050565b6100b4816100a2565b81146100be575f80fd5b50565b5f815190506100cf816100ab565b92915050565b5f602082840312156100ea576100e961009e565b5b5f6100f7848285016100c1565b91505092915050565b7f4e487b71000000000000000000000000000000000000000000000000000000005f52601160045260245ffd5b5f610137826100a2565b9150610142836100a2565b9250828202610150816100a2565b9150828204841483151761016757610166610100565b5b5092915050565b5f610178826100a2565b9150610183836100a2565b925082820190508082111561019b5761019a610100565b5b92915050565b611502806101ae5f395ff3fe6080604052600436106100e7575f3560e01c806371d2ee6c1161008957806391f901571161005857806391f90157146102a9578063c715060a146102d3578063d57bde79146102fd578063fe67a54b14610327576100e7565b806371d2ee6c146101ef5780638a72ea6a146102175780638da5cb5b146102545780638e7ea5b21461027e576100e7565b80633d91ce3c116100c55780633d91ce3c146101355780633ee992ee1461015f5780634b449cba1461018957806362ea82db146101b3576100e7565b806312fa6feb146100eb5780631998aeef146101155780633ccfd60b1461011f575b5f80fd5b3480156100f6575f80fd5b506100ff61033d565b60405161010c9190610d4f565b60405180910390f35b61011d61034f565b005b34801561012a575f80fd5b5061013361061c565b005b348015610140575f80fd5b50610149610803565b6040516101569190610d80565b60405180910390f35b34801561016a575f80fd5b50610173610809565b6040516101809190610ebc565b60405180910390f35b348015610194575f80fd5b5061019d6108c3565b6040516101aa9190610d80565b60405180910390f35b3480156101be575f80fd5b506101d960048036038101906101d49190610f0a565b6108c9565b6040516101e69190610d80565b60405180910390f35b3480156101fa575f80fd5b5061021560048036038101906102109190610f5f565b6108de565b005b348015610222575f80fd5b5061023d60048036038101906102389190610f5f565b610aa8565b60405161024b929190610f99565b60405180910390f35b34801561025f575f80fd5b50610268610af6565b6040516102759190610fc0565b60405180910390f35b348015610289575f80fd5b50610292610b19565b6040516102a0929190610f99565b60405180910390f35b3480156102b4575f80fd5b506102bd610ba3565b6040516102ca9190610fc0565b60405180910390f35b3480156102de575f80fd5b506102e7610bc8565b6040516102f49190610d80565b60405180910390f35b348015610308575f80fd5b50610311610bce565b60405161031e9190610d80565b60405180910390f35b348015610332575f80fd5b5061033b610bd4565b005b60065f9054906101000a900460ff1681565b6001544210801561036c575060065f9054906101000a900460ff16155b6103ab576040517f08c379a00000000000000000000000000000000000000000000000000000000081526004016103a290611033565b60405180910390fd5b5f34116103ed576040517f08c379a00000000000000000000000000000000000000000000000000000000081526004016103e49061109b565b60405180910390fd5b5f606460055460035461040091906110e6565b61040a9190611154565b6003546104179190611184565b90508034101561045c576040517f08c379a000000000000000000000000000000000000000000000000000000000815260040161045390611227565b60405180910390fd5b3460085f3373ffffffffffffffffffffffffffffffffffffffff1673ffffffffffffffffffffffffffffffffffffffff1681526020019081526020015f205f8282546104a89190611184565b92505081905550600760405180604001604052803373ffffffffffffffffffffffffffffffffffffffff16815260200134815250908060018154018082558091505060019003905f5260205f2090600202015f909190919091505f820151815f015f6101000a81548173ffffffffffffffffffffffffffffffffffffffff021916908373ffffffffffffffffffffffffffffffffffffffff160217905550602082015181600101555050346003819055503360045f6101000a81548173ffffffffffffffffffffffffffffffffffffffff021916908373ffffffffffffffffffffffffffffffffffffffff1602179055503373ffffffffffffffffffffffffffffffffffffffff167fdd0b6c6a77960e2066c96171b4d7ac9e8b4c184011f38544afa36a5bb63ec59f346040516105df9190610d80565b60405180910390a2600154600254426105f89190611184565b11156106195760025460015f8282546106119190611184565b925050819055505b50565b60015442101580610638575060065f9054906101000a900460ff165b610677576040517f08c379a000000000000000000000000000000000000000000000000000000000815260040161066e9061128f565b60405180910390fd5b5f60085f3373ffffffffffffffffffffffffffffffffffffffff1673ffffffffffffffffffffffffffffffffffffffff1681526020019081526020015f205490505f81116106fa576040517f08c379a00000000000000000000000000000000000000000000000000000000081526004016106f1906112f7565b60405180910390fd5b5f60085f3373ffffffffffffffffffffffffffffffffffffffff1673ffffffffffffffffffffffffffffffffffffffff1681526020019081526020015f208190555060045f9054906101000a900473ffffffffffffffffffffffffffffffffffffffff1673ffffffffffffffffffffffffffffffffffffffff163373ffffffffffffffffffffffffffffffffffffffff16146107bc575f60646002836107a091906110e6565b6107aa9190611154565b905080826107b89190611315565b9150505b3373ffffffffffffffffffffffffffffffffffffffff166108fc8290811502906040515f60405180830381858888f193505050501580156107ff573d5f803e3d5ffd5b5050565b60055481565b60606007805480602002602001604051908101604052809291908181526020015f905b828210156108ba578382905f5260205f2090600202016040518060400160405290815f82015f9054906101000a900473ffffffffffffffffffffffffffffffffffffffff1673ffffffffffffffffffffffffffffffffffffffff1673ffffffffffffffffffffffffffffffffffffffff1681526020016001820154815250508152602001906001019061082c565b50505050905090565b60015481565b6008602052805f5260405f205f915090505481565b600154421080156108fb575060065f9054906101000a900460ff16155b61093a576040517f08c379a000000000000000000000000000000000000000000000000000000000815260040161093190611033565b60405180910390fd5b5f60035460085f3373ffffffffffffffffffffffffffffffffffffffff1673ffffffffffffffffffffffffffffffffffffffff1681526020019081526020015f20546109869190611315565b90505f81116109ca576040517f08c379a00000000000000000000000000000000000000000000000000000000081526004016109c1906113b8565b60405180910390fd5b80821115610a0d576040517f08c379a0000000000000000000000000000000000000000000000000000000008152600401610a0490611420565b60405180910390fd5b8160085f3373ffffffffffffffffffffffffffffffffffffffff1673ffffffffffffffffffffffffffffffffffffffff1681526020019081526020015f205f828254610a599190611315565b925050819055503373ffffffffffffffffffffffffffffffffffffffff166108fc8390811502906040515f60405180830381858888f19350505050158015610aa3573d5f803e3d5ffd5b505050565b60078181548110610ab7575f80fd5b905f5260205f2090600202015f91509050805f015f9054906101000a900473ffffffffffffffffffffffffffffffffffffffff16908060010154905082565b5f8054906101000a900473ffffffffffffffffffffffffffffffffffffffff1681565b5f8060015442101580610b37575060065f9054906101000a900460ff165b610b76576040517f08c379a0000000000000000000000000000000000000000000000000000000008152600401610b6d9061128f565b60405180910390fd5b60045f9054906101000a900473ffffffffffffffffffffffffffffffffffffffff16600354915091509091565b60045f9054906101000a900473ffffffffffffffffffffffffffffffffffffffff1681565b60025481565b60035481565b5f8054906101000a900473ffffffffffffffffffffffffffffffffffffffff1673ffffffffffffffffffffffffffffffffffffffff163373ffffffffffffffffffffffffffffffffffffffff1614610c61576040517f08c379a0000000000000000000000000000000000000000000000000000000008152600401610c58906114ae565b60405180910390fd5b60015442108015610c7e575060065f9054906101000a900460ff16155b610cbd576040517f08c379a0000000000000000000000000000000000000000000000000000000008152600401610cb490611033565b60405180910390fd5b600160065f6101000a81548160ff0219169083151502179055507fdaec4582d5d9595688c8c98545fdd1c696d41c6aeaeb636737e84ed2f5c00eda60045f9054906101000a900473ffffffffffffffffffffffffffffffffffffffff16600354604051610d2b929190610f99565b60405180910390a1565b5f8115159050919050565b610d4981610d35565b82525050565b5f602082019050610d625f830184610d40565b92915050565b5f819050919050565b610d7a81610d68565b82525050565b5f602082019050610d935f830184610d71565b92915050565b5f81519050919050565b5f82825260208201905092915050565b5f819050602082019050919050565b5f73ffffffffffffffffffffffffffffffffffffffff82169050919050565b5f610deb82610dc2565b9050919050565b610dfb81610de1565b82525050565b610e0a81610d68565b82525050565b604082015f820151610e245f850182610df2565b506020820151610e376020850182610e01565b50505050565b5f610e488383610e10565b60408301905092915050565b5f602082019050919050565b5f610e6a82610d99565b610e748185610da3565b9350610e7f83610db3565b805f5b83811015610eaf578151610e968882610e3d565b9750610ea183610e54565b925050600181019050610e82565b5085935050505092915050565b5f6020820190508181035f830152610ed48184610e60565b905092915050565b5f80fd5b610ee981610de1565b8114610ef3575f80fd5b50565b5f81359050610f0481610ee0565b92915050565b5f60208284031215610f1f57610f1e610edc565b5b5f610f2c84828501610ef6565b91505092915050565b610f3e81610d68565b8114610f48575f80fd5b50565b5f81359050610f5981610f35565b92915050565b5f60208284031215610f7457610f73610edc565b5b5f610f8184828501610f4b565b91505092915050565b610f9381610de1565b82525050565b5f604082019050610fac5f830185610f8a565b610fb96020830184610d71565b9392505050565b5f602082019050610fd35f830184610f8a565b92915050565b5f82825260208201905092915050565b7f4c612073756261737461206e6f206573746120616374697661000000000000005f82015250565b5f61101d601983610fd9565b915061102882610fe9565b602082019050919050565b5f6020820190508181035f83015261104a81611011565b9050919050565b7f4c61206f6665727461206465626520736572206d61796f7220612030000000005f82015250565b5f611085601c83610fd9565b915061109082611051565b602082019050919050565b5f6020820190508181035f8301526110b281611079565b9050919050565b7f4e487b71000000000000000000000000000000000000000000000000000000005f52601160045260245ffd5b5f6110f082610d68565b91506110fb83610d68565b925082820261110981610d68565b915082820484148315176111205761111f6110b9565b5b5092915050565b7f4e487b71000000000000000000000000000000000000000000000000000000005f52601260045260245ffd5b5f61115e82610d68565b915061116983610d68565b92508261117957611178611127565b5b828204905092915050565b5f61118e82610d68565b915061119983610d68565b92508282019050808211156111b1576111b06110b9565b5b92915050565b7f4f666572746120646562652073657220616c206d656e6f73203525206d61796f5f8201527f7220717565206c61206f6665727461206d617320616c74610000000000000000602082015250565b5f611211603883610fd9565b915061121c826111b7565b604082019050919050565b5f6020820190508181035f83015261123e81611205565b9050919050565b7f4c612073756261737461207369677565206163746976610000000000000000005f82015250565b5f611279601783610fd9565b915061128482611245565b602082019050919050565b5f6020820190508181035f8301526112a68161126d565b9050919050565b7f4e6f2068617920666f6e646f73207061726120726574697261720000000000005f82015250565b5f6112e1601a83610fd9565b91506112ec826112ad565b602082019050919050565b5f6020820190508181035f83015261130e816112d5565b9050919050565b5f61131f82610d68565b915061132a83610d68565b9250828203905081811115611342576113416110b9565b5b92915050565b7f4e6f2068617920666f6e646f73206578636564656e74657320706172612072655f8201527f7469726172000000000000000000000000000000000000000000000000000000602082015250565b5f6113a2602583610fd9565b91506113ad82611348565b604082019050919050565b5f6020820190508181035f8301526113cf81611396565b9050919050565b7f45786365646520656c206d6f6e746f20646973706f6e69626c650000000000005f82015250565b5f61140a601a83610fd9565b9150611415826113d6565b602082019050919050565b5f6020820190508181035f830152611437816113fe565b9050919050565b7f536f6c6f20656c206f776e657220707565646520656a656375746172206573745f8201527f612066756e63696f6e0000000000000000000000000000000000000000000000602082015250565b5f611498602983610fd9565b91506114a38261143e565b604082019050919050565b5f6020820190508181035f8301526114c58161148c565b905091905056fea2646970667358221220ca46291620b0bcdd0ca610fc4c589f80636d452b0436f5d5846acb8dd8180a9964736f6c63430008190033",
					"opcodes": "PUSH1 0x80 PUSH1 0x40 MSTORE PUSH2 0x258 PUSH1 0x2 SSTORE PUSH1 0x5 DUP1 SSTORE CALLVALUE DUP1 ISZERO PUSH2 0x19 JUMPI PUSH0 DUP1 REVERT JUMPDEST POP PUSH1 0x40 MLOAD PUSH2 0x16B0 CODESIZE SUB DUP1 PUSH2 0x16B0 DUP4 CODECOPY DUP2 DUP2 ADD PUSH1 0x40 MSTORE DUP2 ADD SWAP1 PUSH2 0x3B SWAP2 SWAP1 PUSH2 0xD5 JUMP JUMPDEST CALLER PUSH0 DUP1 PUSH2 0x100 EXP DUP2 SLOAD DUP2 PUSH20 0xFFFFFFFFFFFFFFFFFFFFFFFFFFFFFFFFFFFFFFFF MUL NOT AND SWAP1 DUP4 PUSH20 0xFFFFFFFFFFFFFFFFFFFFFFFFFFFFFFFFFFFFFFFF AND MUL OR SWAP1 SSTORE POP PUSH1 0x3C DUP2 PUSH2 0x87 SWAP2 SWAP1 PUSH2 0x12D JUMP JUMPDEST TIMESTAMP PUSH2 0x92 SWAP2 SWAP1 PUSH2 0x16E JUMP JUMPDEST PUSH1 0x1 DUP2 SWAP1 SSTORE POP POP PUSH2 0x1A1 JUMP JUMPDEST PUSH0 DUP1 REVERT JUMPDEST PUSH0 DUP2 SWAP1 POP SWAP2 SWAP1 POP JUMP JUMPDEST PUSH2 0xB4 DUP2 PUSH2 0xA2 JUMP JUMPDEST DUP2 EQ PUSH2 0xBE JUMPI PUSH0 DUP1 REVERT JUMPDEST POP JUMP JUMPDEST PUSH0 DUP2 MLOAD SWAP1 POP PUSH2 0xCF DUP2 PUSH2 0xAB JUMP JUMPDEST SWAP3 SWAP2 POP POP JUMP JUMPDEST PUSH0 PUSH1 0x20 DUP3 DUP5 SUB SLT ISZERO PUSH2 0xEA JUMPI PUSH2 0xE9 PUSH2 0x9E JUMP JUMPDEST JUMPDEST PUSH0 PUSH2 0xF7 DUP5 DUP3 DUP6 ADD PUSH2 0xC1 JUMP JUMPDEST SWAP2 POP POP SWAP3 SWAP2 POP POP JUMP JUMPDEST PUSH32 0x4E487B7100000000000000000000000000000000000000000000000000000000 PUSH0 MSTORE PUSH1 0x11 PUSH1 0x4 MSTORE PUSH1 0x24 PUSH0 REVERT JUMPDEST PUSH0 PUSH2 0x137 DUP3 PUSH2 0xA2 JUMP JUMPDEST SWAP2 POP PUSH2 0x142 DUP4 PUSH2 0xA2 JUMP JUMPDEST SWAP3 POP DUP3 DUP3 MUL PUSH2 0x150 DUP2 PUSH2 0xA2 JUMP JUMPDEST SWAP2 POP DUP3 DUP3 DIV DUP5 EQ DUP4 ISZERO OR PUSH2 0x167 JUMPI PUSH2 0x166 PUSH2 0x100 JUMP JUMPDEST JUMPDEST POP SWAP3 SWAP2 POP POP JUMP JUMPDEST PUSH0 PUSH2 0x178 DUP3 PUSH2 0xA2 JUMP JUMPDEST SWAP2 POP PUSH2 0x183 DUP4 PUSH2 0xA2 JUMP JUMPDEST SWAP3 POP DUP3 DUP3 ADD SWAP1 POP DUP1 DUP3 GT ISZERO PUSH2 0x19B JUMPI PUSH2 0x19A PUSH2 0x100 JUMP JUMPDEST JUMPDEST SWAP3 SWAP2 POP POP JUMP JUMPDEST PUSH2 0x1502 DUP1 PUSH2 0x1AE PUSH0 CODECOPY PUSH0 RETURN INVALID PUSH1 0x80 PUSH1 0x40 MSTORE PUSH1 0x4 CALLDATASIZE LT PUSH2 0xE7 JUMPI PUSH0 CALLDATALOAD PUSH1 0xE0 SHR DUP1 PUSH4 0x71D2EE6C GT PUSH2 0x89 JUMPI DUP1 PUSH4 0x91F90157 GT PUSH2 0x58 JUMPI DUP1 PUSH4 0x91F90157 EQ PUSH2 0x2A9 JUMPI DUP1 PUSH4 0xC715060A EQ PUSH2 0x2D3 JUMPI DUP1 PUSH4 0xD57BDE79 EQ PUSH2 0x2FD JUMPI DUP1 PUSH4 0xFE67A54B EQ PUSH2 0x327 JUMPI PUSH2 0xE7 JUMP JUMPDEST DUP1 PUSH4 0x71D2EE6C EQ PUSH2 0x1EF JUMPI DUP1 PUSH4 0x8A72EA6A EQ PUSH2 0x217 JUMPI DUP1 PUSH4 0x8DA5CB5B EQ PUSH2 0x254 JUMPI DUP1 PUSH4 0x8E7EA5B2 EQ PUSH2 0x27E JUMPI PUSH2 0xE7 JUMP JUMPDEST DUP1 PUSH4 0x3D91CE3C GT PUSH2 0xC5 JUMPI DUP1 PUSH4 0x3D91CE3C EQ PUSH2 0x135 JUMPI DUP1 PUSH4 0x3EE992EE EQ PUSH2 0x15F JUMPI DUP1 PUSH4 0x4B449CBA EQ PUSH2 0x189 JUMPI DUP1 PUSH4 0x62EA82DB EQ PUSH2 0x1B3 JUMPI PUSH2 0xE7 JUMP JUMPDEST DUP1 PUSH4 0x12FA6FEB EQ PUSH2 0xEB JUMPI DUP1 PUSH4 0x1998AEEF EQ PUSH2 0x115 JUMPI DUP1 PUSH4 0x3CCFD60B EQ PUSH2 0x11F JUMPI JUMPDEST PUSH0 DUP1 REVERT JUMPDEST CALLVALUE DUP1 ISZERO PUSH2 0xF6 JUMPI PUSH0 DUP1 REVERT JUMPDEST POP PUSH2 0xFF PUSH2 0x33D JUMP JUMPDEST PUSH1 0x40 MLOAD PUSH2 0x10C SWAP2 SWAP1 PUSH2 0xD4F JUMP JUMPDEST PUSH1 0x40 MLOAD DUP1 SWAP2 SUB SWAP1 RETURN JUMPDEST PUSH2 0x11D PUSH2 0x34F JUMP JUMPDEST STOP JUMPDEST CALLVALUE DUP1 ISZERO PUSH2 0x12A JUMPI PUSH0 DUP1 REVERT JUMPDEST POP PUSH2 0x133 PUSH2 0x61C JUMP JUMPDEST STOP JUMPDEST CALLVALUE DUP1 ISZERO PUSH2 0x140 JUMPI PUSH0 DUP1 REVERT JUMPDEST POP PUSH2 0x149 PUSH2 0x803 JUMP JUMPDEST PUSH1 0x40 MLOAD PUSH2 0x156 SWAP2 SWAP1 PUSH2 0xD80 JUMP JUMPDEST PUSH1 0x40 MLOAD DUP1 SWAP2 SUB SWAP1 RETURN JUMPDEST CALLVALUE DUP1 ISZERO PUSH2 0x16A JUMPI PUSH0 DUP1 REVERT JUMPDEST POP PUSH2 0x173 PUSH2 0x809 JUMP JUMPDEST PUSH1 0x40 MLOAD PUSH2 0x180 SWAP2 SWAP1 PUSH2 0xEBC JUMP JUMPDEST PUSH1 0x40 MLOAD DUP1 SWAP2 SUB SWAP1 RETURN JUMPDEST CALLVALUE DUP1 ISZERO PUSH2 0x194 JUMPI PUSH0 DUP1 REVERT JUMPDEST POP PUSH2 0x19D PUSH2 0x8C3 JUMP JUMPDEST PUSH1 0x40 MLOAD PUSH2 0x1AA SWAP2 SWAP1 PUSH2 0xD80 JUMP JUMPDEST PUSH1 0x40 MLOAD DUP1 SWAP2 SUB SWAP1 RETURN JUMPDEST CALLVALUE DUP1 ISZERO PUSH2 0x1BE JUMPI PUSH0 DUP1 REVERT JUMPDEST POP PUSH2 0x1D9 PUSH1 0x4 DUP1 CALLDATASIZE SUB DUP2 ADD SWAP1 PUSH2 0x1D4 SWAP2 SWAP1 PUSH2 0xF0A JUMP JUMPDEST PUSH2 0x8C9 JUMP JUMPDEST PUSH1 0x40 MLOAD PUSH2 0x1E6 SWAP2 SWAP1 PUSH2 0xD80 JUMP JUMPDEST PUSH1 0x40 MLOAD DUP1 SWAP2 SUB SWAP1 RETURN JUMPDEST CALLVALUE DUP1 ISZERO PUSH2 0x1FA JUMPI PUSH0 DUP1 REVERT JUMPDEST POP PUSH2 0x215 PUSH1 0x4 DUP1 CALLDATASIZE SUB DUP2 ADD SWAP1 PUSH2 0x210 SWAP2 SWAP1 PUSH2 0xF5F JUMP JUMPDEST PUSH2 0x8DE JUMP JUMPDEST STOP JUMPDEST CALLVALUE DUP1 ISZERO PUSH2 0x222 JUMPI PUSH0 DUP1 REVERT JUMPDEST POP PUSH2 0x23D PUSH1 0x4 DUP1 CALLDATASIZE SUB DUP2 ADD SWAP1 PUSH2 0x238 SWAP2 SWAP1 PUSH2 0xF5F JUMP JUMPDEST PUSH2 0xAA8 JUMP JUMPDEST PUSH1 0x40 MLOAD PUSH2 0x24B SWAP3 SWAP2 SWAP1 PUSH2 0xF99 JUMP JUMPDEST PUSH1 0x40 MLOAD DUP1 SWAP2 SUB SWAP1 RETURN JUMPDEST CALLVALUE DUP1 ISZERO PUSH2 0x25F JUMPI PUSH0 DUP1 REVERT JUMPDEST POP PUSH2 0x268 PUSH2 0xAF6 JUMP JUMPDEST PUSH1 0x40 MLOAD PUSH2 0x275 SWAP2 SWAP1 PUSH2 0xFC0 JUMP JUMPDEST PUSH1 0x40 MLOAD DUP1 SWAP2 SUB SWAP1 RETURN JUMPDEST CALLVALUE DUP1 ISZERO PUSH2 0x289 JUMPI PUSH0 DUP1 REVERT JUMPDEST POP PUSH2 0x292 PUSH2 0xB19 JUMP JUMPDEST PUSH1 0x40 MLOAD PUSH2 0x2A0 SWAP3 SWAP2 SWAP1 PUSH2 0xF99 JUMP JUMPDEST PUSH1 0x40 MLOAD DUP1 SWAP2 SUB SWAP1 RETURN JUMPDEST CALLVALUE DUP1 ISZERO PUSH2 0x2B4 JUMPI PUSH0 DUP1 REVERT JUMPDEST POP PUSH2 0x2BD PUSH2 0xBA3 JUMP JUMPDEST PUSH1 0x40 MLOAD PUSH2 0x2CA SWAP2 SWAP1 PUSH2 0xFC0 JUMP JUMPDEST PUSH1 0x40 MLOAD DUP1 SWAP2 SUB SWAP1 RETURN JUMPDEST CALLVALUE DUP1 ISZERO PUSH2 0x2DE JUMPI PUSH0 DUP1 REVERT JUMPDEST POP PUSH2 0x2E7 PUSH2 0xBC8 JUMP JUMPDEST PUSH1 0x40 MLOAD PUSH2 0x2F4 SWAP2 SWAP1 PUSH2 0xD80 JUMP JUMPDEST PUSH1 0x40 MLOAD DUP1 SWAP2 SUB SWAP1 RETURN JUMPDEST CALLVALUE DUP1 ISZERO PUSH2 0x308 JUMPI PUSH0 DUP1 REVERT JUMPDEST POP PUSH2 0x311 PUSH2 0xBCE JUMP JUMPDEST PUSH1 0x40 MLOAD PUSH2 0x31E SWAP2 SWAP1 PUSH2 0xD80 JUMP JUMPDEST PUSH1 0x40 MLOAD DUP1 SWAP2 SUB SWAP1 RETURN JUMPDEST CALLVALUE DUP1 ISZERO PUSH2 0x332 JUMPI PUSH0 DUP1 REVERT JUMPDEST POP PUSH2 0x33B PUSH2 0xBD4 JUMP JUMPDEST STOP JUMPDEST PUSH1 0x6 PUSH0 SWAP1 SLOAD SWAP1 PUSH2 0x100 EXP SWAP1 DIV PUSH1 0xFF AND DUP2 JUMP JUMPDEST PUSH1 0x1 SLOAD TIMESTAMP LT DUP1 ISZERO PUSH2 0x36C JUMPI POP PUSH1 0x6 PUSH0 SWAP1 SLOAD SWAP1 PUSH2 0x100 EXP SWAP1 DIV PUSH1 0xFF AND ISZERO JUMPDEST PUSH2 0x3AB JUMPI PUSH1 0x40 MLOAD PUSH32 0x8C379A000000000000000000000000000000000000000000000000000000000 DUP2 MSTORE PUSH1 0x4 ADD PUSH2 0x3A2 SWAP1 PUSH2 0x1033 JUMP JUMPDEST PUSH1 0x40 MLOAD DUP1 SWAP2 SUB SWAP1 REVERT JUMPDEST PUSH0 CALLVALUE GT PUSH2 0x3ED JUMPI PUSH1 0x40 MLOAD PUSH32 0x8C379A000000000000000000000000000000000000000000000000000000000 DUP2 MSTORE PUSH1 0x4 ADD PUSH2 0x3E4 SWAP1 PUSH2 0x109B JUMP JUMPDEST PUSH1 0x40 MLOAD DUP1 SWAP2 SUB SWAP1 REVERT JUMPDEST PUSH0 PUSH1 0x64 PUSH1 0x5 SLOAD PUSH1 0x3 SLOAD PUSH2 0x400 SWAP2 SWAP1 PUSH2 0x10E6 JUMP JUMPDEST PUSH2 0x40A SWAP2 SWAP1 PUSH2 0x1154 JUMP JUMPDEST PUSH1 0x3 SLOAD PUSH2 0x417 SWAP2 SWAP1 PUSH2 0x1184 JUMP JUMPDEST SWAP1 POP DUP1 CALLVALUE LT ISZERO PUSH2 0x45C JUMPI PUSH1 0x40 MLOAD PUSH32 0x8C379A000000000000000000000000000000000000000000000000000000000 DUP2 MSTORE PUSH1 0x4 ADD PUSH2 0x453 SWAP1 PUSH2 0x1227 JUMP JUMPDEST PUSH1 0x40 MLOAD DUP1 SWAP2 SUB SWAP1 REVERT JUMPDEST CALLVALUE PUSH1 0x8 PUSH0 CALLER PUSH20 0xFFFFFFFFFFFFFFFFFFFFFFFFFFFFFFFFFFFFFFFF AND PUSH20 0xFFFFFFFFFFFFFFFFFFFFFFFFFFFFFFFFFFFFFFFF AND DUP2 MSTORE PUSH1 0x20 ADD SWAP1 DUP2 MSTORE PUSH1 0x20 ADD PUSH0 KECCAK256 PUSH0 DUP3 DUP3 SLOAD PUSH2 0x4A8 SWAP2 SWAP1 PUSH2 0x1184 JUMP JUMPDEST SWAP3 POP POP DUP2 SWAP1 SSTORE POP PUSH1 0x7 PUSH1 0x40 MLOAD DUP1 PUSH1 0x40 ADD PUSH1 0x40 MSTORE DUP1 CALLER PUSH20 0xFFFFFFFFFFFFFFFFFFFFFFFFFFFFFFFFFFFFFFFF AND DUP2 MSTORE PUSH1 0x20 ADD CALLVALUE DUP2 MSTORE POP SWAP1 DUP1 PUSH1 0x1 DUP2 SLOAD ADD DUP1 DUP3 SSTORE DUP1 SWAP2 POP POP PUSH1 0x1 SWAP1 SUB SWAP1 PUSH0 MSTORE PUSH1 0x20 PUSH0 KECCAK256 SWAP1 PUSH1 0x2 MUL ADD PUSH0 SWAP1 SWAP2 SWAP1 SWAP2 SWAP1 SWAP2 POP PUSH0 DUP3 ADD MLOAD DUP2 PUSH0 ADD PUSH0 PUSH2 0x100 EXP DUP2 SLOAD DUP2 PUSH20 0xFFFFFFFFFFFFFFFFFFFFFFFFFFFFFFFFFFFFFFFF MUL NOT AND SWAP1 DUP4 PUSH20 0xFFFFFFFFFFFFFFFFFFFFFFFFFFFFFFFFFFFFFFFF AND MUL OR SWAP1 SSTORE POP PUSH1 0x20 DUP3 ADD MLOAD DUP2 PUSH1 0x1 ADD SSTORE POP POP CALLVALUE PUSH1 0x3 DUP2 SWAP1 SSTORE POP CALLER PUSH1 0x4 PUSH0 PUSH2 0x100 EXP DUP2 SLOAD DUP2 PUSH20 0xFFFFFFFFFFFFFFFFFFFFFFFFFFFFFFFFFFFFFFFF MUL NOT AND SWAP1 DUP4 PUSH20 0xFFFFFFFFFFFFFFFFFFFFFFFFFFFFFFFFFFFFFFFF AND MUL OR SWAP1 SSTORE POP CALLER PUSH20 0xFFFFFFFFFFFFFFFFFFFFFFFFFFFFFFFFFFFFFFFF AND PUSH32 0xDD0B6C6A77960E2066C96171B4D7AC9E8B4C184011F38544AFA36A5BB63EC59F CALLVALUE PUSH1 0x40 MLOAD PUSH2 0x5DF SWAP2 SWAP1 PUSH2 0xD80 JUMP JUMPDEST PUSH1 0x40 MLOAD DUP1 SWAP2 SUB SWAP1 LOG2 PUSH1 0x1 SLOAD PUSH1 0x2 SLOAD TIMESTAMP PUSH2 0x5F8 SWAP2 SWAP1 PUSH2 0x1184 JUMP JUMPDEST GT ISZERO PUSH2 0x619 JUMPI PUSH1 0x2 SLOAD PUSH1 0x1 PUSH0 DUP3 DUP3 SLOAD PUSH2 0x611 SWAP2 SWAP1 PUSH2 0x1184 JUMP JUMPDEST SWAP3 POP POP DUP2 SWAP1 SSTORE POP JUMPDEST POP JUMP JUMPDEST PUSH1 0x1 SLOAD TIMESTAMP LT ISZERO DUP1 PUSH2 0x638 JUMPI POP PUSH1 0x6 PUSH0 SWAP1 SLOAD SWAP1 PUSH2 0x100 EXP SWAP1 DIV PUSH1 0xFF AND JUMPDEST PUSH2 0x677 JUMPI PUSH1 0x40 MLOAD PUSH32 0x8C379A000000000000000000000000000000000000000000000000000000000 DUP2 MSTORE PUSH1 0x4 ADD PUSH2 0x66E SWAP1 PUSH2 0x128F JUMP JUMPDEST PUSH1 0x40 MLOAD DUP1 SWAP2 SUB SWAP1 REVERT JUMPDEST PUSH0 PUSH1 0x8 PUSH0 CALLER PUSH20 0xFFFFFFFFFFFFFFFFFFFFFFFFFFFFFFFFFFFFFFFF AND PUSH20 0xFFFFFFFFFFFFFFFFFFFFFFFFFFFFFFFFFFFFFFFF AND DUP2 MSTORE PUSH1 0x20 ADD SWAP1 DUP2 MSTORE PUSH1 0x20 ADD PUSH0 KECCAK256 SLOAD SWAP1 POP PUSH0 DUP2 GT PUSH2 0x6FA JUMPI PUSH1 0x40 MLOAD PUSH32 0x8C379A000000000000000000000000000000000000000000000000000000000 DUP2 MSTORE PUSH1 0x4 ADD PUSH2 0x6F1 SWAP1 PUSH2 0x12F7 JUMP JUMPDEST PUSH1 0x40 MLOAD DUP1 SWAP2 SUB SWAP1 REVERT JUMPDEST PUSH0 PUSH1 0x8 PUSH0 CALLER PUSH20 0xFFFFFFFFFFFFFFFFFFFFFFFFFFFFFFFFFFFFFFFF AND PUSH20 0xFFFFFFFFFFFFFFFFFFFFFFFFFFFFFFFFFFFFFFFF AND DUP2 MSTORE PUSH1 0x20 ADD SWAP1 DUP2 MSTORE PUSH1 0x20 ADD PUSH0 KECCAK256 DUP2 SWAP1 SSTORE POP PUSH1 0x4 PUSH0 SWAP1 SLOAD SWAP1 PUSH2 0x100 EXP SWAP1 DIV PUSH20 0xFFFFFFFFFFFFFFFFFFFFFFFFFFFFFFFFFFFFFFFF AND PUSH20 0xFFFFFFFFFFFFFFFFFFFFFFFFFFFFFFFFFFFFFFFF AND CALLER PUSH20 0xFFFFFFFFFFFFFFFFFFFFFFFFFFFFFFFFFFFFFFFF AND EQ PUSH2 0x7BC JUMPI PUSH0 PUSH1 0x64 PUSH1 0x2 DUP4 PUSH2 0x7A0 SWAP2 SWAP1 PUSH2 0x10E6 JUMP JUMPDEST PUSH2 0x7AA SWAP2 SWAP1 PUSH2 0x1154 JUMP JUMPDEST SWAP1 POP DUP1 DUP3 PUSH2 0x7B8 SWAP2 SWAP1 PUSH2 0x1315 JUMP JUMPDEST SWAP2 POP POP JUMPDEST CALLER PUSH20 0xFFFFFFFFFFFFFFFFFFFFFFFFFFFFFFFFFFFFFFFF AND PUSH2 0x8FC DUP3 SWAP1 DUP2 ISZERO MUL SWAP1 PUSH1 0x40 MLOAD PUSH0 PUSH1 0x40 MLOAD DUP1 DUP4 SUB DUP2 DUP6 DUP9 DUP9 CALL SWAP4 POP POP POP POP ISZERO DUP1 ISZERO PUSH2 0x7FF JUMPI RETURNDATASIZE PUSH0 DUP1 RETURNDATACOPY RETURNDATASIZE PUSH0 REVERT JUMPDEST POP POP JUMP JUMPDEST PUSH1 0x5 SLOAD DUP2 JUMP JUMPDEST PUSH1 0x60 PUSH1 0x7 DUP1 SLOAD DUP1 PUSH1 0x20 MUL PUSH1 0x20 ADD PUSH1 0x40 MLOAD SWAP1 DUP2 ADD PUSH1 0x40 MSTORE DUP1 SWAP3 SWAP2 SWAP1 DUP2 DUP2 MSTORE PUSH1 0x20 ADD PUSH0 SWAP1 JUMPDEST DUP3 DUP3 LT ISZERO PUSH2 0x8BA JUMPI DUP4 DUP3 SWAP1 PUSH0 MSTORE PUSH1 0x20 PUSH0 KECCAK256 SWAP1 PUSH1 0x2 MUL ADD PUSH1 0x40 MLOAD DUP1 PUSH1 0x40 ADD PUSH1 0x40 MSTORE SWAP1 DUP2 PUSH0 DUP3 ADD PUSH0 SWAP1 SLOAD SWAP1 PUSH2 0x100 EXP SWAP1 DIV PUSH20 0xFFFFFFFFFFFFFFFFFFFFFFFFFFFFFFFFFFFFFFFF AND PUSH20 0xFFFFFFFFFFFFFFFFFFFFFFFFFFFFFFFFFFFFFFFF AND PUSH20 0xFFFFFFFFFFFFFFFFFFFFFFFFFFFFFFFFFFFFFFFF AND DUP2 MSTORE PUSH1 0x20 ADD PUSH1 0x1 DUP3 ADD SLOAD DUP2 MSTORE POP POP DUP2 MSTORE PUSH1 0x20 ADD SWAP1 PUSH1 0x1 ADD SWAP1 PUSH2 0x82C JUMP JUMPDEST POP POP POP POP SWAP1 POP SWAP1 JUMP JUMPDEST PUSH1 0x1 SLOAD DUP2 JUMP JUMPDEST PUSH1 0x8 PUSH1 0x20 MSTORE DUP1 PUSH0 MSTORE PUSH1 0x40 PUSH0 KECCAK256 PUSH0 SWAP2 POP SWAP1 POP SLOAD DUP2 JUMP JUMPDEST PUSH1 0x1 SLOAD TIMESTAMP LT DUP1 ISZERO PUSH2 0x8FB JUMPI POP PUSH1 0x6 PUSH0 SWAP1 SLOAD SWAP1 PUSH2 0x100 EXP SWAP1 DIV PUSH1 0xFF AND ISZERO JUMPDEST PUSH2 0x93A JUMPI PUSH1 0x40 MLOAD PUSH32 0x8C379A000000000000000000000000000000000000000000000000000000000 DUP2 MSTORE PUSH1 0x4 ADD PUSH2 0x931 SWAP1 PUSH2 0x1033 JUMP JUMPDEST PUSH1 0x40 MLOAD DUP1 SWAP2 SUB SWAP1 REVERT JUMPDEST PUSH0 PUSH1 0x3 SLOAD PUSH1 0x8 PUSH0 CALLER PUSH20 0xFFFFFFFFFFFFFFFFFFFFFFFFFFFFFFFFFFFFFFFF AND PUSH20 0xFFFFFFFFFFFFFFFFFFFFFFFFFFFFFFFFFFFFFFFF AND DUP2 MSTORE PUSH1 0x20 ADD SWAP1 DUP2 MSTORE PUSH1 0x20 ADD PUSH0 KECCAK256 SLOAD PUSH2 0x986 SWAP2 SWAP1 PUSH2 0x1315 JUMP JUMPDEST SWAP1 POP PUSH0 DUP2 GT PUSH2 0x9CA JUMPI PUSH1 0x40 MLOAD PUSH32 0x8C379A000000000000000000000000000000000000000000000000000000000 DUP2 MSTORE PUSH1 0x4 ADD PUSH2 0x9C1 SWAP1 PUSH2 0x13B8 JUMP JUMPDEST PUSH1 0x40 MLOAD DUP1 SWAP2 SUB SWAP1 REVERT JUMPDEST DUP1 DUP3 GT ISZERO PUSH2 0xA0D JUMPI PUSH1 0x40 MLOAD PUSH32 0x8C379A000000000000000000000000000000000000000000000000000000000 DUP2 MSTORE PUSH1 0x4 ADD PUSH2 0xA04 SWAP1 PUSH2 0x1420 JUMP JUMPDEST PUSH1 0x40 MLOAD DUP1 SWAP2 SUB SWAP1 REVERT JUMPDEST DUP2 PUSH1 0x8 PUSH0 CALLER PUSH20 0xFFFFFFFFFFFFFFFFFFFFFFFFFFFFFFFFFFFFFFFF AND PUSH20 0xFFFFFFFFFFFFFFFFFFFFFFFFFFFFFFFFFFFFFFFF AND DUP2 MSTORE PUSH1 0x20 ADD SWAP1 DUP2 MSTORE PUSH1 0x20 ADD PUSH0 KECCAK256 PUSH0 DUP3 DUP3 SLOAD PUSH2 0xA59 SWAP2 SWAP1 PUSH2 0x1315 JUMP JUMPDEST SWAP3 POP POP DUP2 SWAP1 SSTORE POP CALLER PUSH20 0xFFFFFFFFFFFFFFFFFFFFFFFFFFFFFFFFFFFFFFFF AND PUSH2 0x8FC DUP4 SWAP1 DUP2 ISZERO MUL SWAP1 PUSH1 0x40 MLOAD PUSH0 PUSH1 0x40 MLOAD DUP1 DUP4 SUB DUP2 DUP6 DUP9 DUP9 CALL SWAP4 POP POP POP POP ISZERO DUP1 ISZERO PUSH2 0xAA3 JUMPI RETURNDATASIZE PUSH0 DUP1 RETURNDATACOPY RETURNDATASIZE PUSH0 REVERT JUMPDEST POP POP POP JUMP JUMPDEST PUSH1 0x7 DUP2 DUP2 SLOAD DUP2 LT PUSH2 0xAB7 JUMPI PUSH0 DUP1 REVERT JUMPDEST SWAP1 PUSH0 MSTORE PUSH1 0x20 PUSH0 KECCAK256 SWAP1 PUSH1 0x2 MUL ADD PUSH0 SWAP2 POP SWAP1 POP DUP1 PUSH0 ADD PUSH0 SWAP1 SLOAD SWAP1 PUSH2 0x100 EXP SWAP1 DIV PUSH20 0xFFFFFFFFFFFFFFFFFFFFFFFFFFFFFFFFFFFFFFFF AND SWAP1 DUP1 PUSH1 0x1 ADD SLOAD SWAP1 POP DUP3 JUMP JUMPDEST PUSH0 DUP1 SLOAD SWAP1 PUSH2 0x100 EXP SWAP1 DIV PUSH20 0xFFFFFFFFFFFFFFFFFFFFFFFFFFFFFFFFFFFFFFFF AND DUP2 JUMP JUMPDEST PUSH0 DUP1 PUSH1 0x1 SLOAD TIMESTAMP LT ISZERO DUP1 PUSH2 0xB37 JUMPI POP PUSH1 0x6 PUSH0 SWAP1 SLOAD SWAP1 PUSH2 0x100 EXP SWAP1 DIV PUSH1 0xFF AND JUMPDEST PUSH2 0xB76 JUMPI PUSH1 0x40 MLOAD PUSH32 0x8C379A000000000000000000000000000000000000000000000000000000000 DUP2 MSTORE PUSH1 0x4 ADD PUSH2 0xB6D SWAP1 PUSH2 0x128F JUMP JUMPDEST PUSH1 0x40 MLOAD DUP1 SWAP2 SUB SWAP1 REVERT JUMPDEST PUSH1 0x4 PUSH0 SWAP1 SLOAD SWAP1 PUSH2 0x100 EXP SWAP1 DIV PUSH20 0xFFFFFFFFFFFFFFFFFFFFFFFFFFFFFFFFFFFFFFFF AND PUSH1 0x3 SLOAD SWAP2 POP SWAP2 POP SWAP1 SWAP2 JUMP JUMPDEST PUSH1 0x4 PUSH0 SWAP1 SLOAD SWAP1 PUSH2 0x100 EXP SWAP1 DIV PUSH20 0xFFFFFFFFFFFFFFFFFFFFFFFFFFFFFFFFFFFFFFFF AND DUP2 JUMP JUMPDEST PUSH1 0x2 SLOAD DUP2 JUMP JUMPDEST PUSH1 0x3 SLOAD DUP2 JUMP JUMPDEST PUSH0 DUP1 SLOAD SWAP1 PUSH2 0x100 EXP SWAP1 DIV PUSH20 0xFFFFFFFFFFFFFFFFFFFFFFFFFFFFFFFFFFFFFFFF AND PUSH20 0xFFFFFFFFFFFFFFFFFFFFFFFFFFFFFFFFFFFFFFFF AND CALLER PUSH20 0xFFFFFFFFFFFFFFFFFFFFFFFFFFFFFFFFFFFFFFFF AND EQ PUSH2 0xC61 JUMPI PUSH1 0x40 MLOAD PUSH32 0x8C379A000000000000000000000000000000000000000000000000000000000 DUP2 MSTORE PUSH1 0x4 ADD PUSH2 0xC58 SWAP1 PUSH2 0x14AE JUMP JUMPDEST PUSH1 0x40 MLOAD DUP1 SWAP2 SUB SWAP1 REVERT JUMPDEST PUSH1 0x1 SLOAD TIMESTAMP LT DUP1 ISZERO PUSH2 0xC7E JUMPI POP PUSH1 0x6 PUSH0 SWAP1 SLOAD SWAP1 PUSH2 0x100 EXP SWAP1 DIV PUSH1 0xFF AND ISZERO JUMPDEST PUSH2 0xCBD JUMPI PUSH1 0x40 MLOAD PUSH32 0x8C379A000000000000000000000000000000000000000000000000000000000 DUP2 MSTORE PUSH1 0x4 ADD PUSH2 0xCB4 SWAP1 PUSH2 0x1033 JUMP JUMPDEST PUSH1 0x40 MLOAD DUP1 SWAP2 SUB SWAP1 REVERT JUMPDEST PUSH1 0x1 PUSH1 0x6 PUSH0 PUSH2 0x100 EXP DUP2 SLOAD DUP2 PUSH1 0xFF MUL NOT AND SWAP1 DUP4 ISZERO ISZERO MUL OR SWAP1 SSTORE POP PUSH32 0xDAEC4582D5D9595688C8C98545FDD1C696D41C6AEAEB636737E84ED2F5C00EDA PUSH1 0x4 PUSH0 SWAP1 SLOAD SWAP1 PUSH2 0x100 EXP SWAP1 DIV PUSH20 0xFFFFFFFFFFFFFFFFFFFFFFFFFFFFFFFFFFFFFFFF AND PUSH1 0x3 SLOAD PUSH1 0x40 MLOAD PUSH2 0xD2B SWAP3 SWAP2 SWAP1 PUSH2 0xF99 JUMP JUMPDEST PUSH1 0x40 MLOAD DUP1 SWAP2 SUB SWAP1 LOG1 JUMP JUMPDEST PUSH0 DUP2 ISZERO ISZERO SWAP1 POP SWAP2 SWAP1 POP JUMP JUMPDEST PUSH2 0xD49 DUP2 PUSH2 0xD35 JUMP JUMPDEST DUP3 MSTORE POP POP JUMP JUMPDEST PUSH0 PUSH1 0x20 DUP3 ADD SWAP1 POP PUSH2 0xD62 PUSH0 DUP4 ADD DUP5 PUSH2 0xD40 JUMP JUMPDEST SWAP3 SWAP2 POP POP JUMP JUMPDEST PUSH0 DUP2 SWAP1 POP SWAP2 SWAP1 POP JUMP JUMPDEST PUSH2 0xD7A DUP2 PUSH2 0xD68 JUMP JUMPDEST DUP3 MSTORE POP POP JUMP JUMPDEST PUSH0 PUSH1 0x20 DUP3 ADD SWAP1 POP PUSH2 0xD93 PUSH0 DUP4 ADD DUP5 PUSH2 0xD71 JUMP JUMPDEST SWAP3 SWAP2 POP POP JUMP JUMPDEST PUSH0 DUP2 MLOAD SWAP1 POP SWAP2 SWAP1 POP JUMP JUMPDEST PUSH0 DUP3 DUP3 MSTORE PUSH1 0x20 DUP3 ADD SWAP1 POP SWAP3 SWAP2 POP POP JUMP JUMPDEST PUSH0 DUP2 SWAP1 POP PUSH1 0x20 DUP3 ADD SWAP1 POP SWAP2 SWAP1 POP JUMP JUMPDEST PUSH0 PUSH20 0xFFFFFFFFFFFFFFFFFFFFFFFFFFFFFFFFFFFFFFFF DUP3 AND SWAP1 POP SWAP2 SWAP1 POP JUMP JUMPDEST PUSH0 PUSH2 0xDEB DUP3 PUSH2 0xDC2 JUMP JUMPDEST SWAP1 POP SWAP2 SWAP1 POP JUMP JUMPDEST PUSH2 0xDFB DUP2 PUSH2 0xDE1 JUMP JUMPDEST DUP3 MSTORE POP POP JUMP JUMPDEST PUSH2 0xE0A DUP2 PUSH2 0xD68 JUMP JUMPDEST DUP3 MSTORE POP POP JUMP JUMPDEST PUSH1 0x40 DUP3 ADD PUSH0 DUP3 ADD MLOAD PUSH2 0xE24 PUSH0 DUP6 ADD DUP3 PUSH2 0xDF2 JUMP JUMPDEST POP PUSH1 0x20 DUP3 ADD MLOAD PUSH2 0xE37 PUSH1 0x20 DUP6 ADD DUP3 PUSH2 0xE01 JUMP JUMPDEST POP POP POP POP JUMP JUMPDEST PUSH0 PUSH2 0xE48 DUP4 DUP4 PUSH2 0xE10 JUMP JUMPDEST PUSH1 0x40 DUP4 ADD SWAP1 POP SWAP3 SWAP2 POP POP JUMP JUMPDEST PUSH0 PUSH1 0x20 DUP3 ADD SWAP1 POP SWAP2 SWAP1 POP JUMP JUMPDEST PUSH0 PUSH2 0xE6A DUP3 PUSH2 0xD99 JUMP JUMPDEST PUSH2 0xE74 DUP2 DUP6 PUSH2 0xDA3 JUMP JUMPDEST SWAP4 POP PUSH2 0xE7F DUP4 PUSH2 0xDB3 JUMP JUMPDEST DUP1 PUSH0 JUMPDEST DUP4 DUP2 LT ISZERO PUSH2 0xEAF JUMPI DUP2 MLOAD PUSH2 0xE96 DUP9 DUP3 PUSH2 0xE3D JUMP JUMPDEST SWAP8 POP PUSH2 0xEA1 DUP4 PUSH2 0xE54 JUMP JUMPDEST SWAP3 POP POP PUSH1 0x1 DUP2 ADD SWAP1 POP PUSH2 0xE82 JUMP JUMPDEST POP DUP6 SWAP4 POP POP POP POP SWAP3 SWAP2 POP POP JUMP JUMPDEST PUSH0 PUSH1 0x20 DUP3 ADD SWAP1 POP DUP2 DUP2 SUB PUSH0 DUP4 ADD MSTORE PUSH2 0xED4 DUP2 DUP5 PUSH2 0xE60 JUMP JUMPDEST SWAP1 POP SWAP3 SWAP2 POP POP JUMP JUMPDEST PUSH0 DUP1 REVERT JUMPDEST PUSH2 0xEE9 DUP2 PUSH2 0xDE1 JUMP JUMPDEST DUP2 EQ PUSH2 0xEF3 JUMPI PUSH0 DUP1 REVERT JUMPDEST POP JUMP JUMPDEST PUSH0 DUP2 CALLDATALOAD SWAP1 POP PUSH2 0xF04 DUP2 PUSH2 0xEE0 JUMP JUMPDEST SWAP3 SWAP2 POP POP JUMP JUMPDEST PUSH0 PUSH1 0x20 DUP3 DUP5 SUB SLT ISZERO PUSH2 0xF1F JUMPI PUSH2 0xF1E PUSH2 0xEDC JUMP JUMPDEST JUMPDEST PUSH0 PUSH2 0xF2C DUP5 DUP3 DUP6 ADD PUSH2 0xEF6 JUMP JUMPDEST SWAP2 POP POP SWAP3 SWAP2 POP POP JUMP JUMPDEST PUSH2 0xF3E DUP2 PUSH2 0xD68 JUMP JUMPDEST DUP2 EQ PUSH2 0xF48 JUMPI PUSH0 DUP1 REVERT JUMPDEST POP JUMP JUMPDEST PUSH0 DUP2 CALLDATALOAD SWAP1 POP PUSH2 0xF59 DUP2 PUSH2 0xF35 JUMP JUMPDEST SWAP3 SWAP2 POP POP JUMP JUMPDEST PUSH0 PUSH1 0x20 DUP3 DUP5 SUB SLT ISZERO PUSH2 0xF74 JUMPI PUSH2 0xF73 PUSH2 0xEDC JUMP JUMPDEST JUMPDEST PUSH0 PUSH2 0xF81 DUP5 DUP3 DUP6 ADD PUSH2 0xF4B JUMP JUMPDEST SWAP2 POP POP SWAP3 SWAP2 POP POP JUMP JUMPDEST PUSH2 0xF93 DUP2 PUSH2 0xDE1 JUMP JUMPDEST DUP3 MSTORE POP POP JUMP JUMPDEST PUSH0 PUSH1 0x40 DUP3 ADD SWAP1 POP PUSH2 0xFAC PUSH0 DUP4 ADD DUP6 PUSH2 0xF8A JUMP JUMPDEST PUSH2 0xFB9 PUSH1 0x20 DUP4 ADD DUP5 PUSH2 0xD71 JUMP JUMPDEST SWAP4 SWAP3 POP POP POP JUMP JUMPDEST PUSH0 PUSH1 0x20 DUP3 ADD SWAP1 POP PUSH2 0xFD3 PUSH0 DUP4 ADD DUP5 PUSH2 0xF8A JUMP JUMPDEST SWAP3 SWAP2 POP POP JUMP JUMPDEST PUSH0 DUP3 DUP3 MSTORE PUSH1 0x20 DUP3 ADD SWAP1 POP SWAP3 SWAP2 POP POP JUMP JUMPDEST PUSH32 0x4C612073756261737461206E6F20657374612061637469766100000000000000 PUSH0 DUP3 ADD MSTORE POP JUMP JUMPDEST PUSH0 PUSH2 0x101D PUSH1 0x19 DUP4 PUSH2 0xFD9 JUMP JUMPDEST SWAP2 POP PUSH2 0x1028 DUP3 PUSH2 0xFE9 JUMP JUMPDEST PUSH1 0x20 DUP3 ADD SWAP1 POP SWAP2 SWAP1 POP JUMP JUMPDEST PUSH0 PUSH1 0x20 DUP3 ADD SWAP1 POP DUP2 DUP2 SUB PUSH0 DUP4 ADD MSTORE PUSH2 0x104A DUP2 PUSH2 0x1011 JUMP JUMPDEST SWAP1 POP SWAP2 SWAP1 POP JUMP JUMPDEST PUSH32 0x4C61206F6665727461206465626520736572206D61796F722061203000000000 PUSH0 DUP3 ADD MSTORE POP JUMP JUMPDEST PUSH0 PUSH2 0x1085 PUSH1 0x1C DUP4 PUSH2 0xFD9 JUMP JUMPDEST SWAP2 POP PUSH2 0x1090 DUP3 PUSH2 0x1051 JUMP JUMPDEST PUSH1 0x20 DUP3 ADD SWAP1 POP SWAP2 SWAP1 POP JUMP JUMPDEST PUSH0 PUSH1 0x20 DUP3 ADD SWAP1 POP DUP2 DUP2 SUB PUSH0 DUP4 ADD MSTORE PUSH2 0x10B2 DUP2 PUSH2 0x1079 JUMP JUMPDEST SWAP1 POP SWAP2 SWAP1 POP JUMP JUMPDEST PUSH32 0x4E487B7100000000000000000000000000000000000000000000000000000000 PUSH0 MSTORE PUSH1 0x11 PUSH1 0x4 MSTORE PUSH1 0x24 PUSH0 REVERT JUMPDEST PUSH0 PUSH2 0x10F0 DUP3 PUSH2 0xD68 JUMP JUMPDEST SWAP2 POP PUSH2 0x10FB DUP4 PUSH2 0xD68 JUMP JUMPDEST SWAP3 POP DUP3 DUP3 MUL PUSH2 0x1109 DUP2 PUSH2 0xD68 JUMP JUMPDEST SWAP2 POP DUP3 DUP3 DIV DUP5 EQ DUP4 ISZERO OR PUSH2 0x1120 JUMPI PUSH2 0x111F PUSH2 0x10B9 JUMP JUMPDEST JUMPDEST POP SWAP3 SWAP2 POP POP JUMP JUMPDEST PUSH32 0x4E487B7100000000000000000000000000000000000000000000000000000000 PUSH0 MSTORE PUSH1 0x12 PUSH1 0x4 MSTORE PUSH1 0x24 PUSH0 REVERT JUMPDEST PUSH0 PUSH2 0x115E DUP3 PUSH2 0xD68 JUMP JUMPDEST SWAP2 POP PUSH2 0x1169 DUP4 PUSH2 0xD68 JUMP JUMPDEST SWAP3 POP DUP3 PUSH2 0x1179 JUMPI PUSH2 0x1178 PUSH2 0x1127 JUMP JUMPDEST JUMPDEST DUP3 DUP3 DIV SWAP1 POP SWAP3 SWAP2 POP POP JUMP JUMPDEST PUSH0 PUSH2 0x118E DUP3 PUSH2 0xD68 JUMP JUMPDEST SWAP2 POP PUSH2 0x1199 DUP4 PUSH2 0xD68 JUMP JUMPDEST SWAP3 POP DUP3 DUP3 ADD SWAP1 POP DUP1 DUP3 GT ISZERO PUSH2 0x11B1 JUMPI PUSH2 0x11B0 PUSH2 0x10B9 JUMP JUMPDEST JUMPDEST SWAP3 SWAP2 POP POP JUMP JUMPDEST PUSH32 0x4F666572746120646562652073657220616C206D656E6F73203525206D61796F PUSH0 DUP3 ADD MSTORE PUSH32 0x7220717565206C61206F6665727461206D617320616C74610000000000000000 PUSH1 0x20 DUP3 ADD MSTORE POP JUMP JUMPDEST PUSH0 PUSH2 0x1211 PUSH1 0x38 DUP4 PUSH2 0xFD9 JUMP JUMPDEST SWAP2 POP PUSH2 0x121C DUP3 PUSH2 0x11B7 JUMP JUMPDEST PUSH1 0x40 DUP3 ADD SWAP1 POP SWAP2 SWAP1 POP JUMP JUMPDEST PUSH0 PUSH1 0x20 DUP3 ADD SWAP1 POP DUP2 DUP2 SUB PUSH0 DUP4 ADD MSTORE PUSH2 0x123E DUP2 PUSH2 0x1205 JUMP JUMPDEST SWAP1 POP SWAP2 SWAP1 POP JUMP JUMPDEST PUSH32 0x4C61207375626173746120736967756520616374697661000000000000000000 PUSH0 DUP3 ADD MSTORE POP JUMP JUMPDEST PUSH0 PUSH2 0x1279 PUSH1 0x17 DUP4 PUSH2 0xFD9 JUMP JUMPDEST SWAP2 POP PUSH2 0x1284 DUP3 PUSH2 0x1245 JUMP JUMPDEST PUSH1 0x20 DUP3 ADD SWAP1 POP SWAP2 SWAP1 POP JUMP JUMPDEST PUSH0 PUSH1 0x20 DUP3 ADD SWAP1 POP DUP2 DUP2 SUB PUSH0 DUP4 ADD MSTORE PUSH2 0x12A6 DUP2 PUSH2 0x126D JUMP JUMPDEST SWAP1 POP SWAP2 SWAP1 POP JUMP JUMPDEST PUSH32 0x4E6F2068617920666F6E646F7320706172612072657469726172000000000000 PUSH0 DUP3 ADD MSTORE POP JUMP JUMPDEST PUSH0 PUSH2 0x12E1 PUSH1 0x1A DUP4 PUSH2 0xFD9 JUMP JUMPDEST SWAP2 POP PUSH2 0x12EC DUP3 PUSH2 0x12AD JUMP JUMPDEST PUSH1 0x20 DUP3 ADD SWAP1 POP SWAP2 SWAP1 POP JUMP JUMPDEST PUSH0 PUSH1 0x20 DUP3 ADD SWAP1 POP DUP2 DUP2 SUB PUSH0 DUP4 ADD MSTORE PUSH2 0x130E DUP2 PUSH2 0x12D5 JUMP JUMPDEST SWAP1 POP SWAP2 SWAP1 POP JUMP JUMPDEST PUSH0 PUSH2 0x131F DUP3 PUSH2 0xD68 JUMP JUMPDEST SWAP2 POP PUSH2 0x132A DUP4 PUSH2 0xD68 JUMP JUMPDEST SWAP3 POP DUP3 DUP3 SUB SWAP1 POP DUP2 DUP2 GT ISZERO PUSH2 0x1342 JUMPI PUSH2 0x1341 PUSH2 0x10B9 JUMP JUMPDEST JUMPDEST SWAP3 SWAP2 POP POP JUMP JUMPDEST PUSH32 0x4E6F2068617920666F6E646F73206578636564656E7465732070617261207265 PUSH0 DUP3 ADD MSTORE PUSH32 0x7469726172000000000000000000000000000000000000000000000000000000 PUSH1 0x20 DUP3 ADD MSTORE POP JUMP JUMPDEST PUSH0 PUSH2 0x13A2 PUSH1 0x25 DUP4 PUSH2 0xFD9 JUMP JUMPDEST SWAP2 POP PUSH2 0x13AD DUP3 PUSH2 0x1348 JUMP JUMPDEST PUSH1 0x40 DUP3 ADD SWAP1 POP SWAP2 SWAP1 POP JUMP JUMPDEST PUSH0 PUSH1 0x20 DUP3 ADD SWAP1 POP DUP2 DUP2 SUB PUSH0 DUP4 ADD MSTORE PUSH2 0x13CF DUP2 PUSH2 0x1396 JUMP JUMPDEST SWAP1 POP SWAP2 SWAP1 POP JUMP JUMPDEST PUSH32 0x45786365646520656C206D6F6E746F20646973706F6E69626C65000000000000 PUSH0 DUP3 ADD MSTORE POP JUMP JUMPDEST PUSH0 PUSH2 0x140A PUSH1 0x1A DUP4 PUSH2 0xFD9 JUMP JUMPDEST SWAP2 POP PUSH2 0x1415 DUP3 PUSH2 0x13D6 JUMP JUMPDEST PUSH1 0x20 DUP3 ADD SWAP1 POP SWAP2 SWAP1 POP JUMP JUMPDEST PUSH0 PUSH1 0x20 DUP3 ADD SWAP1 POP DUP2 DUP2 SUB PUSH0 DUP4 ADD MSTORE PUSH2 0x1437 DUP2 PUSH2 0x13FE JUMP JUMPDEST SWAP1 POP SWAP2 SWAP1 POP JUMP JUMPDEST PUSH32 0x536F6C6F20656C206F776E657220707565646520656A65637574617220657374 PUSH0 DUP3 ADD MSTORE PUSH32 0x612066756E63696F6E0000000000000000000000000000000000000000000000 PUSH1 0x20 DUP3 ADD MSTORE POP JUMP JUMPDEST PUSH0 PUSH2 0x1498 PUSH1 0x29 DUP4 PUSH2 0xFD9 JUMP JUMPDEST SWAP2 POP PUSH2 0x14A3 DUP3 PUSH2 0x143E JUMP JUMPDEST PUSH1 0x40 DUP3 ADD SWAP1 POP SWAP2 SWAP1 POP JUMP JUMPDEST PUSH0 PUSH1 0x20 DUP3 ADD SWAP1 POP DUP2 DUP2 SUB PUSH0 DUP4 ADD MSTORE PUSH2 0x14C5 DUP2 PUSH2 0x148C JUMP JUMPDEST SWAP1 POP SWAP2 SWAP1 POP JUMP INVALID LOG2 PUSH5 0x6970667358 0x22 SLT KECCAK256 0xCA CHAINID 0x29 AND KECCAK256 0xB0 0xBC 0xDD 0xC 0xA6 LT 0xFC 0x4C PC SWAP16 DUP1 PUSH4 0x6D452B04 CALLDATASIZE CREATE2 0xD5 DUP5 PUSH11 0xCB8DD8180A9964736F6C63 NUMBER STOP ADDMOD NOT STOP CALLER "
				},
				"gasEstimates": {
					"creation": {
						"codeDepositCost": "1075600",
						"executionCost": "infinite",
						"totalCost": "infinite"
					},
					"external": {
						"auctionEndTime()": "2492",
						"auctionExtendedTime()": "2469",
						"bid()": "infinite",
						"bids(address)": "2891",
						"endAuction()": "36777",
						"ended()": "2490",
						"getOffers()": "infinite",
						"getWinner()": "9099",
						"highestBid()": "2491",
						"highestBidder()": "2530",
						"minimumIncrement()": "2448",
						"offers(uint256)": "infinite",
						"owner()": "2572",
						"partialWithdraw(uint256)": "infinite",
						"withdraw()": "infinite"
					}
				},
				"methodIdentifiers": {
					"auctionEndTime()": "4b449cba",
					"auctionExtendedTime()": "c715060a",
					"bid()": "1998aeef",
					"bids(address)": "62ea82db",
					"endAuction()": "fe67a54b",
					"ended()": "12fa6feb",
					"getOffers()": "3ee992ee",
					"getWinner()": "8e7ea5b2",
					"highestBid()": "d57bde79",
					"highestBidder()": "91f90157",
					"minimumIncrement()": "3d91ce3c",
					"offers(uint256)": "8a72ea6a",
					"owner()": "8da5cb5b",
					"partialWithdraw(uint256)": "71d2ee6c",
					"withdraw()": "3ccfd60b"
				}
			},
			"storageLayout": {
				"storage": [
					{
						"astId": 3,
						"contract": "contracts/001-bid-contract.sol:Auction",
						"label": "owner",
						"offset": 0,
						"slot": "0",
						"type": "t_address"
					},
					{
						"astId": 5,
						"contract": "contracts/001-bid-contract.sol:Auction",
						"label": "auctionEndTime",
						"offset": 0,
						"slot": "1",
						"type": "t_uint256"
					},
					{
						"astId": 8,
						"contract": "contracts/001-bid-contract.sol:Auction",
						"label": "auctionExtendedTime",
						"offset": 0,
						"slot": "2",
						"type": "t_uint256"
					},
					{
						"astId": 10,
						"contract": "contracts/001-bid-contract.sol:Auction",
						"label": "highestBid",
						"offset": 0,
						"slot": "3",
						"type": "t_uint256"
					},
					{
						"astId": 12,
						"contract": "contracts/001-bid-contract.sol:Auction",
						"label": "highestBidder",
						"offset": 0,
						"slot": "4",
						"type": "t_address"
					},
					{
						"astId": 15,
						"contract": "contracts/001-bid-contract.sol:Auction",
						"label": "minimumIncrement",
						"offset": 0,
						"slot": "5",
						"type": "t_uint256"
					},
					{
						"astId": 17,
						"contract": "contracts/001-bid-contract.sol:Auction",
						"label": "ended",
						"offset": 0,
						"slot": "6",
						"type": "t_bool"
					},
					{
						"astId": 26,
						"contract": "contracts/001-bid-contract.sol:Auction",
						"label": "offers",
						"offset": 0,
						"slot": "7",
						"type": "t_array(t_struct(Offer)22_storage)dyn_storage"
					},
					{
						"astId": 30,
						"contract": "contracts/001-bid-contract.sol:Auction",
						"label": "bids",
						"offset": 0,
						"slot": "8",
						"type": "t_mapping(t_address,t_uint256)"
					}
				],
				"types": {
					"t_address": {
						"encoding": "inplace",
						"label": "address",
						"numberOfBytes": "20"
					},
					"t_array(t_struct(Offer)22_storage)dyn_storage": {
						"base": "t_struct(Offer)22_storage",
						"encoding": "dynamic_array",
						"label": "struct Auction.Offer[]",
						"numberOfBytes": "32"
					},
					"t_bool": {
						"encoding": "inplace",
						"label": "bool",
						"numberOfBytes": "1"
					},
					"t_mapping(t_address,t_uint256)": {
						"encoding": "mapping",
						"key": "t_address",
						"label": "mapping(address => uint256)",
						"numberOfBytes": "32",
						"value": "t_uint256"
					},
					"t_struct(Offer)22_storage": {
						"encoding": "inplace",
						"label": "struct Auction.Offer",
						"members": [
							{
								"astId": 19,
								"contract": "contracts/001-bid-contract.sol:Auction",
								"label": "bidder",
								"offset": 0,
								"slot": "0",
								"type": "t_address"
							},
							{
								"astId": 21,
								"contract": "contracts/001-bid-contract.sol:Auction",
								"label": "amount",
								"offset": 0,
								"slot": "1",
								"type": "t_uint256"
							}
						],
						"numberOfBytes": "64"
					},
					"t_uint256": {
						"encoding": "inplace",
						"label": "uint256",
						"numberOfBytes": "32"
					}
				}
			},
			"userdoc": {
				"kind": "user",
				"methods": {},
				"version": 1
			}
		}
	}
}