{
	"contracts/bid.sol": {
		"Auction": {
			"abi": [
				{
					"inputs": [
						{
							"internalType": "uint256",
							"name": "auctionDuration",
							"type": "uint256"
						}
					],
					"stateMutability": "nonpayable",
					"type": "constructor"
				},
				{
					"anonymous": false,
					"inputs": [
						{
							"indexed": false,
							"internalType": "uint256",
							"name": "newEndTime",
							"type": "uint256"
						}
					],
					"name": "AuctionExtended",
					"type": "event"
				},
				{
					"anonymous": false,
					"inputs": [
						{
							"indexed": true,
							"internalType": "address",
							"name": "bidder",
							"type": "address"
						},
						{
							"indexed": false,
							"internalType": "uint256",
							"name": "amount",
							"type": "uint256"
						}
					],
					"name": "BidPlaced",
					"type": "event"
				},
				{
					"anonymous": false,
					"inputs": [
						{
							"indexed": true,
							"internalType": "address",
							"name": "bidder",
							"type": "address"
						},
						{
							"indexed": false,
							"internalType": "uint256",
							"name": "amount",
							"type": "uint256"
						}
					],
					"name": "DepositRefunded",
					"type": "event"
				},
				{
					"anonymous": false,
					"inputs": [
						{
							"indexed": true,
							"internalType": "address",
							"name": "winner",
							"type": "address"
						},
						{
							"indexed": false,
							"internalType": "uint256",
							"name": "amount",
							"type": "uint256"
						}
					],
					"name": "WinnerDeclared",
					"type": "event"
				},
				{
					"inputs": [],
					"name": "auctionEndTime",
					"outputs": [
						{
							"internalType": "uint256",
							"name": "",
							"type": "uint256"
						}
					],
					"stateMutability": "view",
					"type": "function"
				},
				{
					"inputs": [
						{
							"internalType": "address",
							"name": "",
							"type": "address"
						}
					],
					"name": "balances",
					"outputs": [
						{
							"internalType": "uint256",
							"name": "",
							"type": "uint256"
						}
					],
					"stateMutability": "view",
					"type": "function"
				},
				{
					"inputs": [
						{
							"internalType": "uint256",
							"name": "",
							"type": "uint256"
						}
					],
					"name": "bids",
					"outputs": [
						{
							"internalType": "address",
							"name": "bidder",
							"type": "address"
						},
						{
							"internalType": "uint256",
							"name": "amount",
							"type": "uint256"
						}
					],
					"stateMutability": "view",
					"type": "function"
				},
				{
					"inputs": [],
					"name": "commissionRate",
					"outputs": [
						{
							"internalType": "uint256",
							"name": "",
							"type": "uint256"
						}
					],
					"stateMutability": "view",
					"type": "function"
				},
				{
					"inputs": [],
					"name": "endAuction",
					"outputs": [],
					"stateMutability": "nonpayable",
					"type": "function"
				},
				{
					"inputs": [],
					"name": "highestBid",
					"outputs": [
						{
							"internalType": "uint256",
							"name": "",
							"type": "uint256"
						}
					],
					"stateMutability": "view",
					"type": "function"
				},
				{
					"inputs": [],
					"name": "highestBidder",
					"outputs": [
						{
							"internalType": "address",
							"name": "",
							"type": "address"
						}
					],
					"stateMutability": "view",
					"type": "function"
				},
				{
					"inputs": [],
					"name": "owner",
					"outputs": [
						{
							"internalType": "address",
							"name": "",
							"type": "address"
						}
					],
					"stateMutability": "view",
					"type": "function"
				},
				{
					"inputs": [],
					"name": "partialRefund",
					"outputs": [],
					"stateMutability": "nonpayable",
					"type": "function"
				},
				{
					"inputs": [],
					"name": "placeBid",
					"outputs": [],
					"stateMutability": "payable",
					"type": "function"
				},
				{
					"inputs": [],
					"name": "refundDeposits",
					"outputs": [],
					"stateMutability": "nonpayable",
					"type": "function"
				},
				{
					"inputs": [],
					"name": "showBids",
					"outputs": [
						{
							"components": [
								{
									"internalType": "address",
									"name": "bidder",
									"type": "address"
								},
								{
									"internalType": "uint256",
									"name": "amount",
									"type": "uint256"
								}
							],
							"internalType": "struct Auction.Bid[]",
							"name": "",
							"type": "tuple[]"
						}
					],
					"stateMutability": "view",
					"type": "function"
				},
				{
					"inputs": [],
					"name": "showWinner",
					"outputs": [
						{
							"internalType": "address",
							"name": "",
							"type": "address"
						},
						{
							"internalType": "uint256",
							"name": "",
							"type": "uint256"
						}
					],
					"stateMutability": "view",
					"type": "function"
				}
			],
			"devdoc": {
				"kind": "dev",
				"methods": {},
				"version": 1
			},
			"evm": {
				"assembly": "    /* \"contracts/bid.sol\":57:3872  contract Auction {... */\n  mstore(0x40, 0x80)\n    /* \"contracts/bid.sol\":1135:1267  constructor(uint256 auctionDuration) {... */\n  callvalue\n  dup1\n  iszero\n  tag_1\n  jumpi\n  0x00\n  dup1\n  revert\ntag_1:\n  pop\n  mload(0x40)\n  sub(codesize, bytecodeSize)\n  dup1\n  bytecodeSize\n  dup4\n  codecopy\n  dup2\n  dup2\n  add\n  0x40\n  mstore\n  dup2\n  add\n  swap1\n  tag_2\n  swap2\n  swap1\n  tag_3\n  jump\t// in\ntag_2:\n    /* \"contracts/bid.sol\":1190:1200  msg.sender */\n  caller\n    /* \"contracts/bid.sol\":1182:1187  owner */\n  0x00\n  dup1\n    /* \"contracts/bid.sol\":1182:1200  owner = msg.sender */\n  0x0100\n  exp\n  dup2\n  sload\n  dup2\n  0xffffffffffffffffffffffffffffffffffffffff\n  mul\n  not\n  and\n  swap1\n  dup4\n  0xffffffffffffffffffffffffffffffffffffffff\n  and\n  mul\n  or\n  swap1\n  sstore\n  pop\n    /* \"contracts/bid.sol\":1245:1260  auctionDuration */\n  dup1\n    /* \"contracts/bid.sol\":1227:1242  block.timestamp */\n  timestamp\n    /* \"contracts/bid.sol\":1227:1260  block.timestamp + auctionDuration */\n  tag_6\n  swap2\n  swap1\n  tag_7\n  jump\t// in\ntag_6:\n    /* \"contracts/bid.sol\":1210:1224  auctionEndTime */\n  0x03\n    /* \"contracts/bid.sol\":1210:1260  auctionEndTime = block.timestamp + auctionDuration */\n  dup2\n  swap1\n  sstore\n  pop\n    /* \"contracts/bid.sol\":1135:1267  constructor(uint256 auctionDuration) {... */\n  pop\n    /* \"contracts/bid.sol\":57:3872  contract Auction {... */\n  jump(tag_8)\n    /* \"#utility.yul\":88:205   */\ntag_10:\n    /* \"#utility.yul\":197:198   */\n  0x00\n    /* \"#utility.yul\":194:195   */\n  dup1\n    /* \"#utility.yul\":187:199   */\n  revert\n    /* \"#utility.yul\":334:411   */\ntag_12:\n    /* \"#utility.yul\":371:378   */\n  0x00\n    /* \"#utility.yul\":400:405   */\n  dup2\n    /* \"#utility.yul\":389:405   */\n  swap1\n  pop\n    /* \"#utility.yul\":334:411   */\n  swap2\n  swap1\n  pop\n  jump\t// out\n    /* \"#utility.yul\":417:539   */\ntag_13:\n    /* \"#utility.yul\":490:514   */\n  tag_22\n    /* \"#utility.yul\":508:513   */\n  dup2\n    /* \"#utility.yul\":490:514   */\n  tag_12\n  jump\t// in\ntag_22:\n    /* \"#utility.yul\":483:488   */\n  dup2\n    /* \"#utility.yul\":480:515   */\n  eq\n    /* \"#utility.yul\":470:533   */\n  tag_23\n  jumpi\n    /* \"#utility.yul\":529:530   */\n  0x00\n    /* \"#utility.yul\":526:527   */\n  dup1\n    /* \"#utility.yul\":519:531   */\n  revert\n    /* \"#utility.yul\":470:533   */\ntag_23:\n    /* \"#utility.yul\":417:539   */\n  pop\n  jump\t// out\n    /* \"#utility.yul\":545:688   */\ntag_14:\n    /* \"#utility.yul\":602:607   */\n  0x00\n    /* \"#utility.yul\":633:639   */\n  dup2\n    /* \"#utility.yul\":627:640   */\n  mload\n    /* \"#utility.yul\":618:640   */\n  swap1\n  pop\n    /* \"#utility.yul\":649:682   */\n  tag_25\n    /* \"#utility.yul\":676:681   */\n  dup2\n    /* \"#utility.yul\":649:682   */\n  tag_13\n  jump\t// in\ntag_25:\n    /* \"#utility.yul\":545:688   */\n  swap3\n  swap2\n  pop\n  pop\n  jump\t// out\n    /* \"#utility.yul\":694:1045   */\ntag_3:\n    /* \"#utility.yul\":764:770   */\n  0x00\n    /* \"#utility.yul\":813:815   */\n  0x20\n    /* \"#utility.yul\":801:810   */\n  dup3\n    /* \"#utility.yul\":792:799   */\n  dup5\n    /* \"#utility.yul\":788:811   */\n  sub\n    /* \"#utility.yul\":784:816   */\n  slt\n    /* \"#utility.yul\":781:900   */\n  iszero\n  tag_27\n  jumpi\n    /* \"#utility.yul\":819:898   */\n  tag_28\n  tag_10\n  jump\t// in\ntag_28:\n    /* \"#utility.yul\":781:900   */\ntag_27:\n    /* \"#utility.yul\":939:940   */\n  0x00\n    /* \"#utility.yul\":964:1028   */\n  tag_29\n    /* \"#utility.yul\":1020:1027   */\n  dup5\n    /* \"#utility.yul\":1011:1017   */\n  dup3\n    /* \"#utility.yul\":1000:1009   */\n  dup6\n    /* \"#utility.yul\":996:1018   */\n  add\n    /* \"#utility.yul\":964:1028   */\n  tag_14\n  jump\t// in\ntag_29:\n    /* \"#utility.yul\":954:1028   */\n  swap2\n  pop\n    /* \"#utility.yul\":910:1038   */\n  pop\n    /* \"#utility.yul\":694:1045   */\n  swap3\n  swap2\n  pop\n  pop\n  jump\t// out\n    /* \"#utility.yul\":1051:1231   */\ntag_15:\n    /* \"#utility.yul\":1099:1176   */\n  0x4e487b7100000000000000000000000000000000000000000000000000000000\n    /* \"#utility.yul\":1096:1097   */\n  0x00\n    /* \"#utility.yul\":1089:1177   */\n  mstore\n    /* \"#utility.yul\":1196:1200   */\n  0x11\n    /* \"#utility.yul\":1193:1194   */\n  0x04\n    /* \"#utility.yul\":1186:1201   */\n  mstore\n    /* \"#utility.yul\":1220:1224   */\n  0x24\n    /* \"#utility.yul\":1217:1218   */\n  0x00\n    /* \"#utility.yul\":1210:1225   */\n  revert\n    /* \"#utility.yul\":1237:1428   */\ntag_7:\n    /* \"#utility.yul\":1277:1280   */\n  0x00\n    /* \"#utility.yul\":1296:1316   */\n  tag_32\n    /* \"#utility.yul\":1314:1315   */\n  dup3\n    /* \"#utility.yul\":1296:1316   */\n  tag_12\n  jump\t// in\ntag_32:\n    /* \"#utility.yul\":1291:1316   */\n  swap2\n  pop\n    /* \"#utility.yul\":1330:1350   */\n  tag_33\n    /* \"#utility.yul\":1348:1349   */\n  dup4\n    /* \"#utility.yul\":1330:1350   */\n  tag_12\n  jump\t// in\ntag_33:\n    /* \"#utility.yul\":1325:1350   */\n  swap3\n  pop\n    /* \"#utility.yul\":1373:1374   */\n  dup3\n    /* \"#utility.yul\":1370:1371   */\n  dup3\n    /* \"#utility.yul\":1366:1375   */\n  add\n    /* \"#utility.yul\":1359:1375   */\n  swap1\n  pop\n    /* \"#utility.yul\":1394:1397   */\n  dup1\n    /* \"#utility.yul\":1391:1392   */\n  dup3\n    /* \"#utility.yul\":1388:1398   */\n  gt\n    /* \"#utility.yul\":1385:1421   */\n  iszero\n  tag_34\n  jumpi\n    /* \"#utility.yul\":1401:1419   */\n  tag_35\n  tag_15\n  jump\t// in\ntag_35:\n    /* \"#utility.yul\":1385:1421   */\ntag_34:\n    /* \"#utility.yul\":1237:1428   */\n  swap3\n  swap2\n  pop\n  pop\n  jump\t// out\n    /* \"contracts/bid.sol\":57:3872  contract Auction {... */\ntag_8:\n  dataSize(sub_0)\n  dup1\n  dataOffset(sub_0)\n  0x00\n  codecopy\n  0x00\n  return\nstop\n\nsub_0: assembly {\n        /* \"contracts/bid.sol\":57:3872  contract Auction {... */\n      mstore(0x40, 0x80)\n      jumpi(tag_1, lt(calldatasize, 0x04))\n      shr(0xe0, calldataload(0x00))\n      dup1\n      0x6773fd77\n      gt\n      tag_15\n      jumpi\n      dup1\n      0xb7e03264\n      gt\n      tag_16\n      jumpi\n      dup1\n      0xb7e03264\n      eq\n      tag_11\n      jumpi\n      dup1\n      0xd57bde79\n      eq\n      tag_12\n      jumpi\n      dup1\n      0xecfc7ecc\n      eq\n      tag_13\n      jumpi\n      dup1\n      0xfe67a54b\n      eq\n      tag_14\n      jumpi\n      jump(tag_1)\n    tag_16:\n      dup1\n      0x6773fd77\n      eq\n      tag_8\n      jumpi\n      dup1\n      0x8da5cb5b\n      eq\n      tag_9\n      jumpi\n      dup1\n      0x91f90157\n      eq\n      tag_10\n      jumpi\n      jump(tag_1)\n    tag_15:\n      dup1\n      0x14d2687c\n      eq\n      tag_2\n      jumpi\n      dup1\n      0x1ce2bcf5\n      eq\n      tag_3\n      jumpi\n      dup1\n      0x27e235e3\n      eq\n      tag_4\n      jumpi\n      dup1\n      0x4423c5f1\n      eq\n      tag_5\n      jumpi\n      dup1\n      0x4b449cba\n      eq\n      tag_6\n      jumpi\n      dup1\n      0x5ea1d6f8\n      eq\n      tag_7\n      jumpi\n    tag_1:\n      0x00\n      dup1\n      revert\n        /* \"contracts/bid.sol\":2372:2457  function showBids() external view returns (Bid[] memory) {... */\n    tag_2:\n      callvalue\n      dup1\n      iszero\n      tag_17\n      jumpi\n      0x00\n      dup1\n      revert\n    tag_17:\n      pop\n      tag_18\n      tag_19\n      jump\t// in\n    tag_18:\n      mload(0x40)\n      tag_20\n      swap2\n      swap1\n      tag_21\n      jump\t// in\n    tag_20:\n      mload(0x40)\n      dup1\n      swap2\n      sub\n      swap1\n      return\n        /* \"contracts/bid.sol\":3166:3609  function partialRefund() external {... */\n    tag_3:\n      callvalue\n      dup1\n      iszero\n      tag_22\n      jumpi\n      0x00\n      dup1\n      revert\n    tag_22:\n      pop\n      tag_23\n      tag_24\n      jump\t// in\n    tag_23:\n      stop\n        /* \"contracts/bid.sol\":395:438  mapping(address => uint256) public balances */\n    tag_4:\n      callvalue\n      dup1\n      iszero\n      tag_25\n      jumpi\n      0x00\n      dup1\n      revert\n    tag_25:\n      pop\n      tag_26\n      0x04\n      dup1\n      calldatasize\n      sub\n      dup2\n      add\n      swap1\n      tag_27\n      swap2\n      swap1\n      tag_28\n      jump\t// in\n    tag_27:\n      tag_29\n      jump\t// in\n    tag_26:\n      mload(0x40)\n      tag_30\n      swap2\n      swap1\n      tag_31\n      jump\t// in\n    tag_30:\n      mload(0x40)\n      dup1\n      swap2\n      sub\n      swap1\n      return\n        /* \"contracts/bid.sol\":344:361  Bid[] public bids */\n    tag_5:\n      callvalue\n      dup1\n      iszero\n      tag_32\n      jumpi\n      0x00\n      dup1\n      revert\n    tag_32:\n      pop\n      tag_33\n      0x04\n      dup1\n      calldatasize\n      sub\n      dup2\n      add\n      swap1\n      tag_34\n      swap2\n      swap1\n      tag_35\n      jump\t// in\n    tag_34:\n      tag_36\n      jump\t// in\n    tag_33:\n      mload(0x40)\n      tag_37\n      swap3\n      swap2\n      swap1\n      tag_38\n      jump\t// in\n    tag_37:\n      mload(0x40)\n      dup1\n      swap2\n      sub\n      swap1\n      return\n        /* \"contracts/bid.sol\":171:200  uint256 public auctionEndTime */\n    tag_6:\n      callvalue\n      dup1\n      iszero\n      tag_39\n      jumpi\n      0x00\n      dup1\n      revert\n    tag_39:\n      pop\n      tag_40\n      tag_41\n      jump\t// in\n    tag_40:\n      mload(0x40)\n      tag_42\n      swap2\n      swap1\n      tag_31\n      jump\t// in\n    tag_42:\n      mload(0x40)\n      dup1\n      swap2\n      sub\n      swap1\n      return\n        /* \"contracts/bid.sol\":206:248  uint256 public constant commissionRate = 2 */\n    tag_7:\n      callvalue\n      dup1\n      iszero\n      tag_43\n      jumpi\n      0x00\n      dup1\n      revert\n    tag_43:\n      pop\n      tag_44\n      tag_45\n      jump\t// in\n    tag_44:\n      mload(0x40)\n      tag_46\n      swap2\n      swap1\n      tag_31\n      jump\t// in\n    tag_46:\n      mload(0x40)\n      dup1\n      swap2\n      sub\n      swap1\n      return\n        /* \"contracts/bid.sol\":2548:3088  function refundDeposits() external onlyOwner {... */\n    tag_8:\n      callvalue\n      dup1\n      iszero\n      tag_47\n      jumpi\n      0x00\n      dup1\n      revert\n    tag_47:\n      pop\n      tag_48\n      tag_49\n      jump\t// in\n    tag_48:\n      stop\n        /* \"contracts/bid.sol\":80:100  address public owner */\n    tag_9:\n      callvalue\n      dup1\n      iszero\n      tag_50\n      jumpi\n      0x00\n      dup1\n      revert\n    tag_50:\n      pop\n      tag_51\n      tag_52\n      jump\t// in\n    tag_51:\n      mload(0x40)\n      tag_53\n      swap2\n      swap1\n      tag_54\n      jump\t// in\n    tag_53:\n      mload(0x40)\n      dup1\n      swap2\n      sub\n      swap1\n      return\n        /* \"contracts/bid.sol\":106:134  address public highestBidder */\n    tag_10:\n      callvalue\n      dup1\n      iszero\n      tag_55\n      jumpi\n      0x00\n      dup1\n      revert\n    tag_55:\n      pop\n      tag_56\n      tag_57\n      jump\t// in\n    tag_56:\n      mload(0x40)\n      tag_58\n      swap2\n      swap1\n      tag_54\n      jump\t// in\n    tag_58:\n      mload(0x40)\n      dup1\n      swap2\n      sub\n      swap1\n      return\n        /* \"contracts/bid.sol\":2201:2315  function showWinner() external view returns (address, uint256) {... */\n    tag_11:\n      callvalue\n      dup1\n      iszero\n      tag_59\n      jumpi\n      0x00\n      dup1\n      revert\n    tag_59:\n      pop\n      tag_60\n      tag_61\n      jump\t// in\n    tag_60:\n      mload(0x40)\n      tag_62\n      swap3\n      swap2\n      swap1\n      tag_38\n      jump\t// in\n    tag_62:\n      mload(0x40)\n      dup1\n      swap2\n      sub\n      swap1\n      return\n        /* \"contracts/bid.sol\":140:165  uint256 public highestBid */\n    tag_12:\n      callvalue\n      dup1\n      iszero\n      tag_63\n      jumpi\n      0x00\n      dup1\n      revert\n    tag_63:\n      pop\n      tag_64\n      tag_65\n      jump\t// in\n    tag_64:\n      mload(0x40)\n      tag_66\n      swap2\n      swap1\n      tag_31\n      jump\t// in\n    tag_66:\n      mload(0x40)\n      dup1\n      swap2\n      sub\n      swap1\n      return\n        /* \"contracts/bid.sol\":1304:2132  function placeBid() external payable auctionActive {... */\n    tag_13:\n      tag_67\n      tag_68\n      jump\t// in\n    tag_67:\n      stop\n        /* \"contracts/bid.sol\":3687:3870  function endAuction() external onlyOwner {... */\n    tag_14:\n      callvalue\n      dup1\n      iszero\n      tag_69\n      jumpi\n      0x00\n      dup1\n      revert\n    tag_69:\n      pop\n      tag_70\n      tag_71\n      jump\t// in\n    tag_70:\n      stop\n        /* \"contracts/bid.sol\":2372:2457  function showBids() external view returns (Bid[] memory) {... */\n    tag_19:\n        /* \"contracts/bid.sol\":2415:2427  Bid[] memory */\n      0x60\n        /* \"contracts/bid.sol\":2446:2450  bids */\n      0x04\n        /* \"contracts/bid.sol\":2439:2450  return bids */\n      dup1\n      sload\n      dup1\n      0x20\n      mul\n      0x20\n      add\n      mload(0x40)\n      swap1\n      dup2\n      add\n      0x40\n      mstore\n      dup1\n      swap3\n      swap2\n      swap1\n      dup2\n      dup2\n      mstore\n      0x20\n      add\n      0x00\n      swap1\n    tag_73:\n      dup3\n      dup3\n      lt\n      iszero\n      tag_74\n      jumpi\n      dup4\n      dup3\n      swap1\n      0x00\n      mstore\n      keccak256(0x00, 0x20)\n      swap1\n      0x02\n      mul\n      add\n      mload(0x40)\n      dup1\n      0x40\n      add\n      0x40\n      mstore\n      swap1\n      dup2\n      0x00\n      dup3\n      add\n      0x00\n      swap1\n      sload\n      swap1\n      0x0100\n      exp\n      swap1\n      div\n      0xffffffffffffffffffffffffffffffffffffffff\n      and\n      0xffffffffffffffffffffffffffffffffffffffff\n      and\n      0xffffffffffffffffffffffffffffffffffffffff\n      and\n      dup2\n      mstore\n      0x20\n      add\n      0x01\n      dup3\n      add\n      sload\n      dup2\n      mstore\n      pop\n      pop\n      dup2\n      mstore\n      0x20\n      add\n      swap1\n      0x01\n      add\n      swap1\n      jump(tag_73)\n    tag_74:\n      pop\n      pop\n      pop\n      pop\n      swap1\n      pop\n        /* \"contracts/bid.sol\":2372:2457  function showBids() external view returns (Bid[] memory) {... */\n      swap1\n      jump\t// out\n        /* \"contracts/bid.sol\":3166:3609  function partialRefund() external {... */\n    tag_24:\n        /* \"contracts/bid.sol\":3210:3229  uint256 userBalance */\n      0x00\n        /* \"contracts/bid.sol\":3232:3240  balances */\n      0x05\n        /* \"contracts/bid.sol\":3232:3252  balances[msg.sender] */\n      0x00\n        /* \"contracts/bid.sol\":3241:3251  msg.sender */\n      caller\n        /* \"contracts/bid.sol\":3232:3252  balances[msg.sender] */\n      0xffffffffffffffffffffffffffffffffffffffff\n      and\n      0xffffffffffffffffffffffffffffffffffffffff\n      and\n      dup2\n      mstore\n      0x20\n      add\n      swap1\n      dup2\n      mstore\n      0x20\n      add\n      0x00\n      keccak256\n      sload\n        /* \"contracts/bid.sol\":3210:3252  uint256 userBalance = balances[msg.sender] */\n      swap1\n      pop\n        /* \"contracts/bid.sol\":3358:3368  highestBid */\n      sload(0x02)\n        /* \"contracts/bid.sol\":3344:3355  userBalance */\n      dup2\n        /* \"contracts/bid.sol\":3344:3368  userBalance > highestBid */\n      gt\n        /* \"contracts/bid.sol\":3336:3394  require(userBalance > highestBid, \"No excess to withdraw\") */\n      tag_77\n      jumpi\n      mload(0x40)\n      0x08c379a000000000000000000000000000000000000000000000000000000000\n      dup2\n      mstore\n      0x04\n      add\n      tag_78\n      swap1\n      tag_79\n      jump\t// in\n    tag_78:\n      mload(0x40)\n      dup1\n      swap2\n      sub\n      swap1\n      revert\n    tag_77:\n        /* \"contracts/bid.sol\":3405:3419  uint256 excess */\n      0x00\n        /* \"contracts/bid.sol\":3436:3446  highestBid */\n      sload(0x02)\n        /* \"contracts/bid.sol\":3422:3433  userBalance */\n      dup3\n        /* \"contracts/bid.sol\":3422:3446  userBalance - highestBid */\n      tag_80\n      swap2\n      swap1\n      tag_81\n      jump\t// in\n    tag_80:\n        /* \"contracts/bid.sol\":3405:3446  uint256 excess = userBalance - highestBid */\n      swap1\n      pop\n        /* \"contracts/bid.sol\":3550:3556  excess */\n      dup1\n        /* \"contracts/bid.sol\":3526:3534  balances */\n      0x05\n        /* \"contracts/bid.sol\":3526:3546  balances[msg.sender] */\n      0x00\n        /* \"contracts/bid.sol\":3535:3545  msg.sender */\n      caller\n        /* \"contracts/bid.sol\":3526:3546  balances[msg.sender] */\n      0xffffffffffffffffffffffffffffffffffffffff\n      and\n      0xffffffffffffffffffffffffffffffffffffffff\n      and\n      dup2\n      mstore\n      0x20\n      add\n      swap1\n      dup2\n      mstore\n      0x20\n      add\n      0x00\n      keccak256\n      0x00\n        /* \"contracts/bid.sol\":3526:3556  balances[msg.sender] -= excess */\n      dup3\n      dup3\n      sload\n      tag_82\n      swap2\n      swap1\n      tag_81\n      jump\t// in\n    tag_82:\n      swap3\n      pop\n      pop\n      dup2\n      swap1\n      sstore\n      pop\n        /* \"contracts/bid.sol\":3574:3584  msg.sender */\n      caller\n        /* \"contracts/bid.sol\":3566:3594  payable(msg.sender).transfer */\n      0xffffffffffffffffffffffffffffffffffffffff\n      and\n        /* \"contracts/bid.sol\":3566:3602  payable(msg.sender).transfer(excess) */\n      0x08fc\n        /* \"contracts/bid.sol\":3595:3601  excess */\n      dup3\n        /* \"contracts/bid.sol\":3566:3602  payable(msg.sender).transfer(excess) */\n      swap1\n      dup2\n      iszero\n      mul\n      swap1\n      mload(0x40)\n      0x00\n      mload(0x40)\n      dup1\n      dup4\n      sub\n      dup2\n      dup6\n      dup9\n      dup9\n      call\n      swap4\n      pop\n      pop\n      pop\n      pop\n      iszero\n      dup1\n      iszero\n      tag_84\n      jumpi\n      returndatasize\n      0x00\n      dup1\n      returndatacopy\n      revert(0x00, returndatasize)\n    tag_84:\n      pop\n        /* \"contracts/bid.sol\":3200:3609  {... */\n      pop\n      pop\n        /* \"contracts/bid.sol\":3166:3609  function partialRefund() external {... */\n      jump\t// out\n        /* \"contracts/bid.sol\":395:438  mapping(address => uint256) public balances */\n    tag_29:\n      mstore(0x20, 0x05)\n      dup1\n      0x00\n      mstore\n      keccak256(0x00, 0x40)\n      0x00\n      swap2\n      pop\n      swap1\n      pop\n      sload\n      dup2\n      jump\t// out\n        /* \"contracts/bid.sol\":344:361  Bid[] public bids */\n    tag_36:\n      0x04\n      dup2\n      dup2\n      sload\n      dup2\n      lt\n      tag_85\n      jumpi\n      0x00\n      dup1\n      revert\n    tag_85:\n      swap1\n      0x00\n      mstore\n      keccak256(0x00, 0x20)\n      swap1\n      0x02\n      mul\n      add\n      0x00\n      swap2\n      pop\n      swap1\n      pop\n      dup1\n      0x00\n      add\n      0x00\n      swap1\n      sload\n      swap1\n      0x0100\n      exp\n      swap1\n      div\n      0xffffffffffffffffffffffffffffffffffffffff\n      and\n      swap1\n      dup1\n      0x01\n      add\n      sload\n      swap1\n      pop\n      dup3\n      jump\t// out\n        /* \"contracts/bid.sol\":171:200  uint256 public auctionEndTime */\n    tag_41:\n      sload(0x03)\n      dup2\n      jump\t// out\n        /* \"contracts/bid.sol\":206:248  uint256 public constant commissionRate = 2 */\n    tag_45:\n        /* \"contracts/bid.sol\":247:248  2 */\n      0x02\n        /* \"contracts/bid.sol\":206:248  uint256 public constant commissionRate = 2 */\n      dup2\n      jump\t// out\n        /* \"contracts/bid.sol\":2548:3088  function refundDeposits() external onlyOwner {... */\n    tag_49:\n        /* \"contracts/bid.sol\":833:838  owner */\n      0x00\n      dup1\n      sload\n      swap1\n      0x0100\n      exp\n      swap1\n      div\n      0xffffffffffffffffffffffffffffffffffffffff\n      and\n        /* \"contracts/bid.sol\":819:838  msg.sender == owner */\n      0xffffffffffffffffffffffffffffffffffffffff\n      and\n        /* \"contracts/bid.sol\":819:829  msg.sender */\n      caller\n        /* \"contracts/bid.sol\":819:838  msg.sender == owner */\n      0xffffffffffffffffffffffffffffffffffffffff\n      and\n      eq\n        /* \"contracts/bid.sol\":811:871  require(msg.sender == owner, \"Access denied: Not the owner\") */\n      tag_88\n      jumpi\n      mload(0x40)\n      0x08c379a000000000000000000000000000000000000000000000000000000000\n      dup2\n      mstore\n      0x04\n      add\n      tag_89\n      swap1\n      tag_90\n      jump\t// in\n    tag_89:\n      mload(0x40)\n      dup1\n      swap2\n      sub\n      swap1\n      revert\n    tag_88:\n        /* \"contracts/bid.sol\":2630:2644  auctionEndTime */\n      sload(0x03)\n        /* \"contracts/bid.sol\":2611:2626  block.timestamp */\n      timestamp\n        /* \"contracts/bid.sol\":2611:2644  block.timestamp >= auctionEndTime */\n      lt\n      iszero\n        /* \"contracts/bid.sol\":2603:2672  require(block.timestamp >= auctionEndTime, \"Auction is still active\") */\n      tag_92\n      jumpi\n      mload(0x40)\n      0x08c379a000000000000000000000000000000000000000000000000000000000\n      dup2\n      mstore\n      0x04\n      add\n      tag_93\n      swap1\n      tag_94\n      jump\t// in\n    tag_93:\n      mload(0x40)\n      dup1\n      swap2\n      sub\n      swap1\n      revert\n    tag_92:\n        /* \"contracts/bid.sol\":2688:2697  uint256 i */\n      0x00\n        /* \"contracts/bid.sol\":2683:3082  for (uint256 i = 0; i < bids.length; i++) {... */\n    tag_95:\n        /* \"contracts/bid.sol\":2707:2711  bids */\n      0x04\n        /* \"contracts/bid.sol\":2707:2718  bids.length */\n      dup1\n      sload\n      swap1\n      pop\n        /* \"contracts/bid.sol\":2703:2704  i */\n      dup2\n        /* \"contracts/bid.sol\":2703:2718  i < bids.length */\n      lt\n        /* \"contracts/bid.sol\":2683:3082  for (uint256 i = 0; i < bids.length; i++) {... */\n      iszero\n      tag_96\n      jumpi\n        /* \"contracts/bid.sol\":2739:2753  address bidder */\n      0x00\n        /* \"contracts/bid.sol\":2756:2760  bids */\n      0x04\n        /* \"contracts/bid.sol\":2761:2762  i */\n      dup3\n        /* \"contracts/bid.sol\":2756:2763  bids[i] */\n      dup2\n      sload\n      dup2\n      lt\n      tag_98\n      jumpi\n      tag_99\n      tag_100\n      jump\t// in\n    tag_99:\n    tag_98:\n      swap1\n      0x00\n      mstore\n      keccak256(0x00, 0x20)\n      swap1\n      0x02\n      mul\n      add\n        /* \"contracts/bid.sol\":2756:2770  bids[i].bidder */\n      0x00\n      add\n      0x00\n      swap1\n      sload\n      swap1\n      0x0100\n      exp\n      swap1\n      div\n      0xffffffffffffffffffffffffffffffffffffffff\n      and\n        /* \"contracts/bid.sol\":2739:2770  address bidder = bids[i].bidder */\n      swap1\n      pop\n        /* \"contracts/bid.sol\":2798:2811  highestBidder */\n      0x01\n      0x00\n      swap1\n      sload\n      swap1\n      0x0100\n      exp\n      swap1\n      div\n      0xffffffffffffffffffffffffffffffffffffffff\n      and\n        /* \"contracts/bid.sol\":2788:2811  bidder != highestBidder */\n      0xffffffffffffffffffffffffffffffffffffffff\n      and\n        /* \"contracts/bid.sol\":2788:2794  bidder */\n      dup2\n        /* \"contracts/bid.sol\":2788:2811  bidder != highestBidder */\n      0xffffffffffffffffffffffffffffffffffffffff\n      and\n      eq\n        /* \"contracts/bid.sol\":2784:3072  if (bidder != highestBidder) {... */\n      tag_102\n      jumpi\n        /* \"contracts/bid.sol\":2831:2851  uint256 refundAmount */\n      0x00\n        /* \"contracts/bid.sol\":2900:2903  100 */\n      0x64\n        /* \"contracts/bid.sol\":247:248  2 */\n      0x02\n        /* \"contracts/bid.sol\":2875:2878  100 */\n      0x64\n        /* \"contracts/bid.sol\":2875:2895  100 - commissionRate */\n      tag_103\n      swap2\n      swap1\n      tag_81\n      jump\t// in\n    tag_103:\n        /* \"contracts/bid.sol\":2855:2863  balances */\n      0x05\n        /* \"contracts/bid.sol\":2855:2871  balances[bidder] */\n      0x00\n        /* \"contracts/bid.sol\":2864:2870  bidder */\n      dup6\n        /* \"contracts/bid.sol\":2855:2871  balances[bidder] */\n      0xffffffffffffffffffffffffffffffffffffffff\n      and\n      0xffffffffffffffffffffffffffffffffffffffff\n      and\n      dup2\n      mstore\n      0x20\n      add\n      swap1\n      dup2\n      mstore\n      0x20\n      add\n      0x00\n      keccak256\n      sload\n        /* \"contracts/bid.sol\":2855:2896  balances[bidder] * (100 - commissionRate) */\n      tag_104\n      swap2\n      swap1\n      tag_105\n      jump\t// in\n    tag_104:\n        /* \"contracts/bid.sol\":2854:2903  (balances[bidder] * (100 - commissionRate)) / 100 */\n      tag_106\n      swap2\n      swap1\n      tag_107\n      jump\t// in\n    tag_106:\n        /* \"contracts/bid.sol\":2831:2903  uint256 refundAmount = (balances[bidder] * (100 - commissionRate)) / 100 */\n      swap1\n      pop\n        /* \"contracts/bid.sol\":2940:2941  0 */\n      0x00\n        /* \"contracts/bid.sol\":2921:2929  balances */\n      0x05\n        /* \"contracts/bid.sol\":2921:2937  balances[bidder] */\n      0x00\n        /* \"contracts/bid.sol\":2930:2936  bidder */\n      dup5\n        /* \"contracts/bid.sol\":2921:2937  balances[bidder] */\n      0xffffffffffffffffffffffffffffffffffffffff\n      and\n      0xffffffffffffffffffffffffffffffffffffffff\n      and\n      dup2\n      mstore\n      0x20\n      add\n      swap1\n      dup2\n      mstore\n      0x20\n      add\n      0x00\n      keccak256\n        /* \"contracts/bid.sol\":2921:2941  balances[bidder] = 0 */\n      dup2\n      swap1\n      sstore\n      pop\n        /* \"contracts/bid.sol\":2967:2973  bidder */\n      dup2\n        /* \"contracts/bid.sol\":2959:2983  payable(bidder).transfer */\n      0xffffffffffffffffffffffffffffffffffffffff\n      and\n        /* \"contracts/bid.sol\":2959:2997  payable(bidder).transfer(refundAmount) */\n      0x08fc\n        /* \"contracts/bid.sol\":2984:2996  refundAmount */\n      dup3\n        /* \"contracts/bid.sol\":2959:2997  payable(bidder).transfer(refundAmount) */\n      swap1\n      dup2\n      iszero\n      mul\n      swap1\n      mload(0x40)\n      0x00\n      mload(0x40)\n      dup1\n      dup4\n      sub\n      dup2\n      dup6\n      dup9\n      dup9\n      call\n      swap4\n      pop\n      pop\n      pop\n      pop\n      iszero\n      dup1\n      iszero\n      tag_109\n      jumpi\n      returndatasize\n      0x00\n      dup1\n      returndatacopy\n      revert(0x00, returndatasize)\n    tag_109:\n      pop\n        /* \"contracts/bid.sol\":3036:3042  bidder */\n      dup2\n        /* \"contracts/bid.sol\":3020:3057  DepositRefunded(bidder, refundAmount) */\n      0xffffffffffffffffffffffffffffffffffffffff\n      and\n      0x698270f63d8b673ed55a5ca00d14001bd808b390dbe11d5b1b16624863f71f77\n        /* \"contracts/bid.sol\":3044:3056  refundAmount */\n      dup3\n        /* \"contracts/bid.sol\":3020:3057  DepositRefunded(bidder, refundAmount) */\n      mload(0x40)\n      tag_110\n      swap2\n      swap1\n      tag_31\n      jump\t// in\n    tag_110:\n      mload(0x40)\n      dup1\n      swap2\n      sub\n      swap1\n      log2\n        /* \"contracts/bid.sol\":2813:3072  {... */\n      pop\n        /* \"contracts/bid.sol\":2784:3072  if (bidder != highestBidder) {... */\n    tag_102:\n        /* \"contracts/bid.sol\":2725:3082  {... */\n      pop\n        /* \"contracts/bid.sol\":2720:2723  i++ */\n      dup1\n      dup1\n      0x01\n      add\n      swap2\n      pop\n      pop\n        /* \"contracts/bid.sol\":2683:3082  for (uint256 i = 0; i < bids.length; i++) {... */\n      jump(tag_95)\n    tag_96:\n      pop\n        /* \"contracts/bid.sol\":2548:3088  function refundDeposits() external onlyOwner {... */\n      jump\t// out\n        /* \"contracts/bid.sol\":80:100  address public owner */\n    tag_52:\n      0x00\n      dup1\n      sload\n      swap1\n      0x0100\n      exp\n      swap1\n      div\n      0xffffffffffffffffffffffffffffffffffffffff\n      and\n      dup2\n      jump\t// out\n        /* \"contracts/bid.sol\":106:134  address public highestBidder */\n    tag_57:\n      0x01\n      0x00\n      swap1\n      sload\n      swap1\n      0x0100\n      exp\n      swap1\n      div\n      0xffffffffffffffffffffffffffffffffffffffff\n      and\n      dup2\n      jump\t// out\n        /* \"contracts/bid.sol\":2201:2315  function showWinner() external view returns (address, uint256) {... */\n    tag_61:\n        /* \"contracts/bid.sol\":2246:2253  address */\n      0x00\n        /* \"contracts/bid.sol\":2255:2262  uint256 */\n      dup1\n        /* \"contracts/bid.sol\":2282:2295  highestBidder */\n      0x01\n      0x00\n      swap1\n      sload\n      swap1\n      0x0100\n      exp\n      swap1\n      div\n      0xffffffffffffffffffffffffffffffffffffffff\n      and\n        /* \"contracts/bid.sol\":2297:2307  highestBid */\n      sload(0x02)\n        /* \"contracts/bid.sol\":2274:2308  return (highestBidder, highestBid) */\n      swap2\n      pop\n      swap2\n      pop\n        /* \"contracts/bid.sol\":2201:2315  function showWinner() external view returns (address, uint256) {... */\n      swap1\n      swap2\n      jump\t// out\n        /* \"contracts/bid.sol\":140:165  uint256 public highestBid */\n    tag_65:\n      sload(0x02)\n      dup2\n      jump\t// out\n        /* \"contracts/bid.sol\":1304:2132  function placeBid() external payable auctionActive {... */\n    tag_68:\n        /* \"contracts/bid.sol\":1010:1024  auctionEndTime */\n      sload(0x03)\n        /* \"contracts/bid.sol\":992:1007  block.timestamp */\n      timestamp\n        /* \"contracts/bid.sol\":992:1024  block.timestamp < auctionEndTime */\n      lt\n        /* \"contracts/bid.sol\":984:1050  require(block.timestamp < auctionEndTime, \"The auction has ended\") */\n      tag_113\n      jumpi\n      mload(0x40)\n      0x08c379a000000000000000000000000000000000000000000000000000000000\n      dup2\n      mstore\n      0x04\n      add\n      tag_114\n      swap1\n      tag_115\n      jump\t// in\n    tag_114:\n      mload(0x40)\n      dup1\n      swap2\n      sub\n      swap1\n      revert\n    tag_113:\n        /* \"contracts/bid.sol\":1404:1407  100 */\n      0x64\n        /* \"contracts/bid.sol\":1398:1401  105 */\n      0x69\n        /* \"contracts/bid.sol\":1385:1395  highestBid */\n      sload(0x02)\n        /* \"contracts/bid.sol\":1385:1401  highestBid * 105 */\n      tag_117\n      swap2\n      swap1\n      tag_105\n      jump\t// in\n    tag_117:\n        /* \"contracts/bid.sol\":1385:1407  highestBid * 105 / 100 */\n      tag_118\n      swap2\n      swap1\n      tag_107\n      jump\t// in\n    tag_118:\n        /* \"contracts/bid.sol\":1373:1382  msg.value */\n      callvalue\n        /* \"contracts/bid.sol\":1373:1407  msg.value > highestBid * 105 / 100 */\n      gt\n        /* \"contracts/bid.sol\":1365:1454  require(msg.value > highestBid * 105 / 100, \"Bid must exceed current bid by at least 5%\") */\n      tag_119\n      jumpi\n      mload(0x40)\n      0x08c379a000000000000000000000000000000000000000000000000000000000\n      dup2\n      mstore\n      0x04\n      add\n      tag_120\n      swap1\n      tag_121\n      jump\t// in\n    tag_120:\n      mload(0x40)\n      dup1\n      swap2\n      sub\n      swap1\n      revert\n    tag_119:\n        /* \"contracts/bid.sol\":1545:1546  0 */\n      0x00\n        /* \"contracts/bid.sol\":1522:1530  balances */\n      0x05\n        /* \"contracts/bid.sol\":1522:1542  balances[msg.sender] */\n      0x00\n        /* \"contracts/bid.sol\":1531:1541  msg.sender */\n      caller\n        /* \"contracts/bid.sol\":1522:1542  balances[msg.sender] */\n      0xffffffffffffffffffffffffffffffffffffffff\n      and\n      0xffffffffffffffffffffffffffffffffffffffff\n      and\n      dup2\n      mstore\n      0x20\n      add\n      swap1\n      dup2\n      mstore\n      0x20\n      add\n      0x00\n      keccak256\n      sload\n        /* \"contracts/bid.sol\":1522:1546  balances[msg.sender] > 0 */\n      gt\n        /* \"contracts/bid.sol\":1518:1682  if (balances[msg.sender] > 0) {... */\n      iszero\n      tag_122\n      jumpi\n        /* \"contracts/bid.sol\":1598:1608  highestBid */\n      sload(0x02)\n        /* \"contracts/bid.sol\":1586:1595  msg.value */\n      callvalue\n        /* \"contracts/bid.sol\":1586:1608  msg.value - highestBid */\n      tag_123\n      swap2\n      swap1\n      tag_81\n      jump\t// in\n    tag_123:\n        /* \"contracts/bid.sol\":1562:1570  balances */\n      0x05\n        /* \"contracts/bid.sol\":1562:1582  balances[msg.sender] */\n      0x00\n        /* \"contracts/bid.sol\":1571:1581  msg.sender */\n      caller\n        /* \"contracts/bid.sol\":1562:1582  balances[msg.sender] */\n      0xffffffffffffffffffffffffffffffffffffffff\n      and\n      0xffffffffffffffffffffffffffffffffffffffff\n      and\n      dup2\n      mstore\n      0x20\n      add\n      swap1\n      dup2\n      mstore\n      0x20\n      add\n      0x00\n      keccak256\n      0x00\n        /* \"contracts/bid.sol\":1562:1608  balances[msg.sender] += msg.value - highestBid */\n      dup3\n      dup3\n      sload\n      tag_124\n      swap2\n      swap1\n      tag_125\n      jump\t// in\n    tag_124:\n      swap3\n      pop\n      pop\n      dup2\n      swap1\n      sstore\n      pop\n        /* \"contracts/bid.sol\":1518:1682  if (balances[msg.sender] > 0) {... */\n      jump(tag_126)\n    tag_122:\n        /* \"contracts/bid.sol\":1662:1671  msg.value */\n      callvalue\n        /* \"contracts/bid.sol\":1639:1647  balances */\n      0x05\n        /* \"contracts/bid.sol\":1639:1659  balances[msg.sender] */\n      0x00\n        /* \"contracts/bid.sol\":1648:1658  msg.sender */\n      caller\n        /* \"contracts/bid.sol\":1639:1659  balances[msg.sender] */\n      0xffffffffffffffffffffffffffffffffffffffff\n      and\n      0xffffffffffffffffffffffffffffffffffffffff\n      and\n      dup2\n      mstore\n      0x20\n      add\n      swap1\n      dup2\n      mstore\n      0x20\n      add\n      0x00\n      keccak256\n        /* \"contracts/bid.sol\":1639:1671  balances[msg.sender] = msg.value */\n      dup2\n      swap1\n      sstore\n      pop\n        /* \"contracts/bid.sol\":1518:1682  if (balances[msg.sender] > 0) {... */\n    tag_126:\n        /* \"contracts/bid.sol\":1735:1744  msg.value */\n      callvalue\n        /* \"contracts/bid.sol\":1722:1732  highestBid */\n      0x02\n        /* \"contracts/bid.sol\":1722:1744  highestBid = msg.value */\n      dup2\n      swap1\n      sstore\n      pop\n        /* \"contracts/bid.sol\":1770:1780  msg.sender */\n      caller\n        /* \"contracts/bid.sol\":1754:1767  highestBidder */\n      0x01\n      0x00\n        /* \"contracts/bid.sol\":1754:1780  highestBidder = msg.sender */\n      0x0100\n      exp\n      dup2\n      sload\n      dup2\n      0xffffffffffffffffffffffffffffffffffffffff\n      mul\n      not\n      and\n      swap1\n      dup4\n      0xffffffffffffffffffffffffffffffffffffffff\n      and\n      mul\n      or\n      swap1\n      sstore\n      pop\n        /* \"contracts/bid.sol\":1822:1826  bids */\n      0x04\n        /* \"contracts/bid.sol\":1832:1858  Bid(msg.sender, msg.value) */\n      mload(0x40)\n      dup1\n      0x40\n      add\n      0x40\n      mstore\n      dup1\n        /* \"contracts/bid.sol\":1836:1846  msg.sender */\n      caller\n        /* \"contracts/bid.sol\":1832:1858  Bid(msg.sender, msg.value) */\n      0xffffffffffffffffffffffffffffffffffffffff\n      and\n      dup2\n      mstore\n      0x20\n      add\n        /* \"contracts/bid.sol\":1848:1857  msg.value */\n      callvalue\n        /* \"contracts/bid.sol\":1832:1858  Bid(msg.sender, msg.value) */\n      dup2\n      mstore\n      pop\n        /* \"contracts/bid.sol\":1822:1859  bids.push(Bid(msg.sender, msg.value)) */\n      swap1\n      dup1\n      0x01\n      dup2\n      sload\n      add\n      dup1\n      dup3\n      sstore\n      dup1\n      swap2\n      pop\n      pop\n      0x01\n      swap1\n      sub\n      swap1\n      0x00\n      mstore\n      keccak256(0x00, 0x20)\n      swap1\n      0x02\n      mul\n      add\n      0x00\n      swap1\n      swap2\n      swap1\n      swap2\n      swap1\n      swap2\n      pop\n      0x00\n      dup3\n      add\n      mload\n      dup2\n      0x00\n      add\n      exp(0x0100, 0x00)\n      dup2\n      sload\n      dup2\n      0xffffffffffffffffffffffffffffffffffffffff\n      mul\n      not\n      and\n      swap1\n      dup4\n      0xffffffffffffffffffffffffffffffffffffffff\n      and\n      mul\n      or\n      swap1\n      sstore\n      pop\n      0x20\n      dup3\n      add\n      mload\n      dup2\n      0x01\n      add\n      sstore\n      pop\n      pop\n        /* \"contracts/bid.sol\":1963:1973  10 minutes */\n      0x0258\n        /* \"contracts/bid.sol\":1946:1960  auctionEndTime */\n      sload(0x03)\n        /* \"contracts/bid.sol\":1946:1973  auctionEndTime - 10 minutes */\n      tag_128\n      swap2\n      swap1\n      tag_81\n      jump\t// in\n    tag_128:\n        /* \"contracts/bid.sol\":1928:1943  block.timestamp */\n      timestamp\n        /* \"contracts/bid.sol\":1928:1973  block.timestamp > auctionEndTime - 10 minutes */\n      gt\n        /* \"contracts/bid.sol\":1924:2078  if (block.timestamp > auctionEndTime - 10 minutes) {... */\n      iszero\n      tag_129\n      jumpi\n        /* \"contracts/bid.sol\":2007:2017  10 minutes */\n      0x0258\n        /* \"contracts/bid.sol\":1989:2003  auctionEndTime */\n      0x03\n      0x00\n        /* \"contracts/bid.sol\":1989:2017  auctionEndTime += 10 minutes */\n      dup3\n      dup3\n      sload\n      tag_130\n      swap2\n      swap1\n      tag_125\n      jump\t// in\n    tag_130:\n      swap3\n      pop\n      pop\n      dup2\n      swap1\n      sstore\n      pop\n        /* \"contracts/bid.sol\":2036:2067  AuctionExtended(auctionEndTime) */\n      0xc2b459809119087ca9d2bc10dea53a51b7d848b1a11075db037bdca58292c3e8\n        /* \"contracts/bid.sol\":2052:2066  auctionEndTime */\n      sload(0x03)\n        /* \"contracts/bid.sol\":2036:2067  AuctionExtended(auctionEndTime) */\n      mload(0x40)\n      tag_131\n      swap2\n      swap1\n      tag_31\n      jump\t// in\n    tag_131:\n      mload(0x40)\n      dup1\n      swap2\n      sub\n      swap1\n      log1\n        /* \"contracts/bid.sol\":1924:2078  if (block.timestamp > auctionEndTime - 10 minutes) {... */\n    tag_129:\n        /* \"contracts/bid.sol\":2103:2113  msg.sender */\n      caller\n        /* \"contracts/bid.sol\":2093:2125  BidPlaced(msg.sender, msg.value) */\n      0xffffffffffffffffffffffffffffffffffffffff\n      and\n      0x3fabff0a9c3ecd6814702e247fa9733e5d0aa69e3a38590f92cb18f623a2254d\n        /* \"contracts/bid.sol\":2115:2124  msg.value */\n      callvalue\n        /* \"contracts/bid.sol\":2093:2125  BidPlaced(msg.sender, msg.value) */\n      mload(0x40)\n      tag_132\n      swap2\n      swap1\n      tag_31\n      jump\t// in\n    tag_132:\n      mload(0x40)\n      dup1\n      swap2\n      sub\n      swap1\n      log2\n        /* \"contracts/bid.sol\":1304:2132  function placeBid() external payable auctionActive {... */\n      jump\t// out\n        /* \"contracts/bid.sol\":3687:3870  function endAuction() external onlyOwner {... */\n    tag_71:\n        /* \"contracts/bid.sol\":833:838  owner */\n      0x00\n      dup1\n      sload\n      swap1\n      0x0100\n      exp\n      swap1\n      div\n      0xffffffffffffffffffffffffffffffffffffffff\n      and\n        /* \"contracts/bid.sol\":819:838  msg.sender == owner */\n      0xffffffffffffffffffffffffffffffffffffffff\n      and\n        /* \"contracts/bid.sol\":819:829  msg.sender */\n      caller\n        /* \"contracts/bid.sol\":819:838  msg.sender == owner */\n      0xffffffffffffffffffffffffffffffffffffffff\n      and\n      eq\n        /* \"contracts/bid.sol\":811:871  require(msg.sender == owner, \"Access denied: Not the owner\") */\n      tag_134\n      jumpi\n      mload(0x40)\n      0x08c379a000000000000000000000000000000000000000000000000000000000\n      dup2\n      mstore\n      0x04\n      add\n      tag_135\n      swap1\n      tag_90\n      jump\t// in\n    tag_135:\n      mload(0x40)\n      dup1\n      swap2\n      sub\n      swap1\n      revert\n    tag_134:\n        /* \"contracts/bid.sol\":3765:3779  auctionEndTime */\n      sload(0x03)\n        /* \"contracts/bid.sol\":3746:3761  block.timestamp */\n      timestamp\n        /* \"contracts/bid.sol\":3746:3779  block.timestamp >= auctionEndTime */\n      lt\n      iszero\n        /* \"contracts/bid.sol\":3738:3807  require(block.timestamp >= auctionEndTime, \"Auction is still active\") */\n      tag_137\n      jumpi\n      mload(0x40)\n      0x08c379a000000000000000000000000000000000000000000000000000000000\n      dup2\n      mstore\n      0x04\n      add\n      tag_138\n      swap1\n      tag_94\n      jump\t// in\n    tag_138:\n      mload(0x40)\n      dup1\n      swap2\n      sub\n      swap1\n      revert\n    tag_137:\n        /* \"contracts/bid.sol\":3837:3850  highestBidder */\n      0x01\n      0x00\n      swap1\n      sload\n      swap1\n      0x0100\n      exp\n      swap1\n      div\n      0xffffffffffffffffffffffffffffffffffffffff\n      and\n        /* \"contracts/bid.sol\":3822:3863  WinnerDeclared(highestBidder, highestBid) */\n      0xffffffffffffffffffffffffffffffffffffffff\n      and\n      0x3cf1af53e79884a92609ce59db1ec9f584d88e2d14c8eaba43a21db81318301e\n        /* \"contracts/bid.sol\":3852:3862  highestBid */\n      sload(0x02)\n        /* \"contracts/bid.sol\":3822:3863  WinnerDeclared(highestBidder, highestBid) */\n      mload(0x40)\n      tag_139\n      swap2\n      swap1\n      tag_31\n      jump\t// in\n    tag_139:\n      mload(0x40)\n      dup1\n      swap2\n      sub\n      swap1\n      log2\n        /* \"contracts/bid.sol\":3687:3870  function endAuction() external onlyOwner {... */\n      jump\t// out\n        /* \"#utility.yul\":7:140   */\n    tag_140:\n        /* \"#utility.yul\":93:99   */\n      0x00\n        /* \"#utility.yul\":127:132   */\n      dup2\n        /* \"#utility.yul\":121:133   */\n      mload\n        /* \"#utility.yul\":111:133   */\n      swap1\n      pop\n        /* \"#utility.yul\":7:140   */\n      swap2\n      swap1\n      pop\n      jump\t// out\n        /* \"#utility.yul\":146:349   */\n    tag_141:\n        /* \"#utility.yul\":264:275   */\n      0x00\n        /* \"#utility.yul\":298:304   */\n      dup3\n        /* \"#utility.yul\":293:296   */\n      dup3\n        /* \"#utility.yul\":286:305   */\n      mstore\n        /* \"#utility.yul\":338:342   */\n      0x20\n        /* \"#utility.yul\":333:336   */\n      dup3\n        /* \"#utility.yul\":329:343   */\n      add\n        /* \"#utility.yul\":314:343   */\n      swap1\n      pop\n        /* \"#utility.yul\":146:349   */\n      swap3\n      swap2\n      pop\n      pop\n      jump\t// out\n        /* \"#utility.yul\":355:506   */\n    tag_142:\n        /* \"#utility.yul\":441:445   */\n      0x00\n        /* \"#utility.yul\":464:467   */\n      dup2\n        /* \"#utility.yul\":456:467   */\n      swap1\n      pop\n        /* \"#utility.yul\":494:498   */\n      0x20\n        /* \"#utility.yul\":489:492   */\n      dup3\n        /* \"#utility.yul\":485:499   */\n      add\n        /* \"#utility.yul\":477:499   */\n      swap1\n      pop\n        /* \"#utility.yul\":355:506   */\n      swap2\n      swap1\n      pop\n      jump\t// out\n        /* \"#utility.yul\":512:638   */\n    tag_143:\n        /* \"#utility.yul\":549:556   */\n      0x00\n        /* \"#utility.yul\":589:631   */\n      0xffffffffffffffffffffffffffffffffffffffff\n        /* \"#utility.yul\":582:587   */\n      dup3\n        /* \"#utility.yul\":578:632   */\n      and\n        /* \"#utility.yul\":567:632   */\n      swap1\n      pop\n        /* \"#utility.yul\":512:638   */\n      swap2\n      swap1\n      pop\n      jump\t// out\n        /* \"#utility.yul\":644:740   */\n    tag_144:\n        /* \"#utility.yul\":681:688   */\n      0x00\n        /* \"#utility.yul\":710:734   */\n      tag_180\n        /* \"#utility.yul\":728:733   */\n      dup3\n        /* \"#utility.yul\":710:734   */\n      tag_143\n      jump\t// in\n    tag_180:\n        /* \"#utility.yul\":699:734   */\n      swap1\n      pop\n        /* \"#utility.yul\":644:740   */\n      swap2\n      swap1\n      pop\n      jump\t// out\n        /* \"#utility.yul\":746:854   */\n    tag_145:\n        /* \"#utility.yul\":823:847   */\n      tag_182\n        /* \"#utility.yul\":841:846   */\n      dup2\n        /* \"#utility.yul\":823:847   */\n      tag_144\n      jump\t// in\n    tag_182:\n        /* \"#utility.yul\":818:821   */\n      dup3\n        /* \"#utility.yul\":811:848   */\n      mstore\n        /* \"#utility.yul\":746:854   */\n      pop\n      pop\n      jump\t// out\n        /* \"#utility.yul\":860:937   */\n    tag_146:\n        /* \"#utility.yul\":897:904   */\n      0x00\n        /* \"#utility.yul\":926:931   */\n      dup2\n        /* \"#utility.yul\":915:931   */\n      swap1\n      pop\n        /* \"#utility.yul\":860:937   */\n      swap2\n      swap1\n      pop\n      jump\t// out\n        /* \"#utility.yul\":943:1051   */\n    tag_147:\n        /* \"#utility.yul\":1020:1044   */\n      tag_185\n        /* \"#utility.yul\":1038:1043   */\n      dup2\n        /* \"#utility.yul\":1020:1044   */\n      tag_146\n      jump\t// in\n    tag_185:\n        /* \"#utility.yul\":1015:1018   */\n      dup3\n        /* \"#utility.yul\":1008:1045   */\n      mstore\n        /* \"#utility.yul\":943:1051   */\n      pop\n      pop\n      jump\t// out\n        /* \"#utility.yul\":1105:1594   */\n    tag_148:\n        /* \"#utility.yul\":1230:1234   */\n      0x40\n        /* \"#utility.yul\":1225:1228   */\n      dup3\n        /* \"#utility.yul\":1221:1235   */\n      add\n        /* \"#utility.yul\":1319:1323   */\n      0x00\n        /* \"#utility.yul\":1312:1317   */\n      dup3\n        /* \"#utility.yul\":1308:1324   */\n      add\n        /* \"#utility.yul\":1302:1325   */\n      mload\n        /* \"#utility.yul\":1338:1401   */\n      tag_187\n        /* \"#utility.yul\":1395:1399   */\n      0x00\n        /* \"#utility.yul\":1390:1393   */\n      dup6\n        /* \"#utility.yul\":1386:1400   */\n      add\n        /* \"#utility.yul\":1372:1384   */\n      dup3\n        /* \"#utility.yul\":1338:1401   */\n      tag_145\n      jump\t// in\n    tag_187:\n        /* \"#utility.yul\":1245:1411   */\n      pop\n        /* \"#utility.yul\":1495:1499   */\n      0x20\n        /* \"#utility.yul\":1488:1493   */\n      dup3\n        /* \"#utility.yul\":1484:1500   */\n      add\n        /* \"#utility.yul\":1478:1501   */\n      mload\n        /* \"#utility.yul\":1514:1577   */\n      tag_188\n        /* \"#utility.yul\":1571:1575   */\n      0x20\n        /* \"#utility.yul\":1566:1569   */\n      dup6\n        /* \"#utility.yul\":1562:1576   */\n      add\n        /* \"#utility.yul\":1548:1560   */\n      dup3\n        /* \"#utility.yul\":1514:1577   */\n      tag_147\n      jump\t// in\n    tag_188:\n        /* \"#utility.yul\":1421:1587   */\n      pop\n        /* \"#utility.yul\":1199:1594   */\n      pop\n        /* \"#utility.yul\":1105:1594   */\n      pop\n      pop\n      jump\t// out\n        /* \"#utility.yul\":1600:1855   */\n    tag_149:\n        /* \"#utility.yul\":1707:1717   */\n      0x00\n        /* \"#utility.yul\":1728:1812   */\n      tag_190\n        /* \"#utility.yul\":1808:1811   */\n      dup4\n        /* \"#utility.yul\":1800:1806   */\n      dup4\n        /* \"#utility.yul\":1728:1812   */\n      tag_148\n      jump\t// in\n    tag_190:\n        /* \"#utility.yul\":1844:1848   */\n      0x40\n        /* \"#utility.yul\":1839:1842   */\n      dup4\n        /* \"#utility.yul\":1835:1849   */\n      add\n        /* \"#utility.yul\":1821:1849   */\n      swap1\n      pop\n        /* \"#utility.yul\":1600:1855   */\n      swap3\n      swap2\n      pop\n      pop\n      jump\t// out\n        /* \"#utility.yul\":1861:1993   */\n    tag_150:\n        /* \"#utility.yul\":1950:1954   */\n      0x00\n        /* \"#utility.yul\":1982:1986   */\n      0x20\n        /* \"#utility.yul\":1977:1980   */\n      dup3\n        /* \"#utility.yul\":1973:1987   */\n      add\n        /* \"#utility.yul\":1965:1987   */\n      swap1\n      pop\n        /* \"#utility.yul\":1861:1993   */\n      swap2\n      swap1\n      pop\n      jump\t// out\n        /* \"#utility.yul\":2051:2935   */\n    tag_151:\n        /* \"#utility.yul\":2208:2211   */\n      0x00\n        /* \"#utility.yul\":2237:2310   */\n      tag_193\n        /* \"#utility.yul\":2304:2309   */\n      dup3\n        /* \"#utility.yul\":2237:2310   */\n      tag_140\n      jump\t// in\n    tag_193:\n        /* \"#utility.yul\":2326:2431   */\n      tag_194\n        /* \"#utility.yul\":2424:2430   */\n      dup2\n        /* \"#utility.yul\":2419:2422   */\n      dup6\n        /* \"#utility.yul\":2326:2431   */\n      tag_141\n      jump\t// in\n    tag_194:\n        /* \"#utility.yul\":2319:2431   */\n      swap4\n      pop\n        /* \"#utility.yul\":2455:2530   */\n      tag_195\n        /* \"#utility.yul\":2524:2529   */\n      dup4\n        /* \"#utility.yul\":2455:2530   */\n      tag_142\n      jump\t// in\n    tag_195:\n        /* \"#utility.yul\":2553:2560   */\n      dup1\n        /* \"#utility.yul\":2584:2585   */\n      0x00\n        /* \"#utility.yul\":2569:2910   */\n    tag_196:\n        /* \"#utility.yul\":2594:2600   */\n      dup4\n        /* \"#utility.yul\":2591:2592   */\n      dup2\n        /* \"#utility.yul\":2588:2601   */\n      lt\n        /* \"#utility.yul\":2569:2910   */\n      iszero\n      tag_198\n      jumpi\n        /* \"#utility.yul\":2670:2676   */\n      dup2\n        /* \"#utility.yul\":2664:2677   */\n      mload\n        /* \"#utility.yul\":2697:2798   */\n      tag_199\n        /* \"#utility.yul\":2794:2797   */\n      dup9\n        /* \"#utility.yul\":2779:2792   */\n      dup3\n        /* \"#utility.yul\":2697:2798   */\n      tag_149\n      jump\t// in\n    tag_199:\n        /* \"#utility.yul\":2690:2798   */\n      swap8\n      pop\n        /* \"#utility.yul\":2821:2900   */\n      tag_200\n        /* \"#utility.yul\":2893:2899   */\n      dup4\n        /* \"#utility.yul\":2821:2900   */\n      tag_150\n      jump\t// in\n    tag_200:\n        /* \"#utility.yul\":2811:2900   */\n      swap3\n      pop\n        /* \"#utility.yul\":2629:2910   */\n      pop\n        /* \"#utility.yul\":2616:2617   */\n      0x01\n        /* \"#utility.yul\":2613:2614   */\n      dup2\n        /* \"#utility.yul\":2609:2618   */\n      add\n        /* \"#utility.yul\":2604:2618   */\n      swap1\n      pop\n        /* \"#utility.yul\":2569:2910   */\n      jump(tag_196)\n    tag_198:\n        /* \"#utility.yul\":2573:2587   */\n      pop\n        /* \"#utility.yul\":2926:2929   */\n      dup6\n        /* \"#utility.yul\":2919:2929   */\n      swap4\n      pop\n        /* \"#utility.yul\":2213:2935   */\n      pop\n      pop\n      pop\n        /* \"#utility.yul\":2051:2935   */\n      swap3\n      swap2\n      pop\n      pop\n      jump\t// out\n        /* \"#utility.yul\":2941:3390   */\n    tag_21:\n        /* \"#utility.yul\":3122:3126   */\n      0x00\n        /* \"#utility.yul\":3160:3162   */\n      0x20\n        /* \"#utility.yul\":3149:3158   */\n      dup3\n        /* \"#utility.yul\":3145:3163   */\n      add\n        /* \"#utility.yul\":3137:3163   */\n      swap1\n      pop\n        /* \"#utility.yul\":3209:3218   */\n      dup2\n        /* \"#utility.yul\":3203:3207   */\n      dup2\n        /* \"#utility.yul\":3199:3219   */\n      sub\n        /* \"#utility.yul\":3195:3196   */\n      0x00\n        /* \"#utility.yul\":3184:3193   */\n      dup4\n        /* \"#utility.yul\":3180:3197   */\n      add\n        /* \"#utility.yul\":3173:3220   */\n      mstore\n        /* \"#utility.yul\":3237:3383   */\n      tag_202\n        /* \"#utility.yul\":3378:3382   */\n      dup2\n        /* \"#utility.yul\":3369:3375   */\n      dup5\n        /* \"#utility.yul\":3237:3383   */\n      tag_151\n      jump\t// in\n    tag_202:\n        /* \"#utility.yul\":3229:3383   */\n      swap1\n      pop\n        /* \"#utility.yul\":2941:3390   */\n      swap3\n      swap2\n      pop\n      pop\n      jump\t// out\n        /* \"#utility.yul\":3477:3594   */\n    tag_153:\n        /* \"#utility.yul\":3586:3587   */\n      0x00\n        /* \"#utility.yul\":3583:3584   */\n      dup1\n        /* \"#utility.yul\":3576:3588   */\n      revert\n        /* \"#utility.yul\":3723:3845   */\n    tag_155:\n        /* \"#utility.yul\":3796:3820   */\n      tag_207\n        /* \"#utility.yul\":3814:3819   */\n      dup2\n        /* \"#utility.yul\":3796:3820   */\n      tag_144\n      jump\t// in\n    tag_207:\n        /* \"#utility.yul\":3789:3794   */\n      dup2\n        /* \"#utility.yul\":3786:3821   */\n      eq\n        /* \"#utility.yul\":3776:3839   */\n      tag_208\n      jumpi\n        /* \"#utility.yul\":3835:3836   */\n      0x00\n        /* \"#utility.yul\":3832:3833   */\n      dup1\n        /* \"#utility.yul\":3825:3837   */\n      revert\n        /* \"#utility.yul\":3776:3839   */\n    tag_208:\n        /* \"#utility.yul\":3723:3845   */\n      pop\n      jump\t// out\n        /* \"#utility.yul\":3851:3990   */\n    tag_156:\n        /* \"#utility.yul\":3897:3902   */\n      0x00\n        /* \"#utility.yul\":3935:3941   */\n      dup2\n        /* \"#utility.yul\":3922:3942   */\n      calldataload\n        /* \"#utility.yul\":3913:3942   */\n      swap1\n      pop\n        /* \"#utility.yul\":3951:3984   */\n      tag_210\n        /* \"#utility.yul\":3978:3983   */\n      dup2\n        /* \"#utility.yul\":3951:3984   */\n      tag_155\n      jump\t// in\n    tag_210:\n        /* \"#utility.yul\":3851:3990   */\n      swap3\n      swap2\n      pop\n      pop\n      jump\t// out\n        /* \"#utility.yul\":3996:4325   */\n    tag_28:\n        /* \"#utility.yul\":4055:4061   */\n      0x00\n        /* \"#utility.yul\":4104:4106   */\n      0x20\n        /* \"#utility.yul\":4092:4101   */\n      dup3\n        /* \"#utility.yul\":4083:4090   */\n      dup5\n        /* \"#utility.yul\":4079:4102   */\n      sub\n        /* \"#utility.yul\":4075:4107   */\n      slt\n        /* \"#utility.yul\":4072:4191   */\n      iszero\n      tag_212\n      jumpi\n        /* \"#utility.yul\":4110:4189   */\n      tag_213\n      tag_153\n      jump\t// in\n    tag_213:\n        /* \"#utility.yul\":4072:4191   */\n    tag_212:\n        /* \"#utility.yul\":4230:4231   */\n      0x00\n        /* \"#utility.yul\":4255:4308   */\n      tag_214\n        /* \"#utility.yul\":4300:4307   */\n      dup5\n        /* \"#utility.yul\":4291:4297   */\n      dup3\n        /* \"#utility.yul\":4280:4289   */\n      dup6\n        /* \"#utility.yul\":4276:4298   */\n      add\n        /* \"#utility.yul\":4255:4308   */\n      tag_156\n      jump\t// in\n    tag_214:\n        /* \"#utility.yul\":4245:4308   */\n      swap2\n      pop\n        /* \"#utility.yul\":4201:4318   */\n      pop\n        /* \"#utility.yul\":3996:4325   */\n      swap3\n      swap2\n      pop\n      pop\n      jump\t// out\n        /* \"#utility.yul\":4331:4449   */\n    tag_157:\n        /* \"#utility.yul\":4418:4442   */\n      tag_216\n        /* \"#utility.yul\":4436:4441   */\n      dup2\n        /* \"#utility.yul\":4418:4442   */\n      tag_146\n      jump\t// in\n    tag_216:\n        /* \"#utility.yul\":4413:4416   */\n      dup3\n        /* \"#utility.yul\":4406:4443   */\n      mstore\n        /* \"#utility.yul\":4331:4449   */\n      pop\n      pop\n      jump\t// out\n        /* \"#utility.yul\":4455:4677   */\n    tag_31:\n        /* \"#utility.yul\":4548:4552   */\n      0x00\n        /* \"#utility.yul\":4586:4588   */\n      0x20\n        /* \"#utility.yul\":4575:4584   */\n      dup3\n        /* \"#utility.yul\":4571:4589   */\n      add\n        /* \"#utility.yul\":4563:4589   */\n      swap1\n      pop\n        /* \"#utility.yul\":4599:4670   */\n      tag_218\n        /* \"#utility.yul\":4667:4668   */\n      0x00\n        /* \"#utility.yul\":4656:4665   */\n      dup4\n        /* \"#utility.yul\":4652:4669   */\n      add\n        /* \"#utility.yul\":4643:4649   */\n      dup5\n        /* \"#utility.yul\":4599:4670   */\n      tag_157\n      jump\t// in\n    tag_218:\n        /* \"#utility.yul\":4455:4677   */\n      swap3\n      swap2\n      pop\n      pop\n      jump\t// out\n        /* \"#utility.yul\":4683:4805   */\n    tag_158:\n        /* \"#utility.yul\":4756:4780   */\n      tag_220\n        /* \"#utility.yul\":4774:4779   */\n      dup2\n        /* \"#utility.yul\":4756:4780   */\n      tag_146\n      jump\t// in\n    tag_220:\n        /* \"#utility.yul\":4749:4754   */\n      dup2\n        /* \"#utility.yul\":4746:4781   */\n      eq\n        /* \"#utility.yul\":4736:4799   */\n      tag_221\n      jumpi\n        /* \"#utility.yul\":4795:4796   */\n      0x00\n        /* \"#utility.yul\":4792:4793   */\n      dup1\n        /* \"#utility.yul\":4785:4797   */\n      revert\n        /* \"#utility.yul\":4736:4799   */\n    tag_221:\n        /* \"#utility.yul\":4683:4805   */\n      pop\n      jump\t// out\n        /* \"#utility.yul\":4811:4950   */\n    tag_159:\n        /* \"#utility.yul\":4857:4862   */\n      0x00\n        /* \"#utility.yul\":4895:4901   */\n      dup2\n        /* \"#utility.yul\":4882:4902   */\n      calldataload\n        /* \"#utility.yul\":4873:4902   */\n      swap1\n      pop\n        /* \"#utility.yul\":4911:4944   */\n      tag_223\n        /* \"#utility.yul\":4938:4943   */\n      dup2\n        /* \"#utility.yul\":4911:4944   */\n      tag_158\n      jump\t// in\n    tag_223:\n        /* \"#utility.yul\":4811:4950   */\n      swap3\n      swap2\n      pop\n      pop\n      jump\t// out\n        /* \"#utility.yul\":4956:5285   */\n    tag_35:\n        /* \"#utility.yul\":5015:5021   */\n      0x00\n        /* \"#utility.yul\":5064:5066   */\n      0x20\n        /* \"#utility.yul\":5052:5061   */\n      dup3\n        /* \"#utility.yul\":5043:5050   */\n      dup5\n        /* \"#utility.yul\":5039:5062   */\n      sub\n        /* \"#utility.yul\":5035:5067   */\n      slt\n        /* \"#utility.yul\":5032:5151   */\n      iszero\n      tag_225\n      jumpi\n        /* \"#utility.yul\":5070:5149   */\n      tag_226\n      tag_153\n      jump\t// in\n    tag_226:\n        /* \"#utility.yul\":5032:5151   */\n    tag_225:\n        /* \"#utility.yul\":5190:5191   */\n      0x00\n        /* \"#utility.yul\":5215:5268   */\n      tag_227\n        /* \"#utility.yul\":5260:5267   */\n      dup5\n        /* \"#utility.yul\":5251:5257   */\n      dup3\n        /* \"#utility.yul\":5240:5249   */\n      dup6\n        /* \"#utility.yul\":5236:5258   */\n      add\n        /* \"#utility.yul\":5215:5268   */\n      tag_159\n      jump\t// in\n    tag_227:\n        /* \"#utility.yul\":5205:5268   */\n      swap2\n      pop\n        /* \"#utility.yul\":5161:5278   */\n      pop\n        /* \"#utility.yul\":4956:5285   */\n      swap3\n      swap2\n      pop\n      pop\n      jump\t// out\n        /* \"#utility.yul\":5291:5409   */\n    tag_160:\n        /* \"#utility.yul\":5378:5402   */\n      tag_229\n        /* \"#utility.yul\":5396:5401   */\n      dup2\n        /* \"#utility.yul\":5378:5402   */\n      tag_144\n      jump\t// in\n    tag_229:\n        /* \"#utility.yul\":5373:5376   */\n      dup3\n        /* \"#utility.yul\":5366:5403   */\n      mstore\n        /* \"#utility.yul\":5291:5409   */\n      pop\n      pop\n      jump\t// out\n        /* \"#utility.yul\":5415:5747   */\n    tag_38:\n        /* \"#utility.yul\":5536:5540   */\n      0x00\n        /* \"#utility.yul\":5574:5576   */\n      0x40\n        /* \"#utility.yul\":5563:5572   */\n      dup3\n        /* \"#utility.yul\":5559:5577   */\n      add\n        /* \"#utility.yul\":5551:5577   */\n      swap1\n      pop\n        /* \"#utility.yul\":5587:5658   */\n      tag_231\n        /* \"#utility.yul\":5655:5656   */\n      0x00\n        /* \"#utility.yul\":5644:5653   */\n      dup4\n        /* \"#utility.yul\":5640:5657   */\n      add\n        /* \"#utility.yul\":5631:5637   */\n      dup6\n        /* \"#utility.yul\":5587:5658   */\n      tag_160\n      jump\t// in\n    tag_231:\n        /* \"#utility.yul\":5668:5740   */\n      tag_232\n        /* \"#utility.yul\":5736:5738   */\n      0x20\n        /* \"#utility.yul\":5725:5734   */\n      dup4\n        /* \"#utility.yul\":5721:5739   */\n      add\n        /* \"#utility.yul\":5712:5718   */\n      dup5\n        /* \"#utility.yul\":5668:5740   */\n      tag_157\n      jump\t// in\n    tag_232:\n        /* \"#utility.yul\":5415:5747   */\n      swap4\n      swap3\n      pop\n      pop\n      pop\n      jump\t// out\n        /* \"#utility.yul\":5753:5975   */\n    tag_54:\n        /* \"#utility.yul\":5846:5850   */\n      0x00\n        /* \"#utility.yul\":5884:5886   */\n      0x20\n        /* \"#utility.yul\":5873:5882   */\n      dup3\n        /* \"#utility.yul\":5869:5887   */\n      add\n        /* \"#utility.yul\":5861:5887   */\n      swap1\n      pop\n        /* \"#utility.yul\":5897:5968   */\n      tag_234\n        /* \"#utility.yul\":5965:5966   */\n      0x00\n        /* \"#utility.yul\":5954:5963   */\n      dup4\n        /* \"#utility.yul\":5950:5967   */\n      add\n        /* \"#utility.yul\":5941:5947   */\n      dup5\n        /* \"#utility.yul\":5897:5968   */\n      tag_160\n      jump\t// in\n    tag_234:\n        /* \"#utility.yul\":5753:5975   */\n      swap3\n      swap2\n      pop\n      pop\n      jump\t// out\n        /* \"#utility.yul\":5981:6150   */\n    tag_161:\n        /* \"#utility.yul\":6065:6076   */\n      0x00\n        /* \"#utility.yul\":6099:6105   */\n      dup3\n        /* \"#utility.yul\":6094:6097   */\n      dup3\n        /* \"#utility.yul\":6087:6106   */\n      mstore\n        /* \"#utility.yul\":6139:6143   */\n      0x20\n        /* \"#utility.yul\":6134:6137   */\n      dup3\n        /* \"#utility.yul\":6130:6144   */\n      add\n        /* \"#utility.yul\":6115:6144   */\n      swap1\n      pop\n        /* \"#utility.yul\":5981:6150   */\n      swap3\n      swap2\n      pop\n      pop\n      jump\t// out\n        /* \"#utility.yul\":6156:6327   */\n    tag_162:\n        /* \"#utility.yul\":6296:6319   */\n      0x4e6f2065786365737320746f2077697468647261770000000000000000000000\n        /* \"#utility.yul\":6292:6293   */\n      0x00\n        /* \"#utility.yul\":6284:6290   */\n      dup3\n        /* \"#utility.yul\":6280:6294   */\n      add\n        /* \"#utility.yul\":6273:6320   */\n      mstore\n        /* \"#utility.yul\":6156:6327   */\n      pop\n      jump\t// out\n        /* \"#utility.yul\":6333:6699   */\n    tag_163:\n        /* \"#utility.yul\":6475:6478   */\n      0x00\n        /* \"#utility.yul\":6496:6563   */\n      tag_238\n        /* \"#utility.yul\":6560:6562   */\n      0x15\n        /* \"#utility.yul\":6555:6558   */\n      dup4\n        /* \"#utility.yul\":6496:6563   */\n      tag_161\n      jump\t// in\n    tag_238:\n        /* \"#utility.yul\":6489:6563   */\n      swap2\n      pop\n        /* \"#utility.yul\":6572:6665   */\n      tag_239\n        /* \"#utility.yul\":6661:6664   */\n      dup3\n        /* \"#utility.yul\":6572:6665   */\n      tag_162\n      jump\t// in\n    tag_239:\n        /* \"#utility.yul\":6690:6692   */\n      0x20\n        /* \"#utility.yul\":6685:6688   */\n      dup3\n        /* \"#utility.yul\":6681:6693   */\n      add\n        /* \"#utility.yul\":6674:6693   */\n      swap1\n      pop\n        /* \"#utility.yul\":6333:6699   */\n      swap2\n      swap1\n      pop\n      jump\t// out\n        /* \"#utility.yul\":6705:7124   */\n    tag_79:\n        /* \"#utility.yul\":6871:6875   */\n      0x00\n        /* \"#utility.yul\":6909:6911   */\n      0x20\n        /* \"#utility.yul\":6898:6907   */\n      dup3\n        /* \"#utility.yul\":6894:6912   */\n      add\n        /* \"#utility.yul\":6886:6912   */\n      swap1\n      pop\n        /* \"#utility.yul\":6958:6967   */\n      dup2\n        /* \"#utility.yul\":6952:6956   */\n      dup2\n        /* \"#utility.yul\":6948:6968   */\n      sub\n        /* \"#utility.yul\":6944:6945   */\n      0x00\n        /* \"#utility.yul\":6933:6942   */\n      dup4\n        /* \"#utility.yul\":6929:6946   */\n      add\n        /* \"#utility.yul\":6922:6969   */\n      mstore\n        /* \"#utility.yul\":6986:7117   */\n      tag_241\n        /* \"#utility.yul\":7112:7116   */\n      dup2\n        /* \"#utility.yul\":6986:7117   */\n      tag_163\n      jump\t// in\n    tag_241:\n        /* \"#utility.yul\":6978:7117   */\n      swap1\n      pop\n        /* \"#utility.yul\":6705:7124   */\n      swap2\n      swap1\n      pop\n      jump\t// out\n        /* \"#utility.yul\":7130:7310   */\n    tag_164:\n        /* \"#utility.yul\":7178:7255   */\n      0x4e487b7100000000000000000000000000000000000000000000000000000000\n        /* \"#utility.yul\":7175:7176   */\n      0x00\n        /* \"#utility.yul\":7168:7256   */\n      mstore\n        /* \"#utility.yul\":7275:7279   */\n      0x11\n        /* \"#utility.yul\":7272:7273   */\n      0x04\n        /* \"#utility.yul\":7265:7280   */\n      mstore\n        /* \"#utility.yul\":7299:7303   */\n      0x24\n        /* \"#utility.yul\":7296:7297   */\n      0x00\n        /* \"#utility.yul\":7289:7304   */\n      revert\n        /* \"#utility.yul\":7316:7510   */\n    tag_81:\n        /* \"#utility.yul\":7356:7360   */\n      0x00\n        /* \"#utility.yul\":7376:7396   */\n      tag_244\n        /* \"#utility.yul\":7394:7395   */\n      dup3\n        /* \"#utility.yul\":7376:7396   */\n      tag_146\n      jump\t// in\n    tag_244:\n        /* \"#utility.yul\":7371:7396   */\n      swap2\n      pop\n        /* \"#utility.yul\":7410:7430   */\n      tag_245\n        /* \"#utility.yul\":7428:7429   */\n      dup4\n        /* \"#utility.yul\":7410:7430   */\n      tag_146\n      jump\t// in\n    tag_245:\n        /* \"#utility.yul\":7405:7430   */\n      swap3\n      pop\n        /* \"#utility.yul\":7454:7455   */\n      dup3\n        /* \"#utility.yul\":7451:7452   */\n      dup3\n        /* \"#utility.yul\":7447:7456   */\n      sub\n        /* \"#utility.yul\":7439:7456   */\n      swap1\n      pop\n        /* \"#utility.yul\":7478:7479   */\n      dup2\n        /* \"#utility.yul\":7472:7476   */\n      dup2\n        /* \"#utility.yul\":7469:7480   */\n      gt\n        /* \"#utility.yul\":7466:7503   */\n      iszero\n      tag_246\n      jumpi\n        /* \"#utility.yul\":7483:7501   */\n      tag_247\n      tag_164\n      jump\t// in\n    tag_247:\n        /* \"#utility.yul\":7466:7503   */\n    tag_246:\n        /* \"#utility.yul\":7316:7510   */\n      swap3\n      swap2\n      pop\n      pop\n      jump\t// out\n        /* \"#utility.yul\":7516:7694   */\n    tag_165:\n        /* \"#utility.yul\":7656:7686   */\n      0x4163636573732064656e6965643a204e6f7420746865206f776e657200000000\n        /* \"#utility.yul\":7652:7653   */\n      0x00\n        /* \"#utility.yul\":7644:7650   */\n      dup3\n        /* \"#utility.yul\":7640:7654   */\n      add\n        /* \"#utility.yul\":7633:7687   */\n      mstore\n        /* \"#utility.yul\":7516:7694   */\n      pop\n      jump\t// out\n        /* \"#utility.yul\":7700:8066   */\n    tag_166:\n        /* \"#utility.yul\":7842:7845   */\n      0x00\n        /* \"#utility.yul\":7863:7930   */\n      tag_250\n        /* \"#utility.yul\":7927:7929   */\n      0x1c\n        /* \"#utility.yul\":7922:7925   */\n      dup4\n        /* \"#utility.yul\":7863:7930   */\n      tag_161\n      jump\t// in\n    tag_250:\n        /* \"#utility.yul\":7856:7930   */\n      swap2\n      pop\n        /* \"#utility.yul\":7939:8032   */\n      tag_251\n        /* \"#utility.yul\":8028:8031   */\n      dup3\n        /* \"#utility.yul\":7939:8032   */\n      tag_165\n      jump\t// in\n    tag_251:\n        /* \"#utility.yul\":8057:8059   */\n      0x20\n        /* \"#utility.yul\":8052:8055   */\n      dup3\n        /* \"#utility.yul\":8048:8060   */\n      add\n        /* \"#utility.yul\":8041:8060   */\n      swap1\n      pop\n        /* \"#utility.yul\":7700:8066   */\n      swap2\n      swap1\n      pop\n      jump\t// out\n        /* \"#utility.yul\":8072:8491   */\n    tag_90:\n        /* \"#utility.yul\":8238:8242   */\n      0x00\n        /* \"#utility.yul\":8276:8278   */\n      0x20\n        /* \"#utility.yul\":8265:8274   */\n      dup3\n        /* \"#utility.yul\":8261:8279   */\n      add\n        /* \"#utility.yul\":8253:8279   */\n      swap1\n      pop\n        /* \"#utility.yul\":8325:8334   */\n      dup2\n        /* \"#utility.yul\":8319:8323   */\n      dup2\n        /* \"#utility.yul\":8315:8335   */\n      sub\n        /* \"#utility.yul\":8311:8312   */\n      0x00\n        /* \"#utility.yul\":8300:8309   */\n      dup4\n        /* \"#utility.yul\":8296:8313   */\n      add\n        /* \"#utility.yul\":8289:8336   */\n      mstore\n        /* \"#utility.yul\":8353:8484   */\n      tag_253\n        /* \"#utility.yul\":8479:8483   */\n      dup2\n        /* \"#utility.yul\":8353:8484   */\n      tag_166\n      jump\t// in\n    tag_253:\n        /* \"#utility.yul\":8345:8484   */\n      swap1\n      pop\n        /* \"#utility.yul\":8072:8491   */\n      swap2\n      swap1\n      pop\n      jump\t// out\n        /* \"#utility.yul\":8497:8670   */\n    tag_167:\n        /* \"#utility.yul\":8637:8662   */\n      0x41756374696f6e206973207374696c6c20616374697665000000000000000000\n        /* \"#utility.yul\":8633:8634   */\n      0x00\n        /* \"#utility.yul\":8625:8631   */\n      dup3\n        /* \"#utility.yul\":8621:8635   */\n      add\n        /* \"#utility.yul\":8614:8663   */\n      mstore\n        /* \"#utility.yul\":8497:8670   */\n      pop\n      jump\t// out\n        /* \"#utility.yul\":8676:9042   */\n    tag_168:\n        /* \"#utility.yul\":8818:8821   */\n      0x00\n        /* \"#utility.yul\":8839:8906   */\n      tag_256\n        /* \"#utility.yul\":8903:8905   */\n      0x17\n        /* \"#utility.yul\":8898:8901   */\n      dup4\n        /* \"#utility.yul\":8839:8906   */\n      tag_161\n      jump\t// in\n    tag_256:\n        /* \"#utility.yul\":8832:8906   */\n      swap2\n      pop\n        /* \"#utility.yul\":8915:9008   */\n      tag_257\n        /* \"#utility.yul\":9004:9007   */\n      dup3\n        /* \"#utility.yul\":8915:9008   */\n      tag_167\n      jump\t// in\n    tag_257:\n        /* \"#utility.yul\":9033:9035   */\n      0x20\n        /* \"#utility.yul\":9028:9031   */\n      dup3\n        /* \"#utility.yul\":9024:9036   */\n      add\n        /* \"#utility.yul\":9017:9036   */\n      swap1\n      pop\n        /* \"#utility.yul\":8676:9042   */\n      swap2\n      swap1\n      pop\n      jump\t// out\n        /* \"#utility.yul\":9048:9467   */\n    tag_94:\n        /* \"#utility.yul\":9214:9218   */\n      0x00\n        /* \"#utility.yul\":9252:9254   */\n      0x20\n        /* \"#utility.yul\":9241:9250   */\n      dup3\n        /* \"#utility.yul\":9237:9255   */\n      add\n        /* \"#utility.yul\":9229:9255   */\n      swap1\n      pop\n        /* \"#utility.yul\":9301:9310   */\n      dup2\n        /* \"#utility.yul\":9295:9299   */\n      dup2\n        /* \"#utility.yul\":9291:9311   */\n      sub\n        /* \"#utility.yul\":9287:9288   */\n      0x00\n        /* \"#utility.yul\":9276:9285   */\n      dup4\n        /* \"#utility.yul\":9272:9289   */\n      add\n        /* \"#utility.yul\":9265:9312   */\n      mstore\n        /* \"#utility.yul\":9329:9460   */\n      tag_259\n        /* \"#utility.yul\":9455:9459   */\n      dup2\n        /* \"#utility.yul\":9329:9460   */\n      tag_168\n      jump\t// in\n    tag_259:\n        /* \"#utility.yul\":9321:9460   */\n      swap1\n      pop\n        /* \"#utility.yul\":9048:9467   */\n      swap2\n      swap1\n      pop\n      jump\t// out\n        /* \"#utility.yul\":9473:9653   */\n    tag_100:\n        /* \"#utility.yul\":9521:9598   */\n      0x4e487b7100000000000000000000000000000000000000000000000000000000\n        /* \"#utility.yul\":9518:9519   */\n      0x00\n        /* \"#utility.yul\":9511:9599   */\n      mstore\n        /* \"#utility.yul\":9618:9622   */\n      0x32\n        /* \"#utility.yul\":9615:9616   */\n      0x04\n        /* \"#utility.yul\":9608:9623   */\n      mstore\n        /* \"#utility.yul\":9642:9646   */\n      0x24\n        /* \"#utility.yul\":9639:9640   */\n      0x00\n        /* \"#utility.yul\":9632:9647   */\n      revert\n        /* \"#utility.yul\":9659:10069   */\n    tag_105:\n        /* \"#utility.yul\":9699:9706   */\n      0x00\n        /* \"#utility.yul\":9722:9742   */\n      tag_262\n        /* \"#utility.yul\":9740:9741   */\n      dup3\n        /* \"#utility.yul\":9722:9742   */\n      tag_146\n      jump\t// in\n    tag_262:\n        /* \"#utility.yul\":9717:9742   */\n      swap2\n      pop\n        /* \"#utility.yul\":9756:9776   */\n      tag_263\n        /* \"#utility.yul\":9774:9775   */\n      dup4\n        /* \"#utility.yul\":9756:9776   */\n      tag_146\n      jump\t// in\n    tag_263:\n        /* \"#utility.yul\":9751:9776   */\n      swap3\n      pop\n        /* \"#utility.yul\":9811:9812   */\n      dup3\n        /* \"#utility.yul\":9808:9809   */\n      dup3\n        /* \"#utility.yul\":9804:9813   */\n      mul\n        /* \"#utility.yul\":9833:9863   */\n      tag_264\n        /* \"#utility.yul\":9851:9862   */\n      dup2\n        /* \"#utility.yul\":9833:9863   */\n      tag_146\n      jump\t// in\n    tag_264:\n        /* \"#utility.yul\":9822:9863   */\n      swap2\n      pop\n        /* \"#utility.yul\":10012:10013   */\n      dup3\n        /* \"#utility.yul\":10003:10010   */\n      dup3\n        /* \"#utility.yul\":9999:10014   */\n      div\n        /* \"#utility.yul\":9996:9997   */\n      dup5\n        /* \"#utility.yul\":9993:10015   */\n      eq\n        /* \"#utility.yul\":9973:9974   */\n      dup4\n        /* \"#utility.yul\":9966:9975   */\n      iszero\n        /* \"#utility.yul\":9946:10029   */\n      or\n        /* \"#utility.yul\":9923:10062   */\n      tag_265\n      jumpi\n        /* \"#utility.yul\":10042:10060   */\n      tag_266\n      tag_164\n      jump\t// in\n    tag_266:\n        /* \"#utility.yul\":9923:10062   */\n    tag_265:\n        /* \"#utility.yul\":9707:10069   */\n      pop\n        /* \"#utility.yul\":9659:10069   */\n      swap3\n      swap2\n      pop\n      pop\n      jump\t// out\n        /* \"#utility.yul\":10075:10255   */\n    tag_169:\n        /* \"#utility.yul\":10123:10200   */\n      0x4e487b7100000000000000000000000000000000000000000000000000000000\n        /* \"#utility.yul\":10120:10121   */\n      0x00\n        /* \"#utility.yul\":10113:10201   */\n      mstore\n        /* \"#utility.yul\":10220:10224   */\n      0x12\n        /* \"#utility.yul\":10217:10218   */\n      0x04\n        /* \"#utility.yul\":10210:10225   */\n      mstore\n        /* \"#utility.yul\":10244:10248   */\n      0x24\n        /* \"#utility.yul\":10241:10242   */\n      0x00\n        /* \"#utility.yul\":10234:10249   */\n      revert\n        /* \"#utility.yul\":10261:10446   */\n    tag_107:\n        /* \"#utility.yul\":10301:10302   */\n      0x00\n        /* \"#utility.yul\":10318:10338   */\n      tag_269\n        /* \"#utility.yul\":10336:10337   */\n      dup3\n        /* \"#utility.yul\":10318:10338   */\n      tag_146\n      jump\t// in\n    tag_269:\n        /* \"#utility.yul\":10313:10338   */\n      swap2\n      pop\n        /* \"#utility.yul\":10352:10372   */\n      tag_270\n        /* \"#utility.yul\":10370:10371   */\n      dup4\n        /* \"#utility.yul\":10352:10372   */\n      tag_146\n      jump\t// in\n    tag_270:\n        /* \"#utility.yul\":10347:10372   */\n      swap3\n      pop\n        /* \"#utility.yul\":10391:10392   */\n      dup3\n        /* \"#utility.yul\":10381:10416   */\n      tag_271\n      jumpi\n        /* \"#utility.yul\":10396:10414   */\n      tag_272\n      tag_169\n      jump\t// in\n    tag_272:\n        /* \"#utility.yul\":10381:10416   */\n    tag_271:\n        /* \"#utility.yul\":10438:10439   */\n      dup3\n        /* \"#utility.yul\":10435:10436   */\n      dup3\n        /* \"#utility.yul\":10431:10440   */\n      div\n        /* \"#utility.yul\":10426:10440   */\n      swap1\n      pop\n        /* \"#utility.yul\":10261:10446   */\n      swap3\n      swap2\n      pop\n      pop\n      jump\t// out\n        /* \"#utility.yul\":10452:10623   */\n    tag_170:\n        /* \"#utility.yul\":10592:10615   */\n      0x5468652061756374696f6e2068617320656e6465640000000000000000000000\n        /* \"#utility.yul\":10588:10589   */\n      0x00\n        /* \"#utility.yul\":10580:10586   */\n      dup3\n        /* \"#utility.yul\":10576:10590   */\n      add\n        /* \"#utility.yul\":10569:10616   */\n      mstore\n        /* \"#utility.yul\":10452:10623   */\n      pop\n      jump\t// out\n        /* \"#utility.yul\":10629:10995   */\n    tag_171:\n        /* \"#utility.yul\":10771:10774   */\n      0x00\n        /* \"#utility.yul\":10792:10859   */\n      tag_275\n        /* \"#utility.yul\":10856:10858   */\n      0x15\n        /* \"#utility.yul\":10851:10854   */\n      dup4\n        /* \"#utility.yul\":10792:10859   */\n      tag_161\n      jump\t// in\n    tag_275:\n        /* \"#utility.yul\":10785:10859   */\n      swap2\n      pop\n        /* \"#utility.yul\":10868:10961   */\n      tag_276\n        /* \"#utility.yul\":10957:10960   */\n      dup3\n        /* \"#utility.yul\":10868:10961   */\n      tag_170\n      jump\t// in\n    tag_276:\n        /* \"#utility.yul\":10986:10988   */\n      0x20\n        /* \"#utility.yul\":10981:10984   */\n      dup3\n        /* \"#utility.yul\":10977:10989   */\n      add\n        /* \"#utility.yul\":10970:10989   */\n      swap1\n      pop\n        /* \"#utility.yul\":10629:10995   */\n      swap2\n      swap1\n      pop\n      jump\t// out\n        /* \"#utility.yul\":11001:11420   */\n    tag_115:\n        /* \"#utility.yul\":11167:11171   */\n      0x00\n        /* \"#utility.yul\":11205:11207   */\n      0x20\n        /* \"#utility.yul\":11194:11203   */\n      dup3\n        /* \"#utility.yul\":11190:11208   */\n      add\n        /* \"#utility.yul\":11182:11208   */\n      swap1\n      pop\n        /* \"#utility.yul\":11254:11263   */\n      dup2\n        /* \"#utility.yul\":11248:11252   */\n      dup2\n        /* \"#utility.yul\":11244:11264   */\n      sub\n        /* \"#utility.yul\":11240:11241   */\n      0x00\n        /* \"#utility.yul\":11229:11238   */\n      dup4\n        /* \"#utility.yul\":11225:11242   */\n      add\n        /* \"#utility.yul\":11218:11265   */\n      mstore\n        /* \"#utility.yul\":11282:11413   */\n      tag_278\n        /* \"#utility.yul\":11408:11412   */\n      dup2\n        /* \"#utility.yul\":11282:11413   */\n      tag_171\n      jump\t// in\n    tag_278:\n        /* \"#utility.yul\":11274:11413   */\n      swap1\n      pop\n        /* \"#utility.yul\":11001:11420   */\n      swap2\n      swap1\n      pop\n      jump\t// out\n        /* \"#utility.yul\":11426:11655   */\n    tag_172:\n        /* \"#utility.yul\":11566:11600   */\n      0x426964206d757374206578636565642063757272656e74206269642062792061\n        /* \"#utility.yul\":11562:11563   */\n      0x00\n        /* \"#utility.yul\":11554:11560   */\n      dup3\n        /* \"#utility.yul\":11550:11564   */\n      add\n        /* \"#utility.yul\":11543:11601   */\n      mstore\n        /* \"#utility.yul\":11635:11647   */\n      0x74206c6561737420352500000000000000000000000000000000000000000000\n        /* \"#utility.yul\":11630:11632   */\n      0x20\n        /* \"#utility.yul\":11622:11628   */\n      dup3\n        /* \"#utility.yul\":11618:11633   */\n      add\n        /* \"#utility.yul\":11611:11648   */\n      mstore\n        /* \"#utility.yul\":11426:11655   */\n      pop\n      jump\t// out\n        /* \"#utility.yul\":11661:12027   */\n    tag_173:\n        /* \"#utility.yul\":11803:11806   */\n      0x00\n        /* \"#utility.yul\":11824:11891   */\n      tag_281\n        /* \"#utility.yul\":11888:11890   */\n      0x2a\n        /* \"#utility.yul\":11883:11886   */\n      dup4\n        /* \"#utility.yul\":11824:11891   */\n      tag_161\n      jump\t// in\n    tag_281:\n        /* \"#utility.yul\":11817:11891   */\n      swap2\n      pop\n        /* \"#utility.yul\":11900:11993   */\n      tag_282\n        /* \"#utility.yul\":11989:11992   */\n      dup3\n        /* \"#utility.yul\":11900:11993   */\n      tag_172\n      jump\t// in\n    tag_282:\n        /* \"#utility.yul\":12018:12020   */\n      0x40\n        /* \"#utility.yul\":12013:12016   */\n      dup3\n        /* \"#utility.yul\":12009:12021   */\n      add\n        /* \"#utility.yul\":12002:12021   */\n      swap1\n      pop\n        /* \"#utility.yul\":11661:12027   */\n      swap2\n      swap1\n      pop\n      jump\t// out\n        /* \"#utility.yul\":12033:12452   */\n    tag_121:\n        /* \"#utility.yul\":12199:12203   */\n      0x00\n        /* \"#utility.yul\":12237:12239   */\n      0x20\n        /* \"#utility.yul\":12226:12235   */\n      dup3\n        /* \"#utility.yul\":12222:12240   */\n      add\n        /* \"#utility.yul\":12214:12240   */\n      swap1\n      pop\n        /* \"#utility.yul\":12286:12295   */\n      dup2\n        /* \"#utility.yul\":12280:12284   */\n      dup2\n        /* \"#utility.yul\":12276:12296   */\n      sub\n        /* \"#utility.yul\":12272:12273   */\n      0x00\n        /* \"#utility.yul\":12261:12270   */\n      dup4\n        /* \"#utility.yul\":12257:12274   */\n      add\n        /* \"#utility.yul\":12250:12297   */\n      mstore\n        /* \"#utility.yul\":12314:12445   */\n      tag_284\n        /* \"#utility.yul\":12440:12444   */\n      dup2\n        /* \"#utility.yul\":12314:12445   */\n      tag_173\n      jump\t// in\n    tag_284:\n        /* \"#utility.yul\":12306:12445   */\n      swap1\n      pop\n        /* \"#utility.yul\":12033:12452   */\n      swap2\n      swap1\n      pop\n      jump\t// out\n        /* \"#utility.yul\":12458:12649   */\n    tag_125:\n        /* \"#utility.yul\":12498:12501   */\n      0x00\n        /* \"#utility.yul\":12517:12537   */\n      tag_286\n        /* \"#utility.yul\":12535:12536   */\n      dup3\n        /* \"#utility.yul\":12517:12537   */\n      tag_146\n      jump\t// in\n    tag_286:\n        /* \"#utility.yul\":12512:12537   */\n      swap2\n      pop\n        /* \"#utility.yul\":12551:12571   */\n      tag_287\n        /* \"#utility.yul\":12569:12570   */\n      dup4\n        /* \"#utility.yul\":12551:12571   */\n      tag_146\n      jump\t// in\n    tag_287:\n        /* \"#utility.yul\":12546:12571   */\n      swap3\n      pop\n        /* \"#utility.yul\":12594:12595   */\n      dup3\n        /* \"#utility.yul\":12591:12592   */\n      dup3\n        /* \"#utility.yul\":12587:12596   */\n      add\n        /* \"#utility.yul\":12580:12596   */\n      swap1\n      pop\n        /* \"#utility.yul\":12615:12618   */\n      dup1\n        /* \"#utility.yul\":12612:12613   */\n      dup3\n        /* \"#utility.yul\":12609:12619   */\n      gt\n        /* \"#utility.yul\":12606:12642   */\n      iszero\n      tag_288\n      jumpi\n        /* \"#utility.yul\":12622:12640   */\n      tag_289\n      tag_164\n      jump\t// in\n    tag_289:\n        /* \"#utility.yul\":12606:12642   */\n    tag_288:\n        /* \"#utility.yul\":12458:12649   */\n      swap3\n      swap2\n      pop\n      pop\n      jump\t// out\n\n    auxdata: 0xa2646970667358221220d9897c24227e1180b5c1a7be5580ac603206127677b82d7fe650a8076112c51464736f6c63430008190033\n}\n",
				"bytecode": {
					"linkReferences": {},
					"object": "608060405234801561000f575f80fd5b5060405161145e38038061145e833981810160405281019061003191906100bf565b335f806101000a81548173ffffffffffffffffffffffffffffffffffffffff021916908373ffffffffffffffffffffffffffffffffffffffff160217905550804261007c9190610117565b6003819055505061014a565b5f80fd5b5f819050919050565b61009e8161008c565b81146100a8575f80fd5b50565b5f815190506100b981610095565b92915050565b5f602082840312156100d4576100d3610088565b5b5f6100e1848285016100ab565b91505092915050565b7f4e487b71000000000000000000000000000000000000000000000000000000005f52601160045260245ffd5b5f6101218261008c565b915061012c8361008c565b9250828201905080821115610144576101436100ea565b5b92915050565b611307806101575f395ff3fe6080604052600436106100c1575f3560e01c80636773fd771161007e578063b7e0326411610058578063b7e032641461023c578063d57bde7914610267578063ecfc7ecc14610291578063fe67a54b1461029b576100c1565b80636773fd77146101d25780638da5cb5b146101e857806391f9015714610212576100c1565b806314d2687c146100c55780631ce2bcf5146100ef57806327e235e3146101055780634423c5f1146101415780634b449cba1461017e5780635ea1d6f8146101a8575b5f80fd5b3480156100d0575f80fd5b506100d96102b1565b6040516100e69190610df0565b60405180910390f35b3480156100fa575f80fd5b5061010361036b565b005b348015610110575f80fd5b5061012b60048036038101906101269190610e3e565b61049c565b6040516101389190610e78565b60405180910390f35b34801561014c575f80fd5b5061016760048036038101906101629190610ebb565b6104b1565b604051610175929190610ef5565b60405180910390f35b348015610189575f80fd5b506101926104ff565b60405161019f9190610e78565b60405180910390f35b3480156101b3575f80fd5b506101bc610505565b6040516101c99190610e78565b60405180910390f35b3480156101dd575f80fd5b506101e661050a565b005b3480156101f3575f80fd5b506101fc6107d0565b6040516102099190610f1c565b60405180910390f35b34801561021d575f80fd5b506102266107f3565b6040516102339190610f1c565b60405180910390f35b348015610247575f80fd5b50610250610818565b60405161025e929190610ef5565b60405180910390f35b348015610272575f80fd5b5061027b610847565b6040516102889190610e78565b60405180910390f35b61029961084d565b005b3480156102a6575f80fd5b506102af610b7f565b005b60606004805480602002602001604051908101604052809291908181526020015f905b82821015610362578382905f5260205f2090600202016040518060400160405290815f82015f9054906101000a900473ffffffffffffffffffffffffffffffffffffffff1673ffffffffffffffffffffffffffffffffffffffff1673ffffffffffffffffffffffffffffffffffffffff168152602001600182015481525050815260200190600101906102d4565b50505050905090565b5f60055f3373ffffffffffffffffffffffffffffffffffffffff1673ffffffffffffffffffffffffffffffffffffffff1681526020019081526020015f2054905060025481116103f0576040517f08c379a00000000000000000000000000000000000000000000000000000000081526004016103e790610f8f565b60405180910390fd5b5f600254826103ff9190610fda565b90508060055f3373ffffffffffffffffffffffffffffffffffffffff1673ffffffffffffffffffffffffffffffffffffffff1681526020019081526020015f205f82825461044d9190610fda565b925050819055503373ffffffffffffffffffffffffffffffffffffffff166108fc8290811502906040515f60405180830381858888f19350505050158015610497573d5f803e3d5ffd5b505050565b6005602052805f5260405f205f915090505481565b600481815481106104c0575f80fd5b905f5260205f2090600202015f91509050805f015f9054906101000a900473ffffffffffffffffffffffffffffffffffffffff16908060010154905082565b60035481565b600281565b5f8054906101000a900473ffffffffffffffffffffffffffffffffffffffff1673ffffffffffffffffffffffffffffffffffffffff163373ffffffffffffffffffffffffffffffffffffffff1614610597576040517f08c379a000000000000000000000000000000000000000000000000000000000815260040161058e90611057565b60405180910390fd5b6003544210156105dc576040517f08c379a00000000000000000000000000000000000000000000000000000000081526004016105d3906110bf565b60405180910390fd5b5f5b6004805490508110156107cd575f60048281548110610600576105ff6110dd565b5b905f5260205f2090600202015f015f9054906101000a900473ffffffffffffffffffffffffffffffffffffffff16905060015f9054906101000a900473ffffffffffffffffffffffffffffffffffffffff1673ffffffffffffffffffffffffffffffffffffffff168173ffffffffffffffffffffffffffffffffffffffff16146107bf575f6064600260646106959190610fda565b60055f8573ffffffffffffffffffffffffffffffffffffffff1673ffffffffffffffffffffffffffffffffffffffff1681526020019081526020015f20546106dd919061110a565b6106e79190611178565b90505f60055f8473ffffffffffffffffffffffffffffffffffffffff1673ffffffffffffffffffffffffffffffffffffffff1681526020019081526020015f20819055508173ffffffffffffffffffffffffffffffffffffffff166108fc8290811502906040515f60405180830381858888f1935050505015801561076e573d5f803e3d5ffd5b508173ffffffffffffffffffffffffffffffffffffffff167f698270f63d8b673ed55a5ca00d14001bd808b390dbe11d5b1b16624863f71f77826040516107b59190610e78565b60405180910390a2505b5080806001019150506105de565b50565b5f8054906101000a900473ffffffffffffffffffffffffffffffffffffffff1681565b60015f9054906101000a900473ffffffffffffffffffffffffffffffffffffffff1681565b5f8060015f9054906101000a900473ffffffffffffffffffffffffffffffffffffffff16600254915091509091565b60025481565b6003544210610891576040517f08c379a0000000000000000000000000000000000000000000000000000000008152600401610888906111f2565b60405180910390fd5b606460696002546108a2919061110a565b6108ac9190611178565b34116108ed576040517f08c379a00000000000000000000000000000000000000000000000000000000081526004016108e490611280565b60405180910390fd5b5f60055f3373ffffffffffffffffffffffffffffffffffffffff1673ffffffffffffffffffffffffffffffffffffffff1681526020019081526020015f2054111561099757600254346109409190610fda565b60055f3373ffffffffffffffffffffffffffffffffffffffff1673ffffffffffffffffffffffffffffffffffffffff1681526020019081526020015f205f82825461098b919061129e565b925050819055506109da565b3460055f3373ffffffffffffffffffffffffffffffffffffffff1673ffffffffffffffffffffffffffffffffffffffff1681526020019081526020015f20819055505b346002819055503360015f6101000a81548173ffffffffffffffffffffffffffffffffffffffff021916908373ffffffffffffffffffffffffffffffffffffffff160217905550600460405180604001604052803373ffffffffffffffffffffffffffffffffffffffff16815260200134815250908060018154018082558091505060019003905f5260205f2090600202015f909190919091505f820151815f015f6101000a81548173ffffffffffffffffffffffffffffffffffffffff021916908373ffffffffffffffffffffffffffffffffffffffff160217905550602082015181600101555050610258600354610ad49190610fda565b421115610b2f5761025860035f828254610aee919061129e565b925050819055507fc2b459809119087ca9d2bc10dea53a51b7d848b1a11075db037bdca58292c3e8600354604051610b269190610e78565b60405180910390a15b3373ffffffffffffffffffffffffffffffffffffffff167f3fabff0a9c3ecd6814702e247fa9733e5d0aa69e3a38590f92cb18f623a2254d34604051610b759190610e78565b60405180910390a2565b5f8054906101000a900473ffffffffffffffffffffffffffffffffffffffff1673ffffffffffffffffffffffffffffffffffffffff163373ffffffffffffffffffffffffffffffffffffffff1614610c0c576040517f08c379a0000000000000000000000000000000000000000000000000000000008152600401610c0390611057565b60405180910390fd5b600354421015610c51576040517f08c379a0000000000000000000000000000000000000000000000000000000008152600401610c48906110bf565b60405180910390fd5b60015f9054906101000a900473ffffffffffffffffffffffffffffffffffffffff1673ffffffffffffffffffffffffffffffffffffffff167f3cf1af53e79884a92609ce59db1ec9f584d88e2d14c8eaba43a21db81318301e600254604051610cba9190610e78565b60405180910390a2565b5f81519050919050565b5f82825260208201905092915050565b5f819050602082019050919050565b5f73ffffffffffffffffffffffffffffffffffffffff82169050919050565b5f610d1682610ced565b9050919050565b610d2681610d0c565b82525050565b5f819050919050565b610d3e81610d2c565b82525050565b604082015f820151610d585f850182610d1d565b506020820151610d6b6020850182610d35565b50505050565b5f610d7c8383610d44565b60408301905092915050565b5f602082019050919050565b5f610d9e82610cc4565b610da88185610cce565b9350610db383610cde565b805f5b83811015610de3578151610dca8882610d71565b9750610dd583610d88565b925050600181019050610db6565b5085935050505092915050565b5f6020820190508181035f830152610e088184610d94565b905092915050565b5f80fd5b610e1d81610d0c565b8114610e27575f80fd5b50565b5f81359050610e3881610e14565b92915050565b5f60208284031215610e5357610e52610e10565b5b5f610e6084828501610e2a565b91505092915050565b610e7281610d2c565b82525050565b5f602082019050610e8b5f830184610e69565b92915050565b610e9a81610d2c565b8114610ea4575f80fd5b50565b5f81359050610eb581610e91565b92915050565b5f60208284031215610ed057610ecf610e10565b5b5f610edd84828501610ea7565b91505092915050565b610eef81610d0c565b82525050565b5f604082019050610f085f830185610ee6565b610f156020830184610e69565b9392505050565b5f602082019050610f2f5f830184610ee6565b92915050565b5f82825260208201905092915050565b7f4e6f2065786365737320746f20776974686472617700000000000000000000005f82015250565b5f610f79601583610f35565b9150610f8482610f45565b602082019050919050565b5f6020820190508181035f830152610fa681610f6d565b9050919050565b7f4e487b71000000000000000000000000000000000000000000000000000000005f52601160045260245ffd5b5f610fe482610d2c565b9150610fef83610d2c565b925082820390508181111561100757611006610fad565b5b92915050565b7f4163636573732064656e6965643a204e6f7420746865206f776e6572000000005f82015250565b5f611041601c83610f35565b915061104c8261100d565b602082019050919050565b5f6020820190508181035f83015261106e81611035565b9050919050565b7f41756374696f6e206973207374696c6c206163746976650000000000000000005f82015250565b5f6110a9601783610f35565b91506110b482611075565b602082019050919050565b5f6020820190508181035f8301526110d68161109d565b9050919050565b7f4e487b71000000000000000000000000000000000000000000000000000000005f52603260045260245ffd5b5f61111482610d2c565b915061111f83610d2c565b925082820261112d81610d2c565b9150828204841483151761114457611143610fad565b5b5092915050565b7f4e487b71000000000000000000000000000000000000000000000000000000005f52601260045260245ffd5b5f61118282610d2c565b915061118d83610d2c565b92508261119d5761119c61114b565b5b828204905092915050565b7f5468652061756374696f6e2068617320656e64656400000000000000000000005f82015250565b5f6111dc601583610f35565b91506111e7826111a8565b602082019050919050565b5f6020820190508181035f830152611209816111d0565b9050919050565b7f426964206d757374206578636565642063757272656e742062696420627920615f8201527f74206c6561737420352500000000000000000000000000000000000000000000602082015250565b5f61126a602a83610f35565b915061127582611210565b604082019050919050565b5f6020820190508181035f8301526112978161125e565b9050919050565b5f6112a882610d2c565b91506112b383610d2c565b92508282019050808211156112cb576112ca610fad565b5b9291505056fea2646970667358221220d9897c24227e1180b5c1a7be5580ac603206127677b82d7fe650a8076112c51464736f6c63430008190033",
					"opcodes": "PUSH1 0x80 PUSH1 0x40 MSTORE CALLVALUE DUP1 ISZERO PUSH2 0xF JUMPI PUSH0 DUP1 REVERT JUMPDEST POP PUSH1 0x40 MLOAD PUSH2 0x145E CODESIZE SUB DUP1 PUSH2 0x145E DUP4 CODECOPY DUP2 DUP2 ADD PUSH1 0x40 MSTORE DUP2 ADD SWAP1 PUSH2 0x31 SWAP2 SWAP1 PUSH2 0xBF JUMP JUMPDEST CALLER PUSH0 DUP1 PUSH2 0x100 EXP DUP2 SLOAD DUP2 PUSH20 0xFFFFFFFFFFFFFFFFFFFFFFFFFFFFFFFFFFFFFFFF MUL NOT AND SWAP1 DUP4 PUSH20 0xFFFFFFFFFFFFFFFFFFFFFFFFFFFFFFFFFFFFFFFF AND MUL OR SWAP1 SSTORE POP DUP1 TIMESTAMP PUSH2 0x7C SWAP2 SWAP1 PUSH2 0x117 JUMP JUMPDEST PUSH1 0x3 DUP2 SWAP1 SSTORE POP POP PUSH2 0x14A JUMP JUMPDEST PUSH0 DUP1 REVERT JUMPDEST PUSH0 DUP2 SWAP1 POP SWAP2 SWAP1 POP JUMP JUMPDEST PUSH2 0x9E DUP2 PUSH2 0x8C JUMP JUMPDEST DUP2 EQ PUSH2 0xA8 JUMPI PUSH0 DUP1 REVERT JUMPDEST POP JUMP JUMPDEST PUSH0 DUP2 MLOAD SWAP1 POP PUSH2 0xB9 DUP2 PUSH2 0x95 JUMP JUMPDEST SWAP3 SWAP2 POP POP JUMP JUMPDEST PUSH0 PUSH1 0x20 DUP3 DUP5 SUB SLT ISZERO PUSH2 0xD4 JUMPI PUSH2 0xD3 PUSH2 0x88 JUMP JUMPDEST JUMPDEST PUSH0 PUSH2 0xE1 DUP5 DUP3 DUP6 ADD PUSH2 0xAB JUMP JUMPDEST SWAP2 POP POP SWAP3 SWAP2 POP POP JUMP JUMPDEST PUSH32 0x4E487B7100000000000000000000000000000000000000000000000000000000 PUSH0 MSTORE PUSH1 0x11 PUSH1 0x4 MSTORE PUSH1 0x24 PUSH0 REVERT JUMPDEST PUSH0 PUSH2 0x121 DUP3 PUSH2 0x8C JUMP JUMPDEST SWAP2 POP PUSH2 0x12C DUP4 PUSH2 0x8C JUMP JUMPDEST SWAP3 POP DUP3 DUP3 ADD SWAP1 POP DUP1 DUP3 GT ISZERO PUSH2 0x144 JUMPI PUSH2 0x143 PUSH2 0xEA JUMP JUMPDEST JUMPDEST SWAP3 SWAP2 POP POP JUMP JUMPDEST PUSH2 0x1307 DUP1 PUSH2 0x157 PUSH0 CODECOPY PUSH0 RETURN INVALID PUSH1 0x80 PUSH1 0x40 MSTORE PUSH1 0x4 CALLDATASIZE LT PUSH2 0xC1 JUMPI PUSH0 CALLDATALOAD PUSH1 0xE0 SHR DUP1 PUSH4 0x6773FD77 GT PUSH2 0x7E JUMPI DUP1 PUSH4 0xB7E03264 GT PUSH2 0x58 JUMPI DUP1 PUSH4 0xB7E03264 EQ PUSH2 0x23C JUMPI DUP1 PUSH4 0xD57BDE79 EQ PUSH2 0x267 JUMPI DUP1 PUSH4 0xECFC7ECC EQ PUSH2 0x291 JUMPI DUP1 PUSH4 0xFE67A54B EQ PUSH2 0x29B JUMPI PUSH2 0xC1 JUMP JUMPDEST DUP1 PUSH4 0x6773FD77 EQ PUSH2 0x1D2 JUMPI DUP1 PUSH4 0x8DA5CB5B EQ PUSH2 0x1E8 JUMPI DUP1 PUSH4 0x91F90157 EQ PUSH2 0x212 JUMPI PUSH2 0xC1 JUMP JUMPDEST DUP1 PUSH4 0x14D2687C EQ PUSH2 0xC5 JUMPI DUP1 PUSH4 0x1CE2BCF5 EQ PUSH2 0xEF JUMPI DUP1 PUSH4 0x27E235E3 EQ PUSH2 0x105 JUMPI DUP1 PUSH4 0x4423C5F1 EQ PUSH2 0x141 JUMPI DUP1 PUSH4 0x4B449CBA EQ PUSH2 0x17E JUMPI DUP1 PUSH4 0x5EA1D6F8 EQ PUSH2 0x1A8 JUMPI JUMPDEST PUSH0 DUP1 REVERT JUMPDEST CALLVALUE DUP1 ISZERO PUSH2 0xD0 JUMPI PUSH0 DUP1 REVERT JUMPDEST POP PUSH2 0xD9 PUSH2 0x2B1 JUMP JUMPDEST PUSH1 0x40 MLOAD PUSH2 0xE6 SWAP2 SWAP1 PUSH2 0xDF0 JUMP JUMPDEST PUSH1 0x40 MLOAD DUP1 SWAP2 SUB SWAP1 RETURN JUMPDEST CALLVALUE DUP1 ISZERO PUSH2 0xFA JUMPI PUSH0 DUP1 REVERT JUMPDEST POP PUSH2 0x103 PUSH2 0x36B JUMP JUMPDEST STOP JUMPDEST CALLVALUE DUP1 ISZERO PUSH2 0x110 JUMPI PUSH0 DUP1 REVERT JUMPDEST POP PUSH2 0x12B PUSH1 0x4 DUP1 CALLDATASIZE SUB DUP2 ADD SWAP1 PUSH2 0x126 SWAP2 SWAP1 PUSH2 0xE3E JUMP JUMPDEST PUSH2 0x49C JUMP JUMPDEST PUSH1 0x40 MLOAD PUSH2 0x138 SWAP2 SWAP1 PUSH2 0xE78 JUMP JUMPDEST PUSH1 0x40 MLOAD DUP1 SWAP2 SUB SWAP1 RETURN JUMPDEST CALLVALUE DUP1 ISZERO PUSH2 0x14C JUMPI PUSH0 DUP1 REVERT JUMPDEST POP PUSH2 0x167 PUSH1 0x4 DUP1 CALLDATASIZE SUB DUP2 ADD SWAP1 PUSH2 0x162 SWAP2 SWAP1 PUSH2 0xEBB JUMP JUMPDEST PUSH2 0x4B1 JUMP JUMPDEST PUSH1 0x40 MLOAD PUSH2 0x175 SWAP3 SWAP2 SWAP1 PUSH2 0xEF5 JUMP JUMPDEST PUSH1 0x40 MLOAD DUP1 SWAP2 SUB SWAP1 RETURN JUMPDEST CALLVALUE DUP1 ISZERO PUSH2 0x189 JUMPI PUSH0 DUP1 REVERT JUMPDEST POP PUSH2 0x192 PUSH2 0x4FF JUMP JUMPDEST PUSH1 0x40 MLOAD PUSH2 0x19F SWAP2 SWAP1 PUSH2 0xE78 JUMP JUMPDEST PUSH1 0x40 MLOAD DUP1 SWAP2 SUB SWAP1 RETURN JUMPDEST CALLVALUE DUP1 ISZERO PUSH2 0x1B3 JUMPI PUSH0 DUP1 REVERT JUMPDEST POP PUSH2 0x1BC PUSH2 0x505 JUMP JUMPDEST PUSH1 0x40 MLOAD PUSH2 0x1C9 SWAP2 SWAP1 PUSH2 0xE78 JUMP JUMPDEST PUSH1 0x40 MLOAD DUP1 SWAP2 SUB SWAP1 RETURN JUMPDEST CALLVALUE DUP1 ISZERO PUSH2 0x1DD JUMPI PUSH0 DUP1 REVERT JUMPDEST POP PUSH2 0x1E6 PUSH2 0x50A JUMP JUMPDEST STOP JUMPDEST CALLVALUE DUP1 ISZERO PUSH2 0x1F3 JUMPI PUSH0 DUP1 REVERT JUMPDEST POP PUSH2 0x1FC PUSH2 0x7D0 JUMP JUMPDEST PUSH1 0x40 MLOAD PUSH2 0x209 SWAP2 SWAP1 PUSH2 0xF1C JUMP JUMPDEST PUSH1 0x40 MLOAD DUP1 SWAP2 SUB SWAP1 RETURN JUMPDEST CALLVALUE DUP1 ISZERO PUSH2 0x21D JUMPI PUSH0 DUP1 REVERT JUMPDEST POP PUSH2 0x226 PUSH2 0x7F3 JUMP JUMPDEST PUSH1 0x40 MLOAD PUSH2 0x233 SWAP2 SWAP1 PUSH2 0xF1C JUMP JUMPDEST PUSH1 0x40 MLOAD DUP1 SWAP2 SUB SWAP1 RETURN JUMPDEST CALLVALUE DUP1 ISZERO PUSH2 0x247 JUMPI PUSH0 DUP1 REVERT JUMPDEST POP PUSH2 0x250 PUSH2 0x818 JUMP JUMPDEST PUSH1 0x40 MLOAD PUSH2 0x25E SWAP3 SWAP2 SWAP1 PUSH2 0xEF5 JUMP JUMPDEST PUSH1 0x40 MLOAD DUP1 SWAP2 SUB SWAP1 RETURN JUMPDEST CALLVALUE DUP1 ISZERO PUSH2 0x272 JUMPI PUSH0 DUP1 REVERT JUMPDEST POP PUSH2 0x27B PUSH2 0x847 JUMP JUMPDEST PUSH1 0x40 MLOAD PUSH2 0x288 SWAP2 SWAP1 PUSH2 0xE78 JUMP JUMPDEST PUSH1 0x40 MLOAD DUP1 SWAP2 SUB SWAP1 RETURN JUMPDEST PUSH2 0x299 PUSH2 0x84D JUMP JUMPDEST STOP JUMPDEST CALLVALUE DUP1 ISZERO PUSH2 0x2A6 JUMPI PUSH0 DUP1 REVERT JUMPDEST POP PUSH2 0x2AF PUSH2 0xB7F JUMP JUMPDEST STOP JUMPDEST PUSH1 0x60 PUSH1 0x4 DUP1 SLOAD DUP1 PUSH1 0x20 MUL PUSH1 0x20 ADD PUSH1 0x40 MLOAD SWAP1 DUP2 ADD PUSH1 0x40 MSTORE DUP1 SWAP3 SWAP2 SWAP1 DUP2 DUP2 MSTORE PUSH1 0x20 ADD PUSH0 SWAP1 JUMPDEST DUP3 DUP3 LT ISZERO PUSH2 0x362 JUMPI DUP4 DUP3 SWAP1 PUSH0 MSTORE PUSH1 0x20 PUSH0 KECCAK256 SWAP1 PUSH1 0x2 MUL ADD PUSH1 0x40 MLOAD DUP1 PUSH1 0x40 ADD PUSH1 0x40 MSTORE SWAP1 DUP2 PUSH0 DUP3 ADD PUSH0 SWAP1 SLOAD SWAP1 PUSH2 0x100 EXP SWAP1 DIV PUSH20 0xFFFFFFFFFFFFFFFFFFFFFFFFFFFFFFFFFFFFFFFF AND PUSH20 0xFFFFFFFFFFFFFFFFFFFFFFFFFFFFFFFFFFFFFFFF AND PUSH20 0xFFFFFFFFFFFFFFFFFFFFFFFFFFFFFFFFFFFFFFFF AND DUP2 MSTORE PUSH1 0x20 ADD PUSH1 0x1 DUP3 ADD SLOAD DUP2 MSTORE POP POP DUP2 MSTORE PUSH1 0x20 ADD SWAP1 PUSH1 0x1 ADD SWAP1 PUSH2 0x2D4 JUMP JUMPDEST POP POP POP POP SWAP1 POP SWAP1 JUMP JUMPDEST PUSH0 PUSH1 0x5 PUSH0 CALLER PUSH20 0xFFFFFFFFFFFFFFFFFFFFFFFFFFFFFFFFFFFFFFFF AND PUSH20 0xFFFFFFFFFFFFFFFFFFFFFFFFFFFFFFFFFFFFFFFF AND DUP2 MSTORE PUSH1 0x20 ADD SWAP1 DUP2 MSTORE PUSH1 0x20 ADD PUSH0 KECCAK256 SLOAD SWAP1 POP PUSH1 0x2 SLOAD DUP2 GT PUSH2 0x3F0 JUMPI PUSH1 0x40 MLOAD PUSH32 0x8C379A000000000000000000000000000000000000000000000000000000000 DUP2 MSTORE PUSH1 0x4 ADD PUSH2 0x3E7 SWAP1 PUSH2 0xF8F JUMP JUMPDEST PUSH1 0x40 MLOAD DUP1 SWAP2 SUB SWAP1 REVERT JUMPDEST PUSH0 PUSH1 0x2 SLOAD DUP3 PUSH2 0x3FF SWAP2 SWAP1 PUSH2 0xFDA JUMP JUMPDEST SWAP1 POP DUP1 PUSH1 0x5 PUSH0 CALLER PUSH20 0xFFFFFFFFFFFFFFFFFFFFFFFFFFFFFFFFFFFFFFFF AND PUSH20 0xFFFFFFFFFFFFFFFFFFFFFFFFFFFFFFFFFFFFFFFF AND DUP2 MSTORE PUSH1 0x20 ADD SWAP1 DUP2 MSTORE PUSH1 0x20 ADD PUSH0 KECCAK256 PUSH0 DUP3 DUP3 SLOAD PUSH2 0x44D SWAP2 SWAP1 PUSH2 0xFDA JUMP JUMPDEST SWAP3 POP POP DUP2 SWAP1 SSTORE POP CALLER PUSH20 0xFFFFFFFFFFFFFFFFFFFFFFFFFFFFFFFFFFFFFFFF AND PUSH2 0x8FC DUP3 SWAP1 DUP2 ISZERO MUL SWAP1 PUSH1 0x40 MLOAD PUSH0 PUSH1 0x40 MLOAD DUP1 DUP4 SUB DUP2 DUP6 DUP9 DUP9 CALL SWAP4 POP POP POP POP ISZERO DUP1 ISZERO PUSH2 0x497 JUMPI RETURNDATASIZE PUSH0 DUP1 RETURNDATACOPY RETURNDATASIZE PUSH0 REVERT JUMPDEST POP POP POP JUMP JUMPDEST PUSH1 0x5 PUSH1 0x20 MSTORE DUP1 PUSH0 MSTORE PUSH1 0x40 PUSH0 KECCAK256 PUSH0 SWAP2 POP SWAP1 POP SLOAD DUP2 JUMP JUMPDEST PUSH1 0x4 DUP2 DUP2 SLOAD DUP2 LT PUSH2 0x4C0 JUMPI PUSH0 DUP1 REVERT JUMPDEST SWAP1 PUSH0 MSTORE PUSH1 0x20 PUSH0 KECCAK256 SWAP1 PUSH1 0x2 MUL ADD PUSH0 SWAP2 POP SWAP1 POP DUP1 PUSH0 ADD PUSH0 SWAP1 SLOAD SWAP1 PUSH2 0x100 EXP SWAP1 DIV PUSH20 0xFFFFFFFFFFFFFFFFFFFFFFFFFFFFFFFFFFFFFFFF AND SWAP1 DUP1 PUSH1 0x1 ADD SLOAD SWAP1 POP DUP3 JUMP JUMPDEST PUSH1 0x3 SLOAD DUP2 JUMP JUMPDEST PUSH1 0x2 DUP2 JUMP JUMPDEST PUSH0 DUP1 SLOAD SWAP1 PUSH2 0x100 EXP SWAP1 DIV PUSH20 0xFFFFFFFFFFFFFFFFFFFFFFFFFFFFFFFFFFFFFFFF AND PUSH20 0xFFFFFFFFFFFFFFFFFFFFFFFFFFFFFFFFFFFFFFFF AND CALLER PUSH20 0xFFFFFFFFFFFFFFFFFFFFFFFFFFFFFFFFFFFFFFFF AND EQ PUSH2 0x597 JUMPI PUSH1 0x40 MLOAD PUSH32 0x8C379A000000000000000000000000000000000000000000000000000000000 DUP2 MSTORE PUSH1 0x4 ADD PUSH2 0x58E SWAP1 PUSH2 0x1057 JUMP JUMPDEST PUSH1 0x40 MLOAD DUP1 SWAP2 SUB SWAP1 REVERT JUMPDEST PUSH1 0x3 SLOAD TIMESTAMP LT ISZERO PUSH2 0x5DC JUMPI PUSH1 0x40 MLOAD PUSH32 0x8C379A000000000000000000000000000000000000000000000000000000000 DUP2 MSTORE PUSH1 0x4 ADD PUSH2 0x5D3 SWAP1 PUSH2 0x10BF JUMP JUMPDEST PUSH1 0x40 MLOAD DUP1 SWAP2 SUB SWAP1 REVERT JUMPDEST PUSH0 JUMPDEST PUSH1 0x4 DUP1 SLOAD SWAP1 POP DUP2 LT ISZERO PUSH2 0x7CD JUMPI PUSH0 PUSH1 0x4 DUP3 DUP2 SLOAD DUP2 LT PUSH2 0x600 JUMPI PUSH2 0x5FF PUSH2 0x10DD JUMP JUMPDEST JUMPDEST SWAP1 PUSH0 MSTORE PUSH1 0x20 PUSH0 KECCAK256 SWAP1 PUSH1 0x2 MUL ADD PUSH0 ADD PUSH0 SWAP1 SLOAD SWAP1 PUSH2 0x100 EXP SWAP1 DIV PUSH20 0xFFFFFFFFFFFFFFFFFFFFFFFFFFFFFFFFFFFFFFFF AND SWAP1 POP PUSH1 0x1 PUSH0 SWAP1 SLOAD SWAP1 PUSH2 0x100 EXP SWAP1 DIV PUSH20 0xFFFFFFFFFFFFFFFFFFFFFFFFFFFFFFFFFFFFFFFF AND PUSH20 0xFFFFFFFFFFFFFFFFFFFFFFFFFFFFFFFFFFFFFFFF AND DUP2 PUSH20 0xFFFFFFFFFFFFFFFFFFFFFFFFFFFFFFFFFFFFFFFF AND EQ PUSH2 0x7BF JUMPI PUSH0 PUSH1 0x64 PUSH1 0x2 PUSH1 0x64 PUSH2 0x695 SWAP2 SWAP1 PUSH2 0xFDA JUMP JUMPDEST PUSH1 0x5 PUSH0 DUP6 PUSH20 0xFFFFFFFFFFFFFFFFFFFFFFFFFFFFFFFFFFFFFFFF AND PUSH20 0xFFFFFFFFFFFFFFFFFFFFFFFFFFFFFFFFFFFFFFFF AND DUP2 MSTORE PUSH1 0x20 ADD SWAP1 DUP2 MSTORE PUSH1 0x20 ADD PUSH0 KECCAK256 SLOAD PUSH2 0x6DD SWAP2 SWAP1 PUSH2 0x110A JUMP JUMPDEST PUSH2 0x6E7 SWAP2 SWAP1 PUSH2 0x1178 JUMP JUMPDEST SWAP1 POP PUSH0 PUSH1 0x5 PUSH0 DUP5 PUSH20 0xFFFFFFFFFFFFFFFFFFFFFFFFFFFFFFFFFFFFFFFF AND PUSH20 0xFFFFFFFFFFFFFFFFFFFFFFFFFFFFFFFFFFFFFFFF AND DUP2 MSTORE PUSH1 0x20 ADD SWAP1 DUP2 MSTORE PUSH1 0x20 ADD PUSH0 KECCAK256 DUP2 SWAP1 SSTORE POP DUP2 PUSH20 0xFFFFFFFFFFFFFFFFFFFFFFFFFFFFFFFFFFFFFFFF AND PUSH2 0x8FC DUP3 SWAP1 DUP2 ISZERO MUL SWAP1 PUSH1 0x40 MLOAD PUSH0 PUSH1 0x40 MLOAD DUP1 DUP4 SUB DUP2 DUP6 DUP9 DUP9 CALL SWAP4 POP POP POP POP ISZERO DUP1 ISZERO PUSH2 0x76E JUMPI RETURNDATASIZE PUSH0 DUP1 RETURNDATACOPY RETURNDATASIZE PUSH0 REVERT JUMPDEST POP DUP2 PUSH20 0xFFFFFFFFFFFFFFFFFFFFFFFFFFFFFFFFFFFFFFFF AND PUSH32 0x698270F63D8B673ED55A5CA00D14001BD808B390DBE11D5B1B16624863F71F77 DUP3 PUSH1 0x40 MLOAD PUSH2 0x7B5 SWAP2 SWAP1 PUSH2 0xE78 JUMP JUMPDEST PUSH1 0x40 MLOAD DUP1 SWAP2 SUB SWAP1 LOG2 POP JUMPDEST POP DUP1 DUP1 PUSH1 0x1 ADD SWAP2 POP POP PUSH2 0x5DE JUMP JUMPDEST POP JUMP JUMPDEST PUSH0 DUP1 SLOAD SWAP1 PUSH2 0x100 EXP SWAP1 DIV PUSH20 0xFFFFFFFFFFFFFFFFFFFFFFFFFFFFFFFFFFFFFFFF AND DUP2 JUMP JUMPDEST PUSH1 0x1 PUSH0 SWAP1 SLOAD SWAP1 PUSH2 0x100 EXP SWAP1 DIV PUSH20 0xFFFFFFFFFFFFFFFFFFFFFFFFFFFFFFFFFFFFFFFF AND DUP2 JUMP JUMPDEST PUSH0 DUP1 PUSH1 0x1 PUSH0 SWAP1 SLOAD SWAP1 PUSH2 0x100 EXP SWAP1 DIV PUSH20 0xFFFFFFFFFFFFFFFFFFFFFFFFFFFFFFFFFFFFFFFF AND PUSH1 0x2 SLOAD SWAP2 POP SWAP2 POP SWAP1 SWAP2 JUMP JUMPDEST PUSH1 0x2 SLOAD DUP2 JUMP JUMPDEST PUSH1 0x3 SLOAD TIMESTAMP LT PUSH2 0x891 JUMPI PUSH1 0x40 MLOAD PUSH32 0x8C379A000000000000000000000000000000000000000000000000000000000 DUP2 MSTORE PUSH1 0x4 ADD PUSH2 0x888 SWAP1 PUSH2 0x11F2 JUMP JUMPDEST PUSH1 0x40 MLOAD DUP1 SWAP2 SUB SWAP1 REVERT JUMPDEST PUSH1 0x64 PUSH1 0x69 PUSH1 0x2 SLOAD PUSH2 0x8A2 SWAP2 SWAP1 PUSH2 0x110A JUMP JUMPDEST PUSH2 0x8AC SWAP2 SWAP1 PUSH2 0x1178 JUMP JUMPDEST CALLVALUE GT PUSH2 0x8ED JUMPI PUSH1 0x40 MLOAD PUSH32 0x8C379A000000000000000000000000000000000000000000000000000000000 DUP2 MSTORE PUSH1 0x4 ADD PUSH2 0x8E4 SWAP1 PUSH2 0x1280 JUMP JUMPDEST PUSH1 0x40 MLOAD DUP1 SWAP2 SUB SWAP1 REVERT JUMPDEST PUSH0 PUSH1 0x5 PUSH0 CALLER PUSH20 0xFFFFFFFFFFFFFFFFFFFFFFFFFFFFFFFFFFFFFFFF AND PUSH20 0xFFFFFFFFFFFFFFFFFFFFFFFFFFFFFFFFFFFFFFFF AND DUP2 MSTORE PUSH1 0x20 ADD SWAP1 DUP2 MSTORE PUSH1 0x20 ADD PUSH0 KECCAK256 SLOAD GT ISZERO PUSH2 0x997 JUMPI PUSH1 0x2 SLOAD CALLVALUE PUSH2 0x940 SWAP2 SWAP1 PUSH2 0xFDA JUMP JUMPDEST PUSH1 0x5 PUSH0 CALLER PUSH20 0xFFFFFFFFFFFFFFFFFFFFFFFFFFFFFFFFFFFFFFFF AND PUSH20 0xFFFFFFFFFFFFFFFFFFFFFFFFFFFFFFFFFFFFFFFF AND DUP2 MSTORE PUSH1 0x20 ADD SWAP1 DUP2 MSTORE PUSH1 0x20 ADD PUSH0 KECCAK256 PUSH0 DUP3 DUP3 SLOAD PUSH2 0x98B SWAP2 SWAP1 PUSH2 0x129E JUMP JUMPDEST SWAP3 POP POP DUP2 SWAP1 SSTORE POP PUSH2 0x9DA JUMP JUMPDEST CALLVALUE PUSH1 0x5 PUSH0 CALLER PUSH20 0xFFFFFFFFFFFFFFFFFFFFFFFFFFFFFFFFFFFFFFFF AND PUSH20 0xFFFFFFFFFFFFFFFFFFFFFFFFFFFFFFFFFFFFFFFF AND DUP2 MSTORE PUSH1 0x20 ADD SWAP1 DUP2 MSTORE PUSH1 0x20 ADD PUSH0 KECCAK256 DUP2 SWAP1 SSTORE POP JUMPDEST CALLVALUE PUSH1 0x2 DUP2 SWAP1 SSTORE POP CALLER PUSH1 0x1 PUSH0 PUSH2 0x100 EXP DUP2 SLOAD DUP2 PUSH20 0xFFFFFFFFFFFFFFFFFFFFFFFFFFFFFFFFFFFFFFFF MUL NOT AND SWAP1 DUP4 PUSH20 0xFFFFFFFFFFFFFFFFFFFFFFFFFFFFFFFFFFFFFFFF AND MUL OR SWAP1 SSTORE POP PUSH1 0x4 PUSH1 0x40 MLOAD DUP1 PUSH1 0x40 ADD PUSH1 0x40 MSTORE DUP1 CALLER PUSH20 0xFFFFFFFFFFFFFFFFFFFFFFFFFFFFFFFFFFFFFFFF AND DUP2 MSTORE PUSH1 0x20 ADD CALLVALUE DUP2 MSTORE POP SWAP1 DUP1 PUSH1 0x1 DUP2 SLOAD ADD DUP1 DUP3 SSTORE DUP1 SWAP2 POP POP PUSH1 0x1 SWAP1 SUB SWAP1 PUSH0 MSTORE PUSH1 0x20 PUSH0 KECCAK256 SWAP1 PUSH1 0x2 MUL ADD PUSH0 SWAP1 SWAP2 SWAP1 SWAP2 SWAP1 SWAP2 POP PUSH0 DUP3 ADD MLOAD DUP2 PUSH0 ADD PUSH0 PUSH2 0x100 EXP DUP2 SLOAD DUP2 PUSH20 0xFFFFFFFFFFFFFFFFFFFFFFFFFFFFFFFFFFFFFFFF MUL NOT AND SWAP1 DUP4 PUSH20 0xFFFFFFFFFFFFFFFFFFFFFFFFFFFFFFFFFFFFFFFF AND MUL OR SWAP1 SSTORE POP PUSH1 0x20 DUP3 ADD MLOAD DUP2 PUSH1 0x1 ADD SSTORE POP POP PUSH2 0x258 PUSH1 0x3 SLOAD PUSH2 0xAD4 SWAP2 SWAP1 PUSH2 0xFDA JUMP JUMPDEST TIMESTAMP GT ISZERO PUSH2 0xB2F JUMPI PUSH2 0x258 PUSH1 0x3 PUSH0 DUP3 DUP3 SLOAD PUSH2 0xAEE SWAP2 SWAP1 PUSH2 0x129E JUMP JUMPDEST SWAP3 POP POP DUP2 SWAP1 SSTORE POP PUSH32 0xC2B459809119087CA9D2BC10DEA53A51B7D848B1A11075DB037BDCA58292C3E8 PUSH1 0x3 SLOAD PUSH1 0x40 MLOAD PUSH2 0xB26 SWAP2 SWAP1 PUSH2 0xE78 JUMP JUMPDEST PUSH1 0x40 MLOAD DUP1 SWAP2 SUB SWAP1 LOG1 JUMPDEST CALLER PUSH20 0xFFFFFFFFFFFFFFFFFFFFFFFFFFFFFFFFFFFFFFFF AND PUSH32 0x3FABFF0A9C3ECD6814702E247FA9733E5D0AA69E3A38590F92CB18F623A2254D CALLVALUE PUSH1 0x40 MLOAD PUSH2 0xB75 SWAP2 SWAP1 PUSH2 0xE78 JUMP JUMPDEST PUSH1 0x40 MLOAD DUP1 SWAP2 SUB SWAP1 LOG2 JUMP JUMPDEST PUSH0 DUP1 SLOAD SWAP1 PUSH2 0x100 EXP SWAP1 DIV PUSH20 0xFFFFFFFFFFFFFFFFFFFFFFFFFFFFFFFFFFFFFFFF AND PUSH20 0xFFFFFFFFFFFFFFFFFFFFFFFFFFFFFFFFFFFFFFFF AND CALLER PUSH20 0xFFFFFFFFFFFFFFFFFFFFFFFFFFFFFFFFFFFFFFFF AND EQ PUSH2 0xC0C JUMPI PUSH1 0x40 MLOAD PUSH32 0x8C379A000000000000000000000000000000000000000000000000000000000 DUP2 MSTORE PUSH1 0x4 ADD PUSH2 0xC03 SWAP1 PUSH2 0x1057 JUMP JUMPDEST PUSH1 0x40 MLOAD DUP1 SWAP2 SUB SWAP1 REVERT JUMPDEST PUSH1 0x3 SLOAD TIMESTAMP LT ISZERO PUSH2 0xC51 JUMPI PUSH1 0x40 MLOAD PUSH32 0x8C379A000000000000000000000000000000000000000000000000000000000 DUP2 MSTORE PUSH1 0x4 ADD PUSH2 0xC48 SWAP1 PUSH2 0x10BF JUMP JUMPDEST PUSH1 0x40 MLOAD DUP1 SWAP2 SUB SWAP1 REVERT JUMPDEST PUSH1 0x1 PUSH0 SWAP1 SLOAD SWAP1 PUSH2 0x100 EXP SWAP1 DIV PUSH20 0xFFFFFFFFFFFFFFFFFFFFFFFFFFFFFFFFFFFFFFFF AND PUSH20 0xFFFFFFFFFFFFFFFFFFFFFFFFFFFFFFFFFFFFFFFF AND PUSH32 0x3CF1AF53E79884A92609CE59DB1EC9F584D88E2D14C8EABA43A21DB81318301E PUSH1 0x2 SLOAD PUSH1 0x40 MLOAD PUSH2 0xCBA SWAP2 SWAP1 PUSH2 0xE78 JUMP JUMPDEST PUSH1 0x40 MLOAD DUP1 SWAP2 SUB SWAP1 LOG2 JUMP JUMPDEST PUSH0 DUP2 MLOAD SWAP1 POP SWAP2 SWAP1 POP JUMP JUMPDEST PUSH0 DUP3 DUP3 MSTORE PUSH1 0x20 DUP3 ADD SWAP1 POP SWAP3 SWAP2 POP POP JUMP JUMPDEST PUSH0 DUP2 SWAP1 POP PUSH1 0x20 DUP3 ADD SWAP1 POP SWAP2 SWAP1 POP JUMP JUMPDEST PUSH0 PUSH20 0xFFFFFFFFFFFFFFFFFFFFFFFFFFFFFFFFFFFFFFFF DUP3 AND SWAP1 POP SWAP2 SWAP1 POP JUMP JUMPDEST PUSH0 PUSH2 0xD16 DUP3 PUSH2 0xCED JUMP JUMPDEST SWAP1 POP SWAP2 SWAP1 POP JUMP JUMPDEST PUSH2 0xD26 DUP2 PUSH2 0xD0C JUMP JUMPDEST DUP3 MSTORE POP POP JUMP JUMPDEST PUSH0 DUP2 SWAP1 POP SWAP2 SWAP1 POP JUMP JUMPDEST PUSH2 0xD3E DUP2 PUSH2 0xD2C JUMP JUMPDEST DUP3 MSTORE POP POP JUMP JUMPDEST PUSH1 0x40 DUP3 ADD PUSH0 DUP3 ADD MLOAD PUSH2 0xD58 PUSH0 DUP6 ADD DUP3 PUSH2 0xD1D JUMP JUMPDEST POP PUSH1 0x20 DUP3 ADD MLOAD PUSH2 0xD6B PUSH1 0x20 DUP6 ADD DUP3 PUSH2 0xD35 JUMP JUMPDEST POP POP POP POP JUMP JUMPDEST PUSH0 PUSH2 0xD7C DUP4 DUP4 PUSH2 0xD44 JUMP JUMPDEST PUSH1 0x40 DUP4 ADD SWAP1 POP SWAP3 SWAP2 POP POP JUMP JUMPDEST PUSH0 PUSH1 0x20 DUP3 ADD SWAP1 POP SWAP2 SWAP1 POP JUMP JUMPDEST PUSH0 PUSH2 0xD9E DUP3 PUSH2 0xCC4 JUMP JUMPDEST PUSH2 0xDA8 DUP2 DUP6 PUSH2 0xCCE JUMP JUMPDEST SWAP4 POP PUSH2 0xDB3 DUP4 PUSH2 0xCDE JUMP JUMPDEST DUP1 PUSH0 JUMPDEST DUP4 DUP2 LT ISZERO PUSH2 0xDE3 JUMPI DUP2 MLOAD PUSH2 0xDCA DUP9 DUP3 PUSH2 0xD71 JUMP JUMPDEST SWAP8 POP PUSH2 0xDD5 DUP4 PUSH2 0xD88 JUMP JUMPDEST SWAP3 POP POP PUSH1 0x1 DUP2 ADD SWAP1 POP PUSH2 0xDB6 JUMP JUMPDEST POP DUP6 SWAP4 POP POP POP POP SWAP3 SWAP2 POP POP JUMP JUMPDEST PUSH0 PUSH1 0x20 DUP3 ADD SWAP1 POP DUP2 DUP2 SUB PUSH0 DUP4 ADD MSTORE PUSH2 0xE08 DUP2 DUP5 PUSH2 0xD94 JUMP JUMPDEST SWAP1 POP SWAP3 SWAP2 POP POP JUMP JUMPDEST PUSH0 DUP1 REVERT JUMPDEST PUSH2 0xE1D DUP2 PUSH2 0xD0C JUMP JUMPDEST DUP2 EQ PUSH2 0xE27 JUMPI PUSH0 DUP1 REVERT JUMPDEST POP JUMP JUMPDEST PUSH0 DUP2 CALLDATALOAD SWAP1 POP PUSH2 0xE38 DUP2 PUSH2 0xE14 JUMP JUMPDEST SWAP3 SWAP2 POP POP JUMP JUMPDEST PUSH0 PUSH1 0x20 DUP3 DUP5 SUB SLT ISZERO PUSH2 0xE53 JUMPI PUSH2 0xE52 PUSH2 0xE10 JUMP JUMPDEST JUMPDEST PUSH0 PUSH2 0xE60 DUP5 DUP3 DUP6 ADD PUSH2 0xE2A JUMP JUMPDEST SWAP2 POP POP SWAP3 SWAP2 POP POP JUMP JUMPDEST PUSH2 0xE72 DUP2 PUSH2 0xD2C JUMP JUMPDEST DUP3 MSTORE POP POP JUMP JUMPDEST PUSH0 PUSH1 0x20 DUP3 ADD SWAP1 POP PUSH2 0xE8B PUSH0 DUP4 ADD DUP5 PUSH2 0xE69 JUMP JUMPDEST SWAP3 SWAP2 POP POP JUMP JUMPDEST PUSH2 0xE9A DUP2 PUSH2 0xD2C JUMP JUMPDEST DUP2 EQ PUSH2 0xEA4 JUMPI PUSH0 DUP1 REVERT JUMPDEST POP JUMP JUMPDEST PUSH0 DUP2 CALLDATALOAD SWAP1 POP PUSH2 0xEB5 DUP2 PUSH2 0xE91 JUMP JUMPDEST SWAP3 SWAP2 POP POP JUMP JUMPDEST PUSH0 PUSH1 0x20 DUP3 DUP5 SUB SLT ISZERO PUSH2 0xED0 JUMPI PUSH2 0xECF PUSH2 0xE10 JUMP JUMPDEST JUMPDEST PUSH0 PUSH2 0xEDD DUP5 DUP3 DUP6 ADD PUSH2 0xEA7 JUMP JUMPDEST SWAP2 POP POP SWAP3 SWAP2 POP POP JUMP JUMPDEST PUSH2 0xEEF DUP2 PUSH2 0xD0C JUMP JUMPDEST DUP3 MSTORE POP POP JUMP JUMPDEST PUSH0 PUSH1 0x40 DUP3 ADD SWAP1 POP PUSH2 0xF08 PUSH0 DUP4 ADD DUP6 PUSH2 0xEE6 JUMP JUMPDEST PUSH2 0xF15 PUSH1 0x20 DUP4 ADD DUP5 PUSH2 0xE69 JUMP JUMPDEST SWAP4 SWAP3 POP POP POP JUMP JUMPDEST PUSH0 PUSH1 0x20 DUP3 ADD SWAP1 POP PUSH2 0xF2F PUSH0 DUP4 ADD DUP5 PUSH2 0xEE6 JUMP JUMPDEST SWAP3 SWAP2 POP POP JUMP JUMPDEST PUSH0 DUP3 DUP3 MSTORE PUSH1 0x20 DUP3 ADD SWAP1 POP SWAP3 SWAP2 POP POP JUMP JUMPDEST PUSH32 0x4E6F2065786365737320746F2077697468647261770000000000000000000000 PUSH0 DUP3 ADD MSTORE POP JUMP JUMPDEST PUSH0 PUSH2 0xF79 PUSH1 0x15 DUP4 PUSH2 0xF35 JUMP JUMPDEST SWAP2 POP PUSH2 0xF84 DUP3 PUSH2 0xF45 JUMP JUMPDEST PUSH1 0x20 DUP3 ADD SWAP1 POP SWAP2 SWAP1 POP JUMP JUMPDEST PUSH0 PUSH1 0x20 DUP3 ADD SWAP1 POP DUP2 DUP2 SUB PUSH0 DUP4 ADD MSTORE PUSH2 0xFA6 DUP2 PUSH2 0xF6D JUMP JUMPDEST SWAP1 POP SWAP2 SWAP1 POP JUMP JUMPDEST PUSH32 0x4E487B7100000000000000000000000000000000000000000000000000000000 PUSH0 MSTORE PUSH1 0x11 PUSH1 0x4 MSTORE PUSH1 0x24 PUSH0 REVERT JUMPDEST PUSH0 PUSH2 0xFE4 DUP3 PUSH2 0xD2C JUMP JUMPDEST SWAP2 POP PUSH2 0xFEF DUP4 PUSH2 0xD2C JUMP JUMPDEST SWAP3 POP DUP3 DUP3 SUB SWAP1 POP DUP2 DUP2 GT ISZERO PUSH2 0x1007 JUMPI PUSH2 0x1006 PUSH2 0xFAD JUMP JUMPDEST JUMPDEST SWAP3 SWAP2 POP POP JUMP JUMPDEST PUSH32 0x4163636573732064656E6965643A204E6F7420746865206F776E657200000000 PUSH0 DUP3 ADD MSTORE POP JUMP JUMPDEST PUSH0 PUSH2 0x1041 PUSH1 0x1C DUP4 PUSH2 0xF35 JUMP JUMPDEST SWAP2 POP PUSH2 0x104C DUP3 PUSH2 0x100D JUMP JUMPDEST PUSH1 0x20 DUP3 ADD SWAP1 POP SWAP2 SWAP1 POP JUMP JUMPDEST PUSH0 PUSH1 0x20 DUP3 ADD SWAP1 POP DUP2 DUP2 SUB PUSH0 DUP4 ADD MSTORE PUSH2 0x106E DUP2 PUSH2 0x1035 JUMP JUMPDEST SWAP1 POP SWAP2 SWAP1 POP JUMP JUMPDEST PUSH32 0x41756374696F6E206973207374696C6C20616374697665000000000000000000 PUSH0 DUP3 ADD MSTORE POP JUMP JUMPDEST PUSH0 PUSH2 0x10A9 PUSH1 0x17 DUP4 PUSH2 0xF35 JUMP JUMPDEST SWAP2 POP PUSH2 0x10B4 DUP3 PUSH2 0x1075 JUMP JUMPDEST PUSH1 0x20 DUP3 ADD SWAP1 POP SWAP2 SWAP1 POP JUMP JUMPDEST PUSH0 PUSH1 0x20 DUP3 ADD SWAP1 POP DUP2 DUP2 SUB PUSH0 DUP4 ADD MSTORE PUSH2 0x10D6 DUP2 PUSH2 0x109D JUMP JUMPDEST SWAP1 POP SWAP2 SWAP1 POP JUMP JUMPDEST PUSH32 0x4E487B7100000000000000000000000000000000000000000000000000000000 PUSH0 MSTORE PUSH1 0x32 PUSH1 0x4 MSTORE PUSH1 0x24 PUSH0 REVERT JUMPDEST PUSH0 PUSH2 0x1114 DUP3 PUSH2 0xD2C JUMP JUMPDEST SWAP2 POP PUSH2 0x111F DUP4 PUSH2 0xD2C JUMP JUMPDEST SWAP3 POP DUP3 DUP3 MUL PUSH2 0x112D DUP2 PUSH2 0xD2C JUMP JUMPDEST SWAP2 POP DUP3 DUP3 DIV DUP5 EQ DUP4 ISZERO OR PUSH2 0x1144 JUMPI PUSH2 0x1143 PUSH2 0xFAD JUMP JUMPDEST JUMPDEST POP SWAP3 SWAP2 POP POP JUMP JUMPDEST PUSH32 0x4E487B7100000000000000000000000000000000000000000000000000000000 PUSH0 MSTORE PUSH1 0x12 PUSH1 0x4 MSTORE PUSH1 0x24 PUSH0 REVERT JUMPDEST PUSH0 PUSH2 0x1182 DUP3 PUSH2 0xD2C JUMP JUMPDEST SWAP2 POP PUSH2 0x118D DUP4 PUSH2 0xD2C JUMP JUMPDEST SWAP3 POP DUP3 PUSH2 0x119D JUMPI PUSH2 0x119C PUSH2 0x114B JUMP JUMPDEST JUMPDEST DUP3 DUP3 DIV SWAP1 POP SWAP3 SWAP2 POP POP JUMP JUMPDEST PUSH32 0x5468652061756374696F6E2068617320656E6465640000000000000000000000 PUSH0 DUP3 ADD MSTORE POP JUMP JUMPDEST PUSH0 PUSH2 0x11DC PUSH1 0x15 DUP4 PUSH2 0xF35 JUMP JUMPDEST SWAP2 POP PUSH2 0x11E7 DUP3 PUSH2 0x11A8 JUMP JUMPDEST PUSH1 0x20 DUP3 ADD SWAP1 POP SWAP2 SWAP1 POP JUMP JUMPDEST PUSH0 PUSH1 0x20 DUP3 ADD SWAP1 POP DUP2 DUP2 SUB PUSH0 DUP4 ADD MSTORE PUSH2 0x1209 DUP2 PUSH2 0x11D0 JUMP JUMPDEST SWAP1 POP SWAP2 SWAP1 POP JUMP JUMPDEST PUSH32 0x426964206D757374206578636565642063757272656E74206269642062792061 PUSH0 DUP3 ADD MSTORE PUSH32 0x74206C6561737420352500000000000000000000000000000000000000000000 PUSH1 0x20 DUP3 ADD MSTORE POP JUMP JUMPDEST PUSH0 PUSH2 0x126A PUSH1 0x2A DUP4 PUSH2 0xF35 JUMP JUMPDEST SWAP2 POP PUSH2 0x1275 DUP3 PUSH2 0x1210 JUMP JUMPDEST PUSH1 0x40 DUP3 ADD SWAP1 POP SWAP2 SWAP1 POP JUMP JUMPDEST PUSH0 PUSH1 0x20 DUP3 ADD SWAP1 POP DUP2 DUP2 SUB PUSH0 DUP4 ADD MSTORE PUSH2 0x1297 DUP2 PUSH2 0x125E JUMP JUMPDEST SWAP1 POP SWAP2 SWAP1 POP JUMP JUMPDEST PUSH0 PUSH2 0x12A8 DUP3 PUSH2 0xD2C JUMP JUMPDEST SWAP2 POP PUSH2 0x12B3 DUP4 PUSH2 0xD2C JUMP JUMPDEST SWAP3 POP DUP3 DUP3 ADD SWAP1 POP DUP1 DUP3 GT ISZERO PUSH2 0x12CB JUMPI PUSH2 0x12CA PUSH2 0xFAD JUMP JUMPDEST JUMPDEST SWAP3 SWAP2 POP POP JUMP INVALID LOG2 PUSH5 0x6970667358 0x22 SLT KECCAK256 0xD9 DUP10 PUSH29 0x24227E1180B5C1A7BE5580AC603206127677B82D7FE650A8076112C514 PUSH5 0x736F6C6343 STOP ADDMOD NOT STOP CALLER "
				},
				"gasEstimates": {
					"creation": {
						"codeDepositCost": "974200",
						"executionCost": "infinite",
						"totalCost": "infinite"
					},
					"external": {
						"auctionEndTime()": "2514",
						"balances(address)": "2847",
						"bids(uint256)": "infinite",
						"commissionRate()": "436",
						"endAuction()": "10329",
						"highestBid()": "2469",
						"highestBidder()": "2575",
						"owner()": "2550",
						"partialRefund()": "infinite",
						"placeBid()": "infinite",
						"refundDeposits()": "infinite",
						"showBids()": "infinite",
						"showWinner()": "4750"
					}
				},
				"methodIdentifiers": {
					"auctionEndTime()": "4b449cba",
					"balances(address)": "27e235e3",
					"bids(uint256)": "4423c5f1",
					"commissionRate()": "5ea1d6f8",
					"endAuction()": "fe67a54b",
					"highestBid()": "d57bde79",
					"highestBidder()": "91f90157",
					"owner()": "8da5cb5b",
					"partialRefund()": "1ce2bcf5",
					"placeBid()": "ecfc7ecc",
					"refundDeposits()": "6773fd77",
					"showBids()": "14d2687c",
					"showWinner()": "b7e03264"
				}
			},
			"storageLayout": {
				"storage": [
					{
						"astId": 3,
						"contract": "contracts/bid.sol:Auction",
						"label": "owner",
						"offset": 0,
						"slot": "0",
						"type": "t_address"
					},
					{
						"astId": 5,
						"contract": "contracts/bid.sol:Auction",
						"label": "highestBidder",
						"offset": 0,
						"slot": "1",
						"type": "t_address"
					},
					{
						"astId": 7,
						"contract": "contracts/bid.sol:Auction",
						"label": "highestBid",
						"offset": 0,
						"slot": "2",
						"type": "t_uint256"
					},
					{
						"astId": 9,
						"contract": "contracts/bid.sol:Auction",
						"label": "auctionEndTime",
						"offset": 0,
						"slot": "3",
						"type": "t_uint256"
					},
					{
						"astId": 21,
						"contract": "contracts/bid.sol:Auction",
						"label": "bids",
						"offset": 0,
						"slot": "4",
						"type": "t_array(t_struct(Bid)17_storage)dyn_storage"
					},
					{
						"astId": 25,
						"contract": "contracts/bid.sol:Auction",
						"label": "balances",
						"offset": 0,
						"slot": "5",
						"type": "t_mapping(t_address,t_uint256)"
					}
				],
				"types": {
					"t_address": {
						"encoding": "inplace",
						"label": "address",
						"numberOfBytes": "20"
					},
					"t_array(t_struct(Bid)17_storage)dyn_storage": {
						"base": "t_struct(Bid)17_storage",
						"encoding": "dynamic_array",
						"label": "struct Auction.Bid[]",
						"numberOfBytes": "32"
					},
					"t_mapping(t_address,t_uint256)": {
						"encoding": "mapping",
						"key": "t_address",
						"label": "mapping(address => uint256)",
						"numberOfBytes": "32",
						"value": "t_uint256"
					},
					"t_struct(Bid)17_storage": {
						"encoding": "inplace",
						"label": "struct Auction.Bid",
						"members": [
							{
								"astId": 14,
								"contract": "contracts/bid.sol:Auction",
								"label": "bidder",
								"offset": 0,
								"slot": "0",
								"type": "t_address"
							},
							{
								"astId": 16,
								"contract": "contracts/bid.sol:Auction",
								"label": "amount",
								"offset": 0,
								"slot": "1",
								"type": "t_uint256"
							}
						],
						"numberOfBytes": "64"
					},
					"t_uint256": {
						"encoding": "inplace",
						"label": "uint256",
						"numberOfBytes": "32"
					}
				}
			},
			"userdoc": {
				"kind": "user",
				"methods": {},
				"version": 1
			}
		}
	}
}