{
	"contracts/000-bid-contract.sol": {
		"Auction": {
			"abi": [
				{
					"inputs": [
						{
							"internalType": "uint256",
							"name": "_endTime",
							"type": "uint256"
						}
					],
					"stateMutability": "nonpayable",
					"type": "constructor"
				},
				{
					"anonymous": false,
					"inputs": [
						{
							"indexed": true,
							"internalType": "address",
							"name": "winner",
							"type": "address"
						},
						{
							"indexed": false,
							"internalType": "uint256",
							"name": "winningBid",
							"type": "uint256"
						}
					],
					"name": "AuctionEnded",
					"type": "event"
				},
				{
					"anonymous": false,
					"inputs": [
						{
							"indexed": true,
							"internalType": "address",
							"name": "bidder",
							"type": "address"
						},
						{
							"indexed": false,
							"internalType": "uint256",
							"name": "amount",
							"type": "uint256"
						},
						{
							"indexed": false,
							"internalType": "uint256",
							"name": "endTime",
							"type": "uint256"
						}
					],
					"name": "NewBid",
					"type": "event"
				},
				{
					"inputs": [],
					"name": "bid",
					"outputs": [],
					"stateMutability": "payable",
					"type": "function"
				},
				{
					"inputs": [
						{
							"internalType": "address",
							"name": "",
							"type": "address"
						}
					],
					"name": "bids",
					"outputs": [
						{
							"internalType": "uint256",
							"name": "",
							"type": "uint256"
						}
					],
					"stateMutability": "view",
					"type": "function"
				},
				{
					"inputs": [],
					"name": "endTime",
					"outputs": [
						{
							"internalType": "uint256",
							"name": "",
							"type": "uint256"
						}
					],
					"stateMutability": "view",
					"type": "function"
				},
				{
					"inputs": [],
					"name": "getBids",
					"outputs": [
						{
							"internalType": "address[]",
							"name": "",
							"type": "address[]"
						},
						{
							"internalType": "uint256[]",
							"name": "",
							"type": "uint256[]"
						}
					],
					"stateMutability": "view",
					"type": "function"
				},
				{
					"inputs": [],
					"name": "getWinner",
					"outputs": [
						{
							"internalType": "address",
							"name": "",
							"type": "address"
						},
						{
							"internalType": "uint256",
							"name": "",
							"type": "uint256"
						}
					],
					"stateMutability": "view",
					"type": "function"
				},
				{
					"inputs": [],
					"name": "highestBid",
					"outputs": [
						{
							"internalType": "uint256",
							"name": "",
							"type": "uint256"
						}
					],
					"stateMutability": "view",
					"type": "function"
				},
				{
					"inputs": [],
					"name": "highestBidder",
					"outputs": [
						{
							"internalType": "address payable",
							"name": "",
							"type": "address"
						}
					],
					"stateMutability": "view",
					"type": "function"
				},
				{
					"inputs": [],
					"name": "minimumIncrease",
					"outputs": [
						{
							"internalType": "uint256",
							"name": "",
							"type": "uint256"
						}
					],
					"stateMutability": "view",
					"type": "function"
				},
				{
					"inputs": [],
					"name": "owner",
					"outputs": [
						{
							"internalType": "address payable",
							"name": "",
							"type": "address"
						}
					],
					"stateMutability": "view",
					"type": "function"
				},
				{
					"inputs": [
						{
							"internalType": "address payable[]",
							"name": "bidders",
							"type": "address[]"
						}
					],
					"name": "withdrawBids",
					"outputs": [],
					"stateMutability": "nonpayable",
					"type": "function"
				},
				{
					"inputs": [],
					"name": "withdrawExcess",
					"outputs": [],
					"stateMutability": "nonpayable",
					"type": "function"
				}
			],
			"devdoc": {
				"kind": "dev",
				"methods": {},
				"version": 1
			},
			"evm": {
				"assembly": "    /* \"contracts/000-bid-contract.sol\":57:2387  contract Auction {... */\n  mstore(0x40, 0x80)\n    /* \"contracts/000-bid-contract.sol\":281:282  5 */\n  0x05\n    /* \"contracts/000-bid-contract.sol\":251:282  uint public minimumIncrease = 5 */\n  dup1\n  sstore\n    /* \"contracts/000-bid-contract.sol\":694:793  constructor(uint _endTime) {... */\n  callvalue\n  dup1\n  iszero\n  tag_1\n  jumpi\n  0x00\n  dup1\n  revert\ntag_1:\n  pop\n  mload(0x40)\n  sub(codesize, bytecodeSize)\n  dup1\n  bytecodeSize\n  dup4\n  codecopy\n  dup2\n  dup2\n  add\n  0x40\n  mstore\n  dup2\n  add\n  swap1\n  tag_2\n  swap2\n  swap1\n  tag_3\n  jump\t// in\ntag_2:\n    /* \"contracts/000-bid-contract.sol\":747:757  msg.sender */\n  caller\n    /* \"contracts/000-bid-contract.sol\":731:736  owner */\n  0x00\n  dup1\n    /* \"contracts/000-bid-contract.sol\":731:758  owner = payable(msg.sender) */\n  0x0100\n  exp\n  dup2\n  sload\n  dup2\n  0xffffffffffffffffffffffffffffffffffffffff\n  mul\n  not\n  and\n  swap1\n  dup4\n  0xffffffffffffffffffffffffffffffffffffffff\n  and\n  mul\n  or\n  swap1\n  sstore\n  pop\n    /* \"contracts/000-bid-contract.sol\":778:786  _endTime */\n  dup1\n    /* \"contracts/000-bid-contract.sol\":768:775  endTime */\n  0x01\n    /* \"contracts/000-bid-contract.sol\":768:786  endTime = _endTime */\n  dup2\n  swap1\n  sstore\n  pop\n    /* \"contracts/000-bid-contract.sol\":694:793  constructor(uint _endTime) {... */\n  pop\n    /* \"contracts/000-bid-contract.sol\":57:2387  contract Auction {... */\n  jump(tag_6)\n    /* \"#utility.yul\":88:205   */\ntag_8:\n    /* \"#utility.yul\":197:198   */\n  0x00\n    /* \"#utility.yul\":194:195   */\n  dup1\n    /* \"#utility.yul\":187:199   */\n  revert\n    /* \"#utility.yul\":334:411   */\ntag_10:\n    /* \"#utility.yul\":371:378   */\n  0x00\n    /* \"#utility.yul\":400:405   */\n  dup2\n    /* \"#utility.yul\":389:405   */\n  swap1\n  pop\n    /* \"#utility.yul\":334:411   */\n  swap2\n  swap1\n  pop\n  jump\t// out\n    /* \"#utility.yul\":417:539   */\ntag_11:\n    /* \"#utility.yul\":490:514   */\n  tag_19\n    /* \"#utility.yul\":508:513   */\n  dup2\n    /* \"#utility.yul\":490:514   */\n  tag_10\n  jump\t// in\ntag_19:\n    /* \"#utility.yul\":483:488   */\n  dup2\n    /* \"#utility.yul\":480:515   */\n  eq\n    /* \"#utility.yul\":470:533   */\n  tag_20\n  jumpi\n    /* \"#utility.yul\":529:530   */\n  0x00\n    /* \"#utility.yul\":526:527   */\n  dup1\n    /* \"#utility.yul\":519:531   */\n  revert\n    /* \"#utility.yul\":470:533   */\ntag_20:\n    /* \"#utility.yul\":417:539   */\n  pop\n  jump\t// out\n    /* \"#utility.yul\":545:688   */\ntag_12:\n    /* \"#utility.yul\":602:607   */\n  0x00\n    /* \"#utility.yul\":633:639   */\n  dup2\n    /* \"#utility.yul\":627:640   */\n  mload\n    /* \"#utility.yul\":618:640   */\n  swap1\n  pop\n    /* \"#utility.yul\":649:682   */\n  tag_22\n    /* \"#utility.yul\":676:681   */\n  dup2\n    /* \"#utility.yul\":649:682   */\n  tag_11\n  jump\t// in\ntag_22:\n    /* \"#utility.yul\":545:688   */\n  swap3\n  swap2\n  pop\n  pop\n  jump\t// out\n    /* \"#utility.yul\":694:1045   */\ntag_3:\n    /* \"#utility.yul\":764:770   */\n  0x00\n    /* \"#utility.yul\":813:815   */\n  0x20\n    /* \"#utility.yul\":801:810   */\n  dup3\n    /* \"#utility.yul\":792:799   */\n  dup5\n    /* \"#utility.yul\":788:811   */\n  sub\n    /* \"#utility.yul\":784:816   */\n  slt\n    /* \"#utility.yul\":781:900   */\n  iszero\n  tag_24\n  jumpi\n    /* \"#utility.yul\":819:898   */\n  tag_25\n  tag_8\n  jump\t// in\ntag_25:\n    /* \"#utility.yul\":781:900   */\ntag_24:\n    /* \"#utility.yul\":939:940   */\n  0x00\n    /* \"#utility.yul\":964:1028   */\n  tag_26\n    /* \"#utility.yul\":1020:1027   */\n  dup5\n    /* \"#utility.yul\":1011:1017   */\n  dup3\n    /* \"#utility.yul\":1000:1009   */\n  dup6\n    /* \"#utility.yul\":996:1018   */\n  add\n    /* \"#utility.yul\":964:1028   */\n  tag_12\n  jump\t// in\ntag_26:\n    /* \"#utility.yul\":954:1028   */\n  swap2\n  pop\n    /* \"#utility.yul\":910:1038   */\n  pop\n    /* \"#utility.yul\":694:1045   */\n  swap3\n  swap2\n  pop\n  pop\n  jump\t// out\n    /* \"contracts/000-bid-contract.sol\":57:2387  contract Auction {... */\ntag_6:\n  dataSize(sub_0)\n  dup1\n  dataOffset(sub_0)\n  0x00\n  codecopy\n  0x00\n  return\nstop\n\nsub_0: assembly {\n        /* \"contracts/000-bid-contract.sol\":57:2387  contract Auction {... */\n      mstore(0x40, 0x80)\n      jumpi(tag_1, lt(calldatasize, 0x04))\n      shr(0xe0, calldataload(0x00))\n      dup1\n      0x91f90157\n      gt\n      tag_13\n      jumpi\n      dup1\n      0x91f90157\n      eq\n      tag_7\n      jumpi\n      dup1\n      0xa6722663\n      eq\n      tag_8\n      jumpi\n      dup1\n      0xb81c78ec\n      eq\n      tag_9\n      jumpi\n      dup1\n      0xc264a063\n      eq\n      tag_10\n      jumpi\n      dup1\n      0xd57bde79\n      eq\n      tag_11\n      jumpi\n      dup1\n      0xe627599c\n      eq\n      tag_12\n      jumpi\n      jump(tag_1)\n    tag_13:\n      dup1\n      0x1998aeef\n      eq\n      tag_2\n      jumpi\n      dup1\n      0x3197cbb6\n      eq\n      tag_3\n      jumpi\n      dup1\n      0x62ea82db\n      eq\n      tag_4\n      jumpi\n      dup1\n      0x8da5cb5b\n      eq\n      tag_5\n      jumpi\n      dup1\n      0x8e7ea5b2\n      eq\n      tag_6\n      jumpi\n    tag_1:\n      0x00\n      dup1\n      revert\n        /* \"contracts/000-bid-contract.sol\":799:1356  function bid() public payable auctionActive {... */\n    tag_2:\n      tag_14\n      tag_15\n      jump\t// in\n    tag_14:\n      stop\n        /* \"contracts/000-bid-contract.sol\":114:133  uint public endTime */\n    tag_3:\n      callvalue\n      dup1\n      iszero\n      tag_16\n      jumpi\n      0x00\n      dup1\n      revert\n    tag_16:\n      pop\n      tag_17\n      tag_18\n      jump\t// in\n    tag_17:\n      mload(0x40)\n      tag_19\n      swap2\n      swap1\n      tag_20\n      jump\t// in\n    tag_19:\n      mload(0x40)\n      dup1\n      swap2\n      sub\n      swap1\n      return\n        /* \"contracts/000-bid-contract.sol\":209:245  mapping(address => uint) public bids */\n    tag_4:\n      callvalue\n      dup1\n      iszero\n      tag_21\n      jumpi\n      0x00\n      dup1\n      revert\n    tag_21:\n      pop\n      tag_22\n      0x04\n      dup1\n      calldatasize\n      sub\n      dup2\n      add\n      swap1\n      tag_23\n      swap2\n      swap1\n      tag_24\n      jump\t// in\n    tag_23:\n      tag_25\n      jump\t// in\n    tag_22:\n      mload(0x40)\n      tag_26\n      swap2\n      swap1\n      tag_20\n      jump\t// in\n    tag_26:\n      mload(0x40)\n      dup1\n      swap2\n      sub\n      swap1\n      return\n        /* \"contracts/000-bid-contract.sol\":80:108  address payable public owner */\n    tag_5:\n      callvalue\n      dup1\n      iszero\n      tag_27\n      jumpi\n      0x00\n      dup1\n      revert\n    tag_27:\n      pop\n      tag_28\n      tag_29\n      jump\t// in\n    tag_28:\n      mload(0x40)\n      tag_30\n      swap2\n      swap1\n      tag_31\n      jump\t// in\n    tag_30:\n      mload(0x40)\n      dup1\n      swap2\n      sub\n      swap1\n      return\n        /* \"contracts/000-bid-contract.sol\":1362:1470  function getWinner() public view returns (address, uint) {... */\n    tag_6:\n      callvalue\n      dup1\n      iszero\n      tag_32\n      jumpi\n      0x00\n      dup1\n      revert\n    tag_32:\n      pop\n      tag_33\n      tag_34\n      jump\t// in\n    tag_33:\n      mload(0x40)\n      tag_35\n      swap3\n      swap2\n      swap1\n      tag_36\n      jump\t// in\n    tag_35:\n      mload(0x40)\n      dup1\n      swap2\n      sub\n      swap1\n      return\n        /* \"contracts/000-bid-contract.sol\":139:175  address payable public highestBidder */\n    tag_7:\n      callvalue\n      dup1\n      iszero\n      tag_37\n      jumpi\n      0x00\n      dup1\n      revert\n    tag_37:\n      pop\n      tag_38\n      tag_39\n      jump\t// in\n    tag_38:\n      mload(0x40)\n      tag_40\n      swap2\n      swap1\n      tag_31\n      jump\t// in\n    tag_40:\n      mload(0x40)\n      dup1\n      swap2\n      sub\n      swap1\n      return\n        /* \"contracts/000-bid-contract.sol\":1949:2385  function withdrawBids(address payable[] memory bidders) public onlyOwner {... */\n    tag_8:\n      callvalue\n      dup1\n      iszero\n      tag_41\n      jumpi\n      0x00\n      dup1\n      revert\n    tag_41:\n      pop\n      tag_42\n      0x04\n      dup1\n      calldatasize\n      sub\n      dup2\n      add\n      swap1\n      tag_43\n      swap2\n      swap1\n      tag_44\n      jump\t// in\n    tag_43:\n      tag_45\n      jump\t// in\n    tag_42:\n      stop\n        /* \"contracts/000-bid-contract.sol\":1476:1664  function getBids() public view returns (address[] memory, uint[] memory) {... */\n    tag_9:\n      callvalue\n      dup1\n      iszero\n      tag_46\n      jumpi\n      0x00\n      dup1\n      revert\n    tag_46:\n      pop\n      tag_47\n      tag_48\n      jump\t// in\n    tag_47:\n      mload(0x40)\n      tag_49\n      swap3\n      swap2\n      swap1\n      tag_50\n      jump\t// in\n    tag_49:\n      mload(0x40)\n      dup1\n      swap2\n      sub\n      swap1\n      return\n        /* \"contracts/000-bid-contract.sol\":1670:1943  function withdrawExcess() public auctionActive {... */\n    tag_10:\n      callvalue\n      dup1\n      iszero\n      tag_51\n      jumpi\n      0x00\n      dup1\n      revert\n    tag_51:\n      pop\n      tag_52\n      tag_53\n      jump\t// in\n    tag_52:\n      stop\n        /* \"contracts/000-bid-contract.sol\":181:203  uint public highestBid */\n    tag_11:\n      callvalue\n      dup1\n      iszero\n      tag_54\n      jumpi\n      0x00\n      dup1\n      revert\n    tag_54:\n      pop\n      tag_55\n      tag_56\n      jump\t// in\n    tag_55:\n      mload(0x40)\n      tag_57\n      swap2\n      swap1\n      tag_20\n      jump\t// in\n    tag_57:\n      mload(0x40)\n      dup1\n      swap2\n      sub\n      swap1\n      return\n        /* \"contracts/000-bid-contract.sol\":251:282  uint public minimumIncrease = 5 */\n    tag_12:\n      callvalue\n      dup1\n      iszero\n      tag_58\n      jumpi\n      0x00\n      dup1\n      revert\n    tag_58:\n      pop\n      tag_59\n      tag_60\n      jump\t// in\n    tag_59:\n      mload(0x40)\n      tag_61\n      swap2\n      swap1\n      tag_20\n      jump\t// in\n    tag_61:\n      mload(0x40)\n      dup1\n      swap2\n      sub\n      swap1\n      return\n        /* \"contracts/000-bid-contract.sol\":799:1356  function bid() public payable auctionActive {... */\n    tag_15:\n        /* \"contracts/000-bid-contract.sol\":641:648  endTime */\n      sload(0x01)\n        /* \"contracts/000-bid-contract.sol\":623:638  block.timestamp */\n      timestamp\n        /* \"contracts/000-bid-contract.sol\":623:648  block.timestamp < endTime */\n      lt\n        /* \"contracts/000-bid-contract.sol\":615:670  require(block.timestamp < endTime, \"Auction has ended\") */\n      tag_63\n      jumpi\n      mload(0x40)\n      0x08c379a000000000000000000000000000000000000000000000000000000000\n      dup2\n      mstore\n      0x04\n      add\n      tag_64\n      swap1\n      tag_65\n      jump\t// in\n    tag_64:\n      mload(0x40)\n      dup1\n      swap2\n      sub\n      swap1\n      revert\n    tag_63:\n        /* \"contracts/000-bid-contract.sol\":912:915  100 */\n      0x64\n        /* \"contracts/000-bid-contract.sol\":893:908  minimumIncrease */\n      sload(0x05)\n        /* \"contracts/000-bid-contract.sol\":887:890  100 */\n      0x64\n        /* \"contracts/000-bid-contract.sol\":887:908  100 + minimumIncrease */\n      tag_67\n      swap2\n      swap1\n      tag_68\n      jump\t// in\n    tag_67:\n        /* \"contracts/000-bid-contract.sol\":873:883  highestBid */\n      sload(0x03)\n        /* \"contracts/000-bid-contract.sol\":873:909  highestBid * (100 + minimumIncrease) */\n      tag_69\n      swap2\n      swap1\n      tag_70\n      jump\t// in\n    tag_69:\n        /* \"contracts/000-bid-contract.sol\":873:915  highestBid * (100 + minimumIncrease) / 100 */\n      tag_71\n      swap2\n      swap1\n      tag_72\n      jump\t// in\n    tag_71:\n        /* \"contracts/000-bid-contract.sol\":861:870  msg.value */\n      callvalue\n        /* \"contracts/000-bid-contract.sol\":861:915  msg.value > highestBid * (100 + minimumIncrease) / 100 */\n      gt\n        /* \"contracts/000-bid-contract.sol\":853:931  require(msg.value > highestBid * (100 + minimumIncrease) / 100, \"Bid too low\") */\n      tag_73\n      jumpi\n      mload(0x40)\n      0x08c379a000000000000000000000000000000000000000000000000000000000\n      dup2\n      mstore\n      0x04\n      add\n      tag_74\n      swap1\n      tag_75\n      jump\t// in\n    tag_74:\n      mload(0x40)\n      dup1\n      swap2\n      sub\n      swap1\n      revert\n    tag_73:\n        /* \"contracts/000-bid-contract.sol\":1015:1016  0 */\n      0x00\n        /* \"contracts/000-bid-contract.sol\":996:1000  bids */\n      0x04\n        /* \"contracts/000-bid-contract.sol\":996:1012  bids[msg.sender] */\n      0x00\n        /* \"contracts/000-bid-contract.sol\":1001:1011  msg.sender */\n      caller\n        /* \"contracts/000-bid-contract.sol\":996:1012  bids[msg.sender] */\n      0xffffffffffffffffffffffffffffffffffffffff\n      and\n      0xffffffffffffffffffffffffffffffffffffffff\n      and\n      dup2\n      mstore\n      0x20\n      add\n      swap1\n      dup2\n      mstore\n      0x20\n      add\n      0x00\n      keccak256\n      sload\n        /* \"contracts/000-bid-contract.sol\":996:1016  bids[msg.sender] > 0 */\n      gt\n        /* \"contracts/000-bid-contract.sol\":992:1089  if (bids[msg.sender] > 0) {... */\n      iszero\n      tag_76\n      jumpi\n        /* \"contracts/000-bid-contract.sol\":1040:1050  msg.sender */\n      caller\n        /* \"contracts/000-bid-contract.sol\":1032:1060  payable(msg.sender).transfer */\n      0xffffffffffffffffffffffffffffffffffffffff\n      and\n        /* \"contracts/000-bid-contract.sol\":1032:1078  payable(msg.sender).transfer(bids[msg.sender]) */\n      0x08fc\n        /* \"contracts/000-bid-contract.sol\":1061:1065  bids */\n      0x04\n        /* \"contracts/000-bid-contract.sol\":1061:1077  bids[msg.sender] */\n      0x00\n        /* \"contracts/000-bid-contract.sol\":1066:1076  msg.sender */\n      caller\n        /* \"contracts/000-bid-contract.sol\":1061:1077  bids[msg.sender] */\n      0xffffffffffffffffffffffffffffffffffffffff\n      and\n      0xffffffffffffffffffffffffffffffffffffffff\n      and\n      dup2\n      mstore\n      0x20\n      add\n      swap1\n      dup2\n      mstore\n      0x20\n      add\n      0x00\n      keccak256\n      sload\n        /* \"contracts/000-bid-contract.sol\":1032:1078  payable(msg.sender).transfer(bids[msg.sender]) */\n      swap1\n      dup2\n      iszero\n      mul\n      swap1\n      mload(0x40)\n      0x00\n      mload(0x40)\n      dup1\n      dup4\n      sub\n      dup2\n      dup6\n      dup9\n      dup9\n      call\n      swap4\n      pop\n      pop\n      pop\n      pop\n      iszero\n      dup1\n      iszero\n      tag_78\n      jumpi\n      returndatasize\n      0x00\n      dup1\n      returndatacopy\n      revert(0x00, returndatasize)\n    tag_78:\n      pop\n        /* \"contracts/000-bid-contract.sol\":992:1089  if (bids[msg.sender] > 0) {... */\n    tag_76:\n        /* \"contracts/000-bid-contract.sol\":1122:1132  msg.sender */\n      caller\n        /* \"contracts/000-bid-contract.sol\":1098:1111  highestBidder */\n      0x02\n      0x00\n        /* \"contracts/000-bid-contract.sol\":1098:1133  highestBidder = payable(msg.sender) */\n      0x0100\n      exp\n      dup2\n      sload\n      dup2\n      0xffffffffffffffffffffffffffffffffffffffff\n      mul\n      not\n      and\n      swap1\n      dup4\n      0xffffffffffffffffffffffffffffffffffffffff\n      and\n      mul\n      or\n      swap1\n      sstore\n      pop\n        /* \"contracts/000-bid-contract.sol\":1156:1165  msg.value */\n      callvalue\n        /* \"contracts/000-bid-contract.sol\":1143:1153  highestBid */\n      0x03\n        /* \"contracts/000-bid-contract.sol\":1143:1165  highestBid = msg.value */\n      dup2\n      swap1\n      sstore\n      pop\n        /* \"contracts/000-bid-contract.sol\":1194:1203  msg.value */\n      callvalue\n        /* \"contracts/000-bid-contract.sol\":1175:1179  bids */\n      0x04\n        /* \"contracts/000-bid-contract.sol\":1175:1191  bids[msg.sender] */\n      0x00\n        /* \"contracts/000-bid-contract.sol\":1180:1190  msg.sender */\n      caller\n        /* \"contracts/000-bid-contract.sol\":1175:1191  bids[msg.sender] */\n      0xffffffffffffffffffffffffffffffffffffffff\n      and\n      0xffffffffffffffffffffffffffffffffffffffff\n      and\n      dup2\n      mstore\n      0x20\n      add\n      swap1\n      dup2\n      mstore\n      0x20\n      add\n      0x00\n      keccak256\n        /* \"contracts/000-bid-contract.sol\":1175:1203  bids[msg.sender] = msg.value */\n      dup2\n      swap1\n      sstore\n      pop\n        /* \"contracts/000-bid-contract.sol\":1241:1244  600 */\n      0x0258\n        /* \"contracts/000-bid-contract.sol\":1223:1238  block.timestamp */\n      timestamp\n        /* \"contracts/000-bid-contract.sol\":1223:1244  block.timestamp + 600 */\n      tag_79\n      swap2\n      swap1\n      tag_68\n      jump\t// in\n    tag_79:\n        /* \"contracts/000-bid-contract.sol\":1213:1220  endTime */\n      0x01\n        /* \"contracts/000-bid-contract.sol\":1213:1244  endTime = block.timestamp + 600 */\n      dup2\n      swap1\n      sstore\n      pop\n        /* \"contracts/000-bid-contract.sol\":1318:1328  msg.sender */\n      caller\n        /* \"contracts/000-bid-contract.sol\":1311:1349  NewBid(msg.sender, msg.value, endTime) */\n      0xffffffffffffffffffffffffffffffffffffffff\n      and\n      0x87f5b2fe112bf269d30fb8ca9dc0bde0afd0cc39258e13fafd75fe794795bf0e\n        /* \"contracts/000-bid-contract.sol\":1330:1339  msg.value */\n      callvalue\n        /* \"contracts/000-bid-contract.sol\":1341:1348  endTime */\n      sload(0x01)\n        /* \"contracts/000-bid-contract.sol\":1311:1349  NewBid(msg.sender, msg.value, endTime) */\n      mload(0x40)\n      tag_80\n      swap3\n      swap2\n      swap1\n      tag_81\n      jump\t// in\n    tag_80:\n      mload(0x40)\n      dup1\n      swap2\n      sub\n      swap1\n      log2\n        /* \"contracts/000-bid-contract.sol\":799:1356  function bid() public payable auctionActive {... */\n      jump\t// out\n        /* \"contracts/000-bid-contract.sol\":114:133  uint public endTime */\n    tag_18:\n      sload(0x01)\n      dup2\n      jump\t// out\n        /* \"contracts/000-bid-contract.sol\":209:245  mapping(address => uint) public bids */\n    tag_25:\n      mstore(0x20, 0x04)\n      dup1\n      0x00\n      mstore\n      keccak256(0x00, 0x40)\n      0x00\n      swap2\n      pop\n      swap1\n      pop\n      sload\n      dup2\n      jump\t// out\n        /* \"contracts/000-bid-contract.sol\":80:108  address payable public owner */\n    tag_29:\n      0x00\n      dup1\n      sload\n      swap1\n      0x0100\n      exp\n      swap1\n      div\n      0xffffffffffffffffffffffffffffffffffffffff\n      and\n      dup2\n      jump\t// out\n        /* \"contracts/000-bid-contract.sol\":1362:1470  function getWinner() public view returns (address, uint) {... */\n    tag_34:\n        /* \"contracts/000-bid-contract.sol\":1404:1411  address */\n      0x00\n        /* \"contracts/000-bid-contract.sol\":1413:1417  uint */\n      dup1\n        /* \"contracts/000-bid-contract.sol\":1437:1450  highestBidder */\n      0x02\n      0x00\n      swap1\n      sload\n      swap1\n      0x0100\n      exp\n      swap1\n      div\n      0xffffffffffffffffffffffffffffffffffffffff\n      and\n        /* \"contracts/000-bid-contract.sol\":1452:1462  highestBid */\n      sload(0x03)\n        /* \"contracts/000-bid-contract.sol\":1429:1463  return (highestBidder, highestBid) */\n      swap2\n      pop\n      swap2\n      pop\n        /* \"contracts/000-bid-contract.sol\":1362:1470  function getWinner() public view returns (address, uint) {... */\n      swap1\n      swap2\n      jump\t// out\n        /* \"contracts/000-bid-contract.sol\":139:175  address payable public highestBidder */\n    tag_39:\n      0x02\n      0x00\n      swap1\n      sload\n      swap1\n      0x0100\n      exp\n      swap1\n      div\n      0xffffffffffffffffffffffffffffffffffffffff\n      and\n      dup2\n      jump\t// out\n        /* \"contracts/000-bid-contract.sol\":1949:2385  function withdrawBids(address payable[] memory bidders) public onlyOwner {... */\n    tag_45:\n        /* \"contracts/000-bid-contract.sol\":513:518  owner */\n      0x00\n      dup1\n      sload\n      swap1\n      0x0100\n      exp\n      swap1\n      div\n      0xffffffffffffffffffffffffffffffffffffffff\n      and\n        /* \"contracts/000-bid-contract.sol\":499:518  msg.sender == owner */\n      0xffffffffffffffffffffffffffffffffffffffff\n      and\n        /* \"contracts/000-bid-contract.sol\":499:509  msg.sender */\n      caller\n        /* \"contracts/000-bid-contract.sol\":499:518  msg.sender == owner */\n      0xffffffffffffffffffffffffffffffffffffffff\n      and\n      eq\n        /* \"contracts/000-bid-contract.sol\":491:556  require(msg.sender == owner, \"Only owner can call this function\") */\n      tag_84\n      jumpi\n      mload(0x40)\n      0x08c379a000000000000000000000000000000000000000000000000000000000\n      dup2\n      mstore\n      0x04\n      add\n      tag_85\n      swap1\n      tag_86\n      jump\t// in\n    tag_85:\n      mload(0x40)\n      dup1\n      swap2\n      sub\n      swap1\n      revert\n    tag_84:\n        /* \"contracts/000-bid-contract.sol\":2059:2066  endTime */\n      sload(0x01)\n        /* \"contracts/000-bid-contract.sol\":2040:2055  block.timestamp */\n      timestamp\n        /* \"contracts/000-bid-contract.sol\":2040:2066  block.timestamp >= endTime */\n      lt\n      iszero\n        /* \"contracts/000-bid-contract.sol\":2032:2092  require(block.timestamp >= endTime, \"Auction has not ended\") */\n      tag_88\n      jumpi\n      mload(0x40)\n      0x08c379a000000000000000000000000000000000000000000000000000000000\n      dup2\n      mstore\n      0x04\n      add\n      tag_89\n      swap1\n      tag_90\n      jump\t// in\n    tag_89:\n      mload(0x40)\n      dup1\n      swap2\n      sub\n      swap1\n      revert\n    tag_88:\n        /* \"contracts/000-bid-contract.sol\":2107:2113  uint i */\n      0x00\n        /* \"contracts/000-bid-contract.sol\":2102:2379  for (uint i = 0; i < bidders.length; i++) {... */\n    tag_91:\n        /* \"contracts/000-bid-contract.sol\":2123:2130  bidders */\n      dup2\n        /* \"contracts/000-bid-contract.sol\":2123:2137  bidders.length */\n      mload\n        /* \"contracts/000-bid-contract.sol\":2119:2120  i */\n      dup2\n        /* \"contracts/000-bid-contract.sol\":2119:2137  i < bidders.length */\n      lt\n        /* \"contracts/000-bid-contract.sol\":2102:2379  for (uint i = 0; i < bidders.length; i++) {... */\n      iszero\n      tag_92\n      jumpi\n        /* \"contracts/000-bid-contract.sol\":2158:2169  uint amount */\n      0x00\n        /* \"contracts/000-bid-contract.sol\":2172:2176  bids */\n      0x04\n        /* \"contracts/000-bid-contract.sol\":2172:2188  bids[bidders[i]] */\n      0x00\n        /* \"contracts/000-bid-contract.sol\":2177:2184  bidders */\n      dup5\n        /* \"contracts/000-bid-contract.sol\":2185:2186  i */\n      dup5\n        /* \"contracts/000-bid-contract.sol\":2177:2187  bidders[i] */\n      dup2\n      mload\n      dup2\n      lt\n      tag_94\n      jumpi\n      tag_95\n      tag_96\n      jump\t// in\n    tag_95:\n    tag_94:\n      0x20\n      mul\n      0x20\n      add\n      add\n      mload\n        /* \"contracts/000-bid-contract.sol\":2172:2188  bids[bidders[i]] */\n      0xffffffffffffffffffffffffffffffffffffffff\n      and\n      0xffffffffffffffffffffffffffffffffffffffff\n      and\n      dup2\n      mstore\n      0x20\n      add\n      swap1\n      dup2\n      mstore\n      0x20\n      add\n      0x00\n      keccak256\n      sload\n        /* \"contracts/000-bid-contract.sol\":2158:2188  uint amount = bids[bidders[i]] */\n      swap1\n      pop\n        /* \"contracts/000-bid-contract.sol\":2248:2256  uint fee */\n      0x00\n        /* \"contracts/000-bid-contract.sol\":2272:2275  100 */\n      0x64\n        /* \"contracts/000-bid-contract.sol\":2268:2269  2 */\n      0x02\n        /* \"contracts/000-bid-contract.sol\":2259:2265  amount */\n      dup4\n        /* \"contracts/000-bid-contract.sol\":2259:2269  amount * 2 */\n      tag_97\n      swap2\n      swap1\n      tag_70\n      jump\t// in\n    tag_97:\n        /* \"contracts/000-bid-contract.sol\":2259:2275  amount * 2 / 100 */\n      tag_98\n      swap2\n      swap1\n      tag_72\n      jump\t// in\n    tag_98:\n        /* \"contracts/000-bid-contract.sol\":2248:2275  uint fee = amount * 2 / 100 */\n      swap1\n      pop\n        /* \"contracts/000-bid-contract.sol\":2297:2304  bidders */\n      dup4\n        /* \"contracts/000-bid-contract.sol\":2305:2306  i */\n      dup4\n        /* \"contracts/000-bid-contract.sol\":2297:2307  bidders[i] */\n      dup2\n      mload\n      dup2\n      lt\n      tag_99\n      jumpi\n      tag_100\n      tag_96\n      jump\t// in\n    tag_100:\n    tag_99:\n      0x20\n      mul\n      0x20\n      add\n      add\n      mload\n        /* \"contracts/000-bid-contract.sol\":2289:2317  payable(bidders[i]).transfer */\n      0xffffffffffffffffffffffffffffffffffffffff\n      and\n        /* \"contracts/000-bid-contract.sol\":2289:2331  payable(bidders[i]).transfer(amount - fee) */\n      0x08fc\n        /* \"contracts/000-bid-contract.sol\":2327:2330  fee */\n      dup3\n        /* \"contracts/000-bid-contract.sol\":2318:2324  amount */\n      dup5\n        /* \"contracts/000-bid-contract.sol\":2318:2330  amount - fee */\n      tag_101\n      swap2\n      swap1\n      tag_102\n      jump\t// in\n    tag_101:\n        /* \"contracts/000-bid-contract.sol\":2289:2331  payable(bidders[i]).transfer(amount - fee) */\n      swap1\n      dup2\n      iszero\n      mul\n      swap1\n      mload(0x40)\n      0x00\n      mload(0x40)\n      dup1\n      dup4\n      sub\n      dup2\n      dup6\n      dup9\n      dup9\n      call\n      swap4\n      pop\n      pop\n      pop\n      pop\n      iszero\n      dup1\n      iszero\n      tag_104\n      jumpi\n      returndatasize\n      0x00\n      dup1\n      returndatacopy\n      revert(0x00, returndatasize)\n    tag_104:\n      pop\n        /* \"contracts/000-bid-contract.sol\":2352:2356  bids */\n      0x04\n        /* \"contracts/000-bid-contract.sol\":2352:2368  bids[bidders[i]] */\n      0x00\n        /* \"contracts/000-bid-contract.sol\":2357:2364  bidders */\n      dup6\n        /* \"contracts/000-bid-contract.sol\":2365:2366  i */\n      dup6\n        /* \"contracts/000-bid-contract.sol\":2357:2367  bidders[i] */\n      dup2\n      mload\n      dup2\n      lt\n      tag_105\n      jumpi\n      tag_106\n      tag_96\n      jump\t// in\n    tag_106:\n    tag_105:\n      0x20\n      mul\n      0x20\n      add\n      add\n      mload\n        /* \"contracts/000-bid-contract.sol\":2352:2368  bids[bidders[i]] */\n      0xffffffffffffffffffffffffffffffffffffffff\n      and\n      0xffffffffffffffffffffffffffffffffffffffff\n      and\n      dup2\n      mstore\n      0x20\n      add\n      swap1\n      dup2\n      mstore\n      0x20\n      add\n      0x00\n      keccak256\n        /* \"contracts/000-bid-contract.sol\":2345:2368  delete bids[bidders[i]] */\n      0x00\n      swap1\n      sstore\n        /* \"contracts/000-bid-contract.sol\":2144:2379  {... */\n      pop\n      pop\n        /* \"contracts/000-bid-contract.sol\":2139:2142  i++ */\n      dup1\n      dup1\n      0x01\n      add\n      swap2\n      pop\n      pop\n        /* \"contracts/000-bid-contract.sol\":2102:2379  for (uint i = 0; i < bidders.length; i++) {... */\n      jump(tag_91)\n    tag_92:\n      pop\n        /* \"contracts/000-bid-contract.sol\":1949:2385  function withdrawBids(address payable[] memory bidders) public onlyOwner {... */\n      pop\n      jump\t// out\n        /* \"contracts/000-bid-contract.sol\":1476:1664  function getBids() public view returns (address[] memory, uint[] memory) {... */\n    tag_48:\n        /* \"contracts/000-bid-contract.sol\":1516:1532  address[] memory */\n      0x60\n        /* \"contracts/000-bid-contract.sol\":1534:1547  uint[] memory */\n      dup1\n        /* \"contracts/000-bid-contract.sol\":1476:1664  function getBids() public view returns (address[] memory, uint[] memory) {... */\n      swap2\n      jump\t// out\n        /* \"contracts/000-bid-contract.sol\":1670:1943  function withdrawExcess() public auctionActive {... */\n    tag_53:\n        /* \"contracts/000-bid-contract.sol\":641:648  endTime */\n      sload(0x01)\n        /* \"contracts/000-bid-contract.sol\":623:638  block.timestamp */\n      timestamp\n        /* \"contracts/000-bid-contract.sol\":623:648  block.timestamp < endTime */\n      lt\n        /* \"contracts/000-bid-contract.sol\":615:670  require(block.timestamp < endTime, \"Auction has ended\") */\n      tag_109\n      jumpi\n      mload(0x40)\n      0x08c379a000000000000000000000000000000000000000000000000000000000\n      dup2\n      mstore\n      0x04\n      add\n      tag_110\n      swap1\n      tag_65\n      jump\t// in\n    tag_110:\n      mload(0x40)\n      dup1\n      swap2\n      sub\n      swap1\n      revert\n    tag_109:\n        /* \"contracts/000-bid-contract.sol\":1727:1738  uint excess */\n      0x00\n        /* \"contracts/000-bid-contract.sol\":1760:1770  highestBid */\n      sload(0x03)\n        /* \"contracts/000-bid-contract.sol\":1741:1745  bids */\n      0x04\n        /* \"contracts/000-bid-contract.sol\":1741:1757  bids[msg.sender] */\n      0x00\n        /* \"contracts/000-bid-contract.sol\":1746:1756  msg.sender */\n      caller\n        /* \"contracts/000-bid-contract.sol\":1741:1757  bids[msg.sender] */\n      0xffffffffffffffffffffffffffffffffffffffff\n      and\n      0xffffffffffffffffffffffffffffffffffffffff\n      and\n      dup2\n      mstore\n      0x20\n      add\n      swap1\n      dup2\n      mstore\n      0x20\n      add\n      0x00\n      keccak256\n      sload\n        /* \"contracts/000-bid-contract.sol\":1741:1770  bids[msg.sender] - highestBid */\n      tag_112\n      swap2\n      swap1\n      tag_102\n      jump\t// in\n    tag_112:\n        /* \"contracts/000-bid-contract.sol\":1727:1770  uint excess = bids[msg.sender] - highestBid */\n      swap1\n      pop\n        /* \"contracts/000-bid-contract.sol\":1793:1794  0 */\n      0x00\n        /* \"contracts/000-bid-contract.sol\":1784:1790  excess */\n      dup2\n        /* \"contracts/000-bid-contract.sol\":1784:1794  excess > 0 */\n      gt\n        /* \"contracts/000-bid-contract.sol\":1780:1937  if (excess > 0) {... */\n      iszero\n      tag_113\n      jumpi\n        /* \"contracts/000-bid-contract.sol\":1818:1828  msg.sender */\n      caller\n        /* \"contracts/000-bid-contract.sol\":1810:1838  payable(msg.sender).transfer */\n      0xffffffffffffffffffffffffffffffffffffffff\n      and\n        /* \"contracts/000-bid-contract.sol\":1810:1846  payable(msg.sender).transfer(excess) */\n      0x08fc\n        /* \"contracts/000-bid-contract.sol\":1839:1845  excess */\n      dup3\n        /* \"contracts/000-bid-contract.sol\":1810:1846  payable(msg.sender).transfer(excess) */\n      swap1\n      dup2\n      iszero\n      mul\n      swap1\n      mload(0x40)\n      0x00\n      mload(0x40)\n      dup1\n      dup4\n      sub\n      dup2\n      dup6\n      dup9\n      dup9\n      call\n      swap4\n      pop\n      pop\n      pop\n      pop\n      iszero\n      dup1\n      iszero\n      tag_115\n      jumpi\n      returndatasize\n      0x00\n      dup1\n      returndatacopy\n      revert(0x00, returndatasize)\n    tag_115:\n      pop\n        /* \"contracts/000-bid-contract.sol\":1879:1889  highestBid */\n      sload(0x03)\n        /* \"contracts/000-bid-contract.sol\":1860:1864  bids */\n      0x04\n        /* \"contracts/000-bid-contract.sol\":1860:1876  bids[msg.sender] */\n      0x00\n        /* \"contracts/000-bid-contract.sol\":1865:1875  msg.sender */\n      caller\n        /* \"contracts/000-bid-contract.sol\":1860:1876  bids[msg.sender] */\n      0xffffffffffffffffffffffffffffffffffffffff\n      and\n      0xffffffffffffffffffffffffffffffffffffffff\n      and\n      dup2\n      mstore\n      0x20\n      add\n      swap1\n      dup2\n      mstore\n      0x20\n      add\n      0x00\n      keccak256\n        /* \"contracts/000-bid-contract.sol\":1860:1889  bids[msg.sender] = highestBid */\n      dup2\n      swap1\n      sstore\n      pop\n        /* \"contracts/000-bid-contract.sol\":1780:1937  if (excess > 0) {... */\n    tag_113:\n        /* \"contracts/000-bid-contract.sol\":1717:1943  {... */\n      pop\n        /* \"contracts/000-bid-contract.sol\":1670:1943  function withdrawExcess() public auctionActive {... */\n      jump\t// out\n        /* \"contracts/000-bid-contract.sol\":181:203  uint public highestBid */\n    tag_56:\n      sload(0x03)\n      dup2\n      jump\t// out\n        /* \"contracts/000-bid-contract.sol\":251:282  uint public minimumIncrease = 5 */\n    tag_60:\n      sload(0x05)\n      dup2\n      jump\t// out\n        /* \"#utility.yul\":7:84   */\n    tag_116:\n        /* \"#utility.yul\":44:51   */\n      0x00\n        /* \"#utility.yul\":73:78   */\n      dup2\n        /* \"#utility.yul\":62:78   */\n      swap1\n      pop\n        /* \"#utility.yul\":7:84   */\n      swap2\n      swap1\n      pop\n      jump\t// out\n        /* \"#utility.yul\":90:208   */\n    tag_117:\n        /* \"#utility.yul\":177:201   */\n      tag_167\n        /* \"#utility.yul\":195:200   */\n      dup2\n        /* \"#utility.yul\":177:201   */\n      tag_116\n      jump\t// in\n    tag_167:\n        /* \"#utility.yul\":172:175   */\n      dup3\n        /* \"#utility.yul\":165:202   */\n      mstore\n        /* \"#utility.yul\":90:208   */\n      pop\n      pop\n      jump\t// out\n        /* \"#utility.yul\":214:436   */\n    tag_20:\n        /* \"#utility.yul\":307:311   */\n      0x00\n        /* \"#utility.yul\":345:347   */\n      0x20\n        /* \"#utility.yul\":334:343   */\n      dup3\n        /* \"#utility.yul\":330:348   */\n      add\n        /* \"#utility.yul\":322:348   */\n      swap1\n      pop\n        /* \"#utility.yul\":358:429   */\n      tag_169\n        /* \"#utility.yul\":426:427   */\n      0x00\n        /* \"#utility.yul\":415:424   */\n      dup4\n        /* \"#utility.yul\":411:428   */\n      add\n        /* \"#utility.yul\":402:408   */\n      dup5\n        /* \"#utility.yul\":358:429   */\n      tag_117\n      jump\t// in\n    tag_169:\n        /* \"#utility.yul\":214:436   */\n      swap3\n      swap2\n      pop\n      pop\n      jump\t// out\n        /* \"#utility.yul\":442:517   */\n    tag_118:\n        /* \"#utility.yul\":475:481   */\n      0x00\n        /* \"#utility.yul\":508:510   */\n      0x40\n        /* \"#utility.yul\":502:511   */\n      mload\n        /* \"#utility.yul\":492:511   */\n      swap1\n      pop\n        /* \"#utility.yul\":442:517   */\n      swap1\n      jump\t// out\n        /* \"#utility.yul\":523:640   */\n    tag_119:\n        /* \"#utility.yul\":632:633   */\n      0x00\n        /* \"#utility.yul\":629:630   */\n      dup1\n        /* \"#utility.yul\":622:634   */\n      revert\n        /* \"#utility.yul\":646:763   */\n    tag_120:\n        /* \"#utility.yul\":755:756   */\n      0x00\n        /* \"#utility.yul\":752:753   */\n      dup1\n        /* \"#utility.yul\":745:757   */\n      revert\n        /* \"#utility.yul\":769:895   */\n    tag_121:\n        /* \"#utility.yul\":806:813   */\n      0x00\n        /* \"#utility.yul\":846:888   */\n      0xffffffffffffffffffffffffffffffffffffffff\n        /* \"#utility.yul\":839:844   */\n      dup3\n        /* \"#utility.yul\":835:889   */\n      and\n        /* \"#utility.yul\":824:889   */\n      swap1\n      pop\n        /* \"#utility.yul\":769:895   */\n      swap2\n      swap1\n      pop\n      jump\t// out\n        /* \"#utility.yul\":901:997   */\n    tag_122:\n        /* \"#utility.yul\":938:945   */\n      0x00\n        /* \"#utility.yul\":967:991   */\n      tag_175\n        /* \"#utility.yul\":985:990   */\n      dup3\n        /* \"#utility.yul\":967:991   */\n      tag_121\n      jump\t// in\n    tag_175:\n        /* \"#utility.yul\":956:991   */\n      swap1\n      pop\n        /* \"#utility.yul\":901:997   */\n      swap2\n      swap1\n      pop\n      jump\t// out\n        /* \"#utility.yul\":1003:1125   */\n    tag_123:\n        /* \"#utility.yul\":1076:1100   */\n      tag_177\n        /* \"#utility.yul\":1094:1099   */\n      dup2\n        /* \"#utility.yul\":1076:1100   */\n      tag_122\n      jump\t// in\n    tag_177:\n        /* \"#utility.yul\":1069:1074   */\n      dup2\n        /* \"#utility.yul\":1066:1101   */\n      eq\n        /* \"#utility.yul\":1056:1119   */\n      tag_178\n      jumpi\n        /* \"#utility.yul\":1115:1116   */\n      0x00\n        /* \"#utility.yul\":1112:1113   */\n      dup1\n        /* \"#utility.yul\":1105:1117   */\n      revert\n        /* \"#utility.yul\":1056:1119   */\n    tag_178:\n        /* \"#utility.yul\":1003:1125   */\n      pop\n      jump\t// out\n        /* \"#utility.yul\":1131:1270   */\n    tag_124:\n        /* \"#utility.yul\":1177:1182   */\n      0x00\n        /* \"#utility.yul\":1215:1221   */\n      dup2\n        /* \"#utility.yul\":1202:1222   */\n      calldataload\n        /* \"#utility.yul\":1193:1222   */\n      swap1\n      pop\n        /* \"#utility.yul\":1231:1264   */\n      tag_180\n        /* \"#utility.yul\":1258:1263   */\n      dup2\n        /* \"#utility.yul\":1231:1264   */\n      tag_123\n      jump\t// in\n    tag_180:\n        /* \"#utility.yul\":1131:1270   */\n      swap3\n      swap2\n      pop\n      pop\n      jump\t// out\n        /* \"#utility.yul\":1276:1605   */\n    tag_24:\n        /* \"#utility.yul\":1335:1341   */\n      0x00\n        /* \"#utility.yul\":1384:1386   */\n      0x20\n        /* \"#utility.yul\":1372:1381   */\n      dup3\n        /* \"#utility.yul\":1363:1370   */\n      dup5\n        /* \"#utility.yul\":1359:1382   */\n      sub\n        /* \"#utility.yul\":1355:1387   */\n      slt\n        /* \"#utility.yul\":1352:1471   */\n      iszero\n      tag_182\n      jumpi\n        /* \"#utility.yul\":1390:1469   */\n      tag_183\n      tag_119\n      jump\t// in\n    tag_183:\n        /* \"#utility.yul\":1352:1471   */\n    tag_182:\n        /* \"#utility.yul\":1510:1511   */\n      0x00\n        /* \"#utility.yul\":1535:1588   */\n      tag_184\n        /* \"#utility.yul\":1580:1587   */\n      dup5\n        /* \"#utility.yul\":1571:1577   */\n      dup3\n        /* \"#utility.yul\":1560:1569   */\n      dup6\n        /* \"#utility.yul\":1556:1578   */\n      add\n        /* \"#utility.yul\":1535:1588   */\n      tag_124\n      jump\t// in\n    tag_184:\n        /* \"#utility.yul\":1525:1588   */\n      swap2\n      pop\n        /* \"#utility.yul\":1481:1598   */\n      pop\n        /* \"#utility.yul\":1276:1605   */\n      swap3\n      swap2\n      pop\n      pop\n      jump\t// out\n        /* \"#utility.yul\":1611:1715   */\n    tag_125:\n        /* \"#utility.yul\":1656:1663   */\n      0x00\n        /* \"#utility.yul\":1685:1709   */\n      tag_186\n        /* \"#utility.yul\":1703:1708   */\n      dup3\n        /* \"#utility.yul\":1685:1709   */\n      tag_121\n      jump\t// in\n    tag_186:\n        /* \"#utility.yul\":1674:1709   */\n      swap1\n      pop\n        /* \"#utility.yul\":1611:1715   */\n      swap2\n      swap1\n      pop\n      jump\t// out\n        /* \"#utility.yul\":1721:1863   */\n    tag_126:\n        /* \"#utility.yul\":1824:1856   */\n      tag_188\n        /* \"#utility.yul\":1850:1855   */\n      dup2\n        /* \"#utility.yul\":1824:1856   */\n      tag_125\n      jump\t// in\n    tag_188:\n        /* \"#utility.yul\":1819:1822   */\n      dup3\n        /* \"#utility.yul\":1812:1857   */\n      mstore\n        /* \"#utility.yul\":1721:1863   */\n      pop\n      pop\n      jump\t// out\n        /* \"#utility.yul\":1869:2123   */\n    tag_31:\n        /* \"#utility.yul\":1978:1982   */\n      0x00\n        /* \"#utility.yul\":2016:2018   */\n      0x20\n        /* \"#utility.yul\":2005:2014   */\n      dup3\n        /* \"#utility.yul\":2001:2019   */\n      add\n        /* \"#utility.yul\":1993:2019   */\n      swap1\n      pop\n        /* \"#utility.yul\":2029:2116   */\n      tag_190\n        /* \"#utility.yul\":2113:2114   */\n      0x00\n        /* \"#utility.yul\":2102:2111   */\n      dup4\n        /* \"#utility.yul\":2098:2115   */\n      add\n        /* \"#utility.yul\":2089:2095   */\n      dup5\n        /* \"#utility.yul\":2029:2116   */\n      tag_126\n      jump\t// in\n    tag_190:\n        /* \"#utility.yul\":1869:2123   */\n      swap3\n      swap2\n      pop\n      pop\n      jump\t// out\n        /* \"#utility.yul\":2129:2247   */\n    tag_127:\n        /* \"#utility.yul\":2216:2240   */\n      tag_192\n        /* \"#utility.yul\":2234:2239   */\n      dup2\n        /* \"#utility.yul\":2216:2240   */\n      tag_122\n      jump\t// in\n    tag_192:\n        /* \"#utility.yul\":2211:2214   */\n      dup3\n        /* \"#utility.yul\":2204:2241   */\n      mstore\n        /* \"#utility.yul\":2129:2247   */\n      pop\n      pop\n      jump\t// out\n        /* \"#utility.yul\":2253:2585   */\n    tag_36:\n        /* \"#utility.yul\":2374:2378   */\n      0x00\n        /* \"#utility.yul\":2412:2414   */\n      0x40\n        /* \"#utility.yul\":2401:2410   */\n      dup3\n        /* \"#utility.yul\":2397:2415   */\n      add\n        /* \"#utility.yul\":2389:2415   */\n      swap1\n      pop\n        /* \"#utility.yul\":2425:2496   */\n      tag_194\n        /* \"#utility.yul\":2493:2494   */\n      0x00\n        /* \"#utility.yul\":2482:2491   */\n      dup4\n        /* \"#utility.yul\":2478:2495   */\n      add\n        /* \"#utility.yul\":2469:2475   */\n      dup6\n        /* \"#utility.yul\":2425:2496   */\n      tag_127\n      jump\t// in\n    tag_194:\n        /* \"#utility.yul\":2506:2578   */\n      tag_195\n        /* \"#utility.yul\":2574:2576   */\n      0x20\n        /* \"#utility.yul\":2563:2572   */\n      dup4\n        /* \"#utility.yul\":2559:2577   */\n      add\n        /* \"#utility.yul\":2550:2556   */\n      dup5\n        /* \"#utility.yul\":2506:2578   */\n      tag_117\n      jump\t// in\n    tag_195:\n        /* \"#utility.yul\":2253:2585   */\n      swap4\n      swap3\n      pop\n      pop\n      pop\n      jump\t// out\n        /* \"#utility.yul\":2591:2708   */\n    tag_128:\n        /* \"#utility.yul\":2700:2701   */\n      0x00\n        /* \"#utility.yul\":2697:2698   */\n      dup1\n        /* \"#utility.yul\":2690:2702   */\n      revert\n        /* \"#utility.yul\":2714:2816   */\n    tag_129:\n        /* \"#utility.yul\":2755:2761   */\n      0x00\n        /* \"#utility.yul\":2806:2808   */\n      0x1f\n        /* \"#utility.yul\":2802:2809   */\n      not\n        /* \"#utility.yul\":2797:2799   */\n      0x1f\n        /* \"#utility.yul\":2790:2795   */\n      dup4\n        /* \"#utility.yul\":2786:2800   */\n      add\n        /* \"#utility.yul\":2782:2810   */\n      and\n        /* \"#utility.yul\":2772:2810   */\n      swap1\n      pop\n        /* \"#utility.yul\":2714:2816   */\n      swap2\n      swap1\n      pop\n      jump\t// out\n        /* \"#utility.yul\":2822:3002   */\n    tag_130:\n        /* \"#utility.yul\":2870:2947   */\n      0x4e487b7100000000000000000000000000000000000000000000000000000000\n        /* \"#utility.yul\":2867:2868   */\n      0x00\n        /* \"#utility.yul\":2860:2948   */\n      mstore\n        /* \"#utility.yul\":2967:2971   */\n      0x41\n        /* \"#utility.yul\":2964:2965   */\n      0x04\n        /* \"#utility.yul\":2957:2972   */\n      mstore\n        /* \"#utility.yul\":2991:2995   */\n      0x24\n        /* \"#utility.yul\":2988:2989   */\n      0x00\n        /* \"#utility.yul\":2981:2996   */\n      revert\n        /* \"#utility.yul\":3008:3289   */\n    tag_131:\n        /* \"#utility.yul\":3091:3118   */\n      tag_200\n        /* \"#utility.yul\":3113:3117   */\n      dup3\n        /* \"#utility.yul\":3091:3118   */\n      tag_129\n      jump\t// in\n    tag_200:\n        /* \"#utility.yul\":3083:3089   */\n      dup2\n        /* \"#utility.yul\":3079:3119   */\n      add\n        /* \"#utility.yul\":3221:3227   */\n      dup2\n        /* \"#utility.yul\":3209:3219   */\n      dup2\n        /* \"#utility.yul\":3206:3228   */\n      lt\n        /* \"#utility.yul\":3185:3203   */\n      0xffffffffffffffff\n        /* \"#utility.yul\":3173:3183   */\n      dup3\n        /* \"#utility.yul\":3170:3204   */\n      gt\n        /* \"#utility.yul\":3167:3229   */\n      or\n        /* \"#utility.yul\":3164:3252   */\n      iszero\n      tag_201\n      jumpi\n        /* \"#utility.yul\":3232:3250   */\n      tag_202\n      tag_130\n      jump\t// in\n    tag_202:\n        /* \"#utility.yul\":3164:3252   */\n    tag_201:\n        /* \"#utility.yul\":3272:3282   */\n      dup1\n        /* \"#utility.yul\":3268:3270   */\n      0x40\n        /* \"#utility.yul\":3261:3283   */\n      mstore\n        /* \"#utility.yul\":3051:3289   */\n      pop\n        /* \"#utility.yul\":3008:3289   */\n      pop\n      pop\n      jump\t// out\n        /* \"#utility.yul\":3295:3424   */\n    tag_132:\n        /* \"#utility.yul\":3329:3335   */\n      0x00\n        /* \"#utility.yul\":3356:3376   */\n      tag_204\n      tag_118\n      jump\t// in\n    tag_204:\n        /* \"#utility.yul\":3346:3376   */\n      swap1\n      pop\n        /* \"#utility.yul\":3385:3418   */\n      tag_205\n        /* \"#utility.yul\":3413:3417   */\n      dup3\n        /* \"#utility.yul\":3405:3411   */\n      dup3\n        /* \"#utility.yul\":3385:3418   */\n      tag_131\n      jump\t// in\n    tag_205:\n        /* \"#utility.yul\":3295:3424   */\n      swap2\n      swap1\n      pop\n      jump\t// out\n        /* \"#utility.yul\":3430:3749   */\n    tag_133:\n        /* \"#utility.yul\":3515:3519   */\n      0x00\n        /* \"#utility.yul\":3605:3623   */\n      0xffffffffffffffff\n        /* \"#utility.yul\":3597:3603   */\n      dup3\n        /* \"#utility.yul\":3594:3624   */\n      gt\n        /* \"#utility.yul\":3591:3647   */\n      iszero\n      tag_207\n      jumpi\n        /* \"#utility.yul\":3627:3645   */\n      tag_208\n      tag_130\n      jump\t// in\n    tag_208:\n        /* \"#utility.yul\":3591:3647   */\n    tag_207:\n        /* \"#utility.yul\":3677:3681   */\n      0x20\n        /* \"#utility.yul\":3669:3675   */\n      dup3\n        /* \"#utility.yul\":3665:3682   */\n      mul\n        /* \"#utility.yul\":3657:3682   */\n      swap1\n      pop\n        /* \"#utility.yul\":3737:3741   */\n      0x20\n        /* \"#utility.yul\":3731:3735   */\n      dup2\n        /* \"#utility.yul\":3727:3742   */\n      add\n        /* \"#utility.yul\":3719:3742   */\n      swap1\n      pop\n        /* \"#utility.yul\":3430:3749   */\n      swap2\n      swap1\n      pop\n      jump\t// out\n        /* \"#utility.yul\":3755:3872   */\n    tag_134:\n        /* \"#utility.yul\":3864:3865   */\n      0x00\n        /* \"#utility.yul\":3861:3862   */\n      dup1\n        /* \"#utility.yul\":3854:3866   */\n      revert\n        /* \"#utility.yul\":3878:4016   */\n    tag_135:\n        /* \"#utility.yul\":3959:3991   */\n      tag_211\n        /* \"#utility.yul\":3985:3990   */\n      dup2\n        /* \"#utility.yul\":3959:3991   */\n      tag_125\n      jump\t// in\n    tag_211:\n        /* \"#utility.yul\":3952:3957   */\n      dup2\n        /* \"#utility.yul\":3949:3992   */\n      eq\n        /* \"#utility.yul\":3939:4010   */\n      tag_212\n      jumpi\n        /* \"#utility.yul\":4006:4007   */\n      0x00\n        /* \"#utility.yul\":4003:4004   */\n      dup1\n        /* \"#utility.yul\":3996:4008   */\n      revert\n        /* \"#utility.yul\":3939:4010   */\n    tag_212:\n        /* \"#utility.yul\":3878:4016   */\n      pop\n      jump\t// out\n        /* \"#utility.yul\":4022:4177   */\n    tag_136:\n        /* \"#utility.yul\":4076:4081   */\n      0x00\n        /* \"#utility.yul\":4114:4120   */\n      dup2\n        /* \"#utility.yul\":4101:4121   */\n      calldataload\n        /* \"#utility.yul\":4092:4121   */\n      swap1\n      pop\n        /* \"#utility.yul\":4130:4171   */\n      tag_214\n        /* \"#utility.yul\":4165:4170   */\n      dup2\n        /* \"#utility.yul\":4130:4171   */\n      tag_135\n      jump\t// in\n    tag_214:\n        /* \"#utility.yul\":4022:4177   */\n      swap3\n      swap2\n      pop\n      pop\n      jump\t// out\n        /* \"#utility.yul\":4208:4942   */\n    tag_137:\n        /* \"#utility.yul\":4312:4317   */\n      0x00\n        /* \"#utility.yul\":4337:4426   */\n      tag_216\n        /* \"#utility.yul\":4353:4425   */\n      tag_217\n        /* \"#utility.yul\":4418:4424   */\n      dup5\n        /* \"#utility.yul\":4353:4425   */\n      tag_133\n      jump\t// in\n    tag_217:\n        /* \"#utility.yul\":4337:4426   */\n      tag_132\n      jump\t// in\n    tag_216:\n        /* \"#utility.yul\":4328:4426   */\n      swap1\n      pop\n        /* \"#utility.yul\":4446:4451   */\n      dup1\n        /* \"#utility.yul\":4475:4481   */\n      dup4\n        /* \"#utility.yul\":4468:4473   */\n      dup3\n        /* \"#utility.yul\":4461:4482   */\n      mstore\n        /* \"#utility.yul\":4509:4513   */\n      0x20\n        /* \"#utility.yul\":4502:4507   */\n      dup3\n        /* \"#utility.yul\":4498:4514   */\n      add\n        /* \"#utility.yul\":4491:4514   */\n      swap1\n      pop\n        /* \"#utility.yul\":4562:4566   */\n      0x20\n        /* \"#utility.yul\":4554:4560   */\n      dup5\n        /* \"#utility.yul\":4550:4567   */\n      mul\n        /* \"#utility.yul\":4542:4548   */\n      dup4\n        /* \"#utility.yul\":4538:4568   */\n      add\n        /* \"#utility.yul\":4591:4594   */\n      dup6\n        /* \"#utility.yul\":4583:4589   */\n      dup2\n        /* \"#utility.yul\":4580:4595   */\n      gt\n        /* \"#utility.yul\":4577:4699   */\n      iszero\n      tag_218\n      jumpi\n        /* \"#utility.yul\":4610:4689   */\n      tag_219\n      tag_134\n      jump\t// in\n    tag_219:\n        /* \"#utility.yul\":4577:4699   */\n    tag_218:\n        /* \"#utility.yul\":4725:4731   */\n      dup4\n        /* \"#utility.yul\":4708:4936   */\n    tag_220:\n        /* \"#utility.yul\":4742:4748   */\n      dup2\n        /* \"#utility.yul\":4737:4740   */\n      dup2\n        /* \"#utility.yul\":4734:4749   */\n      lt\n        /* \"#utility.yul\":4708:4936   */\n      iszero\n      tag_222\n      jumpi\n        /* \"#utility.yul\":4817:4820   */\n      dup1\n        /* \"#utility.yul\":4846:4891   */\n      tag_223\n        /* \"#utility.yul\":4887:4890   */\n      dup9\n        /* \"#utility.yul\":4875:4885   */\n      dup3\n        /* \"#utility.yul\":4846:4891   */\n      tag_136\n      jump\t// in\n    tag_223:\n        /* \"#utility.yul\":4841:4844   */\n      dup5\n        /* \"#utility.yul\":4834:4892   */\n      mstore\n        /* \"#utility.yul\":4921:4925   */\n      0x20\n        /* \"#utility.yul\":4916:4919   */\n      dup5\n        /* \"#utility.yul\":4912:4926   */\n      add\n        /* \"#utility.yul\":4905:4926   */\n      swap4\n      pop\n        /* \"#utility.yul\":4784:4936   */\n      pop\n        /* \"#utility.yul\":4768:4772   */\n      0x20\n        /* \"#utility.yul\":4763:4766   */\n      dup2\n        /* \"#utility.yul\":4759:4773   */\n      add\n        /* \"#utility.yul\":4752:4773   */\n      swap1\n      pop\n        /* \"#utility.yul\":4708:4936   */\n      jump(tag_220)\n    tag_222:\n        /* \"#utility.yul\":4712:4733   */\n      pop\n        /* \"#utility.yul\":4318:4942   */\n      pop\n      pop\n        /* \"#utility.yul\":4208:4942   */\n      swap4\n      swap3\n      pop\n      pop\n      pop\n      jump\t// out\n        /* \"#utility.yul\":4973:5359   */\n    tag_138:\n        /* \"#utility.yul\":5052:5057   */\n      0x00\n        /* \"#utility.yul\":5101:5104   */\n      dup3\n        /* \"#utility.yul\":5094:5098   */\n      0x1f\n        /* \"#utility.yul\":5086:5092   */\n      dup4\n        /* \"#utility.yul\":5082:5099   */\n      add\n        /* \"#utility.yul\":5078:5105   */\n      slt\n        /* \"#utility.yul\":5068:5190   */\n      tag_225\n      jumpi\n        /* \"#utility.yul\":5109:5188   */\n      tag_226\n      tag_128\n      jump\t// in\n    tag_226:\n        /* \"#utility.yul\":5068:5190   */\n    tag_225:\n        /* \"#utility.yul\":5226:5232   */\n      dup2\n        /* \"#utility.yul\":5213:5233   */\n      calldataload\n        /* \"#utility.yul\":5251:5353   */\n      tag_227\n        /* \"#utility.yul\":5349:5352   */\n      dup5\n        /* \"#utility.yul\":5341:5347   */\n      dup3\n        /* \"#utility.yul\":5334:5338   */\n      0x20\n        /* \"#utility.yul\":5326:5332   */\n      dup7\n        /* \"#utility.yul\":5322:5339   */\n      add\n        /* \"#utility.yul\":5251:5353   */\n      tag_137\n      jump\t// in\n    tag_227:\n        /* \"#utility.yul\":5242:5353   */\n      swap2\n      pop\n        /* \"#utility.yul\":5058:5359   */\n      pop\n        /* \"#utility.yul\":4973:5359   */\n      swap3\n      swap2\n      pop\n      pop\n      jump\t// out\n        /* \"#utility.yul\":5365:5920   */\n    tag_44:\n        /* \"#utility.yul\":5457:5463   */\n      0x00\n        /* \"#utility.yul\":5506:5508   */\n      0x20\n        /* \"#utility.yul\":5494:5503   */\n      dup3\n        /* \"#utility.yul\":5485:5492   */\n      dup5\n        /* \"#utility.yul\":5481:5504   */\n      sub\n        /* \"#utility.yul\":5477:5509   */\n      slt\n        /* \"#utility.yul\":5474:5593   */\n      iszero\n      tag_229\n      jumpi\n        /* \"#utility.yul\":5512:5591   */\n      tag_230\n      tag_119\n      jump\t// in\n    tag_230:\n        /* \"#utility.yul\":5474:5593   */\n    tag_229:\n        /* \"#utility.yul\":5660:5661   */\n      0x00\n        /* \"#utility.yul\":5649:5658   */\n      dup3\n        /* \"#utility.yul\":5645:5662   */\n      add\n        /* \"#utility.yul\":5632:5663   */\n      calldataload\n        /* \"#utility.yul\":5690:5708   */\n      0xffffffffffffffff\n        /* \"#utility.yul\":5682:5688   */\n      dup2\n        /* \"#utility.yul\":5679:5709   */\n      gt\n        /* \"#utility.yul\":5676:5793   */\n      iszero\n      tag_231\n      jumpi\n        /* \"#utility.yul\":5712:5791   */\n      tag_232\n      tag_120\n      jump\t// in\n    tag_232:\n        /* \"#utility.yul\":5676:5793   */\n    tag_231:\n        /* \"#utility.yul\":5817:5903   */\n      tag_233\n        /* \"#utility.yul\":5895:5902   */\n      dup5\n        /* \"#utility.yul\":5886:5892   */\n      dup3\n        /* \"#utility.yul\":5875:5884   */\n      dup6\n        /* \"#utility.yul\":5871:5893   */\n      add\n        /* \"#utility.yul\":5817:5903   */\n      tag_138\n      jump\t// in\n    tag_233:\n        /* \"#utility.yul\":5807:5903   */\n      swap2\n      pop\n        /* \"#utility.yul\":5603:5913   */\n      pop\n        /* \"#utility.yul\":5365:5920   */\n      swap3\n      swap2\n      pop\n      pop\n      jump\t// out\n        /* \"#utility.yul\":5926:6040   */\n    tag_139:\n        /* \"#utility.yul\":5993:5999   */\n      0x00\n        /* \"#utility.yul\":6027:6032   */\n      dup2\n        /* \"#utility.yul\":6021:6033   */\n      mload\n        /* \"#utility.yul\":6011:6033   */\n      swap1\n      pop\n        /* \"#utility.yul\":5926:6040   */\n      swap2\n      swap1\n      pop\n      jump\t// out\n        /* \"#utility.yul\":6046:6230   */\n    tag_140:\n        /* \"#utility.yul\":6145:6156   */\n      0x00\n        /* \"#utility.yul\":6179:6185   */\n      dup3\n        /* \"#utility.yul\":6174:6177   */\n      dup3\n        /* \"#utility.yul\":6167:6186   */\n      mstore\n        /* \"#utility.yul\":6219:6223   */\n      0x20\n        /* \"#utility.yul\":6214:6217   */\n      dup3\n        /* \"#utility.yul\":6210:6224   */\n      add\n        /* \"#utility.yul\":6195:6224   */\n      swap1\n      pop\n        /* \"#utility.yul\":6046:6230   */\n      swap3\n      swap2\n      pop\n      pop\n      jump\t// out\n        /* \"#utility.yul\":6236:6368   */\n    tag_141:\n        /* \"#utility.yul\":6303:6307   */\n      0x00\n        /* \"#utility.yul\":6326:6329   */\n      dup2\n        /* \"#utility.yul\":6318:6329   */\n      swap1\n      pop\n        /* \"#utility.yul\":6356:6360   */\n      0x20\n        /* \"#utility.yul\":6351:6354   */\n      dup3\n        /* \"#utility.yul\":6347:6361   */\n      add\n        /* \"#utility.yul\":6339:6361   */\n      swap1\n      pop\n        /* \"#utility.yul\":6236:6368   */\n      swap2\n      swap1\n      pop\n      jump\t// out\n        /* \"#utility.yul\":6374:6482   */\n    tag_142:\n        /* \"#utility.yul\":6451:6475   */\n      tag_238\n        /* \"#utility.yul\":6469:6474   */\n      dup2\n        /* \"#utility.yul\":6451:6475   */\n      tag_122\n      jump\t// in\n    tag_238:\n        /* \"#utility.yul\":6446:6449   */\n      dup3\n        /* \"#utility.yul\":6439:6476   */\n      mstore\n        /* \"#utility.yul\":6374:6482   */\n      pop\n      pop\n      jump\t// out\n        /* \"#utility.yul\":6488:6667   */\n    tag_143:\n        /* \"#utility.yul\":6557:6567   */\n      0x00\n        /* \"#utility.yul\":6578:6624   */\n      tag_240\n        /* \"#utility.yul\":6620:6623   */\n      dup4\n        /* \"#utility.yul\":6612:6618   */\n      dup4\n        /* \"#utility.yul\":6578:6624   */\n      tag_142\n      jump\t// in\n    tag_240:\n        /* \"#utility.yul\":6656:6660   */\n      0x20\n        /* \"#utility.yul\":6651:6654   */\n      dup4\n        /* \"#utility.yul\":6647:6661   */\n      add\n        /* \"#utility.yul\":6633:6661   */\n      swap1\n      pop\n        /* \"#utility.yul\":6488:6667   */\n      swap3\n      swap2\n      pop\n      pop\n      jump\t// out\n        /* \"#utility.yul\":6673:6786   */\n    tag_144:\n        /* \"#utility.yul\":6743:6747   */\n      0x00\n        /* \"#utility.yul\":6775:6779   */\n      0x20\n        /* \"#utility.yul\":6770:6773   */\n      dup3\n        /* \"#utility.yul\":6766:6780   */\n      add\n        /* \"#utility.yul\":6758:6780   */\n      swap1\n      pop\n        /* \"#utility.yul\":6673:6786   */\n      swap2\n      swap1\n      pop\n      jump\t// out\n        /* \"#utility.yul\":6822:7554   */\n    tag_145:\n        /* \"#utility.yul\":6941:6944   */\n      0x00\n        /* \"#utility.yul\":6970:7024   */\n      tag_243\n        /* \"#utility.yul\":7018:7023   */\n      dup3\n        /* \"#utility.yul\":6970:7024   */\n      tag_139\n      jump\t// in\n    tag_243:\n        /* \"#utility.yul\":7040:7126   */\n      tag_244\n        /* \"#utility.yul\":7119:7125   */\n      dup2\n        /* \"#utility.yul\":7114:7117   */\n      dup6\n        /* \"#utility.yul\":7040:7126   */\n      tag_140\n      jump\t// in\n    tag_244:\n        /* \"#utility.yul\":7033:7126   */\n      swap4\n      pop\n        /* \"#utility.yul\":7150:7206   */\n      tag_245\n        /* \"#utility.yul\":7200:7205   */\n      dup4\n        /* \"#utility.yul\":7150:7206   */\n      tag_141\n      jump\t// in\n    tag_245:\n        /* \"#utility.yul\":7229:7236   */\n      dup1\n        /* \"#utility.yul\":7260:7261   */\n      0x00\n        /* \"#utility.yul\":7245:7529   */\n    tag_246:\n        /* \"#utility.yul\":7270:7276   */\n      dup4\n        /* \"#utility.yul\":7267:7268   */\n      dup2\n        /* \"#utility.yul\":7264:7277   */\n      lt\n        /* \"#utility.yul\":7245:7529   */\n      iszero\n      tag_248\n      jumpi\n        /* \"#utility.yul\":7346:7352   */\n      dup2\n        /* \"#utility.yul\":7340:7353   */\n      mload\n        /* \"#utility.yul\":7373:7436   */\n      tag_249\n        /* \"#utility.yul\":7432:7435   */\n      dup9\n        /* \"#utility.yul\":7417:7430   */\n      dup3\n        /* \"#utility.yul\":7373:7436   */\n      tag_143\n      jump\t// in\n    tag_249:\n        /* \"#utility.yul\":7366:7436   */\n      swap8\n      pop\n        /* \"#utility.yul\":7459:7519   */\n      tag_250\n        /* \"#utility.yul\":7512:7518   */\n      dup4\n        /* \"#utility.yul\":7459:7519   */\n      tag_144\n      jump\t// in\n    tag_250:\n        /* \"#utility.yul\":7449:7519   */\n      swap3\n      pop\n        /* \"#utility.yul\":7305:7529   */\n      pop\n        /* \"#utility.yul\":7292:7293   */\n      0x01\n        /* \"#utility.yul\":7289:7290   */\n      dup2\n        /* \"#utility.yul\":7285:7294   */\n      add\n        /* \"#utility.yul\":7280:7294   */\n      swap1\n      pop\n        /* \"#utility.yul\":7245:7529   */\n      jump(tag_246)\n    tag_248:\n        /* \"#utility.yul\":7249:7263   */\n      pop\n        /* \"#utility.yul\":7545:7548   */\n      dup6\n        /* \"#utility.yul\":7538:7548   */\n      swap4\n      pop\n        /* \"#utility.yul\":6946:7554   */\n      pop\n      pop\n      pop\n        /* \"#utility.yul\":6822:7554   */\n      swap3\n      swap2\n      pop\n      pop\n      jump\t// out\n        /* \"#utility.yul\":7560:7674   */\n    tag_146:\n        /* \"#utility.yul\":7627:7633   */\n      0x00\n        /* \"#utility.yul\":7661:7666   */\n      dup2\n        /* \"#utility.yul\":7655:7667   */\n      mload\n        /* \"#utility.yul\":7645:7667   */\n      swap1\n      pop\n        /* \"#utility.yul\":7560:7674   */\n      swap2\n      swap1\n      pop\n      jump\t// out\n        /* \"#utility.yul\":7680:7864   */\n    tag_147:\n        /* \"#utility.yul\":7779:7790   */\n      0x00\n        /* \"#utility.yul\":7813:7819   */\n      dup3\n        /* \"#utility.yul\":7808:7811   */\n      dup3\n        /* \"#utility.yul\":7801:7820   */\n      mstore\n        /* \"#utility.yul\":7853:7857   */\n      0x20\n        /* \"#utility.yul\":7848:7851   */\n      dup3\n        /* \"#utility.yul\":7844:7858   */\n      add\n        /* \"#utility.yul\":7829:7858   */\n      swap1\n      pop\n        /* \"#utility.yul\":7680:7864   */\n      swap3\n      swap2\n      pop\n      pop\n      jump\t// out\n        /* \"#utility.yul\":7870:8002   */\n    tag_148:\n        /* \"#utility.yul\":7937:7941   */\n      0x00\n        /* \"#utility.yul\":7960:7963   */\n      dup2\n        /* \"#utility.yul\":7952:7963   */\n      swap1\n      pop\n        /* \"#utility.yul\":7990:7994   */\n      0x20\n        /* \"#utility.yul\":7985:7988   */\n      dup3\n        /* \"#utility.yul\":7981:7995   */\n      add\n        /* \"#utility.yul\":7973:7995   */\n      swap1\n      pop\n        /* \"#utility.yul\":7870:8002   */\n      swap2\n      swap1\n      pop\n      jump\t// out\n        /* \"#utility.yul\":8008:8116   */\n    tag_149:\n        /* \"#utility.yul\":8085:8109   */\n      tag_255\n        /* \"#utility.yul\":8103:8108   */\n      dup2\n        /* \"#utility.yul\":8085:8109   */\n      tag_116\n      jump\t// in\n    tag_255:\n        /* \"#utility.yul\":8080:8083   */\n      dup3\n        /* \"#utility.yul\":8073:8110   */\n      mstore\n        /* \"#utility.yul\":8008:8116   */\n      pop\n      pop\n      jump\t// out\n        /* \"#utility.yul\":8122:8301   */\n    tag_150:\n        /* \"#utility.yul\":8191:8201   */\n      0x00\n        /* \"#utility.yul\":8212:8258   */\n      tag_257\n        /* \"#utility.yul\":8254:8257   */\n      dup4\n        /* \"#utility.yul\":8246:8252   */\n      dup4\n        /* \"#utility.yul\":8212:8258   */\n      tag_149\n      jump\t// in\n    tag_257:\n        /* \"#utility.yul\":8290:8294   */\n      0x20\n        /* \"#utility.yul\":8285:8288   */\n      dup4\n        /* \"#utility.yul\":8281:8295   */\n      add\n        /* \"#utility.yul\":8267:8295   */\n      swap1\n      pop\n        /* \"#utility.yul\":8122:8301   */\n      swap3\n      swap2\n      pop\n      pop\n      jump\t// out\n        /* \"#utility.yul\":8307:8420   */\n    tag_151:\n        /* \"#utility.yul\":8377:8381   */\n      0x00\n        /* \"#utility.yul\":8409:8413   */\n      0x20\n        /* \"#utility.yul\":8404:8407   */\n      dup3\n        /* \"#utility.yul\":8400:8414   */\n      add\n        /* \"#utility.yul\":8392:8414   */\n      swap1\n      pop\n        /* \"#utility.yul\":8307:8420   */\n      swap2\n      swap1\n      pop\n      jump\t// out\n        /* \"#utility.yul\":8456:9188   */\n    tag_152:\n        /* \"#utility.yul\":8575:8578   */\n      0x00\n        /* \"#utility.yul\":8604:8658   */\n      tag_260\n        /* \"#utility.yul\":8652:8657   */\n      dup3\n        /* \"#utility.yul\":8604:8658   */\n      tag_146\n      jump\t// in\n    tag_260:\n        /* \"#utility.yul\":8674:8760   */\n      tag_261\n        /* \"#utility.yul\":8753:8759   */\n      dup2\n        /* \"#utility.yul\":8748:8751   */\n      dup6\n        /* \"#utility.yul\":8674:8760   */\n      tag_147\n      jump\t// in\n    tag_261:\n        /* \"#utility.yul\":8667:8760   */\n      swap4\n      pop\n        /* \"#utility.yul\":8784:8840   */\n      tag_262\n        /* \"#utility.yul\":8834:8839   */\n      dup4\n        /* \"#utility.yul\":8784:8840   */\n      tag_148\n      jump\t// in\n    tag_262:\n        /* \"#utility.yul\":8863:8870   */\n      dup1\n        /* \"#utility.yul\":8894:8895   */\n      0x00\n        /* \"#utility.yul\":8879:9163   */\n    tag_263:\n        /* \"#utility.yul\":8904:8910   */\n      dup4\n        /* \"#utility.yul\":8901:8902   */\n      dup2\n        /* \"#utility.yul\":8898:8911   */\n      lt\n        /* \"#utility.yul\":8879:9163   */\n      iszero\n      tag_265\n      jumpi\n        /* \"#utility.yul\":8980:8986   */\n      dup2\n        /* \"#utility.yul\":8974:8987   */\n      mload\n        /* \"#utility.yul\":9007:9070   */\n      tag_266\n        /* \"#utility.yul\":9066:9069   */\n      dup9\n        /* \"#utility.yul\":9051:9064   */\n      dup3\n        /* \"#utility.yul\":9007:9070   */\n      tag_150\n      jump\t// in\n    tag_266:\n        /* \"#utility.yul\":9000:9070   */\n      swap8\n      pop\n        /* \"#utility.yul\":9093:9153   */\n      tag_267\n        /* \"#utility.yul\":9146:9152   */\n      dup4\n        /* \"#utility.yul\":9093:9153   */\n      tag_151\n      jump\t// in\n    tag_267:\n        /* \"#utility.yul\":9083:9153   */\n      swap3\n      pop\n        /* \"#utility.yul\":8939:9163   */\n      pop\n        /* \"#utility.yul\":8926:8927   */\n      0x01\n        /* \"#utility.yul\":8923:8924   */\n      dup2\n        /* \"#utility.yul\":8919:8928   */\n      add\n        /* \"#utility.yul\":8914:8928   */\n      swap1\n      pop\n        /* \"#utility.yul\":8879:9163   */\n      jump(tag_263)\n    tag_265:\n        /* \"#utility.yul\":8883:8897   */\n      pop\n        /* \"#utility.yul\":9179:9182   */\n      dup6\n        /* \"#utility.yul\":9172:9182   */\n      swap4\n      pop\n        /* \"#utility.yul\":8580:9188   */\n      pop\n      pop\n      pop\n        /* \"#utility.yul\":8456:9188   */\n      swap3\n      swap2\n      pop\n      pop\n      jump\t// out\n        /* \"#utility.yul\":9194:9828   */\n    tag_50:\n        /* \"#utility.yul\":9415:9419   */\n      0x00\n        /* \"#utility.yul\":9453:9455   */\n      0x40\n        /* \"#utility.yul\":9442:9451   */\n      dup3\n        /* \"#utility.yul\":9438:9456   */\n      add\n        /* \"#utility.yul\":9430:9456   */\n      swap1\n      pop\n        /* \"#utility.yul\":9502:9511   */\n      dup2\n        /* \"#utility.yul\":9496:9500   */\n      dup2\n        /* \"#utility.yul\":9492:9512   */\n      sub\n        /* \"#utility.yul\":9488:9489   */\n      0x00\n        /* \"#utility.yul\":9477:9486   */\n      dup4\n        /* \"#utility.yul\":9473:9490   */\n      add\n        /* \"#utility.yul\":9466:9513   */\n      mstore\n        /* \"#utility.yul\":9530:9638   */\n      tag_269\n        /* \"#utility.yul\":9633:9637   */\n      dup2\n        /* \"#utility.yul\":9624:9630   */\n      dup6\n        /* \"#utility.yul\":9530:9638   */\n      tag_145\n      jump\t// in\n    tag_269:\n        /* \"#utility.yul\":9522:9638   */\n      swap1\n      pop\n        /* \"#utility.yul\":9685:9694   */\n      dup2\n        /* \"#utility.yul\":9679:9683   */\n      dup2\n        /* \"#utility.yul\":9675:9695   */\n      sub\n        /* \"#utility.yul\":9670:9672   */\n      0x20\n        /* \"#utility.yul\":9659:9668   */\n      dup4\n        /* \"#utility.yul\":9655:9673   */\n      add\n        /* \"#utility.yul\":9648:9696   */\n      mstore\n        /* \"#utility.yul\":9713:9821   */\n      tag_270\n        /* \"#utility.yul\":9816:9820   */\n      dup2\n        /* \"#utility.yul\":9807:9813   */\n      dup5\n        /* \"#utility.yul\":9713:9821   */\n      tag_152\n      jump\t// in\n    tag_270:\n        /* \"#utility.yul\":9705:9821   */\n      swap1\n      pop\n        /* \"#utility.yul\":9194:9828   */\n      swap4\n      swap3\n      pop\n      pop\n      pop\n      jump\t// out\n        /* \"#utility.yul\":9834:10003   */\n    tag_153:\n        /* \"#utility.yul\":9918:9929   */\n      0x00\n        /* \"#utility.yul\":9952:9958   */\n      dup3\n        /* \"#utility.yul\":9947:9950   */\n      dup3\n        /* \"#utility.yul\":9940:9959   */\n      mstore\n        /* \"#utility.yul\":9992:9996   */\n      0x20\n        /* \"#utility.yul\":9987:9990   */\n      dup3\n        /* \"#utility.yul\":9983:9997   */\n      add\n        /* \"#utility.yul\":9968:9997   */\n      swap1\n      pop\n        /* \"#utility.yul\":9834:10003   */\n      swap3\n      swap2\n      pop\n      pop\n      jump\t// out\n        /* \"#utility.yul\":10009:10176   */\n    tag_154:\n        /* \"#utility.yul\":10149:10168   */\n      0x41756374696f6e2068617320656e646564000000000000000000000000000000\n        /* \"#utility.yul\":10145:10146   */\n      0x00\n        /* \"#utility.yul\":10137:10143   */\n      dup3\n        /* \"#utility.yul\":10133:10147   */\n      add\n        /* \"#utility.yul\":10126:10169   */\n      mstore\n        /* \"#utility.yul\":10009:10176   */\n      pop\n      jump\t// out\n        /* \"#utility.yul\":10182:10548   */\n    tag_155:\n        /* \"#utility.yul\":10324:10327   */\n      0x00\n        /* \"#utility.yul\":10345:10412   */\n      tag_274\n        /* \"#utility.yul\":10409:10411   */\n      0x11\n        /* \"#utility.yul\":10404:10407   */\n      dup4\n        /* \"#utility.yul\":10345:10412   */\n      tag_153\n      jump\t// in\n    tag_274:\n        /* \"#utility.yul\":10338:10412   */\n      swap2\n      pop\n        /* \"#utility.yul\":10421:10514   */\n      tag_275\n        /* \"#utility.yul\":10510:10513   */\n      dup3\n        /* \"#utility.yul\":10421:10514   */\n      tag_154\n      jump\t// in\n    tag_275:\n        /* \"#utility.yul\":10539:10541   */\n      0x20\n        /* \"#utility.yul\":10534:10537   */\n      dup3\n        /* \"#utility.yul\":10530:10542   */\n      add\n        /* \"#utility.yul\":10523:10542   */\n      swap1\n      pop\n        /* \"#utility.yul\":10182:10548   */\n      swap2\n      swap1\n      pop\n      jump\t// out\n        /* \"#utility.yul\":10554:10973   */\n    tag_65:\n        /* \"#utility.yul\":10720:10724   */\n      0x00\n        /* \"#utility.yul\":10758:10760   */\n      0x20\n        /* \"#utility.yul\":10747:10756   */\n      dup3\n        /* \"#utility.yul\":10743:10761   */\n      add\n        /* \"#utility.yul\":10735:10761   */\n      swap1\n      pop\n        /* \"#utility.yul\":10807:10816   */\n      dup2\n        /* \"#utility.yul\":10801:10805   */\n      dup2\n        /* \"#utility.yul\":10797:10817   */\n      sub\n        /* \"#utility.yul\":10793:10794   */\n      0x00\n        /* \"#utility.yul\":10782:10791   */\n      dup4\n        /* \"#utility.yul\":10778:10795   */\n      add\n        /* \"#utility.yul\":10771:10818   */\n      mstore\n        /* \"#utility.yul\":10835:10966   */\n      tag_277\n        /* \"#utility.yul\":10961:10965   */\n      dup2\n        /* \"#utility.yul\":10835:10966   */\n      tag_155\n      jump\t// in\n    tag_277:\n        /* \"#utility.yul\":10827:10966   */\n      swap1\n      pop\n        /* \"#utility.yul\":10554:10973   */\n      swap2\n      swap1\n      pop\n      jump\t// out\n        /* \"#utility.yul\":10979:11159   */\n    tag_156:\n        /* \"#utility.yul\":11027:11104   */\n      0x4e487b7100000000000000000000000000000000000000000000000000000000\n        /* \"#utility.yul\":11024:11025   */\n      0x00\n        /* \"#utility.yul\":11017:11105   */\n      mstore\n        /* \"#utility.yul\":11124:11128   */\n      0x11\n        /* \"#utility.yul\":11121:11122   */\n      0x04\n        /* \"#utility.yul\":11114:11129   */\n      mstore\n        /* \"#utility.yul\":11148:11152   */\n      0x24\n        /* \"#utility.yul\":11145:11146   */\n      0x00\n        /* \"#utility.yul\":11138:11153   */\n      revert\n        /* \"#utility.yul\":11165:11356   */\n    tag_68:\n        /* \"#utility.yul\":11205:11208   */\n      0x00\n        /* \"#utility.yul\":11224:11244   */\n      tag_280\n        /* \"#utility.yul\":11242:11243   */\n      dup3\n        /* \"#utility.yul\":11224:11244   */\n      tag_116\n      jump\t// in\n    tag_280:\n        /* \"#utility.yul\":11219:11244   */\n      swap2\n      pop\n        /* \"#utility.yul\":11258:11278   */\n      tag_281\n        /* \"#utility.yul\":11276:11277   */\n      dup4\n        /* \"#utility.yul\":11258:11278   */\n      tag_116\n      jump\t// in\n    tag_281:\n        /* \"#utility.yul\":11253:11278   */\n      swap3\n      pop\n        /* \"#utility.yul\":11301:11302   */\n      dup3\n        /* \"#utility.yul\":11298:11299   */\n      dup3\n        /* \"#utility.yul\":11294:11303   */\n      add\n        /* \"#utility.yul\":11287:11303   */\n      swap1\n      pop\n        /* \"#utility.yul\":11322:11325   */\n      dup1\n        /* \"#utility.yul\":11319:11320   */\n      dup3\n        /* \"#utility.yul\":11316:11326   */\n      gt\n        /* \"#utility.yul\":11313:11349   */\n      iszero\n      tag_282\n      jumpi\n        /* \"#utility.yul\":11329:11347   */\n      tag_283\n      tag_156\n      jump\t// in\n    tag_283:\n        /* \"#utility.yul\":11313:11349   */\n    tag_282:\n        /* \"#utility.yul\":11165:11356   */\n      swap3\n      swap2\n      pop\n      pop\n      jump\t// out\n        /* \"#utility.yul\":11362:11772   */\n    tag_70:\n        /* \"#utility.yul\":11402:11409   */\n      0x00\n        /* \"#utility.yul\":11425:11445   */\n      tag_285\n        /* \"#utility.yul\":11443:11444   */\n      dup3\n        /* \"#utility.yul\":11425:11445   */\n      tag_116\n      jump\t// in\n    tag_285:\n        /* \"#utility.yul\":11420:11445   */\n      swap2\n      pop\n        /* \"#utility.yul\":11459:11479   */\n      tag_286\n        /* \"#utility.yul\":11477:11478   */\n      dup4\n        /* \"#utility.yul\":11459:11479   */\n      tag_116\n      jump\t// in\n    tag_286:\n        /* \"#utility.yul\":11454:11479   */\n      swap3\n      pop\n        /* \"#utility.yul\":11514:11515   */\n      dup3\n        /* \"#utility.yul\":11511:11512   */\n      dup3\n        /* \"#utility.yul\":11507:11516   */\n      mul\n        /* \"#utility.yul\":11536:11566   */\n      tag_287\n        /* \"#utility.yul\":11554:11565   */\n      dup2\n        /* \"#utility.yul\":11536:11566   */\n      tag_116\n      jump\t// in\n    tag_287:\n        /* \"#utility.yul\":11525:11566   */\n      swap2\n      pop\n        /* \"#utility.yul\":11715:11716   */\n      dup3\n        /* \"#utility.yul\":11706:11713   */\n      dup3\n        /* \"#utility.yul\":11702:11717   */\n      div\n        /* \"#utility.yul\":11699:11700   */\n      dup5\n        /* \"#utility.yul\":11696:11718   */\n      eq\n        /* \"#utility.yul\":11676:11677   */\n      dup4\n        /* \"#utility.yul\":11669:11678   */\n      iszero\n        /* \"#utility.yul\":11649:11732   */\n      or\n        /* \"#utility.yul\":11626:11765   */\n      tag_288\n      jumpi\n        /* \"#utility.yul\":11745:11763   */\n      tag_289\n      tag_156\n      jump\t// in\n    tag_289:\n        /* \"#utility.yul\":11626:11765   */\n    tag_288:\n        /* \"#utility.yul\":11410:11772   */\n      pop\n        /* \"#utility.yul\":11362:11772   */\n      swap3\n      swap2\n      pop\n      pop\n      jump\t// out\n        /* \"#utility.yul\":11778:11958   */\n    tag_157:\n        /* \"#utility.yul\":11826:11903   */\n      0x4e487b7100000000000000000000000000000000000000000000000000000000\n        /* \"#utility.yul\":11823:11824   */\n      0x00\n        /* \"#utility.yul\":11816:11904   */\n      mstore\n        /* \"#utility.yul\":11923:11927   */\n      0x12\n        /* \"#utility.yul\":11920:11921   */\n      0x04\n        /* \"#utility.yul\":11913:11928   */\n      mstore\n        /* \"#utility.yul\":11947:11951   */\n      0x24\n        /* \"#utility.yul\":11944:11945   */\n      0x00\n        /* \"#utility.yul\":11937:11952   */\n      revert\n        /* \"#utility.yul\":11964:12149   */\n    tag_72:\n        /* \"#utility.yul\":12004:12005   */\n      0x00\n        /* \"#utility.yul\":12021:12041   */\n      tag_292\n        /* \"#utility.yul\":12039:12040   */\n      dup3\n        /* \"#utility.yul\":12021:12041   */\n      tag_116\n      jump\t// in\n    tag_292:\n        /* \"#utility.yul\":12016:12041   */\n      swap2\n      pop\n        /* \"#utility.yul\":12055:12075   */\n      tag_293\n        /* \"#utility.yul\":12073:12074   */\n      dup4\n        /* \"#utility.yul\":12055:12075   */\n      tag_116\n      jump\t// in\n    tag_293:\n        /* \"#utility.yul\":12050:12075   */\n      swap3\n      pop\n        /* \"#utility.yul\":12094:12095   */\n      dup3\n        /* \"#utility.yul\":12084:12119   */\n      tag_294\n      jumpi\n        /* \"#utility.yul\":12099:12117   */\n      tag_295\n      tag_157\n      jump\t// in\n    tag_295:\n        /* \"#utility.yul\":12084:12119   */\n    tag_294:\n        /* \"#utility.yul\":12141:12142   */\n      dup3\n        /* \"#utility.yul\":12138:12139   */\n      dup3\n        /* \"#utility.yul\":12134:12143   */\n      div\n        /* \"#utility.yul\":12129:12143   */\n      swap1\n      pop\n        /* \"#utility.yul\":11964:12149   */\n      swap3\n      swap2\n      pop\n      pop\n      jump\t// out\n        /* \"#utility.yul\":12155:12316   */\n    tag_158:\n        /* \"#utility.yul\":12295:12308   */\n      0x42696420746f6f206c6f77000000000000000000000000000000000000000000\n        /* \"#utility.yul\":12291:12292   */\n      0x00\n        /* \"#utility.yul\":12283:12289   */\n      dup3\n        /* \"#utility.yul\":12279:12293   */\n      add\n        /* \"#utility.yul\":12272:12309   */\n      mstore\n        /* \"#utility.yul\":12155:12316   */\n      pop\n      jump\t// out\n        /* \"#utility.yul\":12322:12688   */\n    tag_159:\n        /* \"#utility.yul\":12464:12467   */\n      0x00\n        /* \"#utility.yul\":12485:12552   */\n      tag_298\n        /* \"#utility.yul\":12549:12551   */\n      0x0b\n        /* \"#utility.yul\":12544:12547   */\n      dup4\n        /* \"#utility.yul\":12485:12552   */\n      tag_153\n      jump\t// in\n    tag_298:\n        /* \"#utility.yul\":12478:12552   */\n      swap2\n      pop\n        /* \"#utility.yul\":12561:12654   */\n      tag_299\n        /* \"#utility.yul\":12650:12653   */\n      dup3\n        /* \"#utility.yul\":12561:12654   */\n      tag_158\n      jump\t// in\n    tag_299:\n        /* \"#utility.yul\":12679:12681   */\n      0x20\n        /* \"#utility.yul\":12674:12677   */\n      dup3\n        /* \"#utility.yul\":12670:12682   */\n      add\n        /* \"#utility.yul\":12663:12682   */\n      swap1\n      pop\n        /* \"#utility.yul\":12322:12688   */\n      swap2\n      swap1\n      pop\n      jump\t// out\n        /* \"#utility.yul\":12694:13113   */\n    tag_75:\n        /* \"#utility.yul\":12860:12864   */\n      0x00\n        /* \"#utility.yul\":12898:12900   */\n      0x20\n        /* \"#utility.yul\":12887:12896   */\n      dup3\n        /* \"#utility.yul\":12883:12901   */\n      add\n        /* \"#utility.yul\":12875:12901   */\n      swap1\n      pop\n        /* \"#utility.yul\":12947:12956   */\n      dup2\n        /* \"#utility.yul\":12941:12945   */\n      dup2\n        /* \"#utility.yul\":12937:12957   */\n      sub\n        /* \"#utility.yul\":12933:12934   */\n      0x00\n        /* \"#utility.yul\":12922:12931   */\n      dup4\n        /* \"#utility.yul\":12918:12935   */\n      add\n        /* \"#utility.yul\":12911:12958   */\n      mstore\n        /* \"#utility.yul\":12975:13106   */\n      tag_301\n        /* \"#utility.yul\":13101:13105   */\n      dup2\n        /* \"#utility.yul\":12975:13106   */\n      tag_159\n      jump\t// in\n    tag_301:\n        /* \"#utility.yul\":12967:13106   */\n      swap1\n      pop\n        /* \"#utility.yul\":12694:13113   */\n      swap2\n      swap1\n      pop\n      jump\t// out\n        /* \"#utility.yul\":13119:13451   */\n    tag_81:\n        /* \"#utility.yul\":13240:13244   */\n      0x00\n        /* \"#utility.yul\":13278:13280   */\n      0x40\n        /* \"#utility.yul\":13267:13276   */\n      dup3\n        /* \"#utility.yul\":13263:13281   */\n      add\n        /* \"#utility.yul\":13255:13281   */\n      swap1\n      pop\n        /* \"#utility.yul\":13291:13362   */\n      tag_303\n        /* \"#utility.yul\":13359:13360   */\n      0x00\n        /* \"#utility.yul\":13348:13357   */\n      dup4\n        /* \"#utility.yul\":13344:13361   */\n      add\n        /* \"#utility.yul\":13335:13341   */\n      dup6\n        /* \"#utility.yul\":13291:13362   */\n      tag_117\n      jump\t// in\n    tag_303:\n        /* \"#utility.yul\":13372:13444   */\n      tag_304\n        /* \"#utility.yul\":13440:13442   */\n      0x20\n        /* \"#utility.yul\":13429:13438   */\n      dup4\n        /* \"#utility.yul\":13425:13443   */\n      add\n        /* \"#utility.yul\":13416:13422   */\n      dup5\n        /* \"#utility.yul\":13372:13444   */\n      tag_117\n      jump\t// in\n    tag_304:\n        /* \"#utility.yul\":13119:13451   */\n      swap4\n      swap3\n      pop\n      pop\n      pop\n      jump\t// out\n        /* \"#utility.yul\":13457:13677   */\n    tag_160:\n        /* \"#utility.yul\":13597:13631   */\n      0x4f6e6c79206f776e65722063616e2063616c6c20746869732066756e6374696f\n        /* \"#utility.yul\":13593:13594   */\n      0x00\n        /* \"#utility.yul\":13585:13591   */\n      dup3\n        /* \"#utility.yul\":13581:13595   */\n      add\n        /* \"#utility.yul\":13574:13632   */\n      mstore\n        /* \"#utility.yul\":13666:13669   */\n      0x6e00000000000000000000000000000000000000000000000000000000000000\n        /* \"#utility.yul\":13661:13663   */\n      0x20\n        /* \"#utility.yul\":13653:13659   */\n      dup3\n        /* \"#utility.yul\":13649:13664   */\n      add\n        /* \"#utility.yul\":13642:13670   */\n      mstore\n        /* \"#utility.yul\":13457:13677   */\n      pop\n      jump\t// out\n        /* \"#utility.yul\":13683:14049   */\n    tag_161:\n        /* \"#utility.yul\":13825:13828   */\n      0x00\n        /* \"#utility.yul\":13846:13913   */\n      tag_307\n        /* \"#utility.yul\":13910:13912   */\n      0x21\n        /* \"#utility.yul\":13905:13908   */\n      dup4\n        /* \"#utility.yul\":13846:13913   */\n      tag_153\n      jump\t// in\n    tag_307:\n        /* \"#utility.yul\":13839:13913   */\n      swap2\n      pop\n        /* \"#utility.yul\":13922:14015   */\n      tag_308\n        /* \"#utility.yul\":14011:14014   */\n      dup3\n        /* \"#utility.yul\":13922:14015   */\n      tag_160\n      jump\t// in\n    tag_308:\n        /* \"#utility.yul\":14040:14042   */\n      0x40\n        /* \"#utility.yul\":14035:14038   */\n      dup3\n        /* \"#utility.yul\":14031:14043   */\n      add\n        /* \"#utility.yul\":14024:14043   */\n      swap1\n      pop\n        /* \"#utility.yul\":13683:14049   */\n      swap2\n      swap1\n      pop\n      jump\t// out\n        /* \"#utility.yul\":14055:14474   */\n    tag_86:\n        /* \"#utility.yul\":14221:14225   */\n      0x00\n        /* \"#utility.yul\":14259:14261   */\n      0x20\n        /* \"#utility.yul\":14248:14257   */\n      dup3\n        /* \"#utility.yul\":14244:14262   */\n      add\n        /* \"#utility.yul\":14236:14262   */\n      swap1\n      pop\n        /* \"#utility.yul\":14308:14317   */\n      dup2\n        /* \"#utility.yul\":14302:14306   */\n      dup2\n        /* \"#utility.yul\":14298:14318   */\n      sub\n        /* \"#utility.yul\":14294:14295   */\n      0x00\n        /* \"#utility.yul\":14283:14292   */\n      dup4\n        /* \"#utility.yul\":14279:14296   */\n      add\n        /* \"#utility.yul\":14272:14319   */\n      mstore\n        /* \"#utility.yul\":14336:14467   */\n      tag_310\n        /* \"#utility.yul\":14462:14466   */\n      dup2\n        /* \"#utility.yul\":14336:14467   */\n      tag_161\n      jump\t// in\n    tag_310:\n        /* \"#utility.yul\":14328:14467   */\n      swap1\n      pop\n        /* \"#utility.yul\":14055:14474   */\n      swap2\n      swap1\n      pop\n      jump\t// out\n        /* \"#utility.yul\":14480:14651   */\n    tag_162:\n        /* \"#utility.yul\":14620:14643   */\n      0x41756374696f6e20686173206e6f7420656e6465640000000000000000000000\n        /* \"#utility.yul\":14616:14617   */\n      0x00\n        /* \"#utility.yul\":14608:14614   */\n      dup3\n        /* \"#utility.yul\":14604:14618   */\n      add\n        /* \"#utility.yul\":14597:14644   */\n      mstore\n        /* \"#utility.yul\":14480:14651   */\n      pop\n      jump\t// out\n        /* \"#utility.yul\":14657:15023   */\n    tag_163:\n        /* \"#utility.yul\":14799:14802   */\n      0x00\n        /* \"#utility.yul\":14820:14887   */\n      tag_313\n        /* \"#utility.yul\":14884:14886   */\n      0x15\n        /* \"#utility.yul\":14879:14882   */\n      dup4\n        /* \"#utility.yul\":14820:14887   */\n      tag_153\n      jump\t// in\n    tag_313:\n        /* \"#utility.yul\":14813:14887   */\n      swap2\n      pop\n        /* \"#utility.yul\":14896:14989   */\n      tag_314\n        /* \"#utility.yul\":14985:14988   */\n      dup3\n        /* \"#utility.yul\":14896:14989   */\n      tag_162\n      jump\t// in\n    tag_314:\n        /* \"#utility.yul\":15014:15016   */\n      0x20\n        /* \"#utility.yul\":15009:15012   */\n      dup3\n        /* \"#utility.yul\":15005:15017   */\n      add\n        /* \"#utility.yul\":14998:15017   */\n      swap1\n      pop\n        /* \"#utility.yul\":14657:15023   */\n      swap2\n      swap1\n      pop\n      jump\t// out\n        /* \"#utility.yul\":15029:15448   */\n    tag_90:\n        /* \"#utility.yul\":15195:15199   */\n      0x00\n        /* \"#utility.yul\":15233:15235   */\n      0x20\n        /* \"#utility.yul\":15222:15231   */\n      dup3\n        /* \"#utility.yul\":15218:15236   */\n      add\n        /* \"#utility.yul\":15210:15236   */\n      swap1\n      pop\n        /* \"#utility.yul\":15282:15291   */\n      dup2\n        /* \"#utility.yul\":15276:15280   */\n      dup2\n        /* \"#utility.yul\":15272:15292   */\n      sub\n        /* \"#utility.yul\":15268:15269   */\n      0x00\n        /* \"#utility.yul\":15257:15266   */\n      dup4\n        /* \"#utility.yul\":15253:15270   */\n      add\n        /* \"#utility.yul\":15246:15293   */\n      mstore\n        /* \"#utility.yul\":15310:15441   */\n      tag_316\n        /* \"#utility.yul\":15436:15440   */\n      dup2\n        /* \"#utility.yul\":15310:15441   */\n      tag_163\n      jump\t// in\n    tag_316:\n        /* \"#utility.yul\":15302:15441   */\n      swap1\n      pop\n        /* \"#utility.yul\":15029:15448   */\n      swap2\n      swap1\n      pop\n      jump\t// out\n        /* \"#utility.yul\":15454:15634   */\n    tag_96:\n        /* \"#utility.yul\":15502:15579   */\n      0x4e487b7100000000000000000000000000000000000000000000000000000000\n        /* \"#utility.yul\":15499:15500   */\n      0x00\n        /* \"#utility.yul\":15492:15580   */\n      mstore\n        /* \"#utility.yul\":15599:15603   */\n      0x32\n        /* \"#utility.yul\":15596:15597   */\n      0x04\n        /* \"#utility.yul\":15589:15604   */\n      mstore\n        /* \"#utility.yul\":15623:15627   */\n      0x24\n        /* \"#utility.yul\":15620:15621   */\n      0x00\n        /* \"#utility.yul\":15613:15628   */\n      revert\n        /* \"#utility.yul\":15640:15834   */\n    tag_102:\n        /* \"#utility.yul\":15680:15684   */\n      0x00\n        /* \"#utility.yul\":15700:15720   */\n      tag_319\n        /* \"#utility.yul\":15718:15719   */\n      dup3\n        /* \"#utility.yul\":15700:15720   */\n      tag_116\n      jump\t// in\n    tag_319:\n        /* \"#utility.yul\":15695:15720   */\n      swap2\n      pop\n        /* \"#utility.yul\":15734:15754   */\n      tag_320\n        /* \"#utility.yul\":15752:15753   */\n      dup4\n        /* \"#utility.yul\":15734:15754   */\n      tag_116\n      jump\t// in\n    tag_320:\n        /* \"#utility.yul\":15729:15754   */\n      swap3\n      pop\n        /* \"#utility.yul\":15778:15779   */\n      dup3\n        /* \"#utility.yul\":15775:15776   */\n      dup3\n        /* \"#utility.yul\":15771:15780   */\n      sub\n        /* \"#utility.yul\":15763:15780   */\n      swap1\n      pop\n        /* \"#utility.yul\":15802:15803   */\n      dup2\n        /* \"#utility.yul\":15796:15800   */\n      dup2\n        /* \"#utility.yul\":15793:15804   */\n      gt\n        /* \"#utility.yul\":15790:15827   */\n      iszero\n      tag_321\n      jumpi\n        /* \"#utility.yul\":15807:15825   */\n      tag_322\n      tag_156\n      jump\t// in\n    tag_322:\n        /* \"#utility.yul\":15790:15827   */\n    tag_321:\n        /* \"#utility.yul\":15640:15834   */\n      swap3\n      swap2\n      pop\n      pop\n      jump\t// out\n\n    auxdata: 0xa264697066735822122045e1f0476620185c7c87ecceb4d012d5f55dc239b3457b62dbaa6c1ad7e0cf9b64736f6c63430008190033\n}\n",
				"bytecode": {
					"linkReferences": {},
					"object": "608060405260058055348015610013575f80fd5b506040516111bf3803806111bf833981810160405281019061003591906100b8565b335f806101000a81548173ffffffffffffffffffffffffffffffffffffffff021916908373ffffffffffffffffffffffffffffffffffffffff16021790555080600181905550506100e3565b5f80fd5b5f819050919050565b61009781610085565b81146100a1575f80fd5b50565b5f815190506100b28161008e565b92915050565b5f602082840312156100cd576100cc610081565b5b5f6100da848285016100a4565b91505092915050565b6110cf806100f05f395ff3fe60806040526004361061009b575f3560e01c806391f901571161006357806391f9015714610164578063a67226631461018e578063b81c78ec146101b6578063c264a063146101e1578063d57bde79146101f7578063e627599c146102215761009b565b80631998aeef1461009f5780633197cbb6146100a957806362ea82db146100d35780638da5cb5b1461010f5780638e7ea5b214610139575b5f80fd5b6100a761024b565b005b3480156100b4575f80fd5b506100bd6104b0565b6040516100ca91906108bc565b60405180910390f35b3480156100de575f80fd5b506100f960048036038101906100f49190610940565b6104b6565b60405161010691906108bc565b60405180910390f35b34801561011a575f80fd5b506101236104cb565b604051610130919061098b565b60405180910390f35b348015610144575f80fd5b5061014d6104ee565b60405161015b9291906109b3565b60405180910390f35b34801561016f575f80fd5b5061017861051d565b604051610185919061098b565b60405180910390f35b348015610199575f80fd5b506101b460048036038101906101af9190610b54565b610542565b005b3480156101c1575f80fd5b506101ca61076c565b6040516101d8929190610d09565b60405180910390f35b3480156101ec575f80fd5b506101f5610772565b005b348015610202575f80fd5b5061020b610898565b60405161021891906108bc565b60405180910390f35b34801561022c575f80fd5b5061023561089e565b60405161024291906108bc565b60405180910390f35b600154421061028f576040517f08c379a000000000000000000000000000000000000000000000000000000000815260040161028690610d98565b60405180910390fd5b606460055460646102a09190610de3565b6003546102ad9190610e16565b6102b79190610e84565b34116102f8576040517f08c379a00000000000000000000000000000000000000000000000000000000081526004016102ef90610efe565b60405180910390fd5b5f60045f3373ffffffffffffffffffffffffffffffffffffffff1673ffffffffffffffffffffffffffffffffffffffff1681526020019081526020015f205411156103bf573373ffffffffffffffffffffffffffffffffffffffff166108fc60045f3373ffffffffffffffffffffffffffffffffffffffff1673ffffffffffffffffffffffffffffffffffffffff1681526020019081526020015f205490811502906040515f60405180830381858888f193505050501580156103bd573d5f803e3d5ffd5b505b3360025f6101000a81548173ffffffffffffffffffffffffffffffffffffffff021916908373ffffffffffffffffffffffffffffffffffffffff160217905550346003819055503460045f3373ffffffffffffffffffffffffffffffffffffffff1673ffffffffffffffffffffffffffffffffffffffff1681526020019081526020015f2081905550610258426104569190610de3565b6001819055503373ffffffffffffffffffffffffffffffffffffffff167f87f5b2fe112bf269d30fb8ca9dc0bde0afd0cc39258e13fafd75fe794795bf0e346001546040516104a6929190610f1c565b60405180910390a2565b60015481565b6004602052805f5260405f205f915090505481565b5f8054906101000a900473ffffffffffffffffffffffffffffffffffffffff1681565b5f8060025f9054906101000a900473ffffffffffffffffffffffffffffffffffffffff16600354915091509091565b60025f9054906101000a900473ffffffffffffffffffffffffffffffffffffffff1681565b5f8054906101000a900473ffffffffffffffffffffffffffffffffffffffff1673ffffffffffffffffffffffffffffffffffffffff163373ffffffffffffffffffffffffffffffffffffffff16146105cf576040517f08c379a00000000000000000000000000000000000000000000000000000000081526004016105c690610fb3565b60405180910390fd5b600154421015610614576040517f08c379a000000000000000000000000000000000000000000000000000000000815260040161060b9061101b565b60405180910390fd5b5f5b8151811015610768575f60045f84848151811061063657610635611039565b5b602002602001015173ffffffffffffffffffffffffffffffffffffffff1673ffffffffffffffffffffffffffffffffffffffff1681526020019081526020015f205490505f606460028361068a9190610e16565b6106949190610e84565b90508383815181106106a9576106a8611039565b5b602002602001015173ffffffffffffffffffffffffffffffffffffffff166108fc82846106d69190611066565b90811502906040515f60405180830381858888f193505050501580156106fe573d5f803e3d5ffd5b5060045f85858151811061071557610714611039565b5b602002602001015173ffffffffffffffffffffffffffffffffffffffff1673ffffffffffffffffffffffffffffffffffffffff1681526020019081526020015f205f905550508080600101915050610616565b5050565b60608091565b60015442106107b6576040517f08c379a00000000000000000000000000000000000000000000000000000000081526004016107ad90610d98565b60405180910390fd5b5f60035460045f3373ffffffffffffffffffffffffffffffffffffffff1673ffffffffffffffffffffffffffffffffffffffff1681526020019081526020015f20546108029190611066565b90505f811115610895573373ffffffffffffffffffffffffffffffffffffffff166108fc8290811502906040515f60405180830381858888f1935050505015801561084f573d5f803e3d5ffd5b5060035460045f3373ffffffffffffffffffffffffffffffffffffffff1673ffffffffffffffffffffffffffffffffffffffff1681526020019081526020015f20819055505b50565b60035481565b60055481565b5f819050919050565b6108b6816108a4565b82525050565b5f6020820190506108cf5f8301846108ad565b92915050565b5f604051905090565b5f80fd5b5f80fd5b5f73ffffffffffffffffffffffffffffffffffffffff82169050919050565b5f61090f826108e6565b9050919050565b61091f81610905565b8114610929575f80fd5b50565b5f8135905061093a81610916565b92915050565b5f60208284031215610955576109546108de565b5b5f6109628482850161092c565b91505092915050565b5f610975826108e6565b9050919050565b6109858161096b565b82525050565b5f60208201905061099e5f83018461097c565b92915050565b6109ad81610905565b82525050565b5f6040820190506109c65f8301856109a4565b6109d360208301846108ad565b9392505050565b5f80fd5b5f601f19601f8301169050919050565b7f4e487b71000000000000000000000000000000000000000000000000000000005f52604160045260245ffd5b610a24826109de565b810181811067ffffffffffffffff82111715610a4357610a426109ee565b5b80604052505050565b5f610a556108d5565b9050610a618282610a1b565b919050565b5f67ffffffffffffffff821115610a8057610a7f6109ee565b5b602082029050602081019050919050565b5f80fd5b610a9e8161096b565b8114610aa8575f80fd5b50565b5f81359050610ab981610a95565b92915050565b5f610ad1610acc84610a66565b610a4c565b90508083825260208201905060208402830185811115610af457610af3610a91565b5b835b81811015610b1d5780610b098882610aab565b845260208401935050602081019050610af6565b5050509392505050565b5f82601f830112610b3b57610b3a6109da565b5b8135610b4b848260208601610abf565b91505092915050565b5f60208284031215610b6957610b686108de565b5b5f82013567ffffffffffffffff811115610b8657610b856108e2565b5b610b9284828501610b27565b91505092915050565b5f81519050919050565b5f82825260208201905092915050565b5f819050602082019050919050565b610bcd81610905565b82525050565b5f610bde8383610bc4565b60208301905092915050565b5f602082019050919050565b5f610c0082610b9b565b610c0a8185610ba5565b9350610c1583610bb5565b805f5b83811015610c45578151610c2c8882610bd3565b9750610c3783610bea565b925050600181019050610c18565b5085935050505092915050565b5f81519050919050565b5f82825260208201905092915050565b5f819050602082019050919050565b610c84816108a4565b82525050565b5f610c958383610c7b565b60208301905092915050565b5f602082019050919050565b5f610cb782610c52565b610cc18185610c5c565b9350610ccc83610c6c565b805f5b83811015610cfc578151610ce38882610c8a565b9750610cee83610ca1565b925050600181019050610ccf565b5085935050505092915050565b5f6040820190508181035f830152610d218185610bf6565b90508181036020830152610d358184610cad565b90509392505050565b5f82825260208201905092915050565b7f41756374696f6e2068617320656e6465640000000000000000000000000000005f82015250565b5f610d82601183610d3e565b9150610d8d82610d4e565b602082019050919050565b5f6020820190508181035f830152610daf81610d76565b9050919050565b7f4e487b71000000000000000000000000000000000000000000000000000000005f52601160045260245ffd5b5f610ded826108a4565b9150610df8836108a4565b9250828201905080821115610e1057610e0f610db6565b5b92915050565b5f610e20826108a4565b9150610e2b836108a4565b9250828202610e39816108a4565b91508282048414831517610e5057610e4f610db6565b5b5092915050565b7f4e487b71000000000000000000000000000000000000000000000000000000005f52601260045260245ffd5b5f610e8e826108a4565b9150610e99836108a4565b925082610ea957610ea8610e57565b5b828204905092915050565b7f42696420746f6f206c6f770000000000000000000000000000000000000000005f82015250565b5f610ee8600b83610d3e565b9150610ef382610eb4565b602082019050919050565b5f6020820190508181035f830152610f1581610edc565b9050919050565b5f604082019050610f2f5f8301856108ad565b610f3c60208301846108ad565b9392505050565b7f4f6e6c79206f776e65722063616e2063616c6c20746869732066756e6374696f5f8201527f6e00000000000000000000000000000000000000000000000000000000000000602082015250565b5f610f9d602183610d3e565b9150610fa882610f43565b604082019050919050565b5f6020820190508181035f830152610fca81610f91565b9050919050565b7f41756374696f6e20686173206e6f7420656e64656400000000000000000000005f82015250565b5f611005601583610d3e565b915061101082610fd1565b602082019050919050565b5f6020820190508181035f83015261103281610ff9565b9050919050565b7f4e487b71000000000000000000000000000000000000000000000000000000005f52603260045260245ffd5b5f611070826108a4565b915061107b836108a4565b925082820390508181111561109357611092610db6565b5b9291505056fea264697066735822122045e1f0476620185c7c87ecceb4d012d5f55dc239b3457b62dbaa6c1ad7e0cf9b64736f6c63430008190033",
					"opcodes": "PUSH1 0x80 PUSH1 0x40 MSTORE PUSH1 0x5 DUP1 SSTORE CALLVALUE DUP1 ISZERO PUSH2 0x13 JUMPI PUSH0 DUP1 REVERT JUMPDEST POP PUSH1 0x40 MLOAD PUSH2 0x11BF CODESIZE SUB DUP1 PUSH2 0x11BF DUP4 CODECOPY DUP2 DUP2 ADD PUSH1 0x40 MSTORE DUP2 ADD SWAP1 PUSH2 0x35 SWAP2 SWAP1 PUSH2 0xB8 JUMP JUMPDEST CALLER PUSH0 DUP1 PUSH2 0x100 EXP DUP2 SLOAD DUP2 PUSH20 0xFFFFFFFFFFFFFFFFFFFFFFFFFFFFFFFFFFFFFFFF MUL NOT AND SWAP1 DUP4 PUSH20 0xFFFFFFFFFFFFFFFFFFFFFFFFFFFFFFFFFFFFFFFF AND MUL OR SWAP1 SSTORE POP DUP1 PUSH1 0x1 DUP2 SWAP1 SSTORE POP POP PUSH2 0xE3 JUMP JUMPDEST PUSH0 DUP1 REVERT JUMPDEST PUSH0 DUP2 SWAP1 POP SWAP2 SWAP1 POP JUMP JUMPDEST PUSH2 0x97 DUP2 PUSH2 0x85 JUMP JUMPDEST DUP2 EQ PUSH2 0xA1 JUMPI PUSH0 DUP1 REVERT JUMPDEST POP JUMP JUMPDEST PUSH0 DUP2 MLOAD SWAP1 POP PUSH2 0xB2 DUP2 PUSH2 0x8E JUMP JUMPDEST SWAP3 SWAP2 POP POP JUMP JUMPDEST PUSH0 PUSH1 0x20 DUP3 DUP5 SUB SLT ISZERO PUSH2 0xCD JUMPI PUSH2 0xCC PUSH2 0x81 JUMP JUMPDEST JUMPDEST PUSH0 PUSH2 0xDA DUP5 DUP3 DUP6 ADD PUSH2 0xA4 JUMP JUMPDEST SWAP2 POP POP SWAP3 SWAP2 POP POP JUMP JUMPDEST PUSH2 0x10CF DUP1 PUSH2 0xF0 PUSH0 CODECOPY PUSH0 RETURN INVALID PUSH1 0x80 PUSH1 0x40 MSTORE PUSH1 0x4 CALLDATASIZE LT PUSH2 0x9B JUMPI PUSH0 CALLDATALOAD PUSH1 0xE0 SHR DUP1 PUSH4 0x91F90157 GT PUSH2 0x63 JUMPI DUP1 PUSH4 0x91F90157 EQ PUSH2 0x164 JUMPI DUP1 PUSH4 0xA6722663 EQ PUSH2 0x18E JUMPI DUP1 PUSH4 0xB81C78EC EQ PUSH2 0x1B6 JUMPI DUP1 PUSH4 0xC264A063 EQ PUSH2 0x1E1 JUMPI DUP1 PUSH4 0xD57BDE79 EQ PUSH2 0x1F7 JUMPI DUP1 PUSH4 0xE627599C EQ PUSH2 0x221 JUMPI PUSH2 0x9B JUMP JUMPDEST DUP1 PUSH4 0x1998AEEF EQ PUSH2 0x9F JUMPI DUP1 PUSH4 0x3197CBB6 EQ PUSH2 0xA9 JUMPI DUP1 PUSH4 0x62EA82DB EQ PUSH2 0xD3 JUMPI DUP1 PUSH4 0x8DA5CB5B EQ PUSH2 0x10F JUMPI DUP1 PUSH4 0x8E7EA5B2 EQ PUSH2 0x139 JUMPI JUMPDEST PUSH0 DUP1 REVERT JUMPDEST PUSH2 0xA7 PUSH2 0x24B JUMP JUMPDEST STOP JUMPDEST CALLVALUE DUP1 ISZERO PUSH2 0xB4 JUMPI PUSH0 DUP1 REVERT JUMPDEST POP PUSH2 0xBD PUSH2 0x4B0 JUMP JUMPDEST PUSH1 0x40 MLOAD PUSH2 0xCA SWAP2 SWAP1 PUSH2 0x8BC JUMP JUMPDEST PUSH1 0x40 MLOAD DUP1 SWAP2 SUB SWAP1 RETURN JUMPDEST CALLVALUE DUP1 ISZERO PUSH2 0xDE JUMPI PUSH0 DUP1 REVERT JUMPDEST POP PUSH2 0xF9 PUSH1 0x4 DUP1 CALLDATASIZE SUB DUP2 ADD SWAP1 PUSH2 0xF4 SWAP2 SWAP1 PUSH2 0x940 JUMP JUMPDEST PUSH2 0x4B6 JUMP JUMPDEST PUSH1 0x40 MLOAD PUSH2 0x106 SWAP2 SWAP1 PUSH2 0x8BC JUMP JUMPDEST PUSH1 0x40 MLOAD DUP1 SWAP2 SUB SWAP1 RETURN JUMPDEST CALLVALUE DUP1 ISZERO PUSH2 0x11A JUMPI PUSH0 DUP1 REVERT JUMPDEST POP PUSH2 0x123 PUSH2 0x4CB JUMP JUMPDEST PUSH1 0x40 MLOAD PUSH2 0x130 SWAP2 SWAP1 PUSH2 0x98B JUMP JUMPDEST PUSH1 0x40 MLOAD DUP1 SWAP2 SUB SWAP1 RETURN JUMPDEST CALLVALUE DUP1 ISZERO PUSH2 0x144 JUMPI PUSH0 DUP1 REVERT JUMPDEST POP PUSH2 0x14D PUSH2 0x4EE JUMP JUMPDEST PUSH1 0x40 MLOAD PUSH2 0x15B SWAP3 SWAP2 SWAP1 PUSH2 0x9B3 JUMP JUMPDEST PUSH1 0x40 MLOAD DUP1 SWAP2 SUB SWAP1 RETURN JUMPDEST CALLVALUE DUP1 ISZERO PUSH2 0x16F JUMPI PUSH0 DUP1 REVERT JUMPDEST POP PUSH2 0x178 PUSH2 0x51D JUMP JUMPDEST PUSH1 0x40 MLOAD PUSH2 0x185 SWAP2 SWAP1 PUSH2 0x98B JUMP JUMPDEST PUSH1 0x40 MLOAD DUP1 SWAP2 SUB SWAP1 RETURN JUMPDEST CALLVALUE DUP1 ISZERO PUSH2 0x199 JUMPI PUSH0 DUP1 REVERT JUMPDEST POP PUSH2 0x1B4 PUSH1 0x4 DUP1 CALLDATASIZE SUB DUP2 ADD SWAP1 PUSH2 0x1AF SWAP2 SWAP1 PUSH2 0xB54 JUMP JUMPDEST PUSH2 0x542 JUMP JUMPDEST STOP JUMPDEST CALLVALUE DUP1 ISZERO PUSH2 0x1C1 JUMPI PUSH0 DUP1 REVERT JUMPDEST POP PUSH2 0x1CA PUSH2 0x76C JUMP JUMPDEST PUSH1 0x40 MLOAD PUSH2 0x1D8 SWAP3 SWAP2 SWAP1 PUSH2 0xD09 JUMP JUMPDEST PUSH1 0x40 MLOAD DUP1 SWAP2 SUB SWAP1 RETURN JUMPDEST CALLVALUE DUP1 ISZERO PUSH2 0x1EC JUMPI PUSH0 DUP1 REVERT JUMPDEST POP PUSH2 0x1F5 PUSH2 0x772 JUMP JUMPDEST STOP JUMPDEST CALLVALUE DUP1 ISZERO PUSH2 0x202 JUMPI PUSH0 DUP1 REVERT JUMPDEST POP PUSH2 0x20B PUSH2 0x898 JUMP JUMPDEST PUSH1 0x40 MLOAD PUSH2 0x218 SWAP2 SWAP1 PUSH2 0x8BC JUMP JUMPDEST PUSH1 0x40 MLOAD DUP1 SWAP2 SUB SWAP1 RETURN JUMPDEST CALLVALUE DUP1 ISZERO PUSH2 0x22C JUMPI PUSH0 DUP1 REVERT JUMPDEST POP PUSH2 0x235 PUSH2 0x89E JUMP JUMPDEST PUSH1 0x40 MLOAD PUSH2 0x242 SWAP2 SWAP1 PUSH2 0x8BC JUMP JUMPDEST PUSH1 0x40 MLOAD DUP1 SWAP2 SUB SWAP1 RETURN JUMPDEST PUSH1 0x1 SLOAD TIMESTAMP LT PUSH2 0x28F JUMPI PUSH1 0x40 MLOAD PUSH32 0x8C379A000000000000000000000000000000000000000000000000000000000 DUP2 MSTORE PUSH1 0x4 ADD PUSH2 0x286 SWAP1 PUSH2 0xD98 JUMP JUMPDEST PUSH1 0x40 MLOAD DUP1 SWAP2 SUB SWAP1 REVERT JUMPDEST PUSH1 0x64 PUSH1 0x5 SLOAD PUSH1 0x64 PUSH2 0x2A0 SWAP2 SWAP1 PUSH2 0xDE3 JUMP JUMPDEST PUSH1 0x3 SLOAD PUSH2 0x2AD SWAP2 SWAP1 PUSH2 0xE16 JUMP JUMPDEST PUSH2 0x2B7 SWAP2 SWAP1 PUSH2 0xE84 JUMP JUMPDEST CALLVALUE GT PUSH2 0x2F8 JUMPI PUSH1 0x40 MLOAD PUSH32 0x8C379A000000000000000000000000000000000000000000000000000000000 DUP2 MSTORE PUSH1 0x4 ADD PUSH2 0x2EF SWAP1 PUSH2 0xEFE JUMP JUMPDEST PUSH1 0x40 MLOAD DUP1 SWAP2 SUB SWAP1 REVERT JUMPDEST PUSH0 PUSH1 0x4 PUSH0 CALLER PUSH20 0xFFFFFFFFFFFFFFFFFFFFFFFFFFFFFFFFFFFFFFFF AND PUSH20 0xFFFFFFFFFFFFFFFFFFFFFFFFFFFFFFFFFFFFFFFF AND DUP2 MSTORE PUSH1 0x20 ADD SWAP1 DUP2 MSTORE PUSH1 0x20 ADD PUSH0 KECCAK256 SLOAD GT ISZERO PUSH2 0x3BF JUMPI CALLER PUSH20 0xFFFFFFFFFFFFFFFFFFFFFFFFFFFFFFFFFFFFFFFF AND PUSH2 0x8FC PUSH1 0x4 PUSH0 CALLER PUSH20 0xFFFFFFFFFFFFFFFFFFFFFFFFFFFFFFFFFFFFFFFF AND PUSH20 0xFFFFFFFFFFFFFFFFFFFFFFFFFFFFFFFFFFFFFFFF AND DUP2 MSTORE PUSH1 0x20 ADD SWAP1 DUP2 MSTORE PUSH1 0x20 ADD PUSH0 KECCAK256 SLOAD SWAP1 DUP2 ISZERO MUL SWAP1 PUSH1 0x40 MLOAD PUSH0 PUSH1 0x40 MLOAD DUP1 DUP4 SUB DUP2 DUP6 DUP9 DUP9 CALL SWAP4 POP POP POP POP ISZERO DUP1 ISZERO PUSH2 0x3BD JUMPI RETURNDATASIZE PUSH0 DUP1 RETURNDATACOPY RETURNDATASIZE PUSH0 REVERT JUMPDEST POP JUMPDEST CALLER PUSH1 0x2 PUSH0 PUSH2 0x100 EXP DUP2 SLOAD DUP2 PUSH20 0xFFFFFFFFFFFFFFFFFFFFFFFFFFFFFFFFFFFFFFFF MUL NOT AND SWAP1 DUP4 PUSH20 0xFFFFFFFFFFFFFFFFFFFFFFFFFFFFFFFFFFFFFFFF AND MUL OR SWAP1 SSTORE POP CALLVALUE PUSH1 0x3 DUP2 SWAP1 SSTORE POP CALLVALUE PUSH1 0x4 PUSH0 CALLER PUSH20 0xFFFFFFFFFFFFFFFFFFFFFFFFFFFFFFFFFFFFFFFF AND PUSH20 0xFFFFFFFFFFFFFFFFFFFFFFFFFFFFFFFFFFFFFFFF AND DUP2 MSTORE PUSH1 0x20 ADD SWAP1 DUP2 MSTORE PUSH1 0x20 ADD PUSH0 KECCAK256 DUP2 SWAP1 SSTORE POP PUSH2 0x258 TIMESTAMP PUSH2 0x456 SWAP2 SWAP1 PUSH2 0xDE3 JUMP JUMPDEST PUSH1 0x1 DUP2 SWAP1 SSTORE POP CALLER PUSH20 0xFFFFFFFFFFFFFFFFFFFFFFFFFFFFFFFFFFFFFFFF AND PUSH32 0x87F5B2FE112BF269D30FB8CA9DC0BDE0AFD0CC39258E13FAFD75FE794795BF0E CALLVALUE PUSH1 0x1 SLOAD PUSH1 0x40 MLOAD PUSH2 0x4A6 SWAP3 SWAP2 SWAP1 PUSH2 0xF1C JUMP JUMPDEST PUSH1 0x40 MLOAD DUP1 SWAP2 SUB SWAP1 LOG2 JUMP JUMPDEST PUSH1 0x1 SLOAD DUP2 JUMP JUMPDEST PUSH1 0x4 PUSH1 0x20 MSTORE DUP1 PUSH0 MSTORE PUSH1 0x40 PUSH0 KECCAK256 PUSH0 SWAP2 POP SWAP1 POP SLOAD DUP2 JUMP JUMPDEST PUSH0 DUP1 SLOAD SWAP1 PUSH2 0x100 EXP SWAP1 DIV PUSH20 0xFFFFFFFFFFFFFFFFFFFFFFFFFFFFFFFFFFFFFFFF AND DUP2 JUMP JUMPDEST PUSH0 DUP1 PUSH1 0x2 PUSH0 SWAP1 SLOAD SWAP1 PUSH2 0x100 EXP SWAP1 DIV PUSH20 0xFFFFFFFFFFFFFFFFFFFFFFFFFFFFFFFFFFFFFFFF AND PUSH1 0x3 SLOAD SWAP2 POP SWAP2 POP SWAP1 SWAP2 JUMP JUMPDEST PUSH1 0x2 PUSH0 SWAP1 SLOAD SWAP1 PUSH2 0x100 EXP SWAP1 DIV PUSH20 0xFFFFFFFFFFFFFFFFFFFFFFFFFFFFFFFFFFFFFFFF AND DUP2 JUMP JUMPDEST PUSH0 DUP1 SLOAD SWAP1 PUSH2 0x100 EXP SWAP1 DIV PUSH20 0xFFFFFFFFFFFFFFFFFFFFFFFFFFFFFFFFFFFFFFFF AND PUSH20 0xFFFFFFFFFFFFFFFFFFFFFFFFFFFFFFFFFFFFFFFF AND CALLER PUSH20 0xFFFFFFFFFFFFFFFFFFFFFFFFFFFFFFFFFFFFFFFF AND EQ PUSH2 0x5CF JUMPI PUSH1 0x40 MLOAD PUSH32 0x8C379A000000000000000000000000000000000000000000000000000000000 DUP2 MSTORE PUSH1 0x4 ADD PUSH2 0x5C6 SWAP1 PUSH2 0xFB3 JUMP JUMPDEST PUSH1 0x40 MLOAD DUP1 SWAP2 SUB SWAP1 REVERT JUMPDEST PUSH1 0x1 SLOAD TIMESTAMP LT ISZERO PUSH2 0x614 JUMPI PUSH1 0x40 MLOAD PUSH32 0x8C379A000000000000000000000000000000000000000000000000000000000 DUP2 MSTORE PUSH1 0x4 ADD PUSH2 0x60B SWAP1 PUSH2 0x101B JUMP JUMPDEST PUSH1 0x40 MLOAD DUP1 SWAP2 SUB SWAP1 REVERT JUMPDEST PUSH0 JUMPDEST DUP2 MLOAD DUP2 LT ISZERO PUSH2 0x768 JUMPI PUSH0 PUSH1 0x4 PUSH0 DUP5 DUP5 DUP2 MLOAD DUP2 LT PUSH2 0x636 JUMPI PUSH2 0x635 PUSH2 0x1039 JUMP JUMPDEST JUMPDEST PUSH1 0x20 MUL PUSH1 0x20 ADD ADD MLOAD PUSH20 0xFFFFFFFFFFFFFFFFFFFFFFFFFFFFFFFFFFFFFFFF AND PUSH20 0xFFFFFFFFFFFFFFFFFFFFFFFFFFFFFFFFFFFFFFFF AND DUP2 MSTORE PUSH1 0x20 ADD SWAP1 DUP2 MSTORE PUSH1 0x20 ADD PUSH0 KECCAK256 SLOAD SWAP1 POP PUSH0 PUSH1 0x64 PUSH1 0x2 DUP4 PUSH2 0x68A SWAP2 SWAP1 PUSH2 0xE16 JUMP JUMPDEST PUSH2 0x694 SWAP2 SWAP1 PUSH2 0xE84 JUMP JUMPDEST SWAP1 POP DUP4 DUP4 DUP2 MLOAD DUP2 LT PUSH2 0x6A9 JUMPI PUSH2 0x6A8 PUSH2 0x1039 JUMP JUMPDEST JUMPDEST PUSH1 0x20 MUL PUSH1 0x20 ADD ADD MLOAD PUSH20 0xFFFFFFFFFFFFFFFFFFFFFFFFFFFFFFFFFFFFFFFF AND PUSH2 0x8FC DUP3 DUP5 PUSH2 0x6D6 SWAP2 SWAP1 PUSH2 0x1066 JUMP JUMPDEST SWAP1 DUP2 ISZERO MUL SWAP1 PUSH1 0x40 MLOAD PUSH0 PUSH1 0x40 MLOAD DUP1 DUP4 SUB DUP2 DUP6 DUP9 DUP9 CALL SWAP4 POP POP POP POP ISZERO DUP1 ISZERO PUSH2 0x6FE JUMPI RETURNDATASIZE PUSH0 DUP1 RETURNDATACOPY RETURNDATASIZE PUSH0 REVERT JUMPDEST POP PUSH1 0x4 PUSH0 DUP6 DUP6 DUP2 MLOAD DUP2 LT PUSH2 0x715 JUMPI PUSH2 0x714 PUSH2 0x1039 JUMP JUMPDEST JUMPDEST PUSH1 0x20 MUL PUSH1 0x20 ADD ADD MLOAD PUSH20 0xFFFFFFFFFFFFFFFFFFFFFFFFFFFFFFFFFFFFFFFF AND PUSH20 0xFFFFFFFFFFFFFFFFFFFFFFFFFFFFFFFFFFFFFFFF AND DUP2 MSTORE PUSH1 0x20 ADD SWAP1 DUP2 MSTORE PUSH1 0x20 ADD PUSH0 KECCAK256 PUSH0 SWAP1 SSTORE POP POP DUP1 DUP1 PUSH1 0x1 ADD SWAP2 POP POP PUSH2 0x616 JUMP JUMPDEST POP POP JUMP JUMPDEST PUSH1 0x60 DUP1 SWAP2 JUMP JUMPDEST PUSH1 0x1 SLOAD TIMESTAMP LT PUSH2 0x7B6 JUMPI PUSH1 0x40 MLOAD PUSH32 0x8C379A000000000000000000000000000000000000000000000000000000000 DUP2 MSTORE PUSH1 0x4 ADD PUSH2 0x7AD SWAP1 PUSH2 0xD98 JUMP JUMPDEST PUSH1 0x40 MLOAD DUP1 SWAP2 SUB SWAP1 REVERT JUMPDEST PUSH0 PUSH1 0x3 SLOAD PUSH1 0x4 PUSH0 CALLER PUSH20 0xFFFFFFFFFFFFFFFFFFFFFFFFFFFFFFFFFFFFFFFF AND PUSH20 0xFFFFFFFFFFFFFFFFFFFFFFFFFFFFFFFFFFFFFFFF AND DUP2 MSTORE PUSH1 0x20 ADD SWAP1 DUP2 MSTORE PUSH1 0x20 ADD PUSH0 KECCAK256 SLOAD PUSH2 0x802 SWAP2 SWAP1 PUSH2 0x1066 JUMP JUMPDEST SWAP1 POP PUSH0 DUP2 GT ISZERO PUSH2 0x895 JUMPI CALLER PUSH20 0xFFFFFFFFFFFFFFFFFFFFFFFFFFFFFFFFFFFFFFFF AND PUSH2 0x8FC DUP3 SWAP1 DUP2 ISZERO MUL SWAP1 PUSH1 0x40 MLOAD PUSH0 PUSH1 0x40 MLOAD DUP1 DUP4 SUB DUP2 DUP6 DUP9 DUP9 CALL SWAP4 POP POP POP POP ISZERO DUP1 ISZERO PUSH2 0x84F JUMPI RETURNDATASIZE PUSH0 DUP1 RETURNDATACOPY RETURNDATASIZE PUSH0 REVERT JUMPDEST POP PUSH1 0x3 SLOAD PUSH1 0x4 PUSH0 CALLER PUSH20 0xFFFFFFFFFFFFFFFFFFFFFFFFFFFFFFFFFFFFFFFF AND PUSH20 0xFFFFFFFFFFFFFFFFFFFFFFFFFFFFFFFFFFFFFFFF AND DUP2 MSTORE PUSH1 0x20 ADD SWAP1 DUP2 MSTORE PUSH1 0x20 ADD PUSH0 KECCAK256 DUP2 SWAP1 SSTORE POP JUMPDEST POP JUMP JUMPDEST PUSH1 0x3 SLOAD DUP2 JUMP JUMPDEST PUSH1 0x5 SLOAD DUP2 JUMP JUMPDEST PUSH0 DUP2 SWAP1 POP SWAP2 SWAP1 POP JUMP JUMPDEST PUSH2 0x8B6 DUP2 PUSH2 0x8A4 JUMP JUMPDEST DUP3 MSTORE POP POP JUMP JUMPDEST PUSH0 PUSH1 0x20 DUP3 ADD SWAP1 POP PUSH2 0x8CF PUSH0 DUP4 ADD DUP5 PUSH2 0x8AD JUMP JUMPDEST SWAP3 SWAP2 POP POP JUMP JUMPDEST PUSH0 PUSH1 0x40 MLOAD SWAP1 POP SWAP1 JUMP JUMPDEST PUSH0 DUP1 REVERT JUMPDEST PUSH0 DUP1 REVERT JUMPDEST PUSH0 PUSH20 0xFFFFFFFFFFFFFFFFFFFFFFFFFFFFFFFFFFFFFFFF DUP3 AND SWAP1 POP SWAP2 SWAP1 POP JUMP JUMPDEST PUSH0 PUSH2 0x90F DUP3 PUSH2 0x8E6 JUMP JUMPDEST SWAP1 POP SWAP2 SWAP1 POP JUMP JUMPDEST PUSH2 0x91F DUP2 PUSH2 0x905 JUMP JUMPDEST DUP2 EQ PUSH2 0x929 JUMPI PUSH0 DUP1 REVERT JUMPDEST POP JUMP JUMPDEST PUSH0 DUP2 CALLDATALOAD SWAP1 POP PUSH2 0x93A DUP2 PUSH2 0x916 JUMP JUMPDEST SWAP3 SWAP2 POP POP JUMP JUMPDEST PUSH0 PUSH1 0x20 DUP3 DUP5 SUB SLT ISZERO PUSH2 0x955 JUMPI PUSH2 0x954 PUSH2 0x8DE JUMP JUMPDEST JUMPDEST PUSH0 PUSH2 0x962 DUP5 DUP3 DUP6 ADD PUSH2 0x92C JUMP JUMPDEST SWAP2 POP POP SWAP3 SWAP2 POP POP JUMP JUMPDEST PUSH0 PUSH2 0x975 DUP3 PUSH2 0x8E6 JUMP JUMPDEST SWAP1 POP SWAP2 SWAP1 POP JUMP JUMPDEST PUSH2 0x985 DUP2 PUSH2 0x96B JUMP JUMPDEST DUP3 MSTORE POP POP JUMP JUMPDEST PUSH0 PUSH1 0x20 DUP3 ADD SWAP1 POP PUSH2 0x99E PUSH0 DUP4 ADD DUP5 PUSH2 0x97C JUMP JUMPDEST SWAP3 SWAP2 POP POP JUMP JUMPDEST PUSH2 0x9AD DUP2 PUSH2 0x905 JUMP JUMPDEST DUP3 MSTORE POP POP JUMP JUMPDEST PUSH0 PUSH1 0x40 DUP3 ADD SWAP1 POP PUSH2 0x9C6 PUSH0 DUP4 ADD DUP6 PUSH2 0x9A4 JUMP JUMPDEST PUSH2 0x9D3 PUSH1 0x20 DUP4 ADD DUP5 PUSH2 0x8AD JUMP JUMPDEST SWAP4 SWAP3 POP POP POP JUMP JUMPDEST PUSH0 DUP1 REVERT JUMPDEST PUSH0 PUSH1 0x1F NOT PUSH1 0x1F DUP4 ADD AND SWAP1 POP SWAP2 SWAP1 POP JUMP JUMPDEST PUSH32 0x4E487B7100000000000000000000000000000000000000000000000000000000 PUSH0 MSTORE PUSH1 0x41 PUSH1 0x4 MSTORE PUSH1 0x24 PUSH0 REVERT JUMPDEST PUSH2 0xA24 DUP3 PUSH2 0x9DE JUMP JUMPDEST DUP2 ADD DUP2 DUP2 LT PUSH8 0xFFFFFFFFFFFFFFFF DUP3 GT OR ISZERO PUSH2 0xA43 JUMPI PUSH2 0xA42 PUSH2 0x9EE JUMP JUMPDEST JUMPDEST DUP1 PUSH1 0x40 MSTORE POP POP POP JUMP JUMPDEST PUSH0 PUSH2 0xA55 PUSH2 0x8D5 JUMP JUMPDEST SWAP1 POP PUSH2 0xA61 DUP3 DUP3 PUSH2 0xA1B JUMP JUMPDEST SWAP2 SWAP1 POP JUMP JUMPDEST PUSH0 PUSH8 0xFFFFFFFFFFFFFFFF DUP3 GT ISZERO PUSH2 0xA80 JUMPI PUSH2 0xA7F PUSH2 0x9EE JUMP JUMPDEST JUMPDEST PUSH1 0x20 DUP3 MUL SWAP1 POP PUSH1 0x20 DUP2 ADD SWAP1 POP SWAP2 SWAP1 POP JUMP JUMPDEST PUSH0 DUP1 REVERT JUMPDEST PUSH2 0xA9E DUP2 PUSH2 0x96B JUMP JUMPDEST DUP2 EQ PUSH2 0xAA8 JUMPI PUSH0 DUP1 REVERT JUMPDEST POP JUMP JUMPDEST PUSH0 DUP2 CALLDATALOAD SWAP1 POP PUSH2 0xAB9 DUP2 PUSH2 0xA95 JUMP JUMPDEST SWAP3 SWAP2 POP POP JUMP JUMPDEST PUSH0 PUSH2 0xAD1 PUSH2 0xACC DUP5 PUSH2 0xA66 JUMP JUMPDEST PUSH2 0xA4C JUMP JUMPDEST SWAP1 POP DUP1 DUP4 DUP3 MSTORE PUSH1 0x20 DUP3 ADD SWAP1 POP PUSH1 0x20 DUP5 MUL DUP4 ADD DUP6 DUP2 GT ISZERO PUSH2 0xAF4 JUMPI PUSH2 0xAF3 PUSH2 0xA91 JUMP JUMPDEST JUMPDEST DUP4 JUMPDEST DUP2 DUP2 LT ISZERO PUSH2 0xB1D JUMPI DUP1 PUSH2 0xB09 DUP9 DUP3 PUSH2 0xAAB JUMP JUMPDEST DUP5 MSTORE PUSH1 0x20 DUP5 ADD SWAP4 POP POP PUSH1 0x20 DUP2 ADD SWAP1 POP PUSH2 0xAF6 JUMP JUMPDEST POP POP POP SWAP4 SWAP3 POP POP POP JUMP JUMPDEST PUSH0 DUP3 PUSH1 0x1F DUP4 ADD SLT PUSH2 0xB3B JUMPI PUSH2 0xB3A PUSH2 0x9DA JUMP JUMPDEST JUMPDEST DUP2 CALLDATALOAD PUSH2 0xB4B DUP5 DUP3 PUSH1 0x20 DUP7 ADD PUSH2 0xABF JUMP JUMPDEST SWAP2 POP POP SWAP3 SWAP2 POP POP JUMP JUMPDEST PUSH0 PUSH1 0x20 DUP3 DUP5 SUB SLT ISZERO PUSH2 0xB69 JUMPI PUSH2 0xB68 PUSH2 0x8DE JUMP JUMPDEST JUMPDEST PUSH0 DUP3 ADD CALLDATALOAD PUSH8 0xFFFFFFFFFFFFFFFF DUP2 GT ISZERO PUSH2 0xB86 JUMPI PUSH2 0xB85 PUSH2 0x8E2 JUMP JUMPDEST JUMPDEST PUSH2 0xB92 DUP5 DUP3 DUP6 ADD PUSH2 0xB27 JUMP JUMPDEST SWAP2 POP POP SWAP3 SWAP2 POP POP JUMP JUMPDEST PUSH0 DUP2 MLOAD SWAP1 POP SWAP2 SWAP1 POP JUMP JUMPDEST PUSH0 DUP3 DUP3 MSTORE PUSH1 0x20 DUP3 ADD SWAP1 POP SWAP3 SWAP2 POP POP JUMP JUMPDEST PUSH0 DUP2 SWAP1 POP PUSH1 0x20 DUP3 ADD SWAP1 POP SWAP2 SWAP1 POP JUMP JUMPDEST PUSH2 0xBCD DUP2 PUSH2 0x905 JUMP JUMPDEST DUP3 MSTORE POP POP JUMP JUMPDEST PUSH0 PUSH2 0xBDE DUP4 DUP4 PUSH2 0xBC4 JUMP JUMPDEST PUSH1 0x20 DUP4 ADD SWAP1 POP SWAP3 SWAP2 POP POP JUMP JUMPDEST PUSH0 PUSH1 0x20 DUP3 ADD SWAP1 POP SWAP2 SWAP1 POP JUMP JUMPDEST PUSH0 PUSH2 0xC00 DUP3 PUSH2 0xB9B JUMP JUMPDEST PUSH2 0xC0A DUP2 DUP6 PUSH2 0xBA5 JUMP JUMPDEST SWAP4 POP PUSH2 0xC15 DUP4 PUSH2 0xBB5 JUMP JUMPDEST DUP1 PUSH0 JUMPDEST DUP4 DUP2 LT ISZERO PUSH2 0xC45 JUMPI DUP2 MLOAD PUSH2 0xC2C DUP9 DUP3 PUSH2 0xBD3 JUMP JUMPDEST SWAP8 POP PUSH2 0xC37 DUP4 PUSH2 0xBEA JUMP JUMPDEST SWAP3 POP POP PUSH1 0x1 DUP2 ADD SWAP1 POP PUSH2 0xC18 JUMP JUMPDEST POP DUP6 SWAP4 POP POP POP POP SWAP3 SWAP2 POP POP JUMP JUMPDEST PUSH0 DUP2 MLOAD SWAP1 POP SWAP2 SWAP1 POP JUMP JUMPDEST PUSH0 DUP3 DUP3 MSTORE PUSH1 0x20 DUP3 ADD SWAP1 POP SWAP3 SWAP2 POP POP JUMP JUMPDEST PUSH0 DUP2 SWAP1 POP PUSH1 0x20 DUP3 ADD SWAP1 POP SWAP2 SWAP1 POP JUMP JUMPDEST PUSH2 0xC84 DUP2 PUSH2 0x8A4 JUMP JUMPDEST DUP3 MSTORE POP POP JUMP JUMPDEST PUSH0 PUSH2 0xC95 DUP4 DUP4 PUSH2 0xC7B JUMP JUMPDEST PUSH1 0x20 DUP4 ADD SWAP1 POP SWAP3 SWAP2 POP POP JUMP JUMPDEST PUSH0 PUSH1 0x20 DUP3 ADD SWAP1 POP SWAP2 SWAP1 POP JUMP JUMPDEST PUSH0 PUSH2 0xCB7 DUP3 PUSH2 0xC52 JUMP JUMPDEST PUSH2 0xCC1 DUP2 DUP6 PUSH2 0xC5C JUMP JUMPDEST SWAP4 POP PUSH2 0xCCC DUP4 PUSH2 0xC6C JUMP JUMPDEST DUP1 PUSH0 JUMPDEST DUP4 DUP2 LT ISZERO PUSH2 0xCFC JUMPI DUP2 MLOAD PUSH2 0xCE3 DUP9 DUP3 PUSH2 0xC8A JUMP JUMPDEST SWAP8 POP PUSH2 0xCEE DUP4 PUSH2 0xCA1 JUMP JUMPDEST SWAP3 POP POP PUSH1 0x1 DUP2 ADD SWAP1 POP PUSH2 0xCCF JUMP JUMPDEST POP DUP6 SWAP4 POP POP POP POP SWAP3 SWAP2 POP POP JUMP JUMPDEST PUSH0 PUSH1 0x40 DUP3 ADD SWAP1 POP DUP2 DUP2 SUB PUSH0 DUP4 ADD MSTORE PUSH2 0xD21 DUP2 DUP6 PUSH2 0xBF6 JUMP JUMPDEST SWAP1 POP DUP2 DUP2 SUB PUSH1 0x20 DUP4 ADD MSTORE PUSH2 0xD35 DUP2 DUP5 PUSH2 0xCAD JUMP JUMPDEST SWAP1 POP SWAP4 SWAP3 POP POP POP JUMP JUMPDEST PUSH0 DUP3 DUP3 MSTORE PUSH1 0x20 DUP3 ADD SWAP1 POP SWAP3 SWAP2 POP POP JUMP JUMPDEST PUSH32 0x41756374696F6E2068617320656E646564000000000000000000000000000000 PUSH0 DUP3 ADD MSTORE POP JUMP JUMPDEST PUSH0 PUSH2 0xD82 PUSH1 0x11 DUP4 PUSH2 0xD3E JUMP JUMPDEST SWAP2 POP PUSH2 0xD8D DUP3 PUSH2 0xD4E JUMP JUMPDEST PUSH1 0x20 DUP3 ADD SWAP1 POP SWAP2 SWAP1 POP JUMP JUMPDEST PUSH0 PUSH1 0x20 DUP3 ADD SWAP1 POP DUP2 DUP2 SUB PUSH0 DUP4 ADD MSTORE PUSH2 0xDAF DUP2 PUSH2 0xD76 JUMP JUMPDEST SWAP1 POP SWAP2 SWAP1 POP JUMP JUMPDEST PUSH32 0x4E487B7100000000000000000000000000000000000000000000000000000000 PUSH0 MSTORE PUSH1 0x11 PUSH1 0x4 MSTORE PUSH1 0x24 PUSH0 REVERT JUMPDEST PUSH0 PUSH2 0xDED DUP3 PUSH2 0x8A4 JUMP JUMPDEST SWAP2 POP PUSH2 0xDF8 DUP4 PUSH2 0x8A4 JUMP JUMPDEST SWAP3 POP DUP3 DUP3 ADD SWAP1 POP DUP1 DUP3 GT ISZERO PUSH2 0xE10 JUMPI PUSH2 0xE0F PUSH2 0xDB6 JUMP JUMPDEST JUMPDEST SWAP3 SWAP2 POP POP JUMP JUMPDEST PUSH0 PUSH2 0xE20 DUP3 PUSH2 0x8A4 JUMP JUMPDEST SWAP2 POP PUSH2 0xE2B DUP4 PUSH2 0x8A4 JUMP JUMPDEST SWAP3 POP DUP3 DUP3 MUL PUSH2 0xE39 DUP2 PUSH2 0x8A4 JUMP JUMPDEST SWAP2 POP DUP3 DUP3 DIV DUP5 EQ DUP4 ISZERO OR PUSH2 0xE50 JUMPI PUSH2 0xE4F PUSH2 0xDB6 JUMP JUMPDEST JUMPDEST POP SWAP3 SWAP2 POP POP JUMP JUMPDEST PUSH32 0x4E487B7100000000000000000000000000000000000000000000000000000000 PUSH0 MSTORE PUSH1 0x12 PUSH1 0x4 MSTORE PUSH1 0x24 PUSH0 REVERT JUMPDEST PUSH0 PUSH2 0xE8E DUP3 PUSH2 0x8A4 JUMP JUMPDEST SWAP2 POP PUSH2 0xE99 DUP4 PUSH2 0x8A4 JUMP JUMPDEST SWAP3 POP DUP3 PUSH2 0xEA9 JUMPI PUSH2 0xEA8 PUSH2 0xE57 JUMP JUMPDEST JUMPDEST DUP3 DUP3 DIV SWAP1 POP SWAP3 SWAP2 POP POP JUMP JUMPDEST PUSH32 0x42696420746F6F206C6F77000000000000000000000000000000000000000000 PUSH0 DUP3 ADD MSTORE POP JUMP JUMPDEST PUSH0 PUSH2 0xEE8 PUSH1 0xB DUP4 PUSH2 0xD3E JUMP JUMPDEST SWAP2 POP PUSH2 0xEF3 DUP3 PUSH2 0xEB4 JUMP JUMPDEST PUSH1 0x20 DUP3 ADD SWAP1 POP SWAP2 SWAP1 POP JUMP JUMPDEST PUSH0 PUSH1 0x20 DUP3 ADD SWAP1 POP DUP2 DUP2 SUB PUSH0 DUP4 ADD MSTORE PUSH2 0xF15 DUP2 PUSH2 0xEDC JUMP JUMPDEST SWAP1 POP SWAP2 SWAP1 POP JUMP JUMPDEST PUSH0 PUSH1 0x40 DUP3 ADD SWAP1 POP PUSH2 0xF2F PUSH0 DUP4 ADD DUP6 PUSH2 0x8AD JUMP JUMPDEST PUSH2 0xF3C PUSH1 0x20 DUP4 ADD DUP5 PUSH2 0x8AD JUMP JUMPDEST SWAP4 SWAP3 POP POP POP JUMP JUMPDEST PUSH32 0x4F6E6C79206F776E65722063616E2063616C6C20746869732066756E6374696F PUSH0 DUP3 ADD MSTORE PUSH32 0x6E00000000000000000000000000000000000000000000000000000000000000 PUSH1 0x20 DUP3 ADD MSTORE POP JUMP JUMPDEST PUSH0 PUSH2 0xF9D PUSH1 0x21 DUP4 PUSH2 0xD3E JUMP JUMPDEST SWAP2 POP PUSH2 0xFA8 DUP3 PUSH2 0xF43 JUMP JUMPDEST PUSH1 0x40 DUP3 ADD SWAP1 POP SWAP2 SWAP1 POP JUMP JUMPDEST PUSH0 PUSH1 0x20 DUP3 ADD SWAP1 POP DUP2 DUP2 SUB PUSH0 DUP4 ADD MSTORE PUSH2 0xFCA DUP2 PUSH2 0xF91 JUMP JUMPDEST SWAP1 POP SWAP2 SWAP1 POP JUMP JUMPDEST PUSH32 0x41756374696F6E20686173206E6F7420656E6465640000000000000000000000 PUSH0 DUP3 ADD MSTORE POP JUMP JUMPDEST PUSH0 PUSH2 0x1005 PUSH1 0x15 DUP4 PUSH2 0xD3E JUMP JUMPDEST SWAP2 POP PUSH2 0x1010 DUP3 PUSH2 0xFD1 JUMP JUMPDEST PUSH1 0x20 DUP3 ADD SWAP1 POP SWAP2 SWAP1 POP JUMP JUMPDEST PUSH0 PUSH1 0x20 DUP3 ADD SWAP1 POP DUP2 DUP2 SUB PUSH0 DUP4 ADD MSTORE PUSH2 0x1032 DUP2 PUSH2 0xFF9 JUMP JUMPDEST SWAP1 POP SWAP2 SWAP1 POP JUMP JUMPDEST PUSH32 0x4E487B7100000000000000000000000000000000000000000000000000000000 PUSH0 MSTORE PUSH1 0x32 PUSH1 0x4 MSTORE PUSH1 0x24 PUSH0 REVERT JUMPDEST PUSH0 PUSH2 0x1070 DUP3 PUSH2 0x8A4 JUMP JUMPDEST SWAP2 POP PUSH2 0x107B DUP4 PUSH2 0x8A4 JUMP JUMPDEST SWAP3 POP DUP3 DUP3 SUB SWAP1 POP DUP2 DUP2 GT ISZERO PUSH2 0x1093 JUMPI PUSH2 0x1092 PUSH2 0xDB6 JUMP JUMPDEST JUMPDEST SWAP3 SWAP2 POP POP JUMP INVALID LOG2 PUSH5 0x6970667358 0x22 SLT KECCAK256 GASLIMIT 0xE1 CREATE SELFBALANCE PUSH7 0x20185C7C87ECCE 0xB4 0xD0 SLT 0xD5 CREATE2 TSTORE 0xC2 CODECOPY 0xB3 GASLIMIT PUSH28 0x62DBAA6C1AD7E0CF9B64736F6C634300081900330000000000000000 "
				},
				"gasEstimates": {
					"creation": {
						"codeDepositCost": "860600",
						"executionCost": "infinite",
						"totalCost": "infinite"
					},
					"external": {
						"bid()": "infinite",
						"bids(address)": "2847",
						"endTime()": "2448",
						"getBids()": "infinite",
						"getWinner()": "4817",
						"highestBid()": "2513",
						"highestBidder()": "2508",
						"minimumIncrease()": "2535",
						"owner()": "2572",
						"withdrawBids(address[])": "infinite",
						"withdrawExcess()": "infinite"
					}
				},
				"methodIdentifiers": {
					"bid()": "1998aeef",
					"bids(address)": "62ea82db",
					"endTime()": "3197cbb6",
					"getBids()": "b81c78ec",
					"getWinner()": "8e7ea5b2",
					"highestBid()": "d57bde79",
					"highestBidder()": "91f90157",
					"minimumIncrease()": "e627599c",
					"owner()": "8da5cb5b",
					"withdrawBids(address[])": "a6722663",
					"withdrawExcess()": "c264a063"
				}
			},
			"storageLayout": {
				"storage": [
					{
						"astId": 3,
						"contract": "contracts/000-bid-contract.sol:Auction",
						"label": "owner",
						"offset": 0,
						"slot": "0",
						"type": "t_address_payable"
					},
					{
						"astId": 5,
						"contract": "contracts/000-bid-contract.sol:Auction",
						"label": "endTime",
						"offset": 0,
						"slot": "1",
						"type": "t_uint256"
					},
					{
						"astId": 7,
						"contract": "contracts/000-bid-contract.sol:Auction",
						"label": "highestBidder",
						"offset": 0,
						"slot": "2",
						"type": "t_address_payable"
					},
					{
						"astId": 9,
						"contract": "contracts/000-bid-contract.sol:Auction",
						"label": "highestBid",
						"offset": 0,
						"slot": "3",
						"type": "t_uint256"
					},
					{
						"astId": 13,
						"contract": "contracts/000-bid-contract.sol:Auction",
						"label": "bids",
						"offset": 0,
						"slot": "4",
						"type": "t_mapping(t_address,t_uint256)"
					},
					{
						"astId": 16,
						"contract": "contracts/000-bid-contract.sol:Auction",
						"label": "minimumIncrease",
						"offset": 0,
						"slot": "5",
						"type": "t_uint256"
					}
				],
				"types": {
					"t_address": {
						"encoding": "inplace",
						"label": "address",
						"numberOfBytes": "20"
					},
					"t_address_payable": {
						"encoding": "inplace",
						"label": "address payable",
						"numberOfBytes": "20"
					},
					"t_mapping(t_address,t_uint256)": {
						"encoding": "mapping",
						"key": "t_address",
						"label": "mapping(address => uint256)",
						"numberOfBytes": "32",
						"value": "t_uint256"
					},
					"t_uint256": {
						"encoding": "inplace",
						"label": "uint256",
						"numberOfBytes": "32"
					}
				}
			},
			"userdoc": {
				"kind": "user",
				"methods": {},
				"version": 1
			}
		}
	}
}